:020000040800F2
:10000000205000204D030008EB5800084547000829
:10001000E9580008811000086D6500080000000024
:100020000000000000000000000000008D02000839
:10003000F519000800000000E90200080D5F000843
:1000400067030008670300086703000867030008E8
:1000500067030008670300086703000867030008D8
:1000600067030008670300086703000867030008C8
:1000700067030008670300086703000867030008B8
:1000800067030008670300086703000867030008A8
:10009000851000086703000867030008670300086D
:1000A0006703000867030008670300086703000888
:1000B0006703000867030008670300086703000878
:1000C0006703000867030008670300086703000868
:1000D000670300084165000867030008670300081C
:1000E0006703000867030008670300086703000848
:1000F0006703000867030008670300086703000838
:100100006703000867030008670300086703000827
:100110006703000867030008DD5F00086703000845
:100120006703000867030008F91700086703000861
:1001300067030008670300086703000867030008F7
:1001400049110008670300086703000867030008F7
:1001500067030008670300086703000867030008D7
:1001600067030008670300086703000867030008C7
:100170006703000867030008670300080000000029
:1001800067030008670300086703000867030008A7
:100190006703000867030008670300086703000897
:1001A00000000000000000006703000800F002F8F3
:1001B00000F05CF80AA090E8000C82448344AAF1A5
:1001C0000107DA4501D100F051F8AFF2090EBAE8A3
:1001D0000F0013F0010F18BFFB1A43F0010318477B
:1001E00088AC0000A8AC00000A444FF0000C10F8E6
:1001F000013B13F0070408BF10F8014B1D1108BFA5
:1002000010F8015B641E05D010F8016B641E01F844
:10021000016BF9D113F0080F1EBF10F8014BAD1C94
:100220000C1B09D16D1E58BF01F801CBFAD505E0B2
:1002300014F8016B01F8016B6D1EF9D59142D6D30C
:10024000704700000023002400250026103A28BF34
:1002500078C1FBD8520728BF30C148BF0B60704738
:100260001FB50AF07CFB1FBD10B510BD00F0BAF938
:100270001146FFF7F5FF08F09FFA00F0D8F903B434
:10028000FFF7F2FF03BC00F0DBF900002C4B19680C
:100290000868B0E8F04F80F30988BFF36F8F4FF024
:1002A000000080F3118870470000000008480068D3
:1002B000006880F308884FF0000080F3148862B66D
:1002C00061B6BFF34F8FBFF36F8F00DF00BF00BF7A
:1002D00008ED00E0DFF80C00016841F470010160F6
:1002E000704700BF88ED00E0EFF30980BFF36F8F28
:1002F000134B1A681EF0100F08BF20ED108A20E97A
:10030000F04F106009B44FF0500080F31188BFF334
:100310004F8FBFF36F8F08F0BFFF4FF0000080F3E7
:10032000118809BC19680868B0E8F04F1EF0100F7A
:1003300008BFB0EC108A80F30988BFF36F8F704755
:1003400038000020EFF3058070470000094880471F
:1003500009480047FEE7FEE7FEE7FEE7FEE7FEE7A7
:10036000FEE7FEE7FEE7FEE704480549054A064BBF
:1003700070470000CD5F0008AD010008204A002052
:1003800020500020204C0020204C002053EA020C7A
:1003900000F069802DE9F04B4FF00006002B1FBFE5
:1003A000B3FA83F503FA05F424FA05F65E4012BFAA
:1003B0001643B2FA82F502FA05F4C5F120051EBF14
:1003C00022FA05FC44EA0C04203556EA044C4FEAB4
:1003D000144418BF641C4FF000084FF0000990420D
:1003E00071EB030C39D3002919BFB1FA81F701FA77
:1003F00007F6B0FA80F700FA07F6C7F120071EBF2C
:1004000020FA07FC46EA0C062037B6FBF4FCA7EB03
:100410000507103F07F01F0BCBF120060CFA0BFB72
:100420002CFA06F644BFB3460026202FA4BF5E4632
:100430004FF0000B5BEA060C08BF4FF0010B19EB05
:100440000B09ABFB027C48EB0608C01B06FB02CC89
:100450000BFB03CC71EB0C01C1E70B460246414696
:100460004846BDE8F08B13B54FF000004FF0000197
:10047000AFF30080BDE81C407047032A40F2308093
:1004800010F0030C00F0158011F8013BBCF1020FD5
:10049000624498BF11F801CB00F8013B38BF11F856
:1004A000013BA2F1040298BF00F801CB38BF00F86D
:1004B000013B11F0030300F02580083AC0F00880EA
:1004C00051F8043B083A51F804CBA0E80810F5E7CE
:1004D000121D5CBF51F8043B40F8043BAFF30080B1
:1004E000D20724BF11F8013B11F801CB48BF11F826
:1004F000012B24BF00F8013B00F801CB48BF00F8F6
:10050000012B704710B5203AC0F00B80B1E81850AD
:10051000203AA0E81850B1E81850A0E81850BFF4ED
:10052000F5AF5FEA027C24BFB1E81850A0E818508C
:1005300044BF18C918C0BDE810405FEA827C24BFE0
:1005400051F8043B40F8043B08BF7047D20728BF6E
:1005500031F8023B48BF11F8012B28BF20F8023BBD
:1005600048BF00F8012B70474FF0000200B513465A
:1005700094469646203922BFA0E80C50A0E80C50C3
:10058000B1F12001BFF4F7AF090728BFA0E80C5074
:1005900048BF0CC05DF804EB890028BF40F8042B6D
:1005A00008BF704748BF20F8022B11F0804F18BFDA
:1005B00000F8012B704770477047704710B500F086
:1005C00009F8006810BD10B5044600F003F8046097
:1005D00010BD000000487047C04900200048704727
:1005E000C04900207546FFF7F9FFAE460500694691
:1005F000534620F00700854618B020B5FFF7B4FE3B
:10060000BDE820404FF000064FF000074FF0000813
:100610004FF0000B21F00701AC46ACE8C009ACE894
:10062000C009ACE8C009ACE8C0098D46704710B5F8
:100630000446AFF300802046BDE81040FFF71FBE20
:1006400001491820ABBEFEE72600020070470000FB
:1006500010B52DED108BB0EE008ADFEDFECAFE4C1A
:10066000FE4894ED010AD4ED010A60EE20FA94ED03
:10067000010AD4ED020A20EE20CA94ED010AD4ED5D
:10068000030A60EE20BA94ED010AD4ED040A20EECC
:1006900020DA94ED020AD4ED020A60EE20DA94ED3D
:1006A000020AD4ED030A20EE209A94ED020AD4ED5A
:1006B000040A20EE20BA94ED030AD4ED030A60EE9A
:1006C00020AA94ED030AD4ED040A20EE20AA94EDAA
:1006D000040AD4ED040A60EE209A90ED060A84ED37
:1006E000080A90ED050A84ED090A90ED040A84EDEC
:1006F0000A0AB0F9001000EE101AB8EEC00A84ED34
:100700000B0AB0F9021000EE101AB8EEC00A84ED20
:100710000C0AB0F9041000EE101AB8EEC00A84ED0D
:100720000D0AB0F9061000EE101AB8EEC00A84EDFA
:100730000E0AB0F9081000EE101AB8EEC00A84EDE7
:100740000F0AB0F90A0000EE100AB8EEC00A84EDF4
:10075000100A02F047FCA064A06C616C401A00EE25
:10076000100AB8EE400ADFEDBE0AA06CC0EE208A87
:10077000606494ED0B0AD4ED0B0A94ED0C1A20EE94
:10078000200AD4ED0C0A00EE810AD4ED0D0A94ED96
:100790000D1A00EE810A07F0F9FFD4ED0B0A60EEA6
:1007A000800AC4ED0B0AD4ED0C0A60EE800AC4ED99
:1007B0000C0AD4ED0D0A20EE800A84ED0D0A9FED9F
:1007C000A90AB6EE001A84ED0E0A84ED0F0A84ED34
:1007D000100A71EE6A0A94ED0E0A39EE4DFA7BEEBC
:1007E0002B1A20EE080A70EEE9EA31EE6D1A60EE7F
:1007F0002E0A94ED0F0A31EE692A31EE6AEA20EEF4
:10080000080A40EE0F0A94ED100A20EE080A40EEA6
:10081000210A94ED0E0A79EE0D1A3BEE6BDA20EE0A
:10082000080A60EEA00A20EE210AD4ED0F1A61EE4C
:10083000881A01EE820AD4ED101A3AEE4C2A61EEC3
:10084000881A01EE820AD4ED0E1A3AEE0C2A61EEF5
:10085000881A40EE000A21EE8D9AD4ED0F1A10EEA0
:10086000900A61EE881A01EE829AD4ED101A61EEB8
:10087000881A01EE8E9A0AF001F841EC100B07F08D
:1008800043FA51EC100B09F0F3F901EE100A3CEEBB
:100890000A3A69EE083A21EE082A7FEEED0A23EEC5
:1008A000080A94ED104A62EE0F1A70EEEA0A22EE80
:1008B0002E1A6DEE082A43EE831A3BEE8B3A70EE49
:1008C000A90A03EE8D1A22EE032A94ED0C3A03EEE8
:1008D0008E2A23EE203AD4ED0D3A03EEC03AD4ED41
:1008E0000F3A63EE823A44EE613A94ED0B4A33EEEE
:1008F000233AD4ED0D3A63EEA23AB5EEC03A44EE97
:10090000603AD4ED100A94ED0E4A60EE810A44EE8E
:10091000420A94ED0B2A22EE000A94ED0C2A73EEA3
:10092000A00A02EE620A94ED0E2A62EE211A94EDFC
:100930000F2A42EE411A30EE210AF1EE10FA3FD0B2
:10094000F5EEC00AF1EE10FA3AD0B5EEC00AF1EEBB
:1009500010FA35D063EE2C1A94ED051A01EEA81AA0
:1009600060EEAC1A84ED051A94ED061A01EEA81A91
:1009700060EE2C1A84ED061A94ED071A01EEA81AFF
:1009800084ED071A94ED081AD4ED051A08EE031A3F
:1009900031EE211A84ED081A94ED091A08EE201A96
:1009A000D4ED060A71EE200AC4ED090AD4ED0A0A54
:1009B00048EE000A94ED070A30EE800A84ED0A0A38
:1009C00094ED020AD4ED080A94ED091A94ED01AAF7
:1009D00020EEC00AD4ED030A94ED028A94ED039A46
:1009E00000EEC10AD4ED040A94ED0A1A00EEC10A21
:1009F000D4ED080A94ED0A1A00EE28AA94ED010A33
:100A000020EE200AD4ED030A00EE810AD4ED040A98
:100A100094ED091A00EEC10AD4ED090A94ED0A1A00
:100A200000EE288A94ED010A20EE200AD4ED020A95
:100A300000EEC10AD4ED040A94ED081A00EE810A12
:100A4000D4ED0A0A00EE289A94ED010A20EE200A5D
:100A50000AE000000AD7233C1C030020B046002017
:100A60000000FA4400000000D4ED020A94ED091AD7
:100A7000D4ED049A00EE810AD4ED030A94ED081A2D
:100A800000EEC10A40EE289A2AEE0A0A08EE080A89
:100A900009EE090A09EEA90A07F078FE6AEE000AD3
:100AA000C4ED010A68EE000AC4ED020A69EE000A0C
:100AB00029EE800AC4ED030A84ED040ABDEC108B14
:100AC00010BD000070B55F4C2DED0A8BF8EE008A6A
:100AD000B0EE008AB7EE00CA94ED030AD4ED030A23
:100AE00094ED041A20EE280A20EE200AD4ED040A20
:100AF00060EE880A00EEC10A30EE0C0A10EE100A11
:100B000009F0BCFE94ED020AD4ED030A94ED041A38
:100B100020EE080A41EC190B20EE200AD4ED010A60
:100B200060EE880A00EE810A10EE100A09F0A6FEB7
:100B300041EC100BB0EE491AF0EE691A06F018F904
:100B40009FED41BB51EC100B53EC1B2B09F0A0FBAC
:100B50009FED3FAB53EC1A2B09F0CEFC09F088F85F
:100B60003D4D686394ED020AD4ED040A94ED031A36
:100B700020EE280A20EE200AD4ED010A60EE880A51
:100B800000EE810A10EE100A09F078FE41EC100B1D
:100B900005F03AFD53EC1B2B51EC100B09F078FBE0
:100BA00053EC1A2B09F0A8FC09F062F8A86394ED45
:100BB000020AD4ED020A94ED031A20EE280A20EE70
:100BC000200AD4ED030A60EE880A00EEC10A30EE76
:100BD0000C0A10EE100A09F051FE94ED030AD4ED50
:100BE000040A94ED021A20EE080A41EC190B20EEDB
:100BF000200AD4ED010A60EE880A00EE810A10EEA8
:100C0000100A09F03BFE41EC100BB0EE491AF0EE71
:100C1000691A06F0ADF853EC1B2B51EC100B09F0E0
:100C200037FB53EC1A2B09F055F809F021F8E8636B
:100C300005F15401BDEC0A8B2846BDE8704000F078
:100C400047B800001C0300206666666666A64C4036
:100C50000000000000806640B0460020034890F885
:100C60002A1001B1012180F82B10704704470020A1
:100C700030B585B0642002F083F8002414221249B4
:100C80006846FFF73FFC6D4605EB4400417815F8D8
:100C9000140000F0CBF9012002F072F8641CE4B2F9
:100CA0000A2CF1D318211B2000F0C0F910211C20C0
:100CB00000F0BCF903F04EFF0449012081F829003F
:100CC00005B0002030BD00006CAA000804470020D9
:100CD0002DE9F041DFF8C4800F462DED028B06466A
:100CE00090ED030A9FED2E8A81ED090A0025F1EEB1
:100CF000088A00BF06EB850407EB850194ED0D0A19
:100D000081ED000A94ED0D0AD4ED100A30EE600A70
:100D100010EE100A404505D906EB450030F84C3F6F
:100D20005B1C038094ED100AD4ED0D0A30EE600ACE
:100D300010EE100A404505D906EB450232F84C0F7B
:100D4000401E108006EB4500D4ED0D0AB0F84C00B3
:100D50004FF4B47210FB02F000EE100A04F11C0014
:100D6000B8EEC00A30EE800A81ED060A94ED0D0A55
:100D70000C3184ED100AB7EE000A00F03EFED4ED0F
:100D8000070A6D1C032D80EE880AC0EE280AC4ED08
:100D9000070AAFDBBDEC028BBDE8F081000096C313
:100DA0006F12834110B50E2243493B2000F0DCF85E
:100DB0004149883181F82A003F4800F11004018838
:100DC00049BA2180418849BA6180818849BAA180A5
:100DD000C18849BAA1810189628B49BA891A6182A5
:100DE0004189A28B49BA891A21828089E18B40BA54
:100DF000401AE08131490622492000F0B5F82F4918
:100E00002D484C399FED2E1ACA6CC0F81620B1F847
:100E10005010418301694163416981638169C16304
:100E2000B4F90C0000EE100A04F12400F8EEC00A38
:100E300080EE810AF3EE050A30EE200A80ED030A07
:100E4000B4F9121000EE101AF8EEC00A9FED1D0A58
:100E500080EE801ADFED1C0AC1EE201AC0ED061AE2
:100E6000B4F9102001EE102AF8EEC11A81EE801AB2
:100E7000C1EE201AC0ED051AB4F90E3001EE103A99
:100E8000F8EEC11A81EE801A81EE200A80ED040A84
:100E900000EE101AB8EEC00A80ED090A00EE102A22
:100EA000B8EEC00A80ED080A00EE103AB8EEC00AAB
:100EB00080ED070A10BD00007C460020680300207A
:100EC0005CEFA6436F1283413333654270B50E4623
:100ED000044601461546282000F0A8F8022001F03B
:100EE0004FFF0A21292000F0A1F8022001F048FF5D
:100EF0000121642000F09AF8022001F041FF44F043
:100F00008001252000F092F8022001F039FF3146DF
:100F1000262000F08BF8022001F032FF032134205C
:100F200000F084F8022001F02BFF0321672000F07D
:100F30007DF8022001F024FF81212A2000F076F8BC
:100F4000062001F01DFF45F08001272000F06EF81B
:100F5000BDE87040022001F013BF10B5FFF788FE16
:100F6000BDE8104004F000BDF8B5144F15460E461C
:100F7000044600224021384602F02EF8104944F081
:100F80008000372408705231A1F15102087001230A
:100F900052390C48009402F017FF09492B4632469B
:100FA00052310848009402F00FFF0446012240210C
:100FB000384602F011F82046F8BD00000014024047
:100FC0001C030020FC06002010B50021094A0C4635
:100FD00002EB810393ED0D0A83ED100A00EB810310
:100FE00083ED060A02EB4103491CA3F84C40032998
:100FF000EEDB10BDB046002010B509490A48094C87
:101000004B6A00220068A34205DA41F2873383630A
:1010100081F8282010BD012381F82830826310BD9B
:10102000044700200000484254070020F8B5114F43
:101030000E46044600224021384601F0CDFF04F060
:101040007F000D4C3725621C20700123511E0B4878
:10105000009502F0B9FE2670621C0123511E07485C
:10106000009502F0B1FE01224021384601F0B4FFA4
:101070000020F8BD001402401C030020FC060020E4
:10108000FEE70000064800684069800706D505486D
:10109000012243680448016801481847704700006E
:1010A00058060020D4030020180000208EB0204EE7
:1010B000204D4FF0FF3940F206270DF124084A4633
:1010C00005A9B06908F038FB059CBC4206D1142282
:1010D00041466846FFF716FA17481EE0A4F500706F
:1010E000113809D0103003280DD814224146684623
:1010F000FFF708FA114810E0142241466846FFF74E
:1011000001FA0F4809E0A4F500710B390CD1142243
:1011100041466846FFF7F6F90A48DDE90612D0F8BD
:1011200000C02046089BE0476888401C6880C6E7EE
:1011300000000020F8030020AC0300207C03002006
:10114000B803002094030020064800684069800727
:1011500006D505480222436804480168014818473B
:101160007047000080060020D40300201C000020EF
:101170008EB0194E194D4FF0FF3940F201270DF195
:1011800024084A4605A9F06908F0D6FA059CBC4235
:1011900008D0A4F50071023904D0A4F500710A3911
:1011A00009D015E0142241466846FFF7ABF90C4818
:1011B000D0F808C007E0142241466846FFF7A2F9BC
:1011C0000848D0F804C0DDE906122046089BE04735
:1011D0006888401C6880D4E700000020FE030020DF
:1011E0007C030020940300203EB50D0A069C8DF878
:1011F00004508DF80510110A8DF80610190A8DF8A3
:1012000008108DF80930210A8DF80A1001A9009103
:10121000014606488DF807208DF80B4040F2FF1379
:101220000022006800F0B4F83EBD0000200000205D
:101230003EB50D0A069C8DF804508DF80510110A74
:101240008DF80610190A8DF808108DF80930210A5A
:101250008DF80A1001A90091014606488DF8072073
:101260008DF80B404FF400730022006800F090F8F6
:101270003EBD0000200000200EB50A0A8DF80420B3
:101280008DF8051001A90091014604484FF404733C
:101290000022006800F07CF80EBD00002000002055
:1012A0003EB50D0A069C8DF804508DF80510110A04
:1012B0008DF80610190A8DF808108DF80930210AEA
:1012C0008DF80A1001A90091014606488DF8072003
:1012D0008DF80B4040F2FF230022006800F058F820
:1012E0003EBD00002000002010B50446491EC8B2D3
:1012F00000EB400101EB00100D49002201EB8001E1
:1013000001230A614A614A62C1E906230A604A6010
:101310008A600B622046CA6001F072FA204601F032
:1013200075FC2068416941F00201416110BD000077
:1013300028490020F0B5521E0E46D5B205EB4501F6
:1013400001EB0512114993B001EB820404F128016D
:101350000F460A4604F14403002101F0D7FA05EBD9
:10136000C502684600EB820539461C222846FFF775
:10137000C9F8D4E91101C5E90701002329461A4635
:10138000304608F079F913B0F0BD0000284900207C
:1013900010B58AB00C9C009192B102930021CDE966
:1013A0000321082205928DF81810216807916168C1
:1013B000002308911A46694608F0AEF80AB010BD3D
:1013C0000193EBE78AB0084E6C464FF0FF3707AD4C
:1013D0003A466946306A08F0AFF901232A46211DD2
:1013E000009801F09FF9F3E70000002070B5044673
:1013F0002DED068B01688D489FED8D0ADFED8D0A7E
:101400008D4DDFED8E8AB0F90000A0F5B85024387C
:1014100031B101291AD002297ED003297DD1F0E013
:1014200001EE100A8648B8EEC11A21EE000A60EEFD
:10143000200A94ED040A84ED010A94ED050A84ED76
:10144000020A2968B0EE680A8847D7E001EE100A60
:10145000B8EEC11A21EE000A20EE208A18EE100A1A
:1014600009F00CFA41EC100B06F022FBB0EE409AAA
:10147000F0EE609A606909F001FA53EC192B08F05C
:1014800007FF41EC190B18EE100A09F0F7F941ECCF
:10149000100B05F0C5FEB0EE40AAF0EE60AA206980
:1014A00009F0ECF953EC1A2B08F0F2FE53EC192B6F
:1014B00009F0FAF808F0DCFB606018EE100A09F099
:1014C000DDF941EC100B05F0ABFEB0EE401AF0EE8A
:1014D000601AB0EE419AF0EE619A606909F0CEF9B7
:1014E00053EC192B08F0D4FE41EC190B18EE100A3E
:1014F00009F0C4F941EC100B06F0DAFAB0EE40AA9C
:10150000F0EE60AA206909F0B9F953EC1A2B08F043
:10151000BFFE53EC192B01E008E07EE008F0DAFB97
:1015200008F0A6FBA060C4ED038A76E001EE100A85
:10153000B8EEC11A21EE000A20EE208A18EE100A39
:1015400009F09CF941EC100B06F0B2FAB0EE409AAB
:10155000F0EE609A606909F091F953EC192B08F0EC
:1015600097FE41EC190B18EE100A09F087F941ECCF
:10157000100B05F055FEB0EE40AAF0EE60AA20690F
:1015800009F07CF953EC1A2B08F082FE53EC192B6E
:1015900009F08AF808F06CFB606018EE100A09F098
:1015A0006DF941EC100B05F03BFEB0EE409AF0EE09
:1015B000609A606909F062F953EC192B08F068FE33
:1015C00041EC190B18EE100A09F058F941EC100B18
:1015D00006F06EFAB0EE408AF0EE608A206909F0FB
:1015E0004DF953EC182B08F053FE53EC192B08F06F
:1015F00071FB08F03DFBB1EE040AA06084ED030A24
:101600000BE0C4ED018AC4ED028AC4ED038AA96827
:101610000B488847A9680B4888470B484168204613
:10162000BDEC068BBDE8704008470000D84700209D
:101630000000343D35FA8E3CD80200200000000046
:10164000E000002018010020B40000201A490A78A8
:101650001A49012A1BD0002A18D111F82D2FCB7856
:10166000D21A00EE102AF8EEC00A9FED150A60EEBD
:10167000800AC0ED040A8A79497A511A00EE901A5C
:10168000F8EEE00A20EE800A80ED050A7047B1F915
:101690001E304FF4967293FBF2F300EE103AB8EE60
:1016A000C00A80ED040AB1F9201091FBF2F100EEBE
:1016B000101AB8EEC00AE7E7B00000201C46002070
:1016C000CDCC0C4030B50020094A0124034600BFB0
:1016D00052F820104D884DB181F8043052F8201096
:1016E000401CC0B24B800228F2D330BD0C71F5E72C
:1016F000F00300200548B0F85C1021B15FF0000154
:1017000080F85E1070470121FAE700001C460020B7
:1017100004480021028B12B18176018370470122B7
:101720008276FAE7F447002004480021028B12B1C8
:1017300081760183704701228276FAE7D84700203C
:1017400004480021028B12B1817601837047012287
:101750008276FAE71048002030B50020084B0124BB
:10176000024600BFC0EBC00103EB81010D8B2DB120
:101770008A76401C0A830428F4DB30BD8C76F8E7B7
:101780003047002030B50020084B0124024600BF3E
:10179000C0EBC00103EB81010D8B2DB18A76401C9B
:1017A0000A830228F4DB30BD8C76F8E7A0470020DE
:1017B00004480021828A12B181758182704701221A
:1017C0008275FAE72C4800209FED0A0A80ED000A96
:1017D00080ED010A80ED040A80ED030A80ED020A23
:1017E00080ED080A80ED090A80ED0A0A80ED0B0AF7
:1017F00070470000000000007047000001681823D7
:10180000CAB2103AB2FBF3F2054B6FF30901032A97
:101810009B5CC36500D9091D8165084670470000BF
:101820004CAA000810B5014600208B698A6A4FF067
:10183000C07453B1B3F5005F15D072B1012A0CD05A
:10184000022A0AD0032A09D104E01AB1012A06D0DB
:10185000022A03D1C96AC90100D5012010BDC96A95
:10186000A142FAD010BD002AF7D0012AF2D0022AF4
:10187000F3D0032AF3D010BD30B50468256825F4F1
:1018800080252560046863608368402B036803D06B
:1018900099600068C26030BD9A600068C16030BD68
:1018A000F0B500285FD08178C278890941EA8201C9
:1018B00002792D4C41EA8221C1F30A06A6F5806621
:1018C000E68301794279490841EAC211C1F30A0568
:1018D000A5F5806525840188C1F30A03A3F580631B
:1018E000638441788278C90841EA4211C1F30A024F
:1018F000A2F58062A284018AC1F30A01A1F5806188
:1019000021854779BF0984F826704779C7F3011705
:1019100084F82770C788E78207892783077B07B188
:101920000127A776477B07B10127E776C089608545
:1019300000201436282E00D8E0831435282D00D836
:1019400020841433282B00D860841432282A00D82D
:10195000A0841431282900D8208503F0C5FA34F872
:101960005C0F401C2080F0BD1C46002010B50446D2
:10197000806B0068016821F001010160A06B0068C4
:101980004068042802D10748FFF78AFFA16B1620A0
:1019900009684860A06B0068016841F001010160BE
:1019A00010BD00001C46002038B5016800250A68FB
:1019B0004A680092CA6842F40052CA600168CA6864
:1019C00042F01002CA600446094A90F83E002028FE
:1019D0000DD11623A262A38525642168A06B091D81
:1019E00001F0AAF92068416941F04001416138BD28
:1019F0001C460020704772B6FEE790ED001AD1ED4C
:101A0000000A31EE601A40EE010AC1ED000A70478B
:101A1000DFED0A0A9FED0A1A70EE600A10EE900AD6
:101A2000B0F18B4F02DD30EE410A704710EE900AA4
:101A300010F16A5FF9D930EE010A70470020B9450C
:101A400000000046103090EC040A70471FB5064BAA
:101A500004460FCB8DE80F006946204600F092F84F
:101A6000204600F003F81FBD80AA0008114A10B5F7
:101A70001ECA00F1100CB2EE040A8CE81E00002110
:101A8000016241620122816280F82C2080ED0C0A03
:101A90008163C163016441648164C16480F8501052
:101AA000416580F8581080F85910C16580F86010C1
:101AB00010BD000090AA000870B505462DED048BFE
:101AC000B6EE008AB0EE409A90ED061AF0EE480AA3
:101AD00090ED070A41EE410AD0ED041A40EE400AAB
:101AE00021EE800AD0ED051A01EE810A05F040FAD8
:101AF000F0EE408AB0EE490A00F098FA38EEC00ADB
:101B0000002460EE088AB0EE680A05F0EDFBB0EE46
:101B1000408AB0EE680A06F02FF805F11000B1EE29
:101B2000401AD0EC041AB0EE480A00EE904A60EE7B
:101B3000213A20EE024A60EE224A20EE030A40EEED
:101B4000C23A00EE904A00EEA20A40EEC34A00EE0E
:101B5000A14A40EEE23A00EEC20A40EEA14A00EE8F
:101B6000834A41EE433A01EE210A41EE024A01EE78
:101B7000624A85ED070A1035C5EC033ABDEC048BCB
:101B800070BD000070B50D462DED028BF6EE008A9B
:101B900091ED000A9FED268A80ED000A91ED010A81
:101BA0000446B5EEC00AF1EE10FA28D0E86830B36A
:101BB00000F03CFA05F0E0FF20EE280AF0EE000A03
:101BC00005F044FC84ED010A95ED020AB5EEC00A69
:101BD000F1EE10FA16D0E868A0B100F027FA05F08F
:101BE000CBFF20EE280AF0EE000A05F02FFC84ED72
:101BF000020AE868E06094F82C0030B109E084ED56
:101C0000018AE1E784ED028AF3E794ED000A84EDAE
:101C10000C0A94ED000AF2EE040A30EEC00AF0EE6F
:101C2000080A80EE201A84ED0D1ABDEC028B70BDFF
:101C3000FFFF7F7F2DE9F04F04462DED0E8B203006
:101C400083B00025B0EE64AAF0EE43AAB0EE63BA0A
:101C5000F0EE44BAB0EE40CAC0EC031AF0EE60CA2F
:101C600094F82C00B0EE41DA012814D194ED0C0A5E
:101C7000D4ED0D0A00EECA0A84ED0C0AD4ED000A78
:101C8000B4EEE00AF1EE10FA05D2C4ED0C0A84F8C5
:101C90002C5084F8585094ED070AB6EE008AD4ED23
:101CA000040A94ED053A94ED061AF0EE488A23EE04
:101CB000009A50EEA08A61EE009AA94600EEC19A01
:101CC000B0EE621A40EE839A40EE008AF0EE420ACD
:101CD000B0EE610ACA460126D34684F85060F0EEA1
:101CE00041EAB0EE60EAF0EE40DA00F040FAE8BB1C
:101CF000E168606D884211D9D4E90580E1692769FE
:101D0000CDE900012046FFF7B1FEDDE90001656580
:101D1000C4E90601C4E9047884F85860B0EE6E1A8C
:101D2000F0EE4E0AB0EE6D0A00F046FAF0EE682AC8
:101D3000B0EE692AF0EE491A00F0F7F904F1380024
:101D400080EC030A94F82C00012808D000F022FA55
:101D5000D4ED010AB4EEE00AF1EE10FA20D804F155
:101D6000380007C881468A46934600E009E084F8B7
:101D70005050606D0A2801D30A2100E00021401A6A
:101D800060652F460120B84684F85900B0EE6B1A02
:101D9000F0EE4B0AB0EE6A0A00F0E9F918B169E01A
:101DA000606D401CECE784F86050E168E06D2E4601
:101DB000884214D9F0EE6B2AB0EE4B2AF0EE6A1A84
:101DC000B0EE681AF0EE690AB0EE490A00F006F9C2
:101DD0002046FFF771FE0120E66584F86000D4ED2F
:101DE000060A94ED040AD4ED051A94ED071A10EED4
:101DF000008A61EEA0DA20EE81EAF0EE6B2AB0EE06
:101E00004B2A40EE01DA00EE61EA00EEA08AF0EE25
:101E10006A1AB0EE681AF0EE690AB0EE490A00F0EC
:101E200084F900F0C9F9F0EE4E2AB0EE482AF0EE3F
:101E30006D1A00F07AF904F1440080EC030A94F87A
:101E40002C00012808D000F0A5F9D4ED020AB4EE68
:101E5000E00AF1EE10FA7CD8D4E91270656C804685
:101E600084F85960E06D0A2801D30A2100E00021BE
:101E7000401AE065B6EE000A00F0D8F8F0EE401A1D
:101E8000B0EE4D1AF0EE6C0AB0EE4C0A00F08DF98F
:101E9000B0EE409AF0EE608AB0EE418A02EE908A8F
:101EA00002EE107A01EE905A01EE10BA00EE90AAFE
:101EB00000EE109A00F032F9D4ED0C1A00F075F92A
:101EC000F0EE412AB0EE602AF0EE401AB0EE481A69
:101ED000F0EE680AB0EE490A00F020F9D4ED048A69
:101EE00094ED058A94ED069AD4ED079AF0EE4A1A1D
:101EF00000F05BF928EE402A68EE802A68EEA01A0E
:101F000009EE602A49EE012A48EE411A09EEC12A7B
:101F100028EE811A49EEE02A49EE801A08EE201ACE
:101F200078EE220A79EE211A09EE401A38EE820A7A
:101F3000F0EE608AB0EE618A84ED040AC4ED050A11
:101F400039EE811AC4ED061AF0EE409A84ED071AB4
:101F500000E020E029EEA90AB0EE419A08EEA80AB6
:101F600008EE080A09EE090A00F068F829EE801A5E
:101F700068EE800A68EE001A29EE000A84ED041A61
:101F8000C4ED050AC4ED061A84ED070A03B0BDECE2
:101F90000E8BBDE8F08FE06D401C6AE7002110B5A4
:101FA000F0EE434A044604EE101A03EE901A03EED4
:101FB000101AFFF73FFE94F82C0001280AD194F87C
:101FC0005800002806D12046BDE810409FED020AC7
:101FD000FFF772BD10BD00000000000010B52DED30
:101FE000048BF0EE419AB0EE609AF0EE408A00F079
:101FF000ADF800F0FDF8B0EE408AF0EE692AB0EEE0
:10200000492AF0EE681A00F0A1F800F0F1F8F0EEBD
:10201000400AB0EE480A04F0ABFFDFED030ABDEC66
:10202000048B20EE200A10BDE02E6542DFED020A8F
:1020300020EE200A7047000035FA8E3C10EE100AA0
:102040009FED091A0749A1EB600020EE010A00EE9E
:10205000900A20EE201A9FED050A01EE600A20EE9C
:10206000200A704712141F5F12D3363FFF51D83F2A
:1020700010B52DED088BB6EE008AB0EE40AA01EE49
:10208000418A2AEE200AF0EE609AB0EE419AF0EE14
:10209000618A01EE210AF0EE480A49EEE90A04F0ED
:1020A00067FFDFED1BAAB0EE491AF0EE681A20EECA
:1020B0002ABA2AEE010AF0EE000A01EEE90A20EE41
:1020C000200A10EE100A10F1814F02D39FED110A81
:1020D00009E010EE100AB0F17E5F02DB9FED0E0A00
:1020E00001E004F041FC60EE2ABA08EEE88A2AEE2C
:1020F000280A09EE890AF0EE480A04F039FF20EEBA
:102100002A1AB0EE4B0AF0EE6B0ABDEC088B10BD3C
:10211000E02E6542DB0FC9BFDB0FC93F30EE210A5D
:1021200070EE820A31EE221A7047B0EE603A61EE2C
:10213000210A63EE223A40EE620A41EE423A20EE74
:10214000021A03EE611AB0EE630A7047B0EE603A0D
:1021500061EE210A63EE223A40EE620A41EE423A13
:1021600020EE021A03EE611AB0EE630A7047B5EE74
:10217000C00AF1EE10FA0BD1F5EEC00AF1EE10FA3A
:1021800006D1B5EEC01AF1EE10FA01D10120704768
:102190000020704720EE000A60EEA00A21EE011A2E
:1021A00030EE200A30EE010A704720EE210A60EE80
:1021B000A10A21EE211A704710B52DED048BF0EE27
:1021C000418AB0EE608AB0EE409AFFF7E3FFFFF776
:1021D00035FFF0EE401AB0EE681AF0EE480AB0EEA5
:1021E000490ABDEC048BBDE81040FFF7DEBF0000DC
:1021F00060EE001A20EEA02A61EE012A0E4971EE6F
:10220000821A71EEA21ADFED0D2A11EE900A61EE2C
:10221000A21AA1EB600002EE100A61EE822ADFED45
:10222000081A42EEC21A61EE821A20EE210A60EE0E
:10223000A10A21EE211A704712141F5F12D3363FF4
:10224000FF51D83F10B51C48DDE90541A2B2B0F9F5
:10225000003052BA438012B2240C028064BA8480E7
:102260008CB264BAC480091401720146D31A41F6D3
:102270006414B1F91410E34201DA491C04E041F698
:102280006414A34201DD491E8182B0F9141000EEEE
:10229000102A00EE901A9FED091AB8EEC00AF8EE67
:1022A000E00A00EE810ABDEEC00A80ED040A018B4F
:1022B000491C018310BD0000F447002000000046C7
:1022C00038B5002100910449002302460C691946E3
:1022D0000248A04738BD0000D4030020800600203B
:1022E00010B51C48DDE90541A2B2B0F9003052BA80
:1022F000438012B2240C028064BA84808CB264BA27
:10230000C480091401720146D31A41F66414B1F96C
:102310001410E34201DA491C04E041F66414A342BC
:1023200001DD491E8182B0F9141000EE102A00EE82
:10233000901A9FED091AB8EEC00AF8EEE00A00EE16
:10234000810ABDEEC00A80ED040A018B491C01839D
:1023500010BD0000D84700200000004638B500211D
:1023600000910449034600220C6911460248A04727
:1023700038BD0000D40300205806002010B5042109
:10238000104802F0E5F81048006880470F4841689F
:102390000F4888470F4C01210F4822689047226858
:1023A00002210E4890470E48006880470D4800689B
:1023B00080470D48FFF74AFBBDE81040002006F0BB
:1023C000B1BE00005407002000030020E4020020FA
:1023D000E4070020D40300205806002080060020D7
:1023E000C4030020C0000020B448002070B51C4881
:1023F0001E4C1C4905781C489FED1D1ADFED1D0A77
:10240000B0F90A30B4F90A20012D1ED0002D1BD1DD
:10241000B1F9165041F2883695FBF6F52B4443810D
:10242000B1F9180041F6583190FBF1F0104400B2B8
:1024300000EE100A6081B8EEC00A04F098F8BDEE14
:10244000C00A10EE100A608170BDB1F922509626C4
:1024500095FBF6F55B1B4381B1F924007100E3E7BE
:10246000B00000201C460020D8470020F447002080
:102470000000A0450040CE45044941F22470488147
:10248000034941F2A860488170470000D847002006
:10249000F44700202DE9F04104462DED028B4FF06A
:1024A00000089FED958A964D0268944F2869954ED5
:1024B00001B2C2B1012A7CD0022A7BD0032A7AD190
:1024C0006981A5F81680A7F81680B1688E488847FC
:1024D000B1688E488847B1688D488847B1688D4893
:1024E0008847032005E1626802B169818A49498C05
:1024F00001B300EE100AF8EEC00AC4ED020AB5F905
:102500000A00316800EE100A7F48B8EEC00A88471A
:1025100084ED030AB5F904003168404200EE900AE8
:102520007A48F8EEE00A8847BDEEC00A10EE100ABD
:10253000E88221E0B5F9000000EE100AB8EEC00A0A
:10254000FFF766FAF0EE400A3168B0EE480A6E48CE
:10255000884784ED030AB5F904003168404200EE73
:10256000900A6A48F8EEE00A8847BDEEC00A10EE0D
:10257000100AE882288A6881B7F9000000EE100A84
:10258000F8EEC00AC4ED040AB7F90A00316800EE9B
:10259000100A5F48B8EEC00A884784ED050AB7F90B
:1025A0000400316800EE900A5A48F8EEE00A8847C5
:1025B00002E00CE052E006E0BDEEC00A10EE100AA8
:1025C000F882C4F80480BDEC028BBDE8F08162683B
:1025D000012A00D0698100EE100AF8EEC00AC4EDAD
:1025E000020AB5F90A00316800EE100A4648B8EE52
:1025F000C00A884784ED030AB5F9040031684042F7
:1026000000EE900A4148F8EEE00A8847BDEEC00AA5
:1026100010EE100AE882B7F9000000EE100AF8EE9A
:10262000C00AC4ED040AB7F90A00316800EE100AC6
:102630003748B8EEC00A884784ED050AB7F90400A8
:10264000316800EE900A3348F8EEE00A8847BDEEA4
:10265000C00A10EE100AF88201204AE060680228E1
:1026600000D069812D489FED2E1AD0ED150A80EE1D
:10267000810A70EE080AC4ED020AB5F90A00316851
:1026800000EE100A2048B8EEC00A884784ED030A1D
:10269000B5F904003168404200EE900A1B48F8EE9C
:1026A000E00A8847BDEEC00A10EE100AE882B7F9CA
:1026B000000000EE100AF8EEC00AC4ED040AB7F9F3
:1026C0000A00316800EE100A1148B8EEC00A8847C7
:1026D00084ED050AB7F90400316800EE900A0D4850
:1026E000F8EEE00A8847BDEEC00A10EE100AF88244
:1026F0000220606067E700000020B945F447002031
:10270000D8470020D802002088010020C001002006
:10271000F8010020300200201C4600204448002020
:102720000000343DF0B590F820500468A468012DF5
:1027300005D0022D03D0416A41F480215DE014F000
:10274000406F01D1E50055D5C4F30164022C03D9D3
:10275000416A41F4000150E00125A5401D608D68EB
:102760004FF4C0739DB1CE6835434E6845EAC60547
:10277000066803EB0417F5514FF4C275076805EBC3
:1027800004150E697E51097D012905D009E00E88E6
:10279000CD6845EA4655EBE701684E5946F4807628
:1027A0004E511179D579567941EA056195792D0413
:1027B00045EA062529434FF4C676056806EB04165C
:1027C000A9511178D57841EA0561957852782D04A0
:1027D00045EA022211434FF4C475026805EB041563
:1027E0005151006803EB0411425842F0010242507B
:1027F0000020F0BD416A41F4001141620120F0BDAA
:1028000010B590F82020012A07D0022A05D0416A8D
:1028100041F480214162012010BD3B48D0F80022E4
:1028200042F00102C0F80022D0F8002222F47C52CB
:10283000C0F80022D0F800224B6A42EA0322C0F816
:1028400000220A7D02F01F0301229A40D0F81C32B8
:102850009343C0F81C32CB69B3B9D0F80C32934320
:10286000C0F80C328C894B6864F31F434C6900EB51
:10287000C404C4F840320C890B6864F31F434C69EC
:1028800000EBC404C4F84432CB69012B16D1D0F854
:102890000C321343C0F80C320C884B6864F31F43AE
:1028A0004C6900EBC404C4F840320C89CB6864F373
:1028B0001F434C6900EBC404C4F844328B69002BFD
:1028C000D0F804320ED01343C0F804320B69002B49
:1028D000D0F8143208D01343C0F81432096A012921
:1028E00004D008E09343EFE79343F5E7D0F81C12D8
:1028F0001143C0F81C12D0F8001221F00101C0F8F9
:102900000012002010BD00000064004030B590F8B7
:102910002040012C05D0022C03D0416A41F48021D3
:102920005DE00468002955D02469A40754D04FF411
:10293000D874056804EB01142D5915F00405956051
:1029400005682D594ED0ED08556005682C5904F0E6
:102950000204D4604FF4DA74056804EB01142D59B5
:1029600005F00F05156105682D59C5F3072595611B
:1029700005682C59240C54614FF4DC72046802EB96
:102980000112A4581C700468A458240A5C700468DE
:10299000A458240C9C700468A258120EDA704FF4EC
:1029A000DE72046802EB0112A4581C710468A4587A
:1029B000240A5C710468A458240C9C710468A25811
:1029C000120EDA71006881B1016941F020010161E4
:1029D000002030BDE468A8E7416A41F4001141627B
:1029E000012030BD6D0D1560AFE7C16841F02001D9
:1029F000C160EDE770B5040003D094F8200010B179
:102A000004E0012070BD204600F082F820680168D3
:102A100041F00101016000F0E5FA0546052604E0F9
:102A200000F0E0FA401B0A2811D820684068C0076F
:102A3000F6D02068016821F00201016000F0D2FAAE
:102A400005460BE000F0CEFA401B0A2806D9606A62
:102A500040F40030606284F82060D2E7206840686B
:102A60008007EFD4207E0128206801683DD021F046
:102A700080010160607E01282068016838D021F063
:102A800040010160A07E01282068016833D021F058
:102A900020010160E07E0128206801682ED041F00D
:102AA00010010160207F01282068016829D021F0F1
:102AB00008010160607F01282068016824D021F0AE
:102AC00004010160D4E902010843D4E9041211436E
:102AD00008436168491E08432168C861002060629C
:102AE000012084F82000002070BD41F08001C0E783
:102AF00041F04001C5E741F02001CAE721F0100193
:102B0000CFE741F00801D4E741F00401D9E7000024
:102B1000F0B587B0044614216846FDF725FD364B15
:102B20003648DFF8D0E01968D4F800C0334A0325EE
:102B30000226092710300024491CF44522D11960CF
:102B4000012907D1016841F000710160006800F0BF
:102B500000700590106840F0080010601068CDE922
:102B6000005600F00800CDE9047069462448CDE91C
:102B7000024500F017F900220621142000F09CFD08
:102B8000142033E0DFF87CE0F44531D1D0F800C008
:102B90004CF0806CC0F800C0D0F800C001290CF0E7
:102BA000806CCDF814C0196007D1016841F0007144
:102BB0000160006800F000700590106840F00200AD
:102BC0001060106802AB00F0020005904FF4405016
:102BD000CDE9000683E8B00069460B4800F0E2F852
:102BE00000220621402000F067FD402000F056FD45
:102BF00007B0F0BD006400402400002030380240DF
:102C0000000C0240006800400004024070B5044619
:102C100090F82000012804D0606A40F4002060622F
:102C200018E0022084F820002068016821F00101EA
:102C3000016000F0D7F905460EE000BF00F0D2F9C0
:102C4000401B0A2808D9606A40F400306062052001
:102C500084F82000012070BD20684068C007EDD1D5
:102C6000606270BD2DE9F041044600F0BBF90646F4
:102C70005CB1022084F83500002584F834502068C7
:102C8000016821F0010101600DE00120BDE8F08143
:102C900000F0A8F9801B052805D9202060650320D5
:102CA00084F83500F2E720680068C007F0D1226898
:102CB000116820480140D4E901031843D4E90336E0
:102CC0003343184363691843A3691843E3691843FE
:102CD000236A18430843616A042903D1D4E90B131A
:102CE00019430843106020684069666A20F00701B4
:102CF00030460E43012704280CD1A06A0643E06A3F
:102D000040B12046FEF78EFD20B14020606584F87A
:102D10003570BAE7206846612046FEF76FFD94F8EB
:102D20005C203F2191408160656584F8357000200A
:102D3000ACE700003F8010F070B5044690F8340016
:102D4000002501280CD0012084F8340094F8356067
:102D50000020012E06D084F834000225284670BDDC
:102D6000022070BD022684F8356060652046FEF7BB
:102D700083FD2068016841F001010160EEE7000079
:102D800070B5044600F02EF90546601C02D00448D8
:102D90000078044400F026F9401BA042FAD370BD2D
:102DA000280000202DE9F84FDFF8F8A100220124C7
:102DB00003254FF00F090AF1040BAAF1040E00BF1E
:102DC0000B6804FA02F63340B34270D10F7907F072
:102DD0000307012F01D0022F16D187684FEA42085E
:102DE00005FA08FC27EA0C07D1F80CC00CFA08FC1D
:102DF0004CEA070CC0F808C04768B7430E79C6F321
:102E0000001696403E4346600E79F643B6070AD058
:102E1000C7684FEA420C05FA0CF6B7438E6806FA0B
:102E20000CF63E43C6600E7906F00306022E10D162
:102E3000D60800EB8608D8F8206057074FEAD76C11
:102E400009FA0CF7BE430F6907FA0CF73743C8F8C5
:102E5000207006684FEA420C05FA0CF7BE430F7962
:102E600007F0030707FA0CF7374307604E6816F4BC
:102E7000403F1CD04C4E376847F480473760366877
:102E800022F0030706F480460096484E07EB060C36
:102E9000DCF8086897073F0F09FA07F826EA0806E2
:102EA000DFF80C81404503D14FF0000841E072E0AB
:102EB000DFF80081404502D14FF0010839E0DFF82A
:102EC000F880404502D14FF0020832E0DFF8EC8094
:102ED000404502D14FF003082BE0DFF8E480404585
:102EE00002D14FF0040824E0DFF8D880404502D139
:102EF0004FF005081DE0DFF8D080404502D14FF0CB
:102F0000060816E0DFF8C480404502D14FF00708FC
:102F10000FE0DFF8BC80404502D14FF0080808E020
:102F2000DFF8B080404502D14FF0090801E04FF0D2
:102F30000A0808FA07F848EA0608CCF80888DAF818
:102F400000605746D1F804C09E435FEACC2C00D500
:102F50001E433E60DBF800605F46D1F804C09E432C
:102F60005FEA8C2C00D51E433E60DEF80060774699
:102F7000D1F804C09E435FEA8C3C00D51E433E60FE
:102F8000084F083F3E68D1F804C09E435FEACC3C3E
:102F900000D51E433E60521C102AFFF411AFBDE85D
:102FA000F88F0000083C01404438024000300140E6
:102FB000000002400004024000080240000C0240F1
:102FC000001002400014024000180240001C0240A1
:102FD00000200240002402400AB1816170470904C8
:102FE000FBE70000014880687047000028000020CF
:102FF00090F83D20202A01D002207047242280F83A
:103000003D200268136823F0010313600268536ACD
:1030100023F0100353620268536A0B435362016842
:103020000A6842F001020A60202180F83D10002069
:10303000704790F83D20202A01D0022070472422BA
:1030400080F83D200268136823F0010313600368D1
:103050005A6A22F00F020A4391B2596201680A6863
:1030600042F001020A60202180F83D1000207047E4
:1030700070B5040025D094F83D00002520B984F8EF
:103080003C50204600F04CFA242084F83D00206893
:10309000016821F0010101602068016841F40041EC
:1030A00001602068016821F40041016000F0F0FB3C
:1030B0004D4A6168914201D84C4900E04C49884230
:1030C00001D2012070BD4B492368B0FBF1F15E686D
:1030D00026F03F060E435E606368934206D94FF4C4
:1030E000967359434FF47A73B1FBF3F12368491C8B
:1030F0001E6A26F03F06314319626168914210D87A
:103100004900401EB0FBF1F2521CC2F30B02042A2C
:1031100001D2042022E0B0FBF1F0401CC0F30B0010
:103120001CE0A268F2B301EBC10303EB0116431EDE
:10313000B3FBF6F35B1C43F480431B0549D092B309
:1031400001EBC10202EB0111401EB0FBF1F0401C8B
:10315000C0F30B0040F4804040F400402168CA698D
:103160004CF6FF739A431043C861D4E9071001433A
:103170002068026822F0C00211430160D4E9030113
:1031800001432068826848F2FF339A43114381600B
:10319000D4E9050108432168CA6822F0FF02104300
:1031A000C86001E00EE016E02068016841F001010E
:1031B00001602564202084F83D00256384F83E509A
:1031C000002070BD01EB4106431EB3FBF6F35B1C10
:1031D000B3E70120C2E701EB4101401EB0FBF1F073
:1031E000401CC0F30B00B7E7A086010080841E00DE
:1031F00000093D0040420F002DE9FF4F83B09A4681
:10320000DDE9119793460446DDF84080FFF7EAFEBA
:10321000054694F83D00202870D1192301227149F8
:103220002046009501F0AEFB0028F5D194F83C0053
:10323000012863D0012084F83C0020680168C90798
:1032400003D1016841F0010101602068016821F4A7
:1032500000610160222084F83D00402084F83E0097
:1032600000262664C4F82480A4F82A90608D208566
:103270005D48E062CDE9007553465A462046049900
:1032800001F088FA00287CD1208DD0B1012821D00E
:103290000228206824D0416980690090208D03288D
:1032A00069D801282BD0514902283B464FF0000233
:1032B000009559D08846204601F064FB002860D173
:1032C0003CE02068416981690091016841F4007126
:1032D000016077E02068016821F480610160F0E717
:1032E000016821F4806101602068016841F4006197
:1032F0000160206841698069009063E06FE02A46C0
:103300003946204601F0BDFB98BB20680069616A20
:1033100008704EE02068016841F400710160206887
:103320000069616A0870606A401C6062218D491EF4
:103330002185618D491E6185216838E0206801681A
:1033400021F48061016020680069616A0870606A28
:10335000401C6062208D401E2085608D401E60856F
:103360003B46002241460095204601F00BFB00B988
:10337000D0E706E0FFE72A463946204601F081FB08
:1033800018B1012007B0BDE8F08F20680069616ABC
:103390000870606A401C6062218D491E2185618D24
:1033A000491E618521684A69D24352070AD40969D6
:1033B0000170606A401C6062208D401E2085608D17
:1033C000401E6085208D00287FF468AF202084F89F
:1033D0003D0084F83E6084F83C600020D2E7022083
:1033E000D0E70000020010000000FFFF0400010011
:1033F0002DE9FF4F83B09A46DDE9119793460446C5
:10340000DDF84080FFF7EEFD054694F83D002028EA
:103410007FD11923012240492046009501F0B2FADC
:10342000002876D194F83C00012872D0012084F85D
:103430003C0020680168C90703D1016841F001011F
:1034400001602068016821F400610160212084F896
:103450003D00402084F83E0000262664C4F8248005
:10346000A4F82A90608D20852C48E062CDE9007593
:1034700053465A462046049901F00AFA70B930E0E2
:103480002A463946204601F02FFB58B1206C04280B
:1034900004D12068016841F400710160012007B087
:1034A000BDE8F08F606A216800780861606A401C9E
:1034B0006062218D491E89B22185628D521E62850E
:1034C00022685369DB435B070BD469B10078106154
:1034D000606A401C6062208D401E2085608D401E09
:1034E0006085208D0028CBD12A463946204601F040
:1034F00023FA0028CAD154F83D0B016841F4007149
:103500000160202004F81E09E67766770020C6E7F0
:10351000FFE70220C3E70000020010000000FFFFE9
:1035200010B586B0044614216846FDF71DF813490E
:10353000206888421FD112480021026842F0200210
:1035400002600068122200F0200005900320CDE9FF
:103550000210CDE900020420049069460948FFF7F3
:1035600021FC07481030016841F4800101600068C7
:1035700000F48000059006B010BD00000058004027
:103580003038024000140240024881680278114439
:1035900081607047280000200B4810B5016841F495
:1035A00000710160016841F480610160016841F4CB
:1035B00080710160032000F09FF8002000F006F801
:1035C00000F050F8002010BD003C024030B5054628
:1035D0001F4887B00024016841F0100101600068B5
:1035E00006A900F01000009001A800F031F904983D
:1035F000A8B100F04DF940001649174AB0FBF1F1AF
:103600001648491E026040F2E732C0E90324C0E9CF
:103610000114846100F014FD040003D015E000F0F3
:1036200037F9E9E70D4800F059FD04000DD13620C7
:1036300000F034F8102D07D200222946362000F081
:103640003BF80748056000E0012407B0204630BD84
:103650004038024040420F0000100040880800201F
:103660002C0000200C4882B0016841F480410160C8
:10367000006800F4804000900748001F016841F096
:10368000805101600068002200F0805000900F21FE
:10369000901E02B000F010B844380240002809DB48
:1036A00000F01F02012191404009800000F1E0205C
:1036B000C0F8001170470000F0B40E4B1B680C46B8
:1036C000C3F30223C3F10705042D00D90425191DF6
:1036D000072901D2002300E0DB1E012606FA05F1CE
:1036E000491E214099409E40761E16403143F0BC51
:1036F00002F078BF0CED00E0064900F00702086810
:103700004FF6FF03184040EA0220034A10430860C6
:10371000704700000CED00E00000FA052DE9F047CD
:103720000E46050065D0DFF81481D8F80000F7B226
:1037300000F00F00B04207D288F80070D8F80000FF
:1037400000F00F00B04254D128683D4C810712D5DB
:10375000400703D5206840F4E05020602878000737
:1037600003D5206840F4604020602068A96820F0FC
:10377000F000084320602878C0072DD030496868E1
:103780000839012812D0022813D0032811D0096863
:10379000890700292DDA216821F003010143216006
:1037A000FFF720FC814641F2883A0EE00968890360
:1037B000EFE709688901ECE7FFF714FCA0EB0901CA
:1037C000514502D90320BDE8F0872068696800F000
:1037D0000C00B0EB810FEFD1D8F80010404601F09B
:1037E0000F01B14207D90770006800F00F00B04226
:1037F00001D00120E7E72878400705D52068E9686F
:1038000020F4E050084320602878000706D520689F
:10381000296920F4604040EAC100206000F058F8B7
:103820002168084AC1F30311515CC8400649086089
:1038300006480068FFF7CAFE0020C4E7003C0240CB
:103840000838024054AA0008340000202C00002050
:103850000F2202600C4A136803F0030343601368ED
:1038600003F0F0038360136803F4E053C36012684D
:103870004FF4E05303EAD20202610448006800F00A
:103880000F0008607047000008380240003C02400A
:103890000448054900680968044AC1F38221515C63
:1038A000C8407047340000200838024064AA00086D
:1038B0000448054900680968044AC1F34231515C73
:1038C000C8407047340000200838024064AA00084D
:1038D000154810B5006810F00C02144813D01449B4
:1038E000042A0FD0082A0ED10F4C241F2268236807
:1038F00002F03F025B0207D52068C0F38810A0FBEE
:10390000010106E0084610BD2168C1F38811A1FB42
:1039100000010023FCF73AFD2168C1F30141491C75
:103920004900B0FBF1F010BD083802400024F4005B
:10393000001BB7002DE9F84F04006ED02078DFF8A7
:103940004C93C007A9F104054AD009F104000168AD
:10395000C1F38101012908D00068C0F38100022869
:103960000AD1D9F80000400206D52868800337D56F
:1039700060680028E1D033E06068B0F5803F10D087
:10398000B0F5A02F286810D020F480302860286877
:1039900020F4802028606068A8B1FFF723FB06466A
:1039A0000DE0286840F48030F4E740F4802028607F
:1039B000F7E700BFFFF716FB801B642873D8286861
:1039C0008003F7D50CE0FFF70DFB064605E000BFCE
:1039D000FFF708FB801B6428F0D828688003F7D421
:1039E0002078DFF8AC8280074FF0000A3ED5A74868
:1039F000001D016811F00C0F08D00068C0F38100B1
:103A000002280BD1D9F80000400207D428688007AB
:103A100016D5E068012800D112E033E1E068B8B1C2
:103A20000120C8F80000FFF7DDFA064605E000BFF8
:103A3000FFF7D8FA801B0228C0D828688007F7D57E
:103A40002868216920F0F80040EAC10028600DE0F4
:103A5000C8F800A0FFF7C6FA064604E0FFF7C2FA6E
:103A6000801B02281FD828688007F7D42078000719
:103A700022D5864F87486169703771B10121016095
:103A8000FFF7B0FA064604E0FFF7ACFA801B022805
:103A900009D838688007F7D50EE0C0F800A0FFF716
:103AA000A1FA064605E082E0FFF79CFA801B022897
:103AB0007DD838688007F7D42078400768D5DFF8CC
:103AC000CCB100270BF13C0BDBF80000C0000BD49D
:103AD000DBF8001041F08051CBF80010DBF800005B
:103AE000012700F0805000906B4E3068C00510D464
:103AF000306840F480703060FFF774FA009005E0A1
:103B0000FFF770FA0099401A022850D83068C005B3
:103B1000F6D55E4EA0686C3601280FD005283068B7
:103B200010D020F001003060306820F004003060D8
:103B3000A068B8B1FFF756FA00900FE0306840F087
:103B40000100F4E740F004003060F7E7FFF74AFABD
:103B50000099411A41F28830814266D83068800766
:103B6000F4D50EE0FFF73EFA009007E0FFF73AFACF
:103B70000099411A41F28830814256D83068800756
:103B8000F4D42FB1DBF8001021F08051CBF80010F5
:103B9000A069C8B33D49091D0968C1F38101022923
:103BA0004AD00228504607D0C8F8600000E03CE048
:103BB000FFF718FA04463BE04746C8F86000FFF7F5
:103BC00011FA064605E000BFFFF70CFA801B022839
:103BD0002BD828688001F7D4D4E907010843A16AEB
:103BE0002E4A490802EB0141626A41EA8211084308
:103BF00094F82C1040EA0161C9F8001001203866E1
:103C0000FFF7F0F9044606E03EE000BFFFF7EAF9EF
:103C1000001B022809D828688001F7D534E000BFCE
:103C2000FFF7E0F9001B022802D90320BDE8F88F56
:103C300028688001F4D427E00128F7D0D9F80000E3
:103C4000E26900F4800191421CD1226A00F03F0138
:103C5000914217D147F6C071626A0140B1EB821FF1
:103C600010D1A26A4FF0FF3300F4403103EB52024F
:103C7000B1EB024F06D194F82C1000F07060B0EB5D
:103C8000016F01D00120D1E70020CFE704380240C6
:103C900000004742800E4742007000400000FFFFD6
:103CA00070B5040009D0606A002540B125616561E6
:103CB000A56294F8510040B10CE0012070BD60682D
:103CC000B0F5827FF4D0E561F2E784F850502046E9
:103CD00000F044F8022084F851002068016821F0C7
:103CE00040010160A088218900F4827001F4044140
:103CF0000843A18901F400610843217C01F002011D
:103D00000843217D01F001010843218B01F400717A
:103D10000843217F01F03801084394F8201001F096
:103D200080010843218D01F4005108432168086097
:103D3000A069042101EA104094F8241001F0100158
:103D40000843216848602068C16921F40061C161AD
:103D50006565012084F85100002070BD10B586B063
:103D6000044614216846FCF7FFFB1449206888428A
:103D700021D113480021026842F4801202600068D9
:103D800000F4801005900E481438026842F02002BA
:103D90000260006800F0200005904FF46070009011
:103DA0000220CDE90101032003900520049069461B
:103DB0000448FEF7F7FF06B010BD000000500140B8
:103DC00044380240001402402DE9F84F044690F8B0
:103DD000500000270A9E1D4692468B464FF001096F
:103DE00001280ED0012084F85000FFF7FBF8804630
:103DF00094F85100616801280CD0B1F5827F07D199
:103E000002E00220BDE8F88FA16809B9042801D0BA
:103E10000227C2E0BBF1000F27D0BAF1000F24D077
:103E20001DB394F85100042802D0052084F85100F5
:103E300000206065C4F838A0E587A587C4F830B0D5
:103E4000E586A5862064606420680168490603D47D
:103E5000016841F040010160E068B0F5006F606802
:103E600005D0E8B3012D46D07FE0012795E008B1E9
:103E7000012D39D1206B21680088C860206B801C1F
:103E80002063E08E401EE0862EE02068816889076E
:103E90000FD5E18E69B1B9F1010F0AD1216B098803
:103EA000C160206B801C2063E08E401EE0864FF0D6
:103EB000000920688168C9070CD0E18F51B1C06842
:103EC000A16B0880A06B801CA063E08F401EE08780
:103ED0004FF00109FFF786F8A0EB0800B04200E0C0
:103EE00009E001D3701C50D1E08E0028CDD1E08FC5
:103EF0000028CAD13FE0206B216800780873206B4E
:103F0000401C2063E08E401EE0862EE02068816821
:103F100089070FD5E18E69B1B9F1010F0AD1216B83
:103F200009780173206B401C2063E08E401EE08600
:103F30004FF0000920688168C9070CD0E18F51B1AA
:103F4000C068A16B0870A06B401CA063E08F401E8E
:103F5000E0874FF00109FFF745F8A0EB0800B042F9
:103F600002D3701C01D010E07EB1E08E0028CDD1CC
:103F7000E08F0028CAD142463146204601F0CEFEED
:103F800028B101272020606507E0032705E0A0682D
:103F900018B92068C16880680090012084F8510039
:103FA000002084F8500038462CE770477047000026
:103FB00070B590F83C20012A32D0012480F83C40B2
:103FC000022280F83D2003685A689D6822F070063E
:103FD0000A6832435A60134B02689A4214D0B2F115
:103FE000804F11D0104B9A420ED0104B9A420BD0FA
:103FF0000F4B9A4208D00F4B9A4205D00E4B9A4273
:1040000002D00E4B9A4204D1496825F0800319432F
:10401000916080F83D40002180F83C10084670BD5A
:10402000022070BD00000140000400400008004074
:10403000000C004000040140004001400018004016
:1040400010B5040003D094F83D0010B107E0012042
:1040500010BD002084F83C00204600F01FF802202C
:1040600084F83D00211D206801F0BEFF012084F886
:10407000460084F83E0084F83F0084F8400084F84D
:10408000410084F8420084F8430084F8440084F836
:10409000450084F83D00002010BD000008B50C4A22
:1040A00001680C48914207D1016841F002010160AA
:1040B000006800F0020009E0074A914207D1016858
:1040C00041F040010160006800F04000009008BD30
:1040D00000040040403802400018004090F83D10B5
:1040E000012901D001207047022180F83D100168AC
:1040F000CA6842F00102CA6000681149884214D0BF
:10410000B0F1804F11D00F4988420ED00E4988423D
:104110000BD00E49884208D00D49884205D00D4980
:10412000884202D00C49884204D1816801F007011D
:10413000062903D0016841F00101016000207047A9
:10414000000001400004004000080040000C004056
:1041500000040140004001400018004070B50446D2
:1041600090F83C000025012817D0012684F83C6017
:10417000022084F83D002068826822F0770222F451
:104180007F4282600868502838D00DDC20284FD04C
:1041900005DC90B3102811D14AE0022070BD302810
:1041A00046D040280AD13BE060282FD070280DD09F
:1041B000B0F5805F03D0B0F5005F12D0012584F820
:1041C0003D60002084F83C00284670BDCB68D1E9F2
:1041D0000121206801F079FF2068816841F07701B2
:1041E00009E0CB68D1E90121206801F06EFF206869
:1041F000816841F480418160E1E719E0CA6849685B
:10420000206802F037F85021206806E0CA68496843
:10421000206802F040F86021206801F060FFCEE7DE
:10422000CA684968206802F025F840212068F4E750
:10423000226801461046F0E7704770B504460068F2
:1042400001694FF00005C943890715D4C168C94306
:10425000890711D4E91E0161012020772068806957
:104260008007204602D0FFF7E7FF04E000F0DAF80D
:10427000204600F06CF9257720680169C943490799
:1042800017D4C168C943490713D46FF00401016111
:10429000022020772068806910F4407F204602D0F9
:1042A000FFF7CAFF04E000F0BDF8204600F04FF928
:1042B000257720680169C943090716D4C168C94335
:1042C000090712D46FF008010161042020772068EB
:1042D000C0698007204602D0FFF7AEFF04E000F07F
:1042E000A1F8204600F033F9257720680169C94319
:1042F000C90617D4C168C943C90613D46FF01001A9
:104300000161082020772068C06910F4407F2046B2
:1043100002D0FFF791FF04E000F084F8204600F09F
:1043200016F9257720680169C943C90708D1C16812
:10433000C943C90704D1891E0161204600F06CF908
:1043400020680169C943090609D4C168C94309063F
:1043500005D46FF0800101612046FFF726FE20683A
:104360000169C943490609D4C168C943490605D44E
:104370006FF040010161204600F058F920680169A2
:10438000C94389060BD4C168C943890607D46FF0B5
:10439000200101612046BDE87040FFF707BE70BDF7
:1043A00010B586B0044614216846FCF7DDF8236892
:1043B000174C002117480222A34210D1036843F092
:1043C00002030360006800F00200059020200090C6
:1043D000CDE90121CDE9031269460F4813E00F4CE6
:1043E000A34212D1036843F080030360006800F029
:1043F0008000059040200090CDE901210920CDE901
:10440000031069460648FEF7CDFC06B010BD00005B
:104410000004004030380240000402400018004010
:10442000001C0240704770B5044690F83C0000261E
:104430000D4601280FD0012084F83C006AB1042AFF
:104440001DD0082A2FD00C2A3FD00126002084F846
:104450003C00304670BD022070BD206801F048FE6F
:104460002068816941F0080181612068816921F03B
:1044700004018161206881692A69114311E0206883
:1044800001F066FE2068816941F400618161206865
:10449000816921F480618161206881692A6941EA2A
:1044A00002218161D2E7206801F088FE2068C1699D
:1044B00041F00801C1612068C16921F00401C161B6
:1044C0002068C1692A69114311E0206801F0AAFE41
:1044D0002068C16941F40061C1612068C16921F4AB
:1044E0008061C1612068C1692A6941EA0221C16114
:1044F000ACE710B5040003D094F83D0010B107E01C
:10450000012010BD002084F83C00204600F01EF879
:10451000022084F83D00211D206801F065FD012086
:1045200084F8460084F83E0084F83F0084F8400098
:1045300084F8410084F8420084F8430084F8440081
:1045400084F8450084F83D00002010BD7047704796
:1045500010B50446022249B104290ED0082913D00F
:1045600094F84100012816D0012010BD94F83E00B7
:104570000128F9D184F83E200FE094F83F0001288B
:10458000F2D184F83F2008E094F840000128EBD1F4
:1045900084F8402001E084F841200122206801F0E5
:1045A00087FD16492068164A884201D0904203D1FF
:1045B000436C43F4004343642068884213D0B0F155
:1045C000804F10D00F4988420DD00F4988420AD041
:1045D0000E49884207D0904205D00D49884202D04A
:1045E0000C49884204D1816801F00701062903D0F3
:1045F000016841F001010160002010BD0000014090
:10460000000401400004004000080040000C00408D
:10461000004001400018004000680349884201D171
:10462000FEF7B2BF7047000000100040704770B541
:10463000040004D094F83D00002510B106E00120EC
:1046400070BD84F83C50204600F022F8242084F805
:104650003D002068C16821F40051C160204601F08E
:10466000E9FE2068016921F49041016120684169F7
:1046700021F02A0141612068C16841F40051C16004
:104680002564202084F83D0084F83E00002070BDA1
:1046900070B586B0064614216846FBF765FF2449CD
:1046A0003068884241D123480025016841F010015B
:1046B0000160006800F0100005901E481438016881
:1046C00041F0020101600068694600F002000590B7
:1046D000C02000900220019001200290032003904E
:1046E000072004901448FEF75DFB154C134820602A
:1046F0004FF00060C4E901054014C4E90350801084
:104700006561C4E90650256220466562FEF7AAFA93
:1047100008B1FDF770F9B463002205212520A663D6
:10472000FEF7CAFF2520FEF7B9FF06B070BD0000F6
:10473000001001404438024000040240406402403E
:1047400028080020FEE701684A69D24352050FD4C9
:104750006FF480624A61002140F8301F20224273CA
:104760008173026942F00402026101730120704703
:10477000002070473EB54FF47A74CDE900320A4606
:104780000146029401230248FEF736FD3EBD0000BB
:10479000A80600202DE9F84F0446006889460B9DC5
:1047A00001689846174641F48061016020680168FD
:1047B00041F48071016000954FF0011B00225946C1
:1047C00020460A9B00F0DEF84FF4007A40B12068E2
:1047D0000068C00501D5C4F840A00320BDE8F88FEB
:1047E000216809F0FE0008612B46284920460A9AF4
:1047F00000F0FCF8F0BB20684169806900902A460F
:1048000020460A9900F070F940B1206C04283AD192
:104810002068016841F40071016034E0FEB2B8F133
:10482000010F09D02168380A08612A4620460A99F2
:1048300000F05AF90028E8D1206806612A4620468F
:104840000A9900F051F90028DFD12068016841F48D
:104850008071016000950022594620460A9B00F0B5
:1048600091F80028B3D1216809F0FF0040F0010061
:10487000086100E007E02B46044920460A9A00F050
:10488000B5F80028AAD00120A8E700000200010026
:104890002DE9F843044600680D46DDE908970168F4
:1048A0009846164641F4807101604B4600224FF055
:1048B00001112046009700F065F848B120680068B3
:1048C000C00502D54FF4007020640320BDE8F883D2
:1048D000216805F0FE0008613B464A46154920461E
:1048E00000F084F888B920684169806900903A46F0
:1048F0004946204600F0F8F848B1206C042804D15D
:104900002068016841F4007101600120DEE7F5B222
:10491000B8F1010F09D02168300A08613A464946CA
:10492000204600F0E1F80028E7D12068056100206A
:10493000CCE700000200010070B516460D460446A3
:104940000DE02046FFF7FFFE08B1012070BD681C96
:1049500005D0FEF747FB801BA84207D835B1206879
:104960004069C0434007ECD4002070BD002044F8EB
:10497000300F20216173A073216941F02001216172
:104980002073E2E72DE9F0471E4690460D460446A7
:10499000C1F30747DDF8209008E0701C06D0FEF751
:1049A00021FBA0EB0900B0420FD876B12068012F9F
:1049B00018D0806925EA00000004000C14D0002102
:1049C0004145EAD00020BDE8F087002044F8300FD0
:1049D00020216173A073216941F0200121612073BE
:1049E0000120F0E74069E5E70121E9E72DE9F0471B
:1049F0009A4691460E46044600254FF02008C1F322
:104A0000074725E020684069C043400514D420686A
:104A1000016841F40071016021686FF480604861B1
:104A2000256384F83D8084F83E50206C40F00400FB
:104A3000206484F83C501FE0B9F1FF3F08D0FEF736
:104A4000D1FAA0EB0A0149450CD8B9F1000F09D001
:104A50002068012F13D0806926EA00000004000CB2
:104A60000BD0CFE744F8305F84F80D80A573206940
:104A700040F02000206125730120BDE8F0874069E7
:104A8000EAE72DE9F041002590460E46044620272E
:104A900017E04069C043C0060CD454F8301B6FF0D7
:104AA0001000486144F810596777A577206A2062A2
:104AB000257717E0FEF796FAA0EB0800B04208D879
:104AC0003EB120684169C9434906E2D40020BDE8EF
:104AD000F08144F8305F6773A573206940F02000CF
:104AE000206125730120F2E770B516460D46044695
:104AF0000DE02046FFF727FE08B1012070BD681CBD
:104B000005D0FEF76FFA801BA84207D835B12068A0
:104B10004069C0430006ECD4002070BD002044F87A
:104B2000300F20216173A073216941F020012161C0
:104B30002073E2E73EB54FF47A74CDE900320A46BD
:104B40000146029401230248FEF752FC3EBD0000DC
:104B5000A806002010B530216A20FCF767FA0A2069
:104B6000FEF70EF90D212420FCF760FA0A20FEF76B
:104B700007F90E212820FCF759FA0A20FEF700F960
:104B80008E213120FCF752FA0A20FEF7F9F80121B4
:104B90000B2000F09BF80A20FEF7F2F8002000F04E
:104BA00059F8102801D0012010BD01210B2000F080
:104BB0008DF80A20FEF7E4F800210A2000F086F8BC
:104BC0000A2000F047F808B1022010BD0A20FEF7C5
:104BD000D7F800210B2000F079F80B2000F03AF80C
:104BE00008B1032010BD0A20FEF7CAF82421412095
:104BF00000F06CF8412000F02DF8242801D00420AA
:104C000010BD0A20FEF7BCF8C021422000F05EF87B
:104C1000422000F01FF8C02801D0052010BD0A2056
:104C2000FEF7AEF800212A20FCF700FA0A20FEF772
:104C3000A7F800213420FCF7F9F90A20FEF7A0F8C4
:104C4000062203210E20FCF741F96420FEF798F8B4
:104C5000002010BDF8B501463220FCF7E7F90A2024
:104C6000FEF78EF880213420FCF7E0F90A20FEF7E9
:104C700087F8134E002240213046FEF7ADF9114C63
:104C8000B52037252070621C0123511E0E48009567
:104C9000FFF79AF8621C0123511E0B480095FFF79D
:104CA00093F8012240213046FEF796F964780021FE
:104CB0003420FCF7BBF90A20FEF762F82046F8BD65
:104CC000001402401C030020FC06002070B50D46B5
:104CD000044600212A20FCF7A9F90220FEF750F82B
:104CE00021462920FCF7A2F90220FEF749F82946BF
:104CF0006420FCF79BF90220FEF742F881212A206C
:104D0000FCF794F9BDE870400A20FEF739B810B5F9
:104D1000044680EC020A70EE600AD0ED031AC0ED82
:104D2000041A90ED021A80ED031AC0ED020A30EE6B
:104D3000C10A90ED052A20EE020AB0EE002A80EDAD
:104D4000080A90ED060A20EE200A41EE420A80EDA4
:104D5000090A94ED071A70EEA10A60EE810AC4ED0B
:104D60000A0AD4ED0D0AB1EE601A01F000FC84EDE0
:104D7000090AD4ED080A30EE800AD4ED0A0A30EEB2
:104D8000200A84ED0B0AD4ED0D0AB1EE601AD4EDC1
:104D90000C0A01F0ECFB84ED0B0A10BD2DE9F04785
:104DA000DFED3F1AF3EE030A2DED048B0446F7EE18
:104DB000008A90ED012A90ED020A90ED031A9FED12
:104DC000378A72EE402A9FED379ADFF8DC80374E43
:104DD00041EE212ADFF8D890002562EEA02AC0ED2E
:104DE000072A72EE002A41EE212A62EEA02AC0EDC7
:104DF000082A70EE422AB1EE422A32EE400A41EE13
:104E0000212A01EE210A62EEA02A20EE200AC4ED3A
:104E1000092A84ED0A0A00BF04EB850090ED070A19
:104E200020EE090A80ED070AF0EEC00AF4EEC80A87
:104E3000F1EE10FA01DDB0EE608A18EE101A41456D
:104E400003DDDFED1C0AC0EE888AC5EBC50106EB69
:104E5000810720EE280A80ED070ABDEEC00A10EE99
:104E6000100A00B2B881B7F9041000EE101AD9F890
:104E70000010F8EEC00A00EE100A0F48B8EEC00AA3
:104E80008847BDEEC00A6D1C042D10EE100AF88292
:104E9000C2DBBDEC048BBDE8F08700000000000021
:104EA000C3F5A83E0000C84200A00C4630470020D1
:104EB000D802002000A00C4618010020002101703B
:104EC00041708170704781780122491CC9B24B1E24
:104ED0008170132B01D8027070471429FCD900216E
:104EE000017042707047000010B55D4C94F82A00C4
:104EF000C10704F12C0002D0FFF7E5FF01E0FFF746
:104F0000DDFF94F82A008107554800F12F0002D5F3
:104F1000FFF7D9FF01E0FFF7D1FF94F82A0041071E
:104F20004F4800F1320002D5FFF7CDFF01E0FFF757
:104F3000C5FF94F82A000107494800F1350002D561
:104F4000FFF7C1FF01E0FFF7B9FF94F82A00C1069F
:104F5000434800F1380002D5FFF7B5FF01E0FFF745
:104F6000ADFF94F82A0081063D4800F13B0002D5D0
:104F7000FFF7A9FF01E0FFF7A1FF94F82A0041061F
:104F8000374800F13E0002D5FFF79DFF01E0FFF733
:104F900095FF94F82A000106314800F1410002D53E
:104FA000FFF791FF01E0FFF789FF608DC1052C48F5
:104FB00000F1440002D5FFF786FF01E0FFF77EFF16
:104FC000608D8105264800F1470002D5FFF77BFF81
:104FD00001E0FFF773FF608D4105214800F14A00B1
:104FE00002D5FFF770FF01E0FFF768FF608D010554
:104FF0001B4800F14D0002D5FFF765FF01E0FFF708
:105000005DFF608DC104164800F1500002D5FFF726
:105010005AFF01E0FFF752FF608D8104104800F154
:10502000530002D5FFF74FFF01E0FFF747FF608D08
:1050300041040B4800F1560002D5FFF744FF01E0A0
:10504000FFF73CFF608D0104054800F1590003D5CE
:10505000BDE81040FFF737BFBDE81040FFF72EBF97
:105060001C46002010B51248059B41F664149AB204
:10507000B0F9001052BA418012B21B0C02805BBA28
:105080008380531A0146E342B1F9141001DA491C36
:1050900004E041F66414A34201DD491E8182B0F9A7
:1050A000141002EB41310161018B491C018310BDD9
:1050B0001048002038B50021009104490023024621
:1050C0008C6819460248A04738BD0000D403002070
:1050D0005806002010B5401EDDE9052193B25CBAE8
:1050E000C0B2094BC0EBC000120C23F8204003EB08
:1050F000800052BA82808AB252BAC2800914017208
:10510000018B491C018310BD3047002038B5009346
:10511000034BDC6813460A4601460248A04738BDE7
:10512000D40300205806002030B51249DDE90632CC
:105130001C0C9DB293B2A0F5007042F307420138F7
:105140000DD001280AD168BA888360BA088458BA99
:10515000488481F82420888E401C888630BD68BA37
:10516000088060BA888058BAC8800A72088B401CD0
:10517000088330BDA047002038B500220092044AC1
:105180000023D4680A4601460248A04738BD000003
:10519000D40300208006002010B5044604F1340139
:1051A0009FED333A334891EC030A0C39D1EC031AE2
:1051B000FCF7F4FE2F48FCF745FCFCF759FFF0EE36
:1051C000001A94ED112A21EE211A60EEA10A84ED55
:1051D000142A20EE210A84ED111AC4ED120A84ED7E
:1051E000130AD4ED0D0AB1EE080A11EE100AC0EE52
:1051F000801A21498842C4ED171AD4ED0E0AC0EE78
:10520000801AC4ED181AD4ED0F0AC0EE801ADFED33
:105210001B0AC4ED191A02DD31EE600A06E011EE38
:10522000100A1749884203D931EE200A84ED110A89
:1052300094ED111A1349F7EE001A31EE420A10EEFE
:10524000100A884204D994ED160A30EE210A08E0CB
:1052500010EE100A0C4994ED160A884203DD30EE78
:10526000610A84ED160A00EE201A84ED151A10BDAD
:105270006F12833AB4480020000034430000B44366
:10528000000034C3000096C30000964370B5044686
:105290002DED068B90F86C00002844D100254FF4CA
:1052A0007A76204600F07CF894ED0A0A01207AEE26
:1052B00080AA94ED0B0A38EE008A94ED0C0A78EE81
:1052C000808A94ED0D0A39EE009A94ED0E0A79EE7B
:1052D000809A94ED0F0A3AEE00AAFDF751FD6D1C7D
:1052E000B542DEDBB7EE001A9FED100A0120CAEED0
:1052F000800AC4ED040AC8EE000AC4ED050AC8EE2F
:10530000800A70EEC10AC4ED060AC9EE000AC4EDB7
:10531000070AC9EE800AC4ED080ACAEE000AC4ED05
:10532000090A84F86C00BDEC068B70BD00007A445D
:105330001CB501AB01227521D020FFF71BFA072015
:105340008DF800006B4601221921D020FFF7F2FBF7
:1053500000248DF800406B4601221B21D020FFF76E
:10536000E9FB8DF800406B4601221C21D020FFF79D
:10537000E1FB8DF800406B4601226B21D020FFF746
:10538000D9FB9DF804100548682903D0012180F855
:105390006D101CBD80F86D401CBD0000444800200D
:1053A0002DE9F0410446434B0E223B21D020FFF76C
:1053B000E1F94048018849BA0FB22780418800EEE0
:1053C000107A49BA0DB2F8EEC00A9FED3B0A65802B
:1053D000818820EE801A00EE905A49BA0EB2F8EE9B
:1053E000E00AA680C18860EE801A00EE906A49BA91
:1053F0000BB2A381F8EEE00A018949BA0AB220EEA5
:10540000802A00EE102ADFED2D0AE280B8EEC00AF5
:10541000418949BAC0EE202A09B200EE101A218152
:105420008089B8EEC00A40BA00B2608180EE203AAE
:1054300000EE100AB8EEC00AC0EE203A00EE103AB4
:10544000F8EEC00A9FED1E4A04F1280080EE840A9F
:10545000DFED1C0A30EE200A84ED100A80EC061AFB
:1054600094F86C00012823D194ED040A31EE400A2F
:1054700084ED0A0A94ED050A31EEC00A84ED0B0AA8
:1054800094ED060A32EE400A84ED0C0A94ED070A08
:1054900032EEC00A84ED0D0A94ED080A33EE400A9C
:1054A00084ED0E0A94ED090A33EEC00A84ED0F0A6A
:1054B000BDE8F08118490020000080380000034357
:1054C0000000AA43B81E1242104810B50E490160F0
:1054D0000321416000214FF410228160C0E90312D2
:1054E0004FF4001242610176012242768276C27642
:1054F00001774177FDF77EFA002803D0BDE8104020
:10550000FCF779BA10BD0000006400405806002086
:10551000104810B50E4901600321416000214FF48D
:1055200010228160C0E903124FF40012426101763B
:10553000012242768276C27602774177FDF75AFAE7
:10554000002803D0BDE81040FCF755BA10BD00009C
:105550000068004080060020094808B5016841F451
:10556000800101600068002200F480000090114674
:105570003A20FEF7A1F8BDE808403A20FEF78EB8C1
:105580003038024030B5344DB7B02AAC95E80F0042
:1055900084E80F0000212AA803F034F92F4C1035BD
:1055A0000DF1B80CA06195E80F008CE80F00002108
:1055B0002EA8103D03F026F92035E06195E80F0094
:1055C00032AD85E80F00002132A803F01BF9224913
:1055D00020621C2230316846FAF794FF00216846A9
:1055E00003F023F91C4920601C224C3107A8FAF76C
:1055F00089FF002107A803F018F9174960601C22F1
:1056000068310EA8FAF77EFF00210EA803F00DF90D
:105610001149A0601C22843115A8FAF773FF0021FC
:1056200015A803F002F90C49E0601C22A0311CA867
:10563000FAF768FF00211CA803F0F7F8064920617B
:105640001C22BC3123A8FAF75DFF002123A803F038
:10565000ECF8606137B030BD74A90008000000208C
:1056600030B587B014216846FAF77EFF1D48002444
:10567000016841F002010160016801F00201059139
:10568000016841F001010160016801F0010105912B
:10569000016841F008010160016801F0080105910D
:1056A000016841F020010160016801F020010591CD
:1056B000016841F08001016000680B4D00F080003E
:1056C0000590012240212846FDF786FC012140205B
:1056D000CDE90214CDE9000169462846FDF762FBD9
:1056E00007B030BD3038024000140240144810B5F5
:1056F000124901601349416000214FF480428160EA
:10570000C0E9031241618161C1610162FDF7B0FC32
:1057100008B1FCF770F910210948FDF769FC08B1E0
:10572000FCF769F900210648FDF783FC002803D047
:10573000BDE81040FCF75FB910BD00000058004004
:10574000A8060020A0860100104810B50E4901608F
:105750004FF48271416000218160C1604FF400729A
:105760000161C0E905123022C0E90721416281626E
:105770000A21C162FEF794FA002803D0BDE8104068
:10578000FCF739B910BD000000500140FC060020B4
:1057900010B58CB000240794089409941C21684625
:1057A0000A94FAF7E1FE1A48184901608221C0E91B
:1057B00001144FF4B971C0E903148461FEF740FC91
:1057C00008B1FCF718F94FF48050079007A910486A
:1057D000FEF7C4FC08B1FCF70EF90D48FEF789FE90
:1057E00008B1FCF708F96020CDE90004029400221A
:1057F000694607480494FEF716FE08B1FCF7FBF86B
:105800000348FEF7CDFD0CB010BD000000180040AD
:105810009C07002010B58EB00024079408940994CA
:105820000A940B941C2168460C94FAF79DFE1E48BE
:105830001C49C0E9001441F28731C0E9024104610A
:105840008461FEF7FDFB08B1FCF7D5F84FF48050FA
:10585000079007A91448FEF781FC08B1FCF7CBF8C4
:105860001148FEF746FE08B1FCF7C5F80B940BA9EA
:105870000D480C94FEF79CFB08B1FCF7BCF86020C7
:10588000CDE9000402940422694607480494FEF717
:10589000CAFD08B1FCF7AFF80348FEF781FD0EB072
:1058A00010BD000000040040540700200C4810B553
:1058B0000A4901600B494160002181600C22C160EE
:1058C000C0E904128161C161FEF7B1FE002803D076
:1058D000BDE81040FCF78FB810BD0000001001407B
:1058E000E4070020A0860100FEE7FEE710B50446AD
:1058F00080EC020A70EE600A90ED021A80ED031A45
:10590000C0ED020A90ED050A20EE200A80ED080A9B
:1059100090ED090AD0ED061A01EEA00A70EEC10A58
:1059200080ED090A90ED071A60EE810AC4ED0A0ABB
:10593000D4ED0D0AB1EE601A00F019FE84ED090AEB
:10594000D4ED080A30EE800AD4ED0A0A30EE200ABF
:1059500084ED0B0AD4ED0C0AB1EE601A00F007FEDC
:1059600084ED0B0A10BD000010B562482DED068BCA
:10597000B0F90610B0F908009FED5F8B9FED60AAAB
:10598000604C00295ADADFED609A9FED609A00289A
:1059900022DA91FBF0F004F014FC41EC100B01F062
:1059A0004BFD53EC182B51EC100B04F06FFD06D897
:1059B00084ED01AAC4ED029A9FED550A26E09FED01
:1059C000550A84ED010AC4ED029A9FED530A84ED55
:1059D000030A9FED520A2EE01CDD91FBF0F004F06B
:1059E000F0FB41EC100B01F027FD53EC182B51ECB0
:1059F000100B04F04BFD10D89FED490A84ED010A0D
:105A00009FED480A84ED020A9FED470A84ED030AE0
:105A100084ED049ABDEC068B10BD9FED440A84ED25
:105A2000010A9FED430A84ED020A9FED420A84EDCC
:105A3000030A9FED410A84ED040AEBE7EADD002842
:105A40009FED3E9A2ADD91FBF0F004F0BAFB41ECA9
:105A5000100B01F0F1FC53EC182B51EC100B04F07F
:105A600015FD0ED89FED360A84ED010A9FED350A2B
:105A700084ED020A9FED340A84ED030A84ED04AA42
:105A8000C8E79FED320A84ED010A9FED310A84EDEB
:105A9000020A84ED039A9FED2F0ACCE7BADA91FB54
:105AA000F0F004F08EFB41EC100B01F0C5FC53EC60
:105AB000182B51EC100B04F0E9FC0CD89FED260AD2
:105AC00084ED010A9FED250A84ED020A84ED039A14
:105AD0009FED230AAFE79FED230A84ED010A9FEDB6
