:020000040800F2
:10000000C852002055030008834F0008CD44000863
:10001000814F0008B50D0008A95E0008000000002F
:100020000000000000000000000000009502000831
:100030009919000800000000F1020008CD570008DF
:100040006F0300086F0300086F0300086F030008C8
:100050006F0300086F0300086F0300086F030008B8
:100060006F0300086F0300086F0300086F030008A8
:100070006F0300086F0300086F0300086F03000898
:100080006F0300086F0300086F0300086F03000888
:10009000A10F00086F0300086F0300086F0300083A
:1000A0006F0300086F0300086F0300086F03000868
:1000B0006F0300086F0300086F0300086F03000858
:1000C0006F0300086F0300086F0300086F03000848
:1000D0006F030008515E00086F0300086F030008FB
:1000E0006F0300086F0300086F0300086F03000828
:1000F0006F0300086F0300086F0300086F03000818
:100100006F0300086F0300086F0300086F03000807
:100110006F0300086F0300089D5800086F03000874
:100120006F0300089D1700089F1700086F03000861
:100130006F0300086F0300086F0300086F030008D7
:10014000651000086F0300086F0300086F030008C4
:100150006F0300086F0300086F0300087D5E00084E
:100160006F0300086F0300086F0300086F030008A7
:100170006F0300086F0300086F0300080000000011
:100180006F0300086F0300086F0300086F03000887
:100190006F0300086F0300086F0300086F03000877
:1001A00000000000000000006F03000800F002F8EB
:1001B00000F061F80AA090E8000C82448344AAF1A0
:1001C0000107DA4501D100F056F8AFF2090EBAE89E
:1001D0000F0013F0010F18BFFB1A43F0010318477B
:1001E000C09B0000E09B00000A444FF0000C10F898
:1001F000013B13F0070408BF10F8014B1D1108BFA5
:1002000010F8015B641E05D010F8016B641E01F844
:10021000016BF9D113F0080F1EBF10F8014BAD1C94
:100220000C1B09D16D1E58BF01F801CBFAD505E0B2
:1002300014F8016B01F8016B6D1EF9D59142D6D30C
:10024000704700000023002400250026103A28BF34
:1002500078C1FBD8520728BF30C148BF0B60704738
:10026000642900F05781002070471FB509F00BFA90
:100270001FBD10B510BD00F0D9FA1146FFF7F5FF0C
:1002800007F0EAFA00F0F7FA03B4FFF7F2FF03BC55
:1002900000F0FAFA2C4B19680868B0E8F04F80F3C8
:1002A0000988BFF36F8F4FF0000080F3118870470B
:1002B0000000000008480068006880F308884FF0DC
:1002C000000080F3148862B661B6BFF34F8FBFF3AE
:1002D0006F8F00DF00BF00BF08ED00E0DFF80C000B
:1002E000016841F470010160704700BF88ED00E0D3
:1002F000EFF30980BFF36F8F134B1A681EF0100FD6
:1003000008BF20ED108A20E9F04F106009B44FF0CB
:10031000500080F31188BFF34F8FBFF36F8F07F04A
:10032000D5FF4FF0000080F3118809BC19680868F8
:10033000B0E8F04F1EF0100F08BFB0EC108A80F349
:100340000988BFF36F8F704738000020EFF30580F6
:10035000704700000948804709480047FEE7FEE76C
:10036000FEE7FEE7FEE7FEE7FEE7FEE7FEE7FEE765
:1003700004480549054A064B704700008D5800089F
:10038000AD010008C84C0020C8520020C84E002013
:10039000C84E002053EA020C00F069802DE9F04BB2
:1003A0004FF00006002B1FBFB3FA83F503FA05F4E4
:1003B00024FA05F65E4012BF1643B2FA82F502FA3D
:1003C00005F4C5F120051EBF22FA05FC44EA0C0421
:1003D000203556EA044C4FEA144418BF641C4FF011
:1003E00000084FF00009904271EB030C39D300294B
:1003F00019BFB1FA81F701FA07F6B0FA80F700FAEF
:1004000007F6C7F120071EBF20FA07FC46EA0C06D4
:100410002037B6FBF4FCA7EB0507103F07F01F0BD6
:10042000CBF120060CFA0BFB2CFA06F644BFB346C0
:100430000026202FA4BF5E464FF0000B5BEA060C9F
:1004400008BF4FF0010B19EB0B09ABFB027C48EB2B
:100450000608C01B06FB02CC0BFB03CC71EB0C01A6
:10046000C1E70B46024641464846BDE8F08B13B54E
:100470004FF000004FF00001AFF30080BDE81C40DA
:10048000704700000FB41CB5074B06AA7B446946B1
:100490000090059800F0A9F90020694600F0B8F92D
:1004A0001CBC5DF814FB0000810300002DE9F04145
:1004B0000E460446002020622046E168884730B39B
:1004C000252805D0D4E901219047206A401CF2E795
:1004D000E168204600278847050018D0A5F14100B3
:1004E000192802D820354FF40067324629462046A5
:1004F0002760FFF7B5FE40B1012804D0F61D26F0B5
:1005000007060836D8E7361DD6E72846DAE7206A18
:10051000BDE8F0812DE9F0410646002410687529F8
:10052000314616A510D0AFF30080002802DA404211
:1005300013A507E031688A0701D512A502E0490733
:1005400004D511A5012401E0AFF3008000210A22A7
:1005500006F1240709E0B0FBF2FCB0FBF2F302FB6A
:100560001C00303078541846491C0028F3D123462B
:100570002A463046BDE8F04100F0D8B8000000003F
:100580002D0000002B0000002000000040EA0103C5
:10059000024630B59B0710D14FF0013400E008C28D
:1005A00008C91D1B9D4315EAC41FF8D013F0FF01B5
:1005B00002F8011B0DD01B0AF8E711F8013B002BD4
:1005C00002F8013B05D011F8013B002B02F8013B7A
:1005D000F3D130BD032A40F2308010F0030C00F05C
:1005E000158011F8013BBCF1020F624498BF11F86D
:1005F00001CB00F8013B38BF11F8013BA2F1040226
:1006000098BF00F801CB38BF00F8013B11F003039D
:1006100000F02580083AC0F0088051F8043B083A01
:1006200051F804CBA0E80810F5E7121D5CBF51F8A3
:10063000043B40F8043BAFF30080D20724BF11F81D
:10064000013B11F801CB48BF11F8012B24BF00F882
:10065000013B00F801CB48BF00F8012B704710B5F3
:10066000203AC0F00B80B1E81850203AA0E81850AA
:10067000B1E81850A0E81850BFF4F5AF5FEA027C6B
:1006800024BFB1E81850A0E8185044BF18C918C0DA
:10069000BDE810405FEA827C24BF51F8043B40F87B
:1006A000043B08BF7047D20728BF31F8023B48BF60
:1006B00011F8012B28BF20F8023B48BF00F8012B9E
:1006C00070474FF0000200B5134694469646203915
:1006D00022BFA0E80C50A0E80C50B1F12001BFF4FB
:1006E000F7AF090728BFA0E80C5048BF0CC05DF861
:1006F00004EB890028BF40F8042B08BF704748BFAF
:1007000020F8022B11F0804F18BF00F8012B704722
:1007100070477047704710B500F080F8006810BD52
:1007200010B5044600F07AF8046010BD2DE9F047DA
:100730000D4699469246044600F124080168880651
:1007400004D5E06921F01001216000E00120A842F9
:1007500001DD471B00E00027A1697A1902EB0900BF
:10076000081AA0612078C00602D42046AFF30080AA
:10077000002608E0D4E901211AF806009047206A13
:10078000401C761C20624E45F4DB2078C0060AD55A
:100790002046AFF3008006E0D4E9012130209047E5
:1007A000206A401C2062381EA7F10107F4DC07E034
:1007B000D4E9012118F805009047206A401C206206
:1007C000281EA5F10105F3DC2046AFF30080207858
:1007D000000602D50220BDE8F0870120FBE70000FB
:1007E00001694A1C02610878704700B58FB0CDE9F5
:1007F00001310021059105497944CDE903101146E5
:100800006846FFF753FE0FB000BD0000E5FFFFFF95
:100810000A6802F8010B0A60704700000048704740
:10082000684C002000487047684C00207546FFF770
:10083000F9FFAE4605006946534620F0070085469D
:1008400018B020B5FFF794FDBDE820404FF000063A
:100850004FF000074FF000084FF0000B21F00701A8
:10086000AC46ACE8C009ACE8C009ACE8C009ACE8EB
:10087000C0098D46704710B50446AFF3008020468E
:10088000BDE81040FFF700BD01491820ABBEFEE7F0
:10089000260002007047000030B50C4605000CD061
:1008A000022C0AD90548A11E0288284601F07EFDC7
:1008B000291901F8020D000A487030BDD803002044
:1008C00030B50C46050008D0022C06D9FF22611E67
:1008D00001F082FD291901F8010C30BD10B5044664
:1008E00004F1440190ED243A274891EC030A0C39B5
:1008F000D1EC031A01F01AFB234801F06BF801F068
:100900007FFBD4ED181A2149C4ED1B1A84ED181A87
:10091000C4ED190A84ED1A0AD4ED110AB1EE080AE1
:1009200080EE802A84ED1E2AD4ED120A80EE802A01
:1009300084ED1F2AD4ED130A80EE802AF7EE000A18
:1009400084ED202A94ED170A84ED210A31EE610A24
:1009500010EE100A884204D994ED1D0A30EE200AE8
:1009600008E010EE100A0A4994ED1D0A884203DDE2
:1009700030EE600A84ED1D0ADFED060A00EE201A53
:1009800084ED1C1A10BD0000AC470020000096C387
:10099000000096430000B44370B504462DED068B6D
:1009A00090F89500002844D100254FF47A7620462F
:1009B00000F0D8F894ED0E0A01207AEE80AA94EDAA
:1009C0000F0A38EE008A94ED100A78EE808A94EDD2
:1009D000110A39EE009A94ED120A79EE809A94ED9C
:1009E000130A3AEE00AA02F0E3F96D1CB542DEDB11
:1009F000B7EE001A9FED100A0120CAEE800AC4ED7E
:100A0000050AC8EE000AC4ED060AC8EE800A70EEB8
:100A1000C10AC4ED070AC9EE000AC4ED080AC9EE0E
:100A2000800AC4ED090ACAEE000AC4ED0A0A84F875
:100A30009500BDEC068B70BD00007A4470B50E4683
:100A4000044601461546282000F08AF9022002F0EB
:100A5000AFF90A21292000F083F9022002F0A8F959
:100A60000121642000F07CF9022002F0A1F944F099
:100A70008001252000F074F9022002F099F9314636
:100A8000262000F06DF9022002F092F903213420B3
:100A900000F066F9022002F08BF90321672000F0D4
:100AA0005FF9022002F084F981212A2000F058F930
:100AB000062002F07DF945F08001272000F050F972
:100AC000BDE87040022002F073B9000030B585B077
:100AD000002414220B496846FFF7C1FD4FEA0D05BB
:100AE00005EB4400417815F8140000F039F90120B5
:100AF00002F05EF9641CE4B20A2CF1D303F0E7FCC7
:100B000005B030BD94970008F8B5134F15460E4652
:100B1000044600224021384602F076FA0F4944F09C
:100B2000800037240870891C4A1E08700123891E22
:100B30000B48009402F0CCFF08492B463246891C32
:100B40000748009402F0C4FF0446012240213846C1
:100B500002F05AFA2046F8BD00140240300300208B
:100B6000F0060020F0B587B0044602F053FA00EE1C
:100B7000100AF8EE400A9FED601A0E2202A980EEDC
:100B8000810A3B2084ED220AD4ED230A70EE600A2C
:100B9000C4ED240A84ED230AFFF7B6FF84F896001B
:100BA000062269464920FFF7AFFFBDF8080040BAAA
:100BB00006B22680BDF80A0000EE106A40BA05B2FF
:100BC0006580BDF80C00F8EEC00A40BA03B2A380FD
:100BD000BDF80E0040BA02B26282BDF8100040BA01
:100BE00001B2E180BDF8120040BA00B22081BDF828
:100BF00014707FBA3FB26781DDF800C0C4F80CC042
:100C0000BDF804C0A4F810C09FED3C0A20EE801A85
:100C100000EE905AF8EEE00A60EE801A00EE903A8C
:100C2000F8EEE00A20EE802A00EE101ADFED340A1A
:100C3000B8EEC00AC0EE202A00EE100A04F1380017
:100C4000B8EEC00A80EE203A00EE107AB8EEC00A84
:100C5000C0EE203A80EC061AB4F90C0000EE100A3F
:100C6000B8EEC00A84ED140AB4F90E0000EE100AC2
:100C7000B8EEC00A84ED150AB4F9100000EE100AAF
:100C8000B8EEC00A84ED160A00EE102AF8EEC00A8B
:100C90009FED1C4A80EE840AF3EE050A30EE200A2E
:100CA00084ED170A94F89500012823D194ED050AE4
:100CB00031EE400A84ED0E0A94ED060A31EEC00AC8
:100CC00084ED0F0A94ED070A32EE400A84ED100A13
:100CD00094ED080A32EEC00A84ED110A94ED090A77
:100CE00033EE400A84ED120A94ED0A0A33EEC00A8C
:100CF00084ED130A07B0F0BD00007A44000080398B
:100D00006F1283415CEFA64390ED180A80ED1B0A39
:100D10009FED030A80ED1C0A80ED1D0A704700005C
:100D20000000000008490A48084BD1F884200068F8
:100D30009A4202DA41F2873103E0012281F89420DD
:100D400000218163704700001447002000004842E2
:100D5000480700200421014803F07EBA480700201C
:100D6000F8B5114F0E46044600224021384602F0E5
:100D70004BF904F07F000D4C3725621C20700123D5
:100D8000511E0B48009502F0A3FE2670621C012341
:100D9000511E0748009502F09BFE01224021384673
:100DA00002F032F90020F8BD0014024030030020A8
:100DB000F0060020FEE70000284915280A684CD2FA
:100DC000DFE800F00B0E1114171A1D202326292C22
:100DD0002F3235383B3E4144470040F6ED603AE063
:100DE00040F64C5037E040F6D93034E040F62F3032
:100DF00031E040F6F6102EE04FF40E602BE04FF499
:100E0000FD6028E040F2767025E040F2A66022E026
:100E100040F2EC501FE040F297501CE040F2FB40E3
:100E200019E040F26F4016E040F2F33013E040F278
:100E3000BB3010E040F252300DE040F2F5200AE005
:100E400040F2CB2007E040F27D2004E040F2372062
:100E500001E040F2F910D062C860704790070020AE
:100E60000021014803F0F8B9900700207047000006
:100E700010B5054C22685063084601F099FF2168BF
:100E80000020486310BD00009007002010B5062028
:100E9000FFF792FF4FF48774C8212046FFF7E8FF61
:100EA0000420FFF789FFC8212046FFF7E1FF082053
:100EB000FFF782FFC8212046FFF7DAFF0420FFF783
:100EC0007BFFC8212046FFF7D3FF0820FFF774FF00
:100ED000C8212046FFF7CCFF0920FFF76DFFC8218E
:100EE0002046FFF7C5FF0820FFF766FFC821204610
:100EF000FFF7BEFF0420FFF75FFFC8212046FFF782
:100F0000B7FF0920FFF758FFC8212046FFF7B0FFC1
:100F10000820FFF751FFC8212046FFF7A9FF042052
:100F2000FFF74AFFC8212046FFF7A2FF0820FFF77E
:100F300043FF4FF4FA712046FFF79AFFBDE81040D7
:100F40004FF47A7001F034BF10B50720FFF734FF7B
:100F50004FF4877464212046FFF78AFF322001F0A6
:100F600027FF0720FFF728FF64212046FFF780FFB7
:100F7000322001F01DFF0720FFF71EFF64212046ED
:100F8000FFF776FF322001F013FF0B20FFF714FF6D
:100F90002046BDE810404FF47A71FFF769BF0000AA
:100FA000064800684069800706D505480122436865
:100FB0000448016801481847704700004C060020AB
:100FC000A8030020180000208EB0204E204D4FF0C6
:100FD000FF3940F206270DF124084A4605A9B069F9
:100FE00007F0C4FB059CBC4206D11422414668466A
:100FF000FFF735FB17481EE0A4F50070113809D043
:10100000103003280DD8142241466846FFF727FB0D
:10101000114810E0142241466846FFF720FB0F48B4
:1010200009E0A4F500710B390CD114224146684641
:10103000FFF715FB0A48DDE90612D0F800C020468C
:10104000089BE0476888401C6880C6E700000020D5
:10105000CC03002070030020400300207C0300200C
:1010600058030020064800684069800706D50548F7
:10107000022243680448016801481847704700008D
:1010800074060020A80300201C0000208EB0194E1A
:10109000194D4FF0FF3940F201270DF124084A465F
:1010A00005A9F06907F062FB059CBC4208D0A4F5D5
:1010B0000071023904D0A4F500710A3909D015E095
:1010C000142241466846FFF7CAFA0C48D0F808C017
:1010D00007E0142241466846FFF7C1FA0848D0F8F5
:1010E00004C0DDE906122046089BE0476888401CE2
:1010F0006880D4E700000020D203002040030020D5
:10110000580300203EB50D0A069C8DF804508DF85A
:101110000510110A8DF80610190A8DF808108DF8BF
:101120000930210A8DF80A1001A9009101460648EC
:101130008DF807208DF80B4040F2FF130022006865
:1011400000F0B4F83EBD0000200000203EB50D0ABE
:10115000069C8DF804508DF80510110A8DF80610C4
:10116000190A8DF808108DF80930210A8DF80A1037
:1011700001A90091014606488DF807208DF80B4023
:101180004FF400730022006800F090F83EBD0000AC
:10119000200000200EB50A0A8DF804208DF80510F5
:1011A00001A90091014604484FF40473002200682D
:1011B00000F07CF80EBD0000200000203EB50D0AB6
:1011C000069C8DF804508DF80510110A8DF8061054
:1011D000190A8DF808108DF80930210A8DF80A10C7
:1011E00001A90091014606488DF807208DF80B40B3
:1011F00040F2FF230022006800F058F83EBD0000D6
:101200002000002010B50446491EC8B200EB400182
:1012100001EB00100D49002201EB800101230A615E
:101220004A614A62C1E906230A604A608A600B6229
:101230002046CA6001F0FCFA204601F0FFFC20685D
:10124000416941F00201416110BD0000D04B002016
:10125000F0B5521E0E46D5B205EB450101EB051265
:10126000114993B001EB820404F128010F460A46AC
:1012700004F14403002101F061FB05EBC50268465F
:1012800000EB820539461C222846FFF7E8F9D4E92D
:101290001101C5E90701002329461A46304607F027
:1012A00005FA13B0F0BD0000D04B002010B58AB095
:1012B0000C9C009192B102930021CDE903210822F8
:1012C00005928DF818102168079161680023089134
:1012D0001A46694607F03AF90AB010BD0193EBE7E8
:1012E0008AB0084E6C464FF0FF3707AD3A46694664
:1012F000306A07F03BFA01232A46211D009801F0CD
:1013000029FAF3E70000002070B504462DED068BA6
:1013100001688D489FED8D0ADFED8D0A8D4DDFED63
:101320008E8AB0F90000A0F5B850243831B10129F7
:101330001AD002297ED003297DD1F0E001EE100AF7
:101340008648B8EEC11A21EE000A60EE200A94ED3C
:10135000040A84ED010A94ED050A84ED020A296865
:10136000B0EE680A8847D7E001EE100AB8EEC11A5D
:1013700021EE000A20EE208A18EE100A08F012F979
:1013800041EC100B05F03CFCB0EE409AF0EE609A98
:10139000606908F007F953EC192B07F00FFF41ECD7
:1013A000190B18EE100A08F0FDF841EC100B04F0D0
:1013B000E7FFB0EE40AAF0EE60AA206908F0F2F86C
:1013C00053EC1A2B07F0FAFE53EC192B08F000F837
:1013D00007F068FC606018EE100A08F0E3F841ECD2
:1013E000100B04F0CDFFB0EE401AF0EE601AB0EE34
:1013F000419AF0EE619A606908F0D4F853EC192B29
:1014000007F0DCFE41EC190B18EE100A08F0CAF8E0
:1014100041EC100B05F0F4FBB0EE40AAF0EE60AA30
:10142000206908F0BFF853EC1A2B07F0C7FE53EC05
:10143000192B01E008E07EE007F066FC07F032FCC3
:10144000A060C4ED038A76E001EE100AB8EEC11A7E
:1014500021EE000A20EE208A18EE100A08F0A2F809
:1014600041EC100B05F0CCFBB0EE409AF0EE609A28
:10147000606908F097F853EC192B07F09FFE41ECD8
:10148000190B18EE100A08F08DF841EC100B04F05F
:1014900077FFB0EE40AAF0EE60AA206908F082F86B
:1014A00053EC1A2B07F08AFE53EC192B07F090FF30
:1014B00007F0F8FB606018EE100A08F073F841ECD2
:1014C000100B04F05DFFB0EE409AF0EE609A606998
:1014D00008F068F853EC192B07F070FE41EC190B7B
:1014E00018EE100A08F05EF841EC100B05F088FBCE
:1014F000B0EE408AF0EE608A206908F053F853ECB1
:10150000182B07F05BFE53EC192B07F0FDFB07F0DF
:10151000C9FBB1EE040AA06084ED030A0BE0C4ED40
:10152000018AC4ED028AC4ED038AA9680B48884782
:10153000A9680B4888470B4841682046BDEC068BDC
:10154000BDE8704008470000D04800200000343D4E
:1015500035FA8E3CE802002000000000F000002078
:1015600028010020B80000201B490A781B49012AE5
:101570001DD0002A1AD191F8362091F83330D21AB2
:1015800000EE102AF8EEC00A9FED150A60EE800A00
:10159000C0ED040A11F82D2FC978511A00EE901AE7
:1015A000F8EEE00A20EE800A80ED050A7047B1F9F6
:1015B0001E304FF4967293FBF2F300EE103AB8EE41
:1015C000C00A80ED040AB1F9201091FBF2F100EE9F
:1015D000101AB8EEC00AE7E7B4000020B4460020B5
:1015E000CDCC0C4030B50020094A0124034600BF91
:1015F00052F820104D884DB181F8043052F8201077
:10160000401CC0B24B800228F2D330BD0C71F5E70C
:10161000C40300200548B0F85C1021B15FF0000160
:1016200080F85E1070470121FAE70000B446002000
:1016300004480021828B12B1817781837047012297
:101640008277FAE7F048002004480021828B12B12B
:1016500081778183704701228277FAE7D0480020A2
:1016600004480021828B12B1817781837047012267
:101670008277FAE71049002030B50020074B01249B
:10168000024600BF03EB40118D8B2DB18A77401CC1
:101690008A830428F6DB30BD8C77F8E710480020F9
:1016A00030B50020074B0124024600BF03EB401178
:1016B0008D8B2DB18A77401C8A830228F6DB30BDE2
:1016C0008C77F8E79048002004480021828A12B104
:1016D00081758182704701228275FAE730490020C6
:1016E0009FED0A0A80ED000A80ED010A80ED040AF0
:1016F00080ED030A80ED020A80ED080A80ED090AF8
:1017000080ED0A0A80ED0B0A70470000000000001F
:101710009FED030A002180ED000A0171704700006F
:1017200000000000F0B518480078002807D1174ADB
:10173000174C184992F8443013B120600860F0BD8E
:10174000134B92F8477001261D68124B1B6837B186
:10175000012D01D1012BF0D026600E60F0BD92F872
:101760004A702FB1022D01D1022BE6D00220E4E70E
:1017700092F859100029F1D007490A7B0AB1087381
:10178000F0BD0E73F0BD0000B4000020B446002090
:101790005846002088460020A44600207047704725
:1017A00001681823CAB2103AB2FBF3F2054B6FF38B
:1017B0000901032A9B5CC36500D9091D81650846A0
:1017C000704700007497000810B5014600208B692F
:1017D0008A6A4FF0C07453B1B3F5005F15D072B18F
:1017E000012A0CD0022A0AD0032A09D104E01AB136
:1017F000012A06D0022A03D1C96AC90100D50120F5
:1018000010BDC96AA142FAD010BD002AF7D0012A42
:10181000F2D0022AF3D0032AF3D010BD30B5046809
:10182000256825F480252560046863608368402B63
:10183000036803D099600068C26030BD9A60006898
:10184000C16030BDF0B500285FD08178C2788909C9
:1018500041EA820102792D4C41EA8221C1F30A0654
:10186000A6F58066E68301794279490841EAC2110A
:10187000C1F30A05A5F5806525840188C1F30A0333
:10188000A3F58063638441788278C90841EA4211F4
:10189000C1F30A02A2F58062A284018AC1F30A019F
:1018A000A1F5806121854779BF0984F826704779C1
:1018B000C7F3011784F82770C788E7820789278351
:1018C000077B07B10127A776477B07B10127E7769A
:1018D000C089608500201436282E00D8E083143596
:1018E000282D00D820841433282B00D8608414328B
:1018F000282A00D8A0841431282900D8208502F095
:10190000AFFF34F85C0F401C2080F0BDB4460020CF
:1019100010B50446806B0068016821F00101016088
:10192000A06B00684068042802D10748FFF78AFFCF
:10193000A16B162009684860A06B0068016841F03F
:101940000101016010BD0000B446002038B50168F7
:1019500000250A684A680092CA6842F40052CA60C8
:101960000168CA6842F01002CA600446094A90F849
:101970003E0020280DD11623A262A385256421688C
:10198000A06B091D01F0F0F92068416941F04001A8
:10199000416138BDB4460020704772B6FEE70000D2
:1019A000DFED0A0A9FED0A1A70EE600A10EE900A47
:1019B000B0F18B4F02DD30EE410A704710EE900A15
:1019C00010F16A5FF9D930EE010A70470020B9457D
:1019D00000000046103090EC040A70471FB5064B1B
:1019E00004460FCB8DE80F006946204600F092F8C0
:1019F000204600F003F81FBDA8970008114A10B553
:101A00001ECA00F1100CB2EE040A8CE81E00002180
:101A1000016241620122816280F82C2080ED0C0A73
:101A20008163C163016441648164C16480F85010C2
:101A3000416580F8581080F85910C16580F8601031
:101A400010BD0000B897000870B505462DED048B59
:101A5000B6EE008AB0EE409A90ED061AF0EE480A13
:101A600090ED070A41EE410AD0ED041A40EE400A1B
:101A700021EE800AD0ED051A01EE810A04F028FB60
:101A8000F0EE408AB0EE490A00F098FA38EEC00A4B
:101A9000002460EE088AB0EE680A04F0D5FCB0EECF
:101AA000408AB0EE680A05F00FF905F11000B1EEBA
:101AB000401AD0EC041AB0EE480A00EE904A60EEEC
:101AC000213A20EE024A60EE224A20EE030A40EE5E
:101AD000C23A00EE904A00EEA20A40EEC34A00EE7F
:101AE000A14A40EEE23A00EEC20A40EEA14A00EE00
:101AF000834A41EE433A01EE210A41EE024A01EEE9
:101B0000624A85ED070A1035C5EC033ABDEC048B3B
:101B100070BD000070B50D462DED028BF6EE008A0B
:101B200091ED000A9FED268A80ED000A91ED010AF1
:101B30000446B5EEC00AF1EE10FA28D0E86830B3DA
:101B400000F03CFA05F0C0F820EE280AF0EE000A9A
:101B500004F022FD84ED010A95ED020AB5EEC00AFB
:101B6000F1EE10FA16D0E868A0B100F027FA05F0FF
:101B7000ABF820EE280AF0EE000A04F00DFD84ED2B
:101B8000020AE868E06094F82C0030B109E084EDC6
:101B9000018AE1E784ED028AF3E794ED000A84ED1F
:101BA0000C0A94ED000AF2EE040A30EEC00AF0EEE0
:101BB000080A80EE201A84ED0D1ABDEC028B70BD70
:101BC000FFFF7F7F2DE9F04F04462DED0E8B203077
:101BD00083B00025B0EE64AAF0EE43AAB0EE63BA7B
:101BE000F0EE44BAB0EE40CAC0EC031AF0EE60CAA0
:101BF00094F82C00B0EE41DA012814D194ED0C0ACF
:101C0000D4ED0D0A00EECA0A84ED0C0AD4ED000AE8
:101C1000B4EEE00AF1EE10FA05D2C4ED0C0A84F835
:101C20002C5084F8585094ED070AB6EE008AD4ED93
:101C3000040A94ED053A94ED061AF0EE488A23EE74
:101C4000009A50EEA08A61EE009AA94600EEC19A71
:101C5000B0EE621A40EE839A40EE008AF0EE420A3D
:101C6000B0EE610ACA460126D34684F85060F0EE11
:101C700041EAB0EE60EAF0EE40DA00F040FAE8BB8C
:101C8000E168606D884211D9D4E90580E16927696E
:101C9000CDE900012046FFF7B1FEDDE900016565F1
:101CA000C4E90601C4E9047884F85860B0EE6E1AFD
:101CB000F0EE4E0AB0EE6D0A00F046FAF0EE682A39
:101CC000B0EE692AF0EE491A00F0F7F904F1380095
:101CD00080EC030A94F82C00012808D000F022FAC6
:101CE000D4ED010AB4EEE00AF1EE10FA20D804F1C6
:101CF000380007C881468A46934600E009E084F828
:101D00005050606D0A2801D30A2100E00021401ADA
:101D100060652F460120B84684F85900B0EE6B1A72
:101D2000F0EE4B0AB0EE6A0A00F0E9F918B169E08A
:101D3000606D401CECE784F86050E168E06D2E4671
:101D4000884214D9F0EE6B2AB0EE4B2AF0EE6A1AF4
:101D5000B0EE681AF0EE690AB0EE490A00F006F932
:101D60002046FFF771FE0120E66584F86000D4ED9F
:101D7000060A94ED040AD4ED051A94ED071A10EE44
:101D8000008A61EEA0DA20EE81EAF0EE6B2AB0EE76
:101D90004B2A40EE01DA00EE61EA00EEA08AF0EE96
:101DA0006A1AB0EE681AF0EE690AB0EE490A00F05D
:101DB00084F900F0C9F9F0EE4E2AB0EE482AF0EEB0
:101DC0006D1A00F07AF904F1440080EC030A94F8EB
:101DD0002C00012808D000F0A5F9D4ED020AB4EED9
:101DE000E00AF1EE10FA7CD8D4E91270656C8046F6
:101DF00084F85960E06D0A2801D30A2100E000212F
:101E0000401AE065B6EE000A00F0D8F8F0EE401A8D
:101E1000B0EE4D1AF0EE6C0AB0EE4C0A00F08DF9FF
:101E2000B0EE409AF0EE608AB0EE418A02EE908AFF
:101E300002EE107A01EE905A01EE10BA00EE90AA6E
:101E400000EE109A00F032F9D4ED0C1A00F075F99A
:101E5000F0EE412AB0EE602AF0EE401AB0EE481AD9
:101E6000F0EE680AB0EE490A00F020F9D4ED048AD9
:101E700094ED058A94ED069AD4ED079AF0EE4A1A8D
:101E800000F05BF928EE402A68EE802A68EEA01A7E
:101E900009EE602A49EE012A48EE411A09EEC12AEC
:101EA00028EE811A49EEE02A49EE801A08EE201A3F
:101EB00078EE220A79EE211A09EE401A38EE820AEB
:101EC000F0EE608AB0EE618A84ED040AC4ED050A82
:101ED00039EE811AC4ED061AF0EE409A84ED071A25
:101EE00000E020E029EEA90AB0EE419A08EEA80A27
:101EF00008EE080A09EE090A00F068F829EE801ACF
:101F000068EE800A68EE001A29EE000A84ED041AD1
:101F1000C4ED050AC4ED061A84ED070A03B0BDEC52
:101F20000E8BBDE8F08FE06D401C6AE7002110B514
:101F3000F0EE434A044604EE101A03EE901A03EE44
:101F4000101AFFF73FFE94F82C0001280AD194F8EC
:101F50005800002806D12046BDE810409FED020A37
:101F6000FFF772BD10BD00000000000010B52DEDA0
:101F7000048BF0EE419AB0EE609AF0EE408A00F0E9
:101F8000ADF800F0FDF8B0EE408AF0EE692AB0EE50
:101F9000492AF0EE681A00F0A1F800F0F1F8F0EE2E
:101FA000400AB0EE480A04F093F8DFED030ABDECF6
:101FB000048B20EE200A10BDE02E6542DFED020A00
:101FC00020EE200A7047000035FA8E3C10EE100A11
:101FD0009FED091A0749A1EB600020EE010A00EE0F
:101FE000900A20EE201A9FED050A01EE600A20EE0D
:101FF000200A704712141F5F12D3363FFF51D83F9B
:1020000010B52DED088BB6EE008AB0EE40AA01EEB9
:10201000418A2AEE200AF0EE609AB0EE419AF0EE84
:10202000618A01EE210AF0EE480A49EEE90A04F05D
:102030004FF8DFED1BAAB0EE491AF0EE681A20EE59
:102040002ABA2AEE010AF0EE000A01EEE90A20EEB1
:10205000200A10EE100A10F1814F02D39FED110AF1
:1020600009E010EE100AB0F17E5F02DB9FED0E0A70
:1020700001E003F097FF60EE2ABA08EEE88A2AEE44
:10208000280A09EE890AF0EE480A04F021F820EE49
:102090002A1AB0EE4B0AF0EE6B0ABDEC088B10BDAD
:1020A000E02E6542DB0FC9BFDB0FC93F30EE210ACE
:1020B00070EE820A31EE221A7047B0EE603A61EE9D
:1020C000210A63EE223A40EE620A41EE423A20EEE5
:1020D000021A03EE611AB0EE630A7047B0EE603A7E
:1020E00061EE210A63EE223A40EE620A41EE423A84
:1020F00020EE021A03EE611AB0EE630A7047B5EEE5
:10210000C00AF1EE10FA0BD1F5EEC00AF1EE10FAAA
:1021100006D1B5EEC01AF1EE10FA01D101207047D8
:102120000020704720EE000A60EEA00A21EE011A9E
:1021300030EE200A30EE010A704720EE210A60EEF0
:10214000A10A21EE211A704710B52DED048BF0EE97
:10215000418AB0EE608AB0EE409AFFF7E3FFFFF7E6
:1021600035FFF0EE401AB0EE681AF0EE480AB0EE15
:10217000490ABDEC048BBDE81040FFF7DEBF00004C
:1021800060EE001A20EEA02A61EE012A0E4971EEDF
:10219000821A71EEA21ADFED0D2A11EE900A61EE9D
:1021A000A21AA1EB600002EE100A61EE822ADFEDB6
:1021B000081A42EEC21A61EE821A20EE210A60EE7F
:1021C000A10A21EE211A704712141F5F12D3363F65
:1021D000FF51D83F10B51C48DDE90541A2B2B0F966
:1021E000003052BA438012B2240C028064BA848058
:1021F0008CB264BAC480091401720146D31A41F644
:102200006414B1F91810E34201DA491C04E041F604
:102210006414A34201DD491E0183B0F9181000EED9
:10222000102A00EE901A9FED091AB8EEC00AF8EED7
:10223000E00A00EE810ABDEEC00A80ED050A818B3E
:10224000491C818310BD0000F048002000000046BA
:1022500038B5002100910449002302460C69194653
:102260000248A04738BD0000A803002074060020E3
:1022700010B51C48DDE90541A2B2B0F9003052BAF0
:10228000438012B2240C028064BA84808CB264BA97
:10229000C480091401720146D31A41F66414B1F9DD
:1022A0001810E34201DA491C04E041F66414A34229
:1022B00001DD491E0183B0F9181000EE102A00EE6E
:1022C000901A9FED091AB8EEC00AF8EEE00A00EE87
:1022D000810ABDEEC00A80ED050A818B491C81830D
:1022E00010BD0000D04800200000004638B5002195
:1022F00000910449034600220C6911460248A04798
:1023000038BD0000A80300204C06002070B5184C12
:102310002068804717480068804717480068804752
:102320001648FFF75BFB1648FFF758FB1548416856
:10233000154888471548016815488847154D0121FB
:1023400015482A6890472A68022114489047144883
:10235000006880471348006880471349012048708F
:10236000A0688047BDE87040002005F0F5BE000081
:1023700098030020E80000201C030020C44900202E
:10238000AC47002000030020D8070020880300206D
:102390001C080020A80300204C0600207406002022
:1023A000C4000020D0000020AC00002010B558B1BF
:1023B000084C491E0BD310F8013B5340DBB234F8F4
:1023C000133083EA1222F4E74FF6FF7010BD104677
:1023D00010BD0000C898000810B5054C04E000BF0F
:1023E00010F8013B5340E25C491EF9D2104610BD83
:1023F000C897000870B52648284C264B0578264813
:102400009FED271ADFED270AC268E168012D2ED063
:10241000002D2BD100EE102AB3F91620B0EE082AB9
:1024200001EE902AB8EEC00AF8EEE11A01EE820A37
:102430009FED1D2ABDEEC00A80ED030AB3F9180016
:1024400000EE101A01EE900AB8EEC00AF8EEE11A9A
:1024500001EEC20ABDEEC00A84ED030AB8EEC00A5E
:1024600003F023FDBDEEC00A84ED030A70BDB3F98D
:102470002250962695FBF6F5521BC260B3F9240054
:10248000720090FBF2F0084400EE100AE060E5E70D
:10249000B4000020B4460020D0480020F0480020BE
:1024A0000000A0450040CE45CDCCCC3D044941F2D2
:1024B0002470C860034941F2A860C86070470000FA
:1024C000D0480020F04800202DE9F041984D044606
:1024D0002DED028B4FF000080068934F934E95ED61
:1024E000050A9FED948AC8B101287DD002287CD0CE
:1024F00003287ED185ED030AA5F81A80A7F81A8073
:10250000B1688D488847B1688C488847B1688C4865
:102510008847B1688B488847032002E1606808B1AA
:1025200085ED030A8848408CE0B1F8EEC00A824885
:10253000C4ED020A95ED030A3168B8EEC00A884777
:1025400084ED030AB5F904003168404200EE900AB8
:102550007A48F8EEE00A8847BDEEC00A10EE100A8D
:10256000688321E0B5F9000000EE100AB8EEC00A59
:10257000FFF716FAF0EE400A3168B0EE480A6E48EE
:10258000884784ED030AB5F904003168404200EE43
:10259000900A6A48F8EEE00A8847BDEEC00A10EEDD
:1025A000100A68836869E860B7F9000000EE100A55
:1025B0006348F8EEC00AC4ED040A97ED030A3168D7
:1025C000B8EEC00A884784ED050AB7F904003168FF
:1025D00000EE900A5B48F8EEE00A8847BDEEC00ABC
:1025E00010EE100A788302E007E048E001E0C4F84A
:1025F0000480BDEC028BBDE8F0816068012801D049
:1026000085ED030AF8EEC00A4B48C4ED020A95EDC9
:10261000030A3168B8EEC00A884784ED030AB5F9A9
:1026200004003168404200EE900A4448F8EEE00AA7
:102630008847BDEEC00A10EE100A6883B7F90000A3
:1026400000EE100A3E48F8EEC00AC4ED040A97ED09
:10265000030A3168B8EEC00A884784ED050AB7F965
:102660000400316800EE900A3648F8EEE00A884728
:10267000BDEEC00A10EE100A7883012051E0334805
:102680006168DFED330A90ED1C0A022907D080EE65
:10269000201A31EE081ABDEEC11A85ED031A80EE3C
:1026A000201A254831EE080ABDEEC00AF8EEC00A2D
:1026B000C4ED020A95ED030A3168B8EEC00A8847F6
:1026C00084ED030AB5F904003168404200EE900A37
:1026D0001A48F8EEE00A8847BDEEC00A10EE100A6C
:1026E0006883B7F9000000EE100A1548F8EEC00A3A
:1026F000C4ED040A97ED030A3168B8EEC00A8847B2
:1027000084ED050AB7F90400316800EE900A0D481F
:10271000F8EEE00A8847BDEEC00A10EE100A788392
:102720000220606065E70000F0480020E802002019
:10273000D04800200020B94598010020D001002099
:102740000802002040020020B44600201447002068
:102750000000343DF0B590F820500468A468012DC5
:1027600005D0022D03D0416A41F480215DE014F0D0
:10277000406F01D1E50055D5C4F30164022C03D9A3
:10278000416A41F4000150E00125A5401D608D68BB
:102790004FF4C0739DB1CE6835434E6845EAC60517
:1027A000066803EB0417F5514FF4C275076805EB93
:1027B00004150E697E51097D012905D009E00E88B6
:1027C000CD6845EA4655EBE701684E5946F48076F8
:1027D0004E511179D579567941EA056195792D04E3
:1027E00045EA062529434FF4C676056806EB04162C
:1027F000A9511178D57841EA0561957852782D0470
:1028000045EA022211434FF4C475026805EB041532
:102810005151006803EB0411425842F0010242504A
:102820000020F0BD416A41F4001141620120F0BD79
:1028300010B590F82020012A07D0022A05D0416A5D
:1028400041F480214162012010BD3B48D0F80022B4
:1028500042F00102C0F80022D0F8002222F47C529B
:10286000C0F80022D0F800224B6A42EA0322C0F8E6
:1028700000220A7D02F01F0301229A40D0F81C3288
:102880009343C0F81C32CB69B3B9D0F80C329343F0
:10289000C0F80C328C894B6864F31F434C6900EB21
:1028A000C404C4F840320C890B6864F31F434C69BC
:1028B00000EBC404C4F84432CB69012B16D1D0F824
:1028C0000C321343C0F80C320C884B6864F31F437E
:1028D0004C6900EBC404C4F840320C89CB6864F343
:1028E0001F434C6900EBC404C4F844328B69002BCD
:1028F000D0F804320ED01343C0F804320B69002B19
:10290000D0F8143208D01343C0F81432096A0129F0
:1029100004D008E09343EFE79343F5E7D0F81C12A7
:102920001143C0F81C12D0F8001221F00101C0F8C8
:102930000012002010BD00000064004030B590F887
:102940002040012C05D0022C03D0416A41F48021A3
:102950005DE00468002955D02469A40754D04FF4E1
:10296000D874056804EB01142D5915F00405956021
:1029700005682D594ED0ED08556005682C5904F0B6
:102980000204D4604FF4DA74056804EB01142D5985
:1029900005F00F05156105682D59C5F307259561EB
:1029A00005682C59240C54614FF4DC72046802EB66
:1029B0000112A4581C700468A458240A5C700468AE
:1029C000A458240C9C700468A258120EDA704FF4BC
:1029D000DE72046802EB0112A4581C710468A4584A
:1029E000240A5C710468A458240C9C710468A258E1
:1029F000120EDA71006881B1016941F020010161B4
:102A0000002030BDE468A8E7416A41F4001141624A
:102A1000012030BD6D0D1560AFE7C16841F02001A8
:102A2000C160EDE770B5040003D094F8200010B148
:102A300004E0012070BD204600F082F820680168A3
:102A400041F00101016000F0E5FA0546052604E0C9
:102A500000F0E0FA401B0A2811D820684068C0073F
:102A6000F6D02068016821F00201016000F0D2FA7E
:102A700005460BE000F0CEFA401B0A2806D9606A32
:102A800040F40030606284F82060D2E7206840683B
:102A90008007EFD4207E0128206801683DD021F016
:102AA00080010160607E01282068016838D021F033
:102AB00040010160A07E01282068016833D021F028
:102AC00020010160E07E0128206801682ED041F0DD
:102AD00010010160207F01282068016829D021F0C1
:102AE00008010160607F01282068016824D021F07E
:102AF00004010160D4E902010843D4E9041211433E
:102B000008436168491E08432168C861002060626B
:102B1000012084F82000002070BD41F08001C0E752
:102B200041F04001C5E741F02001CAE721F0100162
:102B3000CFE741F00801D4E741F00401D9E70000F4
:102B4000F0B587B0044614216846FDF7BAFD364B50
:102B50003648DFF8D0E01968D4F800C0334A0325BE
:102B60000226092710300024491CF44522D119609F
:102B7000012907D1016841F000710160006800F08F
:102B800000700590106840F0080010601068CDE9F2
:102B9000005600F00800CDE9047069462448CDE9EC
:102BA000024500F017F900220621142000F008FC6D
:102BB000142033E0DFF87CE0F44531D1D0F800C0D8
:102BC0004CF0806CC0F800C0D0F800C001290CF0B7
:102BD000806CCDF814C0196007D1016841F0007114
:102BE0000160006800F000700590106840F002007D
:102BF0001060106802AB00F0020005904FF44050E6
:102C0000CDE9000683E8B00069460B4800F0E2F821
:102C100000220621402000F0D3FB402000F0C2FB40
:102C200007B0F0BD006400402400002030380240AE
:102C3000000C0240006800400004024070B50446E9
:102C400090F82000012804D0606A40F400206062FF
:102C500018E0022084F820002068016821F00101BA
:102C6000016000F0D7F905460EE000BF00F0D2F990
:102C7000401B0A2808D9606A40F4003060620520D1
:102C800084F82000012070BD20684068C007EDD1A5
:102C9000606270BD2DE9F041044600F0BBF90646C4
:102CA0005CB1022084F83500002584F83450206897
:102CB000016821F0010101600DE00120BDE8F08113
:102CC00000F0A8F9801B052805D9202060650320A5
:102CD00084F83500F2E720680068C007F0D1226868
:102CE000116820480140D4E901031843D4E90336B0
:102CF0003343184363691843A3691843E3691843CE
:102D0000236A18430843616A042903D1D4E90B13E9
:102D100019430843106020684069666A20F0070183
:102D200030460E43012704280CD1A06A0643E06A0E
:102D300040B12046FEF748FD20B14020606584F890
:102D40003570BAE7206846612046FEF729FD94F801
:102D50005C203F2191408160656584F835700020DA
:102D6000ACE700003F8010F070B5044690F83400E6
:102D7000002501280CD0012084F8340094F8356037
:102D80000020012E06D084F834000225284670BDAC
:102D9000022070BD022684F8356060652046FEF78B
:102DA0003DFD2068016841F001010160EEE700008F
:102DB00070B5044600F02EF90546601C02D00448A8
:102DC0000078044400F026F9401BA042FAD370BDFD
:102DD000280000202DE9F84FDFF8F8A10022012497
:102DE00003254FF00F090AF1040BAAF1040E00BFEE
:102DF0000B6804FA02F63340B34270D10F7907F042
:102E00000307012F01D0022F16D187684FEA42082D
:102E100005FA08FC27EA0C07D1F80CC00CFA08FCEC
:102E20004CEA070CC0F808C04768B7430E79C6F3F0
:102E3000001696403E4346600E79F643B6070AD028
:102E4000C7684FEA420C05FA0CF6B7438E6806FADB
:102E50000CF63E43C6600E7906F00306022E10D132
:102E6000D60800EB8608D8F8206057074FEAD76CE1
:102E700009FA0CF7BE430F6907FA0CF73743C8F895
:102E8000207006684FEA420C05FA0CF7BE430F7932
:102E900007F0030707FA0CF7374307604E6816F48C
:102EA000403F1CD04C4E376847F480473760366847
:102EB00022F0030706F480460096484E07EB060C06
:102EC000DCF8086897073F0F09FA07F826EA0806B2
:102ED000DFF80C81404503D14FF0000841E072E07B
:102EE000DFF80081404502D14FF0010839E0DFF8FA
:102EF000F880404502D14FF0020832E0DFF8EC8064
:102F0000404502D14FF003082BE0DFF8E480404554
:102F100002D14FF0040824E0DFF8D880404502D108
:102F20004FF005081DE0DFF8D080404502D14FF09A
:102F3000060816E0DFF8C480404502D14FF00708CC
:102F40000FE0DFF8BC80404502D14FF0080808E0F0
:102F5000DFF8B080404502D14FF0090801E04FF0A2
:102F60000A0808FA07F848EA0608CCF80888DAF8E8
:102F700000605746D1F804C09E435FEACC2C00D5D0
:102F80001E433E60DBF800605F46D1F804C09E43FC
:102F90005FEA8C2C00D51E433E60DEF80060774669
:102FA000D1F804C09E435FEA8C3C00D51E433E60CE
:102FB000084F083F3E68D1F804C09E435FEACC3C0E
:102FC00000D51E433E60521C102AFFF411AFBDE82D
:102FD000F88F0000083C01404438024000300140B6
:102FE000000002400004024000080240000C0240C1
:102FF000001002400014024000180240001C024071
:1030000000200240002402400AB181617047090497
:10301000FBE700000148806870470000280000209E
:1030200090F83D20202A01D002207047242280F809
:103030003D200268136823F0010313600268536A9D
:1030400023F0100353620268536A0B435362016812
:103050000A6842F001020A60202180F83D10002039
:10306000704790F83D20202A01D00220704724228A
:1030700080F83D200268136823F0010313600368A1
:103080005A6A22F00F020A4391B2596201680A6833
:1030900042F001020A60202180F83D1000207047B4
:1030A00070B5040025D094F83D00002520B984F8BF
:1030B0003C50204600F0B8F8242084F83D002068F9
:1030C000016821F0010101602068016841F40041BC
:1030D00001602068016821F40041016000F05CFAA1
:1030E0004D4A6168914201D84C4900E04C49884200
:1030F00001D2012070BD4B492368B0FBF1F15E683D
:1031000026F03F060E435E606368934206D94FF493
:10311000967359434FF47A73B1FBF3F12368491C5A
:103120001E6A26F03F06314319626168914210D849
:103130004900401EB0FBF1F2521CC2F30B02042AFC
:1031400001D2042022E0B0FBF1F0401CC0F30B00E0
:103150001CE0A268F2B301EBC10303EB0116431EAE
:10316000B3FBF6F35B1C43F480431B0549D092B3D9
:1031700001EBC10202EB0111401EB0FBF1F0401C5B
:10318000C0F30B0040F4804040F400402168CA695D
:103190004CF6FF739A431043C861D4E9071001430A
:1031A0002068026822F0C00211430160D4E90301E3
:1031B00001432068826848F2FF339A4311438160DB
:1031C000D4E9050108432168CA6822F0FF021043D0
:1031D000C86001E00EE016E02068016841F00101DE
:1031E00001602564202084F83D00256384F83E506A
:1031F000002070BD01EB4106431EB3FBF6F35B1CE0
:10320000B3E70120C2E701EB4101401EB0FBF1F042
:10321000401CC0F30B00B7E7A086010080841E00AD
:1032200000093D0040420F0010B586B0044614214D
:103230006846FDF746FA1349206888421FD11248B4
:10324000016841F0200101600068122100F02000B7
:1032500005900320CDE900010121CDE902100420F1
:10326000049069460948FFF7B5FD0748103001682A
:1032700041F480010160006800F48000059006B010
:1032800010BD0000005800403038024000140240D9
:10329000024881680278114481607047280000204C
:1032A0000B4810B5016841F400710160016841F4F8
:1032B00080610160016841F480710160032000F0C9
:1032C0009FF8002000F006F800F050F8002010BD34
:1032D000003C024030B505461F4887B00024016815
:1032E00041F010010160006806A900F01000009094
:1032F00001A800F031F90498A8B100F04DF94000A0
:103300001649174AB0FBF1F11648491E026040F217
:10331000E732C0E90324C0E90114846100F014FD20
:10332000040003D015E000F037F9E9E70D4800F09C
:1033300059FD04000DD1362000F034F8102D07D2CD
:1033400000222946362000F03BF80748056000E0DF
:10335000012407B0204630BD4038024040420F00F3
:1033600000100040200900202C0000200C4882B0F2
:10337000016841F480410160006800F480400090E1
:103380000748001F016841F0805101600068002279
:1033900000F0805000900F21901E02B000F010B895
:1033A00044380240002809DB00F01F02012191404F
:1033B0004009800000F1E020C0F8001170470000D3
:1033C000F0B40E4B1B680C46C3F30223C3F1070590
:1033D000042D00D90425191D072901D2002300E07E
:1033E000DB1E012606FA05F1491E214099409E4048
:1033F000761E16403143F0BC02F0C4BD0CED00E077
:10340000064900F0070208684FF6FF03184040EA3B
:103410000220034A10430860704700000CED00E0F2
:103420000000FA052DE9F0470E46050065D0DFF8EB
:103430001481D8F80000F7B200F00F00B04207D2B4
:1034400088F80070D8F8000000F00F00B04254D1A6
:1034500028683D4C810712D5400703D5206840F409
:10346000E05020602878000703D5206840F46040D1
:1034700020602068A96820F0F000084320602878C8
:10348000C0072DD0304968680839012812D00228B9
:1034900013D0032811D00968890700292DDA216883
:1034A00021F0030101432160FFF7B4FD814641F2A1
:1034B000883A0EE009688903EFE709688901ECE7BB
:1034C000FFF7A8FDA0EB0901514502D90320BDE893
:1034D000F0872068696800F00C00B0EB810FEFD135
:1034E000D8F80010404601F00F01B14207D907702B
:1034F000006800F00F00B04201D00120E7E7287813
:10350000400705D52068E96820F4E05008432060B2
:103510002878000706D52068296920F4604040EA31
:10352000C100206000F058F82168084AC1F3031177
:10353000515CC8400649086006480068FFF7CAFEAB
:103540000020C4E7003C0240083802407C97000895
:10355000340000202C0000200F2202600C4A136867
:1035600003F003034360136803F0F0038360136800
:1035700003F4E053C36012684FF4E05303EAD2024D
:1035800002610448006800F00F0008607047000006
:1035900008380240003C02400448054900680968B8
:1035A000044AC1F38221515CC840704734000020B6
:1035B000083802408C9700080448054900680968EB
:1035C000044AC1F34231515CC840704734000020C6
:1035D000083802408C970008154810B5006810F0B4
:1035E0000C02144813D01449042A0FD0082A0ED113
:1035F0000F4C241F2268236802F03F025B0207D5AC
:103600002068C0F38810A0FB010106E0084610BD49
:103610002168C1F38811A1FB00010023FCF7BAFE69
:103620002168C1F30141491C4900B0FBF1F010BD14
:10363000083802400024F400001BB7002DE9F84FC1
:1036400004006ED02078DFF84C93C007A9F1040580
:103650004AD009F104000168C1F38101012908D0B1
:103660000068C0F3810002280AD1D9F800004002A6
:1036700006D52868800337D560680028E1D033E09C
:103680006068B0F5803F10D0B0F5A02F286810D04A
:1036900020F480302860286820F48020286060684A
:1036A000A8B1FFF7B7FC06460DE0286840F480306B
:1036B000F4E740F480202860F7E700BFFFF7AAFC9A
:1036C000801B642873D828688003F7D50CE0FFF7C7
:1036D000A1FC064605E000BFFFF79CFC801B6428A8
:1036E000F0D828688003F7D42078DFF8AC82800710
:1036F0004FF0000A3ED5A748001D016811F00C0FDD
:1037000008D00068C0F3810002280BD1D9F800006E
:10371000400207D42868800716D5E068012800D148
:1037200012E033E1E068B8B10120C8F80000FFF70B
:1037300071FC064605E000BFFFF76CFC801B022809
:10374000C0D828688007F7D52868216920F0F800DC
:1037500040EAC10028600DE0C8F800A0FFF75AFC5D
:10376000064604E0FFF756FC801B02281FD8286895
:103770008007F7D42078000722D5864F87486169F3
:10378000703771B101210160FFF744FC064604E087
:10379000FFF740FC801B022809D838688007F7D55E
:1037A0000EE0C0F800A0FFF735FC064605E082E019
:1037B000FFF730FC801B02287DD838688007F7D4DB
:1037C0002078400768D5DFF8CCB100270BF13C0B1F
:1037D000DBF80000C0000BD4DBF8001041F0805192
:1037E000CBF80010DBF80000012700F080500090BB
:1037F0006B4E3068C00510D4306840F48070306083
:10380000FFF708FC009005E0FFF704FC0099401A60
:10381000022850D83068C005F6D55E4EA0686C36D8
:1038200001280FD00528306810D020F0010030604A
:10383000306820F004003060A068B8B1FFF7EAFB00
:1038400000900FE0306840F00100F4E740F0040021
:103850003060F7E7FFF7DEFB0099411A41F288304C
:10386000814266D830688007F4D50EE0FFF7D2FBBE
:10387000009007E0FFF7CEFB0099411A41F2883033
:10388000814256D830688007F4D42FB1DBF800109D
:1038900021F08051CBF80010A069C8B33D49091D43
:1038A0000968C1F3810102294AD00228504607D095
:1038B000C8F8600000E03CE0FFF7ACFB04463BE0EA
:1038C0004746C8F86000FFF7A5FB064605E000BFC5
:1038D000FFF7A0FB801B02282BD828688001F7D4B3
:1038E000D4E907010843A16A2E4A490802EB0141C5
:1038F000626A41EA8211084394F82C1040EA01619F
:10390000C9F8001001203866FFF784FB044606E082
:103910003EE000BFFFF77EFB001B022809D82868A5
:103920008001F7D534E000BFFFF774FB001B0228CD
:1039300002D90320BDE8F88F28688001F4D427E07D
:103940000128F7D0D9F80000E26900F48001914223
:103950001CD1226A00F03F01914217D147F6C07195
:10396000626A0140B1EB821F10D1A26A4FF0FF33AF
:1039700000F4403103EB5202B1EB024F06D194F850
:103980002C1000F07060B0EB016F01D00120D1E786
:103990000020CFE70438024000004742800E474233
:1039A000007000400000FFFF70B5040009D0606A9D
:1039B000002540B125616561A56294F8510040B1D0
:1039C0000CE0012070BD6068B0F5827FF4D0E56145
:1039D000F2E784F85050204600F044F8022084F8C2
:1039E00051002068016821F040010160A088218910
:1039F00000F4827001F404410843A18901F40061DC
:103A00000843217C01F002010843217D01F00101FE
:103A10000843218B01F400710843217F01F0380134
:103A2000084394F8201001F080010843218D01F42F
:103A30000051084321680860A069042101EA104090
:103A400094F8241001F010010843216848602068B0
:103A5000C16921F40061C1616565012084F85100EC
:103A6000002070BD10B586B0044614216846FCF7EE
:103A700028FE14492068884221D113480021026899
:103A800042F480120260006800F4801005900E4835
:103A90001438026842F020020260006800F0200042
:103AA00005904FF4607000900220CDE901010320E1
:103AB00003900520049069460448FFF78BF906B08F
:103AC00010BD000000500140443802400014024084
:103AD0002DE9F84F044690F8500000270A9E1D4635
:103AE00092468B464FF0010901280ED0012084F840
:103AF0005000FFF78FFA804694F851006168012862
:103B00000CD0B1F5827F07D102E00220BDE8F88F2A
:103B1000A16809B9042801D00227C2E0BBF1000F57
:103B200027D0BAF1000F24D01DB394F85100042817
:103B300002D0052084F8510000206065C4F838A048
:103B4000E587A587C4F830B0E586A5862064606463
:103B500020680168490603D4016841F04001016012
:103B6000E068B0F5006F606805D0E8B3012D46D07D
:103B70007FE0012795E008B1012D39D1206B216844
:103B80000088C860206B801C2063E08E401EE086A9
:103B90002EE02068816889070FD5E18E69B1B9F1FF
:103BA000010F0AD1216B0988C160206B801C206342
:103BB000E08E401EE0864FF0000920688168C9074A
:103BC0000CD0E18F51B1C068A16B0880A06B801C44
:103BD000A063E08F401EE0874FF00109FFF71AFA5B
:103BE000A0EB0800B04200E009E001D3701C50D106
:103BF000E08E0028CDD1E08F0028CAD13FE0206BB5
:103C0000216800780873206B401C2063E08E401E02
:103C1000E0862EE02068816889070FD5E18E69B1C2
:103C2000B9F1010F0AD1216B09780173206B401C97
:103C30002063E08E401EE0864FF000092068816816
:103C4000C9070CD0E18F51B1C068A16B0870A06B9F
:103C5000401CA063E08F401EE0874FF00109FFF792
:103C6000D9F9A0EB0800B04202D3701C01D010E0DB
:103C70007EB1E08E0028CDD1E08F0028CAD1424627
:103C80003146204601F02AFC28B10127202060653A
:103C900007E0032705E0A06818B92068C1688068BC
:103CA0000090012084F85100002084F8500038462C
:103CB0002CE770477047000070B590F83C20012A4F
:103CC00032D0012480F83C40022280F83D20036875
:103CD0005A689D6822F070060A6832435A60134B96
:103CE00002689A4214D0B2F1804F11D0104B9A4220
:103CF0000ED0104B9A420BD00F4B9A4208D00F4B6C
:103D00009A4205D00E4B9A4202D00E4B9A4204D1F1
:103D1000496825F080031943916080F83D400021F7
:103D200080F83C10084670BD022070BD00000140C4
:103D30000004004000080040000C00400004014066
:103D4000004001400018004010B5040003D094F872
:103D50003D0010B107E0012010BD002084F83C00B8
:103D6000204600F01FF8022084F83D00211D206845
:103D700001F09AFD012084F8460084F83E0084F8A2
:103D80003F0084F8400084F8410084F8420084F841
:103D9000430084F8440084F8450084F83D00002086
:103DA00010BD000008B50C4A01680C48914207D1CB
:103DB000016841F002010160006800F0020009E0C2
:103DC000074A914207D1016841F040010160006853
:103DD00000F04000009008BD000400404038024060
:103DE0000018004090F83D10012901D001207047D3
:103DF000022180F83D100168CA6842F00102CA60E1
:103E000000681149884214D0B0F1804F11D00F4999
:103E100088420ED00E4988420BD00E49884208D005
:103E20000D49884205D00D49884202D00C4988428C
:103E300004D1816801F00701062903D0016841F02F
:103E400001010160002070470000014000040040B3
:103E500000080040000C0040000401400040014008
:103E60000018004070B5044690F83C000025012879
:103E700017D0012684F83C60022084F83D002068B9
:103E8000826822F0770222F47F428260086850281C
:103E900038D00DDC20284FD005DC90B3102811D18C
:103EA0004AE0022070BD302846D040280AD13BE0CD
:103EB00060282FD070280DD0B0F5805F03D0B0F50A
:103EC000005F12D0012584F83D60002084F83C009A
:103ED000284670BDCB68D1E90121206801F055FD6D
:103EE0002068816841F0770109E0CB68D1E90121C0
:103EF000206801F04AFD2068816841F480418160BA
:103F0000E1E719E0CA684968206801F013FE502112
:103F1000206806E0CA684968206801F01CFE60213C
:103F2000206801F03CFDCEE7CA684968206801F0CE
:103F300001FE40212068F4E7226801461046F0E7C0
:103F4000704770B50446006801694FF00005C94329
:103F5000890715D4C168C943890711D4E91E0161D5
:103F600001202077206880698007204602D0FFF773
:103F7000E7FF04E000F0DAF8204600F06CF925775E
:103F800020680169C943490717D4C168C943490773
:103F900013D46FF00401016102202077206880694A
:103FA00010F4407F204602D0FFF7CAFF04E000F083
:103FB000BDF8204600F04FF9257720680169C94314
:103FC000090716D4C168C943090712D46FF0080164
:103FD0000161042020772068C0698007204602D054
:103FE000FFF7AEFF04E000F0A1F8204600F033F93F
:103FF000257720680169C943C90617D4C168C94338
:10400000C90613D46FF010010161082020772068E1
:10401000C06910F4407F204602D0FFF791FF04E012
:1040200000F084F8204600F016F925772068016931
:10403000C943C90708D1C168C943C90704D1891E4A
:104040000161204600F06CF920680169C943090646
:1040500009D4C168C943090605D46FF08001016124
:104060002046FFF726FE20680169C943490609D4A6
:10407000C168C943490605D46FF04001016120467B
:1040800000F058F920680169C94389060BD4C1685A
:10409000C943890607D46FF0200101612046BDE8BD
:1040A0007040FFF707BE70BD10B586B004461421FE
:1040B0006846FCF706FB2368174C002117480222CC
:1040C000A34210D1036843F002030360006800F0CC
:1040D0000200059020200090CDE90121CDE90312D6
:1040E00069460F4813E00F4CA34212D1036843F016
:1040F00080030360006800F080000590402000907D
:10410000CDE901210920CDE9031069460648FEF7F3
:1041100061FE06B010BD00000004004030380240CF
:104120000004024000180040001C0240704770B5B7
:10413000044690F83C0000260D4601280FD00120CF
:1041400084F83C006AB1042A1DD0082A2FD00C2A1A
:104150003FD00126002084F83C00304670BD02208C
:1041600070BD206801F024FC2068816941F00801DD
:1041700081612068816921F0040181612068816981
:104180002A69114311E0206801F042FC206881692E
:1041900041F4006181612068816921F4806181615D
:1041A000206881692A6941EA02218161D2E7206899
:1041B00001F064FC2068C16941F00801C161206818
:1041C000C16921F00401C1612068C1692A691143F4
:1041D00011E0206801F086FC2068C16941F40061AB
:1041E000C1612068C16921F48061C1612068C16931
:1041F0002A6941EA0221C161ACE710B5040003D08D
:1042000094F83D0010B107E0012010BD002084F8B3
:104210003C00204600F01EF8022084F83D00211DDD
:10422000206801F041FB012084F8460084F83E003C
:1042300084F83F0084F8400084F8410084F842008C
:1042400084F8430084F8440084F8450084F83D0075
:10425000002010BD7047704710B50446022249B1D6
:1042600004290ED0082913D094F84100012816D053
:10427000012010BD94F83E000128F9D184F83E20B9
:104280000FE094F83F000128F2D184F83F2008E0C5
:1042900094F840000128EBD184F8402001E084F834
:1042A00041200122206801F063FB16492068164A6C
:1042B000884201D0904203D1436C43F400434364ED
:1042C0002068884213D0B0F1804F10D00F49884247
:1042D0000DD00F4988420AD00E49884207D090423B
:1042E00005D00D49884202D00C49884204D181682A
:1042F00001F00701062903D0016841F001010160C6
:10430000002010BD000001400004014000040040F6
:1043100000080040000C0040004001400018004030
:1043200000680349884201D1FEF7B2BF7047000020
:1043300000100040704770B5040004D094F83D00B0
:10434000002510B106E0012070BD84F83C502046E5
:1043500000F022F8242084F83D002068C16821F490
:104360000051C160204601F0EDFC2068016921F494
:10437000904101612068416921F02A014161206872
:10438000C16841F40051C1602564202084F83D00DB
:1043900084F83E00002070BDF0B587B006461421B9
:1043A0006846FCF78EF94348DFF804C114383568D5
:1043B00000244049022203230715654538D10D68C2
:1043C00045F010050D60096801F0100105910168C4
:1043D00041F0020101600068694600F002000590AA
:1043E000C020CDE900020120CDE90203072004909E
:1043F0003148FEF7EFFC324D304828607804C5E9BB
:104400000104C5E90347C0146C61C5E906402C628C
:1044100028466C62FEF73EFC08B1FDF7BEFAB563B4
:10442000002205212520AE63FEF7CAFF25203BE0D0
:10443000DFF890C0654539D10D6845F020050D6065
:10444000096801F020010591016841F04001016017
:104450000068694600F0400005904FF484408DE804
:1044600015000820CDE903301748FEF7B3FC144DC2
:1044700012486035183828608005C5E90104C5E98F
:1044800003476C61AC61EC612C6228466C62FEF7FC
:1044900001FC08B1FDF781FAB56300220521472030
:1044A000AE63FEF78DFF4720FEF77CFF07B0F0BD3F
:1044B00000100140443802400004024040640240C1
:1044C000600800200014014000180240FEE710B50B
:1044D00030216A20FCF744FC0A20FEF769FC0D211C
:1044E0002420FCF73DFC0A20FEF762FC0E21282068
:1044F000FCF736FC0A20FEF75BFC8E213120FCF72E
:104500002FFC0A20FEF754FC01210B2000F09CF840
:104510000A20FEF74DFC002000F05AF8102801D0C8
:10452000012010BD01210B2000F08EF80A20FEF7BB
:104530003FFC00210A2000F087F80A2000F048F82C
:1045400008B1022010BD0A20FEF732FC00210B202A
:1045500000F07AF80B2000F03BF808B1032010BD02
:104560000A20FEF725FC2421412000F06DF84120AF
:1045700000F02EF8242801D0042010BD0A20FEF7F8
:1045800017FCC021422000F05FF8422000F020F824
:10459000C02801D0052010BD0A20FEF709FC00212B
:1045A0002A20FCF7DDFB0A20FEF702FC0021342064
:1045B000FCF7D6FB0A20FEF7FBFB062203210E20A8
:1045C000FCF73CFA6420FEF7F3FB002010BD00006E
:1045D000F8B501463220FCF7C3FB0A20FEF7E8FBE2
:1045E00080213420FCF7BCFB0A20FEF7E1FB134ED0
:1045F000002240213046FEF707FD114CB52037253B
:104600002070621C0123511E0E480095FFF760FACE
:10461000621C0123511E0B480095FFF759FA012235
:1046200040213046FEF7F0FC647800213420FCF78E
:1046300097FB0A20FEF7BCFB2046F8BD00140240A1
:1046400030030020F006002070B50D46044600211E
:104650002A20FCF785FB0220FEF7AAFB2146292031
:10466000FCF77EFB0220FEF7A3FB29466420FCF743
:1046700077FB0220FEF79CFB81212A20FCF770FBD0
:10468000BDE870400A20FEF793BB10B5044680ECED
:10469000020A70EE600AD0ED031AC0ED041A90ED24
:1046A000021A80ED031AC0ED020A30EEC10A90ED45
:1046B000052A20EE020AB0EE002A80ED080A90EDED
:1046C000060A20EE200A41EE420A80ED090A94ED26
:1046D000071A70EEA10A60EE810AC4ED0A0AD4ED51
:1046E0000D0AB1EE601A01F0E0FB84ED090AD4ED89
:1046F000080A30EE800AD4ED0A0A30EE200A84ED72
:104700000B0AD4ED0D0AB1EE601AD4ED0C0A01F0DB
:10471000CCFB84ED0B0A10BD2DE9F047DFED3E1A0E
:10472000B3EE032A2DED048B0446F7EE008AD0ED9C
:10473000010A90ED020A90ED031A9FED368A70EEA1
:10474000C02A9FED369ADFF8D880364E41EE212AF6
:10475000DFF8D490002562EE822AC0ED072A70EEC1
:10476000802A41EE212A62EE822AC0ED082A70EEEC
:10477000602AF1EE600A30EEC00A41EE212A01EE15
:10478000210A62EE822A20EE020AC4ED092A84ED93
:104790000A0A00BF04EB850090ED070A20EE090A23
:1047A00080ED070AF0EEC00AF4EEC80AF1EE10FA46
:1047B00001DDB0EE608A18EE101A414503DDDFED31
:1047C0001B0AC0EE888A06EB451720EE280A80ED0A
:1047D000070ABDEEC00A10EE100A00B23882B7F91F
:1047E000041000EE101AD9F80010F8EEC00A00EE1E
:1047F000100A0F48B8EEC00A8847BDEEC00A6D1C0B
:10480000042D10EE100A7883C4DBBDEC048BBDE8E8
:10481000F087000000000000C3F5A83E0000C84279
:1048200000A00C4610480020E802002000A00C4622
:10483000280100200021017041708170704781784B
:104840000122491CC9B24B1E8170092B01D802708C
:1048500070470A29FCD9002101704270704700009E
:1048600010B55D4C94F82A00C10704F12C0002D069
:10487000FFF7E5FF01E0FFF7DDFF94F82A0081076D
:10488000554800F12F0002D5FFF7D9FF01E0FFF7EF
:10489000D1FF94F82A0041074F4800F1320002D5B9
:1048A000FFF7CDFF01E0FFF7C5FF94F82A000107ED
:1048B000494800F1350002D5FFF7C1FF01E0FFF7DD
:1048C000B9FF94F82A00C106434800F1380002D528
:1048D000FFF7B5FF01E0FFF7ADFF94F82A0081066E
:1048E0003D4800F13B0002D5FFF7A9FF01E0FFF7CB
:1048F000A1FF94F82A004106374800F13E0002D596
:10490000FFF79DFF01E0FFF795FF94F82A000106ED
:10491000314800F1410002D5FFF791FF01E0FFF7B8
:1049200089FF608DC1052C4800F1440002D5FFF7D6
:1049300086FF01E0FFF77EFF608D8105264800F1CC
:10494000470002D5FFF77BFF01E0FFF773FF608DA3
:104950004105214800F14A0002D5FFF770FF01E050
:10496000FFF768FF608D01051B4800F14D0002D57F
:10497000FFF765FF01E0FFF75DFF608DC10416489A
:1049800000F1500002D5FFF75AFF01E0FFF752FF98
:10499000608D8104104800F1530002D5FFF74FFFEE
:1049A00001E0FFF747FF608D41040B4800F156001E
:1049B00002D5FFF744FF01E0FFF73CFF608D0104E3
:1049C000054800F1590003D5BDE81040FFF737BF97
:1049D000BDE81040FFF72EBFB446002010B51248C6
:1049E000059B41F664149AB2B0F9001052BA4180A6
:1049F00012B21B0C02805BBA8380531A0146E34259
:104A0000B1F9181001DA491C04E041F66414A3421C
:104A100001DD491E0183B0F9181002EB41314161FB
:104A2000818B491C818310BD1049002038B50021BD
:104A300000910449002302468C6819460248A047A9
:104A400038BD0000A80300204C06002010B5401E11
:104A5000DDE9052193B2094CC0B204EB40105BBA0A
:104A6000120C038052BA82808AB252BAC2800914F0
:104A70000172818B491C818310BD00001048002009
:104A800038B50093034BDC6813460A4601460248DA
:104A9000A04738BDA80300204C06002030B51249BD
:104AA000DDE906321C0C9DB293B2A0F5007042F312
:104AB000074201380DD001280AD168BA088460BACB
:104AC000888458BAC88481F82820888F401C888739
:104AD00030BD68BA088060BA888058BAC8800A7247
:104AE000888B401C888330BD9048002038B5002258
:104AF0000092044A0023D4680A4601460248A047AF
:104B000038BD0000A803002074060020104810B52E
:104B10000E4901600321416000214FF410228160A1
:104B2000C0E903124FF4001242610176012242767D
:104B30008276C27601774177FDF774FF002803D0B3
:104B4000BDE81040FCF729BF10BD00000064004024
:104B50004C060020104810B50E4901600321416049
:104B600000214FF410228160C0E903124FF40012BB
:104B700042610176012242768276C27602774177DF
:104B8000FDF750FF002803D0BDE81040FCF705BF3B
:104B900010BD000000680040740600200D4808B5F4
:104BA000016841F4800101600068002200F4800087
:104BB000009005213920FEF703FC3920FEF7F2FBB7
:104BC000002211463A20FEF7FBFBBDE808403A20E0
:104BD000FEF7E8BB3038024030B5344DB7B02AACF0
:104BE00095E80F0084E80F0000212AA802F05CFE7F
:104BF0002F4C10350DF1B80CA06195E80F008CE832
:104C00000F0000212EA8103D02F04EFE2035E0617D
:104C100095E80F0032AD85E80F00002132A802F0C0
:104C200043FE224920621C2230316846FBF717FD03
:104C30000021684602F04BFE1C4920601C224C31CA
:104C400007A8FBF70CFD002107A802F040FE17495A
:104C500060601C2268310EA8FBF701FD00210EA840
:104C600002F035FE1149A0601C22843115A8FBF723
:104C7000F6FC002115A802F02AFE0C49E0601C2277
:104C8000A0311CA8FBF7EBFC00211CA802F01FFEC2
:104C9000064920611C22BC3123A8FBF7E0FC00215F
:104CA00023A802F014FE606137B030BD9C96000866
:104CB0000000002030B587B014216846FBF701FDE5
:104CC00021480024016841F002010160016801F0FF
:104CD00002010591016841F040010160016801F0A5
:104CE00040010591016841F001010160016801F096
:104CF00001010591016841F008010160016801F0BE
:104D000008010591016841F020010160016801F08E
:104D100020010591016841F08001016000680B4DA0
:104D200000F080000590012240212846FEF76CF932
:104D300001214020CDE90214CDE900016946284651
:104D4000FEF748F807B030BD30380240001402408A
:104D5000144810B5124901601349416000214FF415
:104D600080428160C0E9031241618161C1610162D9
:104D7000FEF796F908B1FCF710FE10210948FEF77E
:104D80004FF908B1FCF709FE00210648FEF769F962
:104D9000002803D0BDE81040FCF7FFBD10BD0000A7
:104DA000005800409C060020A0860100104810B565
:104DB0000E4901604FF48271416000218160C16041
:104DC0004FF400720161C0E905123022C0E90721E9
:104DD000416281620A21C162FEF7E6FD002803D02C
:104DE000BDE81040FCF7D9BD10BD000000500140E7
:104DF000F006002010B58CB00024079408940994A4
:104E00001C2168460A94FBF75CFC194817490160AD
:104E10002A21C0E90114C46004618461FEF794FF93
:104E200008B1FCF7BAFD4FF48050079007A910486D
:104E3000FFF718F808B1FCF7B0FD0D48FFF7DDF9F2
:104E400008B1FCF7AAFD6020CDE90004029400221D
:104E5000694607480494FFF76AF908B1FCF79DFD1D
:104E60000348FFF721F90CB010BD00000018004006
:104E70009007002010B58EB0002407940894099480
:104E80000A940B941C2168460C94FBF71AFC1E48EC
:104E90001C49C0E9001441F28731C0E902410461B4
:104EA0008461FEF751FF08B1FCF777FD4FF48050A5
:104EB000079007A91448FEF7D5FF08B1FCF76DFD70
:104EC0001148FFF79AF908B1FCF767FD0B940BA99D
:104ED0000D480C94FEF7F0FE08B1FCF75EFD602073
:104EE000CDE9000402940422694607480494FFF7C0
:104EF0001EF908B1FCF751FD0348FFF7D5F80EB0D5
:104F000010BD000000040040480700200C4810B508
:104F10000A4901600B494160002181600C22C16097
:104F2000C0E904128161C161FFF705FA002803D0CE
:104F3000BDE81040FCF731BD10BD0000001001407D
:104F4000D8070020A08601000C4810B50A4901606E
:104F50004FF4E1314160002181600C22C160C0E961
:104F600004128161C161FFF7E6F9002803D0BDE8B2
:104F70001040FCF712BD10BD001401401C080020B9
:104F8000FEE7FEE710B5044680EC020A70EE600A08
:104F900090ED021A80ED031AC0ED020A90ED050AA9
:104FA00020EE200A80ED080A90ED090AD0ED061ADD
:104FB00001EEA00A70EEC10A80ED090A90ED071A11
:104FC00060EE810AC4ED0A0AD4ED0D0AB1EE601A52
:104FD00000F06BFF84ED090AD4ED080A30EE800A78
:104FE000D4ED0A0A30EE200A84ED0B0AD4ED0C0A47
:104FF000B1EE601A00F059FF84ED0B0A10BDD0ED40
:10500000000AB6EE001A70EEC10AC0ED000AF4EE16
:10501000C00AF1EE10FA01D3B0EE600A80ED000A8A
:10502000002101717047F0EE400A90ED000AB6EEE3
:10503000001A30EE010A80ED000AB4EEE00AF1EE4B
:1050400010FA01DDB0EE600A80ED000AB4EE600AED
:10505000F1EE10FA01D10121017170472DE9F05FE5
:10506000864E0024A6F1A0050746DFF80C82A24672
:1050700005F1800BF7E0305DA52872D106EB04093D
:1050800040F20222B9F80510A1F2022091427BD031
:1050900013DC40F20110A1F20112814248D006DC7B
:1050A000012912D0022926D00329E6D12EE0032AB5
:1050B00049D0B2F5807FE0D155E0082851D2DFE831
:1050C00000F0D16F80D18C9AB0C3D8F81020484638
:1050D00014219047002844D04846143450F8071F44
:1050E000A9604168E9600189298299F81100A874D2
:1050F00085F89AA0B7E0D8F8102048460A219047D2
:1051000000282ED099F80700287670E0D8F81020F3
:10511000484629219047002823D0584809F1070123
:1051200020228638FBF756FA85F89AA029349AE0AF
:10513000D8F8102048460D219047002811D0D9F802
:10514000070028648AE0D8F8102048460B219047D1
:10515000002806D0D9F80700686485F89AA00B34B7
:1051600081E039E010E0D8F810204846242190472B
:1051700090B3424809F107011B225A38FBF72AFA7B
:1051800085F89AA024346EE0D8F8102048461921FA
:10519000904708B33948102209F1070140380AE066
:1051A000D8F81020484619219047A8B1334809F192
:1051B000070110223038FBF70DFA85F89AA0193450
:1051C00051E0D8F8102048460A21904720B199F8BC
:1051D00007008BF800000AE035E0D8F810204846B8
:1051E0000A21904778B399F807008BF8010085F8F9
:1051F0009AA00A3437E0D8F810204846102190478A
:1052000008B34946103451F8072FCBF804208A8898
:10521000ABF8082099F80D108BF80A1085F89AA0C1
:1052200021E0D8F8102048460F21904758B1D9F80E
:105230000720CBF80C20B9F80B00ABF8100085F86C
:105240009AA00F340FE00DE0D8F8102048460D2149
:10525000904738B1D9F80700CBF8140085F89AA028
:105260000D3400E0641CBC42FFF605AF35F8980F22
:10527000401C2880BDE8F09FDC030020D84A0020B5
:1052800038B504460068016840680090A06B00686B
:10529000016821F001010160A06B006840680C49C1
:1052A00080B20880C0F1F50080B2FFF7D7FEA16B95
:1052B000F52009684860A06B0068016841F00101B1
:1052C0000160044931F8980F401C088038BD000087
:1052D00094030020384A002038B5016800250A6888
:1052E0004A680092CA6842F40052CA600168CA68FB
:1052F00042F01002CA600446094A90F83E00202895
:105300000DD1F523A262A38525642168A06B091D38
:10531000FDF72AFD2068416941F04001416138BD37
:10532000D84A00201F4810B5014690F8263091F861
:105330002720022B01D1022A0AD0B0F85C0038B134
:105340000021194C0120032A06D0012A16D024E09E
:1053500016488068804720E02070154C154A012BC4
:105360000AD0022B02D0032B17D102E0216011607A
:1053700013E02060106010E00220FAE7012B0BD050
:105380000D4A022B02D0032B07D102E020701173CB
:1053900003E02070107300E02170BDE81040FCF7BE
:1053A000C1B90000B4460020B4000020A0000020D5
:1053B0005846002088460020A446002008B503F087
:1053C00011FB044C0090206880470221684602F0DF
:1053D0007DFEF8E7A0000020034903200860034990
:1053E00008600348C06800475846002088460020EF
:1053F000D000002070B51848184CB0F97A30B0F9D8
:105400005A20B0F93A106568B0F91A00A847144854
:10541000E268B0F93A10B0F91A009047124C1148FE
:10542000A168B0F91A0088471048E168B0F91A007D
:10543000884710490E484968B0F91A0088470E4855
:105440000E4990ED040A4968BDE87040BDEEC00AFF
:1054500010EE100A00B20847104800204003002058
:1054600090480020D048002058030020F048002039
:105470001049002070030020304900207C030020E8
:105480000E4810B5006880470D4C0E4821688847CB
:10549000A1680C4888470C4C0C4861688847A16893
:1054A0000A4888470A4C0B4861688847A168094840
:1054B000884709484068BDE810400047B000002018
:1054C000B800002058460020C40000208846002074
:1054D000D0000020A4460020A000002038B50446DB
:1054E0001248134B0068B0FBF3F04FF47A73584343
:1054F00000906068B0F5827F0DD10B4600920022CB
:105500008021204600F016F870B1606D40F0200058
:105510006065032038BD009830B1401E00902068BF
:105520008068C0430006F6D5002038BD3400002056
:1055300000366E012DE9F8431E4691468846044622
:10554000089DFDF767FD401B351AFDF763FD074613
:1055500025480068C0F3CB30684338E0701C37D072
:10556000FDF758FDC01BA84203D215B1009860B3E7
:105570002CE02068416821F0E00141606068B0F5EE
:10558000827F0BD1A068B0F5004F02D0B0F5806FDC
:1055900004D12068016821F040010160A06AB0F5E3
:1055A000005F09D12068016821F400510160206882
:1055B000016841F400510160012084F8510000208D
:1055C00084F850000320BDE8F8830025401E0090B9
:1055D0002068816838EA010004D000214945BDD126
:1055E0000020F0E70121F9E73400002070B50B4DF1
:1055F0000B4800242C7381680A4888470A4E0B48E0
:10560000B1688847B1680A488847B168094888473F
:10561000094884832C70AC7070BD0000A446002043
:10562000F4020020E0000020E802002060010020D9
:1056300078020020B0020020B44600200349002078
:10564000087303488168034808470000A446002007
:10565000F4020020E000002070B50446007B10B189
:1056600000F012FB01E000F0B5FA607B274D00214D
:10567000B8B32748274E9FED280A007801280DD09F
:1056800000280AD1207868B36869A0F5104000EEC0
:10569000100AB8EEC00A84ED010A70BD207868B126
:1056A000607830BB6869A0F5104000EE100A012058
:1056B000B8EEC00A84ED010A607070BDA07880B1B8
:1056C00084ED020AB5F90400316800EE900A13482F
:1056D000F8EEE00A8847BDEEC00A10EE100A6883B3
:1056E00070BD10E0FFE7607818B1A0780028E7D11E
:1056F000F6E795ED050A31680948F8EEC00A94ED21
:10570000010A8847DCE76983EAE7000010490020C6
:10571000B4000020E802002000409CC5B002002038
:105720007802002008B503F05DF9094C094D00909E
:10573000616809488847A16807488847E1680648C2
:105740008847686880470121684602F0BFFCEFE7A0
:105750001C030020E800002014470020DDE90312AC
:1057600088B240BA00B200EE100A1248090CB8EE36
:10577000C00A49BA09B280ED000A00EE101A91B2CF
:1057800049BAB8EEC00A09B280ED010A00EE101A5B
:10579000110C49BAB8EEC00A09B280ED020A00EE57
:1057A000101AB8EEC00A80ED030A818A491C818272
:1057B000704700003049002002494A69014602480A
:1057C00010470000A80300204C06002010B5502010
:1057D00080F31188BFF34F8FBFF36F8F03F008F989
:1057E00018B104494FF080500860002080F3118800
:1057F00010BD000004ED00E030B593B030216846E4
:10580000FAF75FFF14210CA8FAF75BFF1D4800258B
:10581000016841F080510160006800F080501190F3
:105820001948016841F4404101600068022400F415
:105830004040119001200090000401908001CDE9CA
:10584000064006200890A820CDE9090407200B9007
:105850006846FDF7F3FE08B172B6FEE70CA90F200B
:1058600081E831004FF4A0500F904FF48050109019
:1058700005210CA8FDF7D6FD002801D072B6FEE781
:1058800013B030BD4038024000700040024801684B
:1058900041F470010160704788ED00E00148FEF7B7
:1058A00050BB000020090020F0B50268254C264DB1
:1058B000264E274F274B4FF0804CA04209D0604521
:1058C00007D0A84205D0B04203D0B84201D09842D8
:1058D00004D122F0700E4A6842EA0E02A0421BD0A8
:1058E000604519D0A84217D0B04215D0B84213D0A5
:1058F000984211D0184DA8420ED0184DA8420BD096
:10590000174DA84208D0174DA84205D0164DA84201
:1059100002D0164DA84203D122F44075CA682A432A
:105920004D6922F080022A4302608A68C2620A68D6
:105930008262A04201D0984201D10969016301212C
:105940004161F0BD0000014000040040000800403B
:10595000000C0040000401400040014000440140B0
:105960000048014000180040001C0040002000409A
:1059700010B501F01F030121046A99408C430462B1
:10598000016A9A401143016210BD10B5846842EA71
:10599000032224F47F440A432243826010BD8268BC
:1059A00022F070020A4342F0070181607047000054
:1059B000F0B5026A22F001020262036A4268846959
:1059C000124E24F073050C682C4323F002058B68FB
:1059D0002B430D4DA84201D0B04205D123F008075A
:1059E000CB683B4323F00403A84201D0B04205D169
:1059F0004D6922F4407215438A692A4342608461EA
:105A0000496841630362F0BD0000014000040140A9
:105A1000F0B5026A22F010020262026A43688469E9
:105A20000D6824F4E64444EA05248D6822F020023F
:105A300042EA05120F4D104EA84201D0B04206D1E5
:105A4000CF6822F0800242EA071222F04002A84208
:105A500001D0B04207D14D6923F4406343EA850386
:105A60008D6943EA8503436084614968816302620A
:105A7000F0BD00000000014000040140F0B5026AE2
:105A800022F480720262026A4368C46922F40072DE
:105A900024F073050C68124E2C438D6842EA0522EF
:105AA0000E4DA84201D0B04206D1CF6822F4006268
:105AB00042EA072222F48062A84201D0B04207D114
:105AC0004D6923F4405343EA05138D6943EA0513F6
:105AD0004360C4614968C1630262F0BD00000140D7
