:020000040800F2
:10000000084E00204D030008B3410008A537000842
:10001000B141000859100008394C000800000000E8
:100020000000000000000000000000008D02000839
:100030008919000800000000E90200085147000883
:1000400067030008670300086703000867030008E8
:1000500067030008670300086703000867030008D8
:1000600067030008670300086703000867030008C8
:1000700067030008670300086703000867030008B8
:1000800067030008670300086703000867030008A8
:100090005D10000867030008670300086703000895
:1000A0006703000867030008670300086703000888
:1000B0006703000867030008670300086703000878
:1000C0006703000867030008670300086703000868
:1000D000670300080D4C0008670300086703000869
:1000E0006703000867030008670300086703000848
:1000F0006703000867030008670300086703000838
:100100006703000867030008670300086703000827
:100110006703000867030008214800086703000818
:1001200067030008670300088D17000867030008CD
:1001300067030008670300086703000867030008F7
:10014000211100086703000867030008670300081F
:1001500067030008670300086703000867030008D7
:1001600067030008670300086703000867030008C7
:100170006703000867030008670300080000000029
:1001800067030008670300086703000867030008A7
:100190006703000867030008670300086703000897
:1001A00000000000000000006703000800F002F8F3
:1001B00000F05CF80AA090E8000C82448344AAF1A5
:1001C0000107DA4501D100F051F8AFF2090EBAE8A3
:1001D0000F0013F0010F18BFFB1A43F0010318477B
:1001E000A8820000C88200000A444FF0000C10F8FA
:1001F000013B13F0070408BF10F8014B1D1108BFA5
:1002000010F8015B641E05D010F8016B641E01F844
:10021000016BF9D113F0080F1EBF10F8014BAD1C94
:100220000C1B09D16D1E58BF01F801CBFAD505E0B2
:1002300014F8016B01F8016B6D1EF9D59142D6D30C
:10024000704700000023002400250026103A28BF34
:1002500078C1FBD8520728BF30C148BF0B60704738
:100260001FB507F04CFF1FBD10B510BD00F0BAF967
:100270001146FFF7F5FF05F091FE00F0D8F903B441
:10028000FFF7F2FF03BC00F0DBF900002C4B19680C
:100290000868B0E8F04F80F30988BFF36F8F4FF024
:1002A000000080F3118870470000000008480068D3
:1002B000006880F308884FF0000080F3148862B66D
:1002C00061B6BFF34F8FBFF36F8F00DF00BF00BF7A
:1002D00008ED00E0DFF80C00016841F470010160F6
:1002E000704700BF88ED00E0EFF30980BFF36F8F28
:1002F000134B1A681EF0100F08BF20ED108A20E97A
:10030000F04F106009B44FF0500080F31188BFF334
:100310004F8FBFF36F8F06F08FFB4FF0000080F31D
:10032000118809BC19680868B0E8F04F1EF0100F7A
:1003300008BFB0EC108A80F30988BFF36F8F704755
:1003400038000020EFF3058070470000094880471F
:1003500009480047FEE7FEE7FEE7FEE7FEE7FEE7A7
:10036000FEE7FEE7FEE7FEE704480549054A064BBF
:100370007047000011480008AD010008084800203F
:10038000084E0020084A0020084A002053EA020CC8
:1003900000F069802DE9F04B4FF00006002B1FBFE5
:1003A000B3FA83F503FA05F424FA05F65E4012BFAA
:1003B0001643B2FA82F502FA05F4C5F120051EBF14
:1003C00022FA05FC44EA0C04203556EA044C4FEAB4
:1003D000144418BF641C4FF000084FF0000990420D
:1003E00071EB030C39D3002919BFB1FA81F701FA77
:1003F00007F6B0FA80F700FA07F6C7F120071EBF2C
:1004000020FA07FC46EA0C062037B6FBF4FCA7EB03
:100410000507103F07F01F0BCBF120060CFA0BFB72
:100420002CFA06F644BFB3460026202FA4BF5E4632
:100430004FF0000B5BEA060C08BF4FF0010B19EB05
:100440000B09ABFB027C48EB0608C01B06FB02CC89
:100450000BFB03CC71EB0C01C1E70B460246414696
:100460004846BDE8F08B13B54FF000004FF0000197
:10047000AFF30080BDE81C407047032A40F2308093
:1004800010F0030C00F0158011F8013BBCF1020FD5
:10049000624498BF11F801CB00F8013B38BF11F856
:1004A000013BA2F1040298BF00F801CB38BF00F86D
:1004B000013B11F0030300F02580083AC0F00880EA
:1004C00051F8043B083A51F804CBA0E80810F5E7CE
:1004D000121D5CBF51F8043B40F8043BAFF30080B1
:1004E000D20724BF11F8013B11F801CB48BF11F826
:1004F000012B24BF00F8013B00F801CB48BF00F8F6
:10050000012B704710B5203AC0F00B80B1E81850AD
:10051000203AA0E81850B1E81850A0E81850BFF4ED
:10052000F5AF5FEA027C24BFB1E81850A0E818508C
:1005300044BF18C918C0BDE810405FEA827C24BFE0
:1005400051F8043B40F8043B08BF7047D20728BF6E
:1005500031F8023B48BF11F8012B28BF20F8023BBD
:1005600048BF00F8012B70474FF0000200B513465A
:1005700094469646203922BFA0E80C50A0E80C50C3
:10058000B1F12001BFF4F7AF090728BFA0E80C5074
:1005900048BF0CC05DF804EB890028BF40F8042B6D
:1005A00008BF704748BF20F8022B11F0804F18BFDA
:1005B00000F8012B704770477047704710B500F086
:1005C00009F8006810BD10B5044600F003F8046097
:1005D00010BD000000487047A84700200048704741
:1005E000A84700207546FFF7F9FFAE4605006946AB
:1005F000534620F00700854618B020B5FFF7B4FE3B
:10060000BDE820404FF000064FF000074FF0000813
:100610004FF0000B21F00701AC46ACE8C009ACE894
:10062000C009ACE8C009ACE8C0098D46704710B5F8
:100630000446AFF300802046BDE81040FFF71FBE20
:1006400001491820ABBEFEE72600020070470000FB
:1006500010B52DED108BB0EE008ADFEDFECAFE4C1A
:10066000FE4894ED010AD4ED010A60EE20FA94ED03
:10067000010AD4ED020A20EE20CA94ED010AD4ED5D
:10068000030A60EE20BA94ED010AD4ED040A20EECC
:1006900020DA94ED020AD4ED020A60EE20DA94ED3D
:1006A000020AD4ED030A20EE209A94ED020AD4ED5A
:1006B000040A20EE20BA94ED030AD4ED030A60EE9A
:1006C00020AA94ED030AD4ED040A20EE20AA94EDAA
:1006D000040AD4ED040A60EE209A90ED060A84ED37
:1006E000080A90ED050A84ED090A90ED040A84EDEC
:1006F0000A0AB0F9001000EE101AB8EEC00A84ED34
:100700000B0AB0F9021000EE101AB8EEC00A84ED20
:100710000C0AB0F9041000EE101AB8EEC00A84ED0D
:100720000D0AB0F9061000EE101AB8EEC00A84EDFA
:100730000E0AB0F9081000EE101AB8EEC00A84EDE7
:100740000F0AB0F90A0000EE100AB8EEC00A84EDF4
:10075000100A01F043FFA064A06C616C401A00EE27
:10076000100AB8EE400ADFEDBE0AA06CC0EE208A87
:10077000606494ED0B0AD4ED0B0A94ED0C1A20EE94
:10078000200AD4ED0C0A00EE810AD4ED0D0A94ED96
:100790000D1A00EE810A05F0EBFBD4ED0B0A60EEBA
:1007A000800AC4ED0B0AD4ED0C0A60EE800AC4ED99
:1007B0000C0AD4ED0D0A20EE800A84ED0D0A9FED9F
:1007C000A90AB6EE001A84ED0E0A84ED0F0A84ED34
:1007D000100A71EE6A0A94ED0E0A39EE4DFA7BEEBC
:1007E0002B1A20EE080A70EEE9EA31EE6D1A60EE7F
:1007F0002E0A94ED0F0A31EE692A31EE6AEA20EEF4
:10080000080A40EE0F0A94ED100A20EE080A40EEA6
:10081000210A94ED0E0A79EE0D1A3BEE6BDA20EE0A
:10082000080A60EEA00A20EE210AD4ED0F1A61EE4C
:10083000881A01EE820AD4ED101A3AEE4C2A61EEC3
:10084000881A01EE820AD4ED0E1A3AEE0C2A61EEF5
:10085000881A40EE000A21EE8D9AD4ED0F1A10EEA0
:10086000900A61EE881A01EE829AD4ED101A61EEB8
:10087000881A01EE8E9A07F0D1FB41EC100B04F0C0
:1008800007FF51EC100B06F0C3FD01EE100A3CEE21
:100890000A3A69EE083A21EE082A7FEEED0A23EEC5
:1008A000080A94ED104A62EE0F1A70EEEA0A22EE80
:1008B0002E1A6DEE082A43EE831A3BEE8B3A70EE49
:1008C000A90A03EE8D1A22EE032A94ED0C3A03EEE8
:1008D0008E2A23EE203AD4ED0D3A03EEC03AD4ED41
:1008E0000F3A63EE823A44EE613A94ED0B4A33EEEE
:1008F000233AD4ED0D3A63EEA23AB5EEC03A44EE97
:10090000603AD4ED100A94ED0E4A60EE810A44EE8E
:10091000420A94ED0B2A22EE000A94ED0C2A73EEA3
:10092000A00A02EE620A94ED0E2A62EE211A94EDFC
:100930000F2A42EE411A30EE210AF1EE10FA3FD0B2
:10094000F5EEC00AF1EE10FA3AD0B5EEC00AF1EEBB
:1009500010FA35D063EE2C1A94ED051A01EEA81AA0
:1009600060EEAC1A84ED051A94ED061A01EEA81A91
:1009700060EE2C1A84ED061A94ED071A01EEA81AFF
:1009800084ED071A94ED081AD4ED051A08EE031A3F
:1009900031EE211A84ED081A94ED091A08EE201A96
:1009A000D4ED060A71EE200AC4ED090AD4ED0A0A54
:1009B00048EE000A94ED070A30EE800A84ED0A0A38
:1009C00094ED020AD4ED080A94ED091A94ED01AAF7
:1009D00020EEC00AD4ED030A94ED028A94ED039A46
:1009E00000EEC10AD4ED040A94ED0A1A00EEC10A21
:1009F000D4ED080A94ED0A1A00EE28AA94ED010A33
:100A000020EE200AD4ED030A00EE810AD4ED040A98
:100A100094ED091A00EEC10AD4ED090A94ED0A1A00
:100A200000EE288A94ED010A20EE200AD4ED020A95
:100A300000EEC10AD4ED040A94ED081A00EE810A12
:100A4000D4ED0A0A00EE289A94ED010A20EE200A5D
:100A50000AE000000AD7233C600200207C45002009
:100A60000000FA4400000000D4ED020A94ED091AD7
:100A7000D4ED049A00EE810AD4ED030A94ED081A2D
:100A800000EEC10A40EE289A2AEE0A0A08EE080A89
:100A900009EE090A09EEA90A05F06AFA6AEE000AE7
:100AA000C4ED010A68EE000AC4ED020A69EE000A0C
:100AB00029EE800AC4ED030A84ED040ABDEC108B14
:100AC00010BD000070B55F4C2DED0A8BF8EE008A6A
:100AD000B0EE008AB7EE00CA94ED030AD4ED030A23
:100AE00094ED041A20EE280A20EE200AD4ED040A20
:100AF00060EE880A00EEC10A30EE0C0A10EE100A11
:100B000007F08CFA94ED020AD4ED030A94ED041A6E
:100B100020EE080A41EC190B20EE200AD4ED010A60
:100B200060EE880A00EE810A10EE100A07F076FAED
:100B300041EC100BB0EE491AF0EE691A04F0D4FB48
:100B40009FED41BB51EC100B53EC1B2B06F070FFDB
:100B50009FED3FAB53EC1A2B07F09EF806F058FCC4
:100B60003D4D686394ED020AD4ED040A94ED031A36
:100B700020EE280A20EE200AD4ED010A60EE880A51
:100B800000EE810A10EE100A07F048FA41EC100B53
:100B900004F08EF853EC1B2B51EC100B06F048FFC1
:100BA00053EC1A2B07F078F806F032FCA86394EDAA
:100BB000020AD4ED020A94ED031A20EE280A20EE70
:100BC000200AD4ED030A60EE880A00EEC10A30EE76
:100BD0000C0A10EE100A07F021FA94ED030AD4ED86
:100BE000040A94ED021A20EE080A41EC190B20EEDB
:100BF000200AD4ED010A60EE880A00EE810A10EEA8
:100C0000100A07F00BFA41EC100BB0EE491AF0EEA7
:100C1000691A04F069FB53EC1B2B51EC100B06F026
:100C200007FF53EC1A2B06F025FC06F0F1FBE863F6
:100C300005F15401BDEC0A8B2846BDE8704000F078
:100C400047B80000600200206666666666A64C40F3
:100C500000000000008066407C450020034890F8BA
:100C60002A1001B1012180F82B107047D0450020D7
:100C700030B585B0642001F07FFB002414221249B6
:100C80006846FFF73FFC6D4605EB4400417815F8D8
:100C9000140000F0B7F9012001F06EFB641CE4B20F
:100CA0000A2CF1D318211B2000F0ACF910211C20D4
:100CB00000F0A8F902F077FD0449012081F829002D
:100CC00005B0002030BD00000C820008D045002097
:100CD0002DE9F04190ED030A274F0E46054681EDC0
:100CE000090A002405EB840006EB840190ED0D0A4F
:100CF00081ED000A90ED0D0AD0ED100A30EE600A89
:100D000010EE102ABA4205D905EB440232F84C3FE6
:100D10005B1C138090ED100AD0ED0D0A30EE600AD6
:100D200010EE102ABA4205D905EB440232F84C3FC6
:100D30005B1E138005EB4402D0ED0D0AB2F84C2087
:100D40004FF4B47312FB03F200EE102AB8EEC00A9F
:100D500030EE800A81ED060A90ED0D0A0C3180ED2F
:100D6000100AB7EE000A1C3000F011FE641C032CC0
:100D7000B8DBBDE8F0810000000096C310B50E227C
:100D800043493B2000F0DCF84149883181F82A00D2
:100D90003F4800F11004018849BA2180418849BACE
:100DA0006180818849BAA180C18849BAA18101893D
:100DB000628B49BA891A61824189A28B49BA891A20
:100DC00021828089E18B40BA401AE08131490622B4
:100DD000492000F0B5F82F492D484C399FED2E1AC7
:100DE000CA6CC0F81620B1F8501041830169416304
:100DF000416981638169C163B4F90C0000EE100A96
:100E000004F12400F8EEC00A80EE810AF3EE050A30
:100E100030EE200A80ED030AB4F9121000EE101A29
:100E2000F8EEC00A9FED1D0A80EE801ADFED1C0A65
:100E3000C1EE201AC0ED061AB4F9102001EE102AF6
:100E4000F8EEC11A81EE801AC1EE201AC0ED051A23
:100E5000B4F90E3001EE103AF8EEC11A81EE801AA4
:100E600081EE200A80ED040A00EE101AB8EEC00AE6
:100E700080ED090A00EE102AB8EEC00A80ED080ADB
:100E800000EE103AB8EEC00A80ED070A10BD00006F
:100E900048450020AC0200205CEFA6436F1283415E
:100EA0003333654270B50E46044601461546282088
:100EB00000F0A8F8022001F05FFA0A21292000F0D2
:100EC000A1F8022001F058FA0121642000F09AF8FC
:100ED000022001F051FA44F08001252000F092F840
:100EE000022001F049FA3146262000F08BF802205A
:100EF00001F042FA0321342000F084F8022001F0CE
:100F00003BFA0321672000F07DF8022001F034FA5B
:100F100081212A2000F076F8062001F02DFA45F014
:100F20008001272000F06EF8BDE87040022001F03B
:100F300023BA10B5FFF79CFEBDE8104003F078B966
:100F4000F8B5144F15460E46044600224021384697
:100F500001F03EFB104944F0800037240870523104
:100F6000A1F151020870012352390C48009401F09C
:100F70005BFF09492B46324652310848009401F084
:100F800053FF044601224021384601F021FB204650
:100F9000F8BD00000014024060020020DC050020C3
:100FA00010B50021094A0C4602EB810393ED0D0AAE
:100FB00083ED100A00EB810383ED060A02EB410387
:100FC000491CA3F84C400329EEDB10BD7C450020F2
:100FD00010B509490A48094C4B6A00220068A3422F
:100FE00005DA41F28733836381F8282010BD01239D
:100FF00081F82830826310BDD045002000004842AF
:1010000034060020F8B5114F0E4604460022402158
:10101000384601F0DDFA04F07F000D4C3725621CE4
:1010200020700123511E0B48009501F0FDFE267033
:10103000621C0123511E0748009501F0F5FE0122B4
:101040004021384601F0C4FA0020F8BD00140240E7
:1010500060020020DC050020FEE700000648006872
:101060004069800706D505480122436804480168A5
:1010700001481847704700008C0500200803002035
:10108000180000208EB0204E204D4FF0FF3940F266
:1010900006270DF124084A4605A9B06905F01CFF92
:1010A000059CBC4206D1142241466846FFF72AFA45
:1010B00017481EE0A4F50070113809D0103003283D
:1010C0000DD8142241466846FFF71CFA114810E07B
:1010D000142241466846FFF715FA0F4809E0A4F5C7
:1010E00000710B390CD1142241466846FFF70AFA09
:1010F0000A48DDE90612D0F800C02046089BE04708
:101100006888401C6880C6E7000000202C0300208F
:10111000F0020020C0020020FC020020D8020020C3
:10112000064800684069800706D5054802224368E2
:10113000044801680148184770470000B4050020C2
:10114000080300201C0000208EB0194E194D4FF0EE
:10115000FF3940F201270DF124084A4605A9F0693C
:1011600005F0BAFE059CBC4208D0A4F50071023916
:1011700004D0A4F500710A3909D015E014224146C3
:101180006846FFF7BFF90C48D0F808C007E0142202
:1011900041466846FFF7B6F90848D0F804C0DDE9D3
:1011A00006122046089BE0476888401C6880D4E708
:1011B0000000002032030020C0020020D8020020DE
:1011C0003EB50D0A069C8DF804508DF80510110AE5
:1011D0008DF80610190A8DF808108DF80930210ACB
:1011E0008DF80A1001A90091014606488DF80720E4
:1011F0008DF80B4040F2FF130022006800F0B4F8B5
:101200003EBD0000200000203EB50D0A069C8DF872
:1012100004508DF80510110A8DF80610190A8DF882
:1012200008108DF80930210A8DF80A1001A90091E3
:10123000014606488DF807208DF80B404FF40073E7
:101240000022006800F090F83EBD00002000002061
:101250000EB50A0A8DF804208DF8051001A9009139
:10126000014604484FF404730022006800F07CF843
:101270000EBD0000200000203EB50D0A069C8DF832
:1012800004508DF80510110A8DF80610190A8DF812
:1012900008108DF80930210A8DF80A1001A9009173
:1012A000014606488DF807208DF80B4040F2FF23D9
:1012B0000022006800F058F83EBD00002000002029
:1012C00010B50446491EC8B200EB400101EB001006
:1012D0000D49002201EB800101230A614A614A6243
:1012E000C1E906230A604A608A600B622046CA6030
:1012F00000F082FD204600F085FF2068416941F042
:101300000201416110BD000010470020F0B5521EDF
:101310000E46D5B205EB450101EB0512114993B01C
:1013200001EB820404F128010F460A4604F144034C
:10133000002100F0E7FD05EBC502684600EB8205E1
:1013400039461C222846FFF7DDF8D4E91101C5E92A
:101350000701002329461A46304605F05DFD13B00B
:10136000F0BD00001047002010B58AB00C9C009121
:1013700092B102930021CDE90321082205928DF854
:101380001810216807916168002308911A46694680
:1013900005F092FC0AB010BD0193EBE78AB0084E4D
:1013A0006C464FF0FF3707AD3A466946306A05F0A4
:1013B00093FD01232A46211D009800F0AFFCF3E7BE
:1013C0000000002070B504462DED068B01688D48A5
:1013D0009FED8D0ADFED8D0A8D4DDFED8E8AB0F920
:1013E0000000A0F5B850243831B101291AD00229E3
:1013F0007ED003297DD1F0E001EE100A8648B8EED8
:10140000C11A21EE000A60EE200A94ED040A84ED70
:10141000010A94ED050A84ED020A2968B0EE680A13
:101420008847D7E001EE100AB8EEC11A21EE000A93
:1014300020EE208A18EE100A06F0F0FD41EC100BA9
:1014400004F0C2F8B0EE409AF0EE609A606906F0DF
:10145000E5FD53EC192B06F0EBFA41EC190B18EEF5
:10146000100A06F0DBFD41EC100B04F03DF8B0EE85
:1014700040AAF0EE60AA206906F0D0FD53EC1A2BCA
:1014800006F0D6FA53EC192B06F0DEFC05F0C0FF8F
:10149000606018EE100A06F0C1FD41EC100B04F07C
:1014A00023F8B0EE401AF0EE601AB0EE419AF0EE7A
:1014B000619A606906F0B2FD53EC192B06F0B8FA98
:1014C00041EC190B18EE100A06F0A8FD41EC100BC8
:1014D00004F07AF8B0EE40AAF0EE60AA206906F0B7
:1014E0009DFD53EC1A2B06F0A3FA53EC192B01E0E7
:1014F00008E07EE005F0BEFF05F08AFFA060C4EDC5
:10150000038A76E001EE100AB8EEC11A21EE000A55
:1015100020EE208A18EE100A06F080FD41EC100B38
:1015200004F052F8B0EE409AF0EE609A606906F06E
:1015300075FD53EC192B06F07BFA41EC190B18EEF4
:10154000100A06F06BFD41EC100B03F0CDFFB0EE7E
:1015500040AAF0EE60AA206906F060FD53EC1A2B59
:1015600006F066FA53EC192B06F06EFC05F050FFFE
:10157000606018EE100A06F051FD41EC100B03F00C
:10158000B3FFB0EE409AF0EE609A606906F046FD57
:1015900053EC192B06F04CFA41EC190B18EE100A1B
:1015A00006F03CFD41EC100B04F00EF8B0EE408A62
:1015B000F0EE608A206906F031FD53EC182B06F03E
:1015C00037FA53EC192B05F055FF05F021FFB1EE6A
:1015D000040AA06084ED030A0BE0C4ED018AC4EDA7
:1015E000028AC4ED038AA9680B488847A9680B489A
:1015F00088470B4841682046BDEC068BBDE870402B
:1016000008470000A44600200000343D35FA8E3C17
:101610001C02002000000000CC000020040100207B
:10162000AC0000200B494FF49672B1F91C3093FBCB
:10163000F2F300EE103AB8EEC00A80ED040AB1F9F8
:101640001E1091FBF2F100EE101AB8EEC00A80ED08
:10165000050A7047E844002030B50020094A0124FB
:10166000034600BF52F820104D884DB181F8043078
:1016700052F82010401CC0B24B800228F2D330BD7B
:101680000C71F5E7240300200548B0F85A1021B189
:101690005FF0000180F85C1070470121FAE700005C
:1016A000E844002004480021028B12B181760183B6
:1016B000704701228276FAE7C046002004480021E4
:1016C000028B12B181760183704701228276FAE79C
:1016D000A446002004480021028B12B181760183C8
:1016E000704701228276FAE7DC46002030B5002000
:1016F000084B0124024600BFC0EBC00103EB81018F
:101700000D8B2DB18A76401C0A830428F4DB30BD92
:101710008C76F8E7FC45002030B50020084B01240A
:10172000024600BFC0EBC00103EB81010D8B2DB160
:101730008A76401C0A830228F4DB30BD8C76F8E7F9
:101740006C46002004480021828A12B18175818292
:10175000704701228275FAE7F84600209FED0A0AD9
:1017600080ED000A80ED010A80ED040A80ED030A95
:1017700080ED020A80ED080A80ED090A80ED0A0A70
:1017800080ED0B0A70470000000000007047000069
:1017900001681823CAB2103AB2FBF3F2054B6FF39B
:1017A0000901032A9B5CC36500D9091D81650846B0
:1017B00070470000EC81000810B5014600208B69DD
:1017C0008A6A4FF0C07453B1B3F5005F15D072B19F
:1017D000012A0CD0022A0AD0032A09D104E01AB146
:1017E000012A06D0022A03D1C96AC90100D5012005
:1017F00010BDC96AA142FAD010BD002AF7D0012A53
:10180000F2D0022AF3D0032AF3D010BD30B5046819
:10181000256825F480252560046863608368402B73
:10182000036803D099600068C26030BD9A600068A8
:10183000C16030BDF0B500285FD08178C2788909D9
:1018400041EA820102792D4C41EA8221C1F30A0664
:10185000A6F58066A68301794279490841EAC2115A
:10186000C1F30A05A5F58065E5830188C1F30A0384
:10187000A3F58063238441788278C90841EA421144
:10188000C1F30A02A2F580626284018AC1F30A01EF
:10189000A1F58061E1844779BF0984F82470477914
:1018A000C7F3011784F82570C788E7820789278363
:1018B000077B07B10127A776477B07B10127E776AA
:1018C000C089208500201436282E00D8A083143526
:1018D000282D00D8E0831433282B00D8208414321C
:1018E000282A00D860841431282900D8E08402F026
:1018F00025F934F85A0F401C2080F0BDE844002040
:1019000010B50446806B0068016821F00101016098
:10191000A06B00684068042802D10748FFF78AFFDF
:10192000A16B162009684860A06B0068016841F04F
:101930000101016010BD0000E844002038B50168D5
:1019400000250A684A680092CA6842F40052CA60D8
:101950000168CA6842F01002CA600446094A90F859
:101960003E0020280DD11623A262A385256421689C
:10197000A06B091D00F0DCFC2068416941F04001CA
:10198000416138BDE8440020704772B6FEE790ED33
:10199000001AD1ED000A31EE601A40EE010AC1EDE5
:1019A000000A7047DFED0A0A9FED0A1A70EE600A1E
:1019B00010EE900AB0F18B4F02DD30EE410A704715
:1019C00010EE900A10F16A5FF9D930EE010A704703
:1019D0000020B9450000004610B51C48DDE905416E
:1019E000A2B2B0F9003052BA438012B2240C028085
:1019F00064BA84808CB264BAC4800914017201464E
:101A0000D31A41F66414B1F91410E34201DA491C07
:101A100004E041F66414A34201DD491E8182B0F95D
:101A2000141000EE102A00EE901A9FED091AB8EE7D
:101A3000C00AF8EEE00A00EE810ABDEEC00A80EDB1
:101A4000040A018B491C018310BD0000C046002020
:101A50000000004638B500210091044900230246E9
:101A60000C6919460248A04738BD00000803002051
:101A7000B405002010B51C48DDE90541A2B2B0F95B
:101A8000003052BA438012B2240C028064BA8480BF
:101A90008CB264BAC480091401720146D31A41F6AB
:101AA0006414B1F91410E34201DA491C04E041F670
:101AB0006414A34201DD491E8182B0F9141000EEC6
:101AC000102A00EE901A9FED091AB8EEC00AF8EE3F
:101AD000E00A00EE810ABDEEC00A80ED040A018B27
:101AE000491C018310BD0000A446002000000046F0
:101AF00038B5002100910449034600220C691146C3
:101B00000248A04738BD0000080300208C050020D3
:101B100010B504210D4801F04BFD0D4800688047C9
:101B20000C4841680C4888470C4C01210C4822683D
:101B30009047226802210B4890470B480068804775
:101B4000BDE81040002004F0BDBE000034060020B7
:101B50004402002028020020C406002008030020C0
:101B60008C050020B4050020B800002010B51248F4
:101B70009622134CB0F920109FED121A91FBF2F24D
:101B80000E49DFED110A4B899A1A4A81B0F92200F9
:101B90004FF4967190FBF1F06189084400B200EEB9
:101BA000100A6081B8EEC00A03F047F8BDEEC00A23
:101BB00010EE100A608110BDE8440020A446002009
:101BC000C04600200000A0450040CE45044941F237
:101BD00024704881034941F2A860488170470000A1
:101BE000A4460020C04600202DE9F041424D0646A3
:101BF0000068424F95ED040A414CB0B1012817D05E
:101C0000022801D0032875D10020E882F882A1685B
:101C10003C488847A1683C488847A1683B488847BA
:101C2000A168BDE8F0413A4808473A48008CF0B155
:101C3000F8EEC00AC6ED010AB5F90A00216800EE07
:101C4000100A3048B8EEC00A884786ED020AB5F996
:101C500004002168404200EE900A2B48F8EEE00AAA
:101C60008847BDEEC00A10EE100AE88221E0B5F9FF
:101C7000000000EE100AB8EEC00AFFF793FEF0EE87
:101C8000400A21689FED240A1E48884786ED020A13
:101C9000B5F904002168404200EE900A1A48F8EEB7
:101CA000E00A8847BDEEC00A10EE100AE882288AD2
:101CB0006881B7F9000000EE100AF8EEC00AC6ED20
:101CC000030AB7F90A00216800EE100A0F48B8EEBF
:101CD000C00A884786ED040AB7F90400216800EEBF
:101CE000900A0B48F8EEE00A8847BDEEC00A10EEF5
:101CF000100AF882BDE8F081A4460020C04600200A
:101D00001C0200203C01002074010020AC010020D6
:101D1000E4010020E84400200020B945F0B590F827
:101D200020500468A468012D05D0022D03D0416A1B
:101D300041F480215DE014F0406F01D1E50055D5FC
:101D4000C4F30164022C03D9416A41F4000150E05C
:101D50000125A5401D608D684FF4C0739DB1CE680C
:101D600035434E6845EAC605066803EB0417F5518E
:101D70004FF4C275076805EB04150E697E51097DA5
:101D8000012905D009E00E88CD6845EA4655EBE704
:101D900001684E5946F480764E511179D5795679BD
:101DA00041EA056195792D0445EA062529434FF45A
:101DB000C676056806EB0416A9511178D57841EA74
:101DC0000561957852782D0445EA022211434FF4BB
:101DD000C475026805EB04155151006803EB04114A
:101DE000425842F0010242500020F0BD416A41F4E5
:101DF000001141620120F0BD10B590F82020012AA9
:101E000007D0022A05D0416A41F4802141620120B5
:101E100010BD3B48D0F8002242F00102C0F8002279
:101E2000D0F8002222F47C52C0F80022D0F8002220
:101E30004B6A42EA0322C0F800220A7D02F01F0327
:101E400001229A40D0F81C329343C0F81C32CB696F
:101E5000B3B9D0F80C329343C0F80C328C894B687C
:101E600064F31F434C6900EBC404C4F840320C898E
:101E70000B6864F31F434C6900EBC404C4F844329C
:101E8000CB69012B16D1D0F80C321343C0F80C32B9
:101E90000C884B6864F31F434C6900EBC404C4F81E
:101EA00040320C89CB6864F31F434C6900EBC404D7
:101EB000C4F844328B69002BD0F804320ED013439F
:101EC000C0F804320B69002BD0F8143208D0134349
:101ED000C0F81432096A012904D008E09343EFE7FF
:101EE0009343F5E7D0F81C121143C0F81C12D0F848
:101EF000001221F00101C0F80012002010BD000006
:101F00000064004030B590F82040012C05D0022C30
:101F100003D0416A41F480215DE00468002955D076
:101F20002469A40754D04FF4D874056804EB011455
:101F30002D5915F00405956005682D594ED0ED0812
:101F4000556005682C5904F00204D4604FF4DA742B
:101F5000056804EB01142D5905F00F05156105689E
:101F60002D59C5F30725956105682C59240C54613A
:101F70004FF4DC72046802EB0112A4581C70046870
:101F8000A458240A5C700468A458240C9C7004684B
:101F9000A258120EDA704FF4DE72046802EB0112DE
:101FA000A4581C710468A458240A5C710468A458DD
:101FB000240C9C710468A258120EDA71006881B179
:101FC000016941F020010161002030BDE468A8E70B
:101FD000416A41F400114162012030BD6D0D156070
:101FE000AFE7C16841F02001C160EDE770B50400C2
:101FF00003D094F8200010B104E0012070BD204609
:1020000000F082F82068016841F00101016000F0F1
:10201000E5FA0546052604E000F0E0FA401B0A2830
:1020200011D820684068C007F6D02068016821F008
:102030000201016000F0D2FA05460BE000F0CEFA92
:10204000401B0A2806D9606A40F40030606284F8B8
:102050002060D2E7206840688007EFD4207E012806
:10206000206801683DD021F080010160607E012878
:102070002068016838D021F040010160A07E01286D
:102080002068016833D021F020010160E07E012842
:10209000206801682ED041F010010160207F0128E6
:1020A0002068016829D021F008010160607F0128C3
:1020B0002068016824D021F004010160D4E9020104
:1020C0000843D4E90412114308436168491E0843D8
:1020D0002168C86100206062012084F8200000208F
:1020E00070BD41F08001C0E741F04001C5E741F01B
:1020F0002001CAE721F01001CFE741F00801D4E741
:1021000041F00401D9E70000F0B587B0044614217E
:102110006846FEF729FA364B3648DFF8D0E01968F2
:10212000D4F800C0334A03250226092710300024C2
:10213000491CF44522D11960012907D1016841F0F9
:1021400000710160006800F000700590106840F0B8
:10215000080010601068CDE9005600F00800CDE9D5
:10216000047069462448CDE9024500F017F90022C1
:102170000621142000F0D0FA142033E0DFF87CE0D0
:10218000F44531D1D0F800C04CF0806CC0F800C0EC
:10219000D0F800C001290CF0806CCDF814C0196093
:1021A00007D1016841F000710160006800F0007023
:1021B0000590106840F002001060106802AB00F05B
:1021C000020005904FF44050CDE9000683E8B000CE
:1021D00069460B4800F0E2F800220621402000F09A
:1021E0009BFA402000F08AFA07B0F0BD006400407E
:1021F0002400002030380240000C024000680040FB
:102200000004024070B5044690F82000012804D074
:10221000606A40F40020606218E0022084F8200028
:102220002068016821F00101016000F0D7F905463E
:102230000EE000BF00F0D2F9401B0A2808D9606AFE
:1022400040F400306062052084F82000012070BD59
:1022500020684068C007EDD1606270BD2DE9F04193
:10226000044600F0BBF906465CB1022084F8350054
:10227000002584F834502068016821F001010160D4
:102280000DE00120BDE8F08100F0A8F9801B0528D1
:1022900005D920206065032084F83500F2E7206826
:1022A0000068C007F0D12268116820480140D4E9D5
:1022B00001031843D4E903363343184363691843D1
:1022C000A3691843E3691843236A18430843616A02
:1022D000042903D1D4E90B13194308431060206883
:1022E0004069666A20F0070130460E430127042842
:1022F0000CD1A06A0643E06A40B12046FFF75CFAC1
:1023000020B14020606584F83570BAE720684661E6
:102310002046FFF73DFA94F85C203F219140816010
:10232000656584F835700020ACE700003F8010F050
:1023300070B5044690F83400002501280CD0012027
:1023400084F8340094F835600020012E06D084F81B
:1023500034000225284670BD022070BD022684F894
:10236000356060652046FFF751FA2068016841F04A
:1023700001010160EEE7000070B5044600F02EF99F
:102380000546601C02D004480078044400F026F999
:10239000401BA042FAD370BD280000202DE9F84F61
:1023A000DFF8F8A10022012403254FF00F090AF1FC
:1023B000040BAAF1040E00BF0B6804FA02F63340C6
:1023C000B34270D10F7907F00307012F01D0022F1C
:1023D00016D187684FEA420805FA08FC27EA0C077D
:1023E000D1F80CC00CFA08FC4CEA070CC0F808C085
:1023F0004768B7430E79C6F3001696403E434660E1
:102400000E79F643B6070AD0C7684FEA420C05FAC0
:102410000CF6B7438E6806FA0CF63E43C6600E799A
:1024200006F00306022E10D1D60800EB8608D8F875
:10243000206057074FEAD76C09FA0CF7BE430F69C3
:1024400007FA0CF73743C8F8207006684FEA420CC9
:1024500005FA0CF7BE430F7907F0030707FA0CF7EC
:10246000374307604E6816F4403F1CD04C4E376827
:1024700047F480473760366822F0030706F4804649
:102480000096484E07EB060CDCF8086897073F0FEC
:1024900009FA07F826EA0806DFF80C81404503D15F
:1024A0004FF0000841E072E0DFF80081404502D1C2
:1024B0004FF0010839E0DFF8F880404502D14FF0D5
:1024C000020832E0DFF8EC80404502D14FF003080B
:1024D0002BE0DFF8E480404502D14FF0040824E00F
:1024E000DFF8D880404502D14FF005081DE0DFF845
:1024F000D080404502D14FF0060816E0DFF8C480D6
:10250000404502D14FF007080FE0DFF8BC8040459E
:1025100002D14FF0080808E0DFF8B080404502D152
:102520004FF0090801E04FF00A0808FA07F848EAF6
:102530000608CCF80888DAF800605746D1F804C0DD
:102540009E435FEACC2C00D51E433E60DBF8006062
:102550005F46D1F804C09E435FEA8C2C00D51E4331
:102560003E60DEF800607746D1F804C09E435FEA23
:102570008C3C00D51E433E60084F083F3E68D1F8B2
:1025800004C09E435FEACC3C00D51E433E60521C13
:10259000102AFFF411AFBDE8F88F0000083C01409D
:1025A0004438024000300140000002400004024074
:1025B00000080240000C02400010024000140240DB
:1025C00000180240001C024000200240002402408B
:1025D0000AB1816170470904FBE700000148806887
:1025E00070470000280000200248816802781144EA
:1025F00081607047280000200B4810B5016841F445
:1026000000710160016841F480610160016841F47A
:1026100080710160032000F09FF8002000F006F8B0
:1026200000F050F8002010BD003C024030B50546D7
:102630001F4887B00024016841F010010160006864
:1026400006A900F01000009001A800F031F90498EC
:10265000A8B100F04DF940001649174AB0FBF1F15E
:102660001648491E026040F2E732C0E90324C0E97F
:102670000114846100F014FD040003D015E000F0A3
:1026800037F9E9E70D4800F059FD04000DD1362077
:1026900000F034F8102D07D200222946362000F031
:1026A0003BF80748056000E0012407B0204630BD34
:1026B0004038024040420F000010004068070020F0
:1026C0002C0000200C4882B0016841F48041016078
:1026D000006800F4804000900748001F016841F046
:1026E000805101600068002200F0805000900F21AE
:1026F000901E02B000F010B844380240002809DBF8
:1027000000F01F02012191404009800000F1E0200B
:10271000C0F8001170470000F0B40E4B1B680C4667
:10272000C3F30223C3F10705042D00D90425191DA5
:10273000072901D2002300E0DB1E012606FA05F17D
:10274000491E214099409E40761E16403143F0BC00
:1027500002F09BBA0CED00E0064900F007020868A1
:102760004FF6FF03184040EA0220034A1043086076
:10277000704700000CED00E00000FA052DE9F0477D
:102780000E46050065D0DFF81481D8F80000F7B2D6
:1027900000F00F00B04207D288F80070D8F80000AF
:1027A00000F00F00B04254D128683D4C810712D58B
:1027B000400703D5206840F4E050206028780007E7
:1027C00003D5206840F4604020602068A96820F0AC
:1027D000F000084320602878C0072DD03049686891
:1027E0000839012812D0022813D0032811D0096813
:1027F000890700292DDA216821F0030101432160B6
:10280000FFF7ECFE814641F2883A0EE00968890341
:10281000EFE709688901ECE7FFF7E0FEA0EB0901AB
:10282000514502D90320BDE8F0872068696800F0AF
:102830000C00B0EB810FEFD1D8F80010404601F04A
:102840000F01B14207D90770006800F00F00B042D5
:1028500001D00120E7E72878400705D52068E9681E
:1028600020F4E050084320602878000706D520684F
:10287000296920F4604040EAC100206000F058F867
:102880002168084AC1F30311515CC8400649086039
:1028900006480068FFF7CAFE0020C4E7003C02407B
:1028A00008380240F4810008340000202C00002089
:1028B0000F2202600C4A136803F00303436013689D
:1028C00003F0F0038360136803F4E053C3601268FD
:1028D0004FF4E05303EAD20202610448006800F0BA
:1028E0000F0008607047000008380240003C0240BA
:1028F0000448054900680968044AC1F38221515C13
:10290000C8407047340000200838024004820008A4
:102910000448054900680968044AC1F34231515C22
:10292000C840704734000020083802400482000884
:10293000154810B5006810F00C02144813D0144963
:10294000042A0FD0082A0ED10F4C241F22682368B6
:1029500002F03F025B0207D52068C0F38810A0FB9D
:10296000010106E0084610BD2168C1F38811A1FBF2
:1029700000010023FDF70AFD2168C1F30141491C54
:102980004900B0FBF1F010BD083802400024F4000B
:10299000001BB7002DE9F84F04006ED02078DFF857
:1029A0004C93C007A9F104054AD009F1040001685D
:1029B000C1F38101012908D00068C0F38100022819
:1029C0000AD1D9F80000400206D52868800337D51F
:1029D00060680028E1D033E06068B0F5803F10D037
:1029E000B0F5A02F286810D020F480302860286827
:1029F00020F4802028606068A8B1FFF7EFFD06464C
:102A00000DE0286840F48030F4E740F4802028602E
:102A1000F7E700BFFFF7E2FD801B642873D8286842
:102A20008003F7D50CE0FFF7D9FD064605E000BFAF
:102A3000FFF7D4FD801B6428F0D828688003F7D402
:102A40002078DFF8AC8280074FF0000A3ED5A74817
:102A5000001D016811F00C0F08D00068C0F3810060
:102A600002280BD1D9F80000400207D4286880075B
:102A700016D5E068012800D112E033E1E068B8B172
:102A80000120C8F80000FFF7A9FD064605E000BFD9
:102A9000FFF7A4FD801B0228C0D828688007F7D55F
:102AA0002868216920F0F80040EAC10028600DE0A4
:102AB000C8F800A0FFF792FD064604E0FFF78EFD80
:102AC000801B02281FD828688007F7D420780007C9
:102AD00022D5864F87486169703771B10121016045
:102AE000FFF77CFD064604E0FFF778FD801B022817
:102AF00009D838688007F7D50EE0C0F800A0FFF7C6
:102B00006DFD064605E082E0FFF768FD801B0228A8
:102B10007DD838688007F7D42078400768D5DFF87B
:102B2000CCB100270BF13C0BDBF80000C0000BD44C
:102B3000DBF8001041F08051CBF80010DBF800000A
:102B4000012700F0805000906B4E3068C00510D413
:102B5000306840F480703060FFF740FD009005E081
:102B6000FFF73CFD0099401A022850D83068C00594
:102B7000F6D55E4EA0686C3601280FD00528306867
:102B800010D020F001003060306820F00400306088
:102B9000A068B8B1FFF722FD00900FE0306840F068
:102BA0000100F4E740F004003060F7E7FFF716FD9E
:102BB0000099411A41F28830814266D83068800716
:102BC000F4D50EE0FFF70AFD009007E0FFF706FDE1
:102BD0000099411A41F28830814256D83068800706
:102BE000F4D42FB1DBF8001021F08051CBF80010A5
:102BF000A069C8B33D49091D0968C1F381010229D3
:102C00004AD00228504607D0C8F8600000E03CE0F7
:102C1000FFF7E4FC04463BE04746C8F86000FFF7D6
:102C2000DDFC064605E000BFFFF7D8FC801B02284C
:102C30002BD828688001F7D4D4E907010843A16A9A
:102C40002E4A490802EB0141626A41EA82110843B7
:102C500094F82C1040EA0161C9F800100120386690
:102C6000FFF7BCFC044606E03EE000BFFFF7B6FC01
:102C7000001B022809D828688001F7D534E000BF7E
:102C8000FFF7ACFC001B022802D90320BDE8F88F37
:102C900028688001F4D427E00128F7D0D9F8000093
:102CA000E26900F4800191421CD1226A00F03F01E8
:102CB000914217D147F6C071626A0140B1EB821FA1
:102CC00010D1A26A4FF0FF3300F4403103EB5202FF
:102CD000B1EB024F06D194F82C1000F07060B0EB0D
:102CE000016F01D00120D1E70020CFE70438024076
:102CF00000004742800E4742007000400000FFFF86
:102D000070B5040009D0606A002540B12561656195
:102D1000A56294F8510040B10CE0012070BD6068DC
:102D2000B0F5827FF4D0E561F2E784F85050204698
:102D300000F044F8022084F851002068016821F076
:102D400040010160A088218900F4827001F40441EF
:102D50000843A18901F400610843217C01F00201CC
:102D60000843217D01F001010843218B01F400712A
:102D70000843217F01F03801084394F8201001F046
:102D800080010843218D01F4005108432168086047
:102D9000A069042101EA104094F8241001F0100108
:102DA0000843216848602068C16921F40061C1615D
:102DB0006565012084F85100002070BD10B586B013
:102DC000044614216846FDF7CFFB14492068884269
:102DD00021D113480021026842F480120260006889
:102DE00000F4801005900E481438026842F020026A
:102DF0000260006800F0200005904FF460700090C1
:102E00000220CDE9010103200390052004906946CA
:102E10000448FFF7C3FA06B010BD0000005001409F
:102E200044380240001402402DE9F84F044690F85F
:102E3000500000270A9E1D4692468B464FF001091E
:102E400001280ED0012084F85000FFF7C7FB804610
:102E500094F85100616801280CD0B1F5827F07D148
:102E600002E00220BDE8F88FA16809B9042801D06A
:102E70000227C2E0BBF1000F27D0BAF1000F24D027
:102E80001DB394F85100042802D0052084F85100A5
:102E900000206065C4F838A0E587A587C4F830B085
:102EA000E586A5862064606420680168490603D42D
:102EB000016841F040010160E068B0F5006F6068B2
:102EC00005D0E8B3012D46D07FE0012795E008B199
:102ED000012D39D1206B21680088C860206B801CCF
:102EE0002063E08E401EE0862EE02068816889071E
:102EF0000FD5E18E69B1B9F1010F0AD1216B0988B3
:102F0000C160206B801C2063E08E401EE0864FF085
:102F1000000920688168C9070CD0E18F51B1C068F1
:102F2000A16B0880A06B801CA063E08F401EE0872F
:102F30004FF00109FFF752FBA0EB0800B04200E0A0
:102F400009E001D3701C50D1E08E0028CDD1E08F74
:102F50000028CAD13FE0206B216800780873206BFD
:102F6000401C2063E08E401EE0862EE020688168D1
:102F700089070FD5E18E69B1B9F1010F0AD1216B33
:102F800009780173206B401C2063E08E401EE086B0
:102F90004FF0000920688168C9070CD0E18F51B15A
:102FA000C068A16B0870A06B401CA063E08F401E3E
:102FB000E0874FF00109FFF711FBA0EB0800B042DA
:102FC00002D3701C01D010E07EB1E08E0028CDD17C
:102FD000E08F0028CAD142463146204601F0E4FA8B
:102FE00028B101272020606507E0032705E0A068DD
:102FF00018B92068C16880680090012084F85100E9
:10300000002084F8500038462CE7704770470000D5
:1030100070B590F83C20012A32D0012480F83C4061
:10302000022280F83D2003685A689D6822F07006ED
:103030000A6832435A60134B02689A4214D0B2F1C4
:10304000804F11D0104B9A420ED0104B9A420BD0A9
:103050000F4B9A4208D00F4B9A4205D00E4B9A4222
:1030600002D00E4B9A4204D1496825F080031943DF
:10307000916080F83D40002180F83C10084670BD0A
:10308000022070BD00000140000400400008004024
:10309000000C0040000401400040014000180040C6
:1030A00010B5040003D094F83D0010B107E00120F2
:1030B00010BD002084F83C00204600F01FF80220DC
:1030C00084F83D00211D206801F0B0FB012084F848
:1030D000460084F83E0084F83F0084F8400084F8FD
:1030E000410084F8420084F8430084F8440084F8E6
:1030F000450084F83D00002010BD000008B50C4AD2
:1031000001680C48914207D1016841F00201016059
:10311000006800F0020009E0074A914207D1016807
:1031200041F040010160006800F04000009008BDDF
:1031300000040040403802400018004090F83D1064
:10314000012901D001207047022180F83D1001685B
:10315000CA6842F00102CA6000681149884214D06E
:10316000B0F1804F11D00F4988420ED00E498842ED
:103170000BD00E49884208D00D49884205D00D4930
:10318000884202D00C49884204D1816801F00701CD
:10319000062903D0016841F0010101600020704759
:1031A000000001400004004000080040000C004006
:1031B00000040140004001400018004070B5044682
:1031C00090F83C000025012817D0012684F83C60C7
:1031D000022084F83D002068826822F0770222F401
:1031E0007F4282600868502838D00DDC20284FD0FC
:1031F00005DC90B3102811D14AE0022070BD3028C0
:1032000046D040280AD13BE060282FD070280DD04E
:10321000B0F5805F03D0B0F5005F12D0012584F8CF
:103220003D60002084F83C00284670BDCB68D1E9A1
:103230000121206801F06BFB2068816841F0770173
:1032400009E0CB68D1E90121206801F060FB20682A
:10325000816841F480418160E1E719E0CA6849680A
:10326000206801F029FC5021206806E0CA684968FE
:10327000206801F032FC6021206801F052FBCEE7AB
:10328000CA684968206801F017FC40212068F4E70B
:10329000226801461046F0E7704770B504460068A2
:1032A00001694FF00005C943890715D4C168C943B6
:1032B000890711D4E91E0161012020772068806907
:1032C0008007204602D0FFF7E7FF04E000F0DAF8BD
:1032D000204600F06CF9257720680169C943490749
:1032E00017D4C168C943490713D46FF004010161C1
:1032F000022020772068806910F4407F204602D0A9
:10330000FFF7CAFF04E000F0BDF8204600F04FF9D7
:10331000257720680169C943090716D4C168C943E4
:10332000090712D46FF0080101610420207720689A
:10333000C0698007204602D0FFF7AEFF04E000F02E
:10334000A1F8204600F033F9257720680169C943C8
:10335000C90617D4C168C943C90613D46FF0100158
:103360000161082020772068C06910F4407F204662
:1033700002D0FFF791FF04E000F084F8204600F04F
:1033800016F9257720680169C943C90708D1C168C2
:10339000C943C90704D1891E0161204600F06CF9B8
:1033A00020680169C943090609D4C168C9430906EF
:1033B00005D46FF0800101612046FFF726FE2068EA
:1033C0000169C943490609D4C168C943490605D4FE
:1033D0006FF040010161204600F058F92068016952
:1033E000C94389060BD4C168C943890607D46FF065
:1033F000200101612046BDE87040FFF707BE70BDA7
:1034000010B586B0044614216846FDF7ADF8236870
:10341000174C002117480222A34210D1036843F041
:1034200002030360006800F0020005902020009075
:10343000CDE90121CDE9031269460F4813E00F4C95
:10344000A34212D1036843F080030360006800F0D8
:103450008000059040200090CDE901210920CDE9B0
:10346000031069460648FEF799FF06B010BD00003C
:1034700000040040303802400004024000180040C0
:10348000001C0240704770B5044690F83C000026CE
:103490000D4601280FD0012084F83C006AB1042AAF
:1034A0001DD0082A2FD00C2A3FD00126002084F8F6
:1034B0003C00304670BD022070BD206801F03AFA31
:1034C0002068816941F0080181612068816921F0EB
:1034D00004018161206881692A69114311E0206833
:1034E00001F058FA2068816941F400618161206827
:1034F000816921F480618161206881692A6941EADA
:1035000002218161D2E7206801F07AFA2068C1695E
:1035100041F00801C1612068C16921F00401C16165
:103520002068C1692A69114311E0206801F09CFA02
:103530002068C16941F40061C1612068C16921F45A
:103540008061C1612068C1692A6941EA0221C161C3
:10355000ACE710B5040003D094F83D0010B107E0CB
:10356000012010BD002084F83C00204600F01EF829
:10357000022084F83D00211D206801F057F9012048
:1035800084F8460084F83E0084F83F0084F8400048
:1035900084F8410084F8420084F8430084F8440031
:1035A00084F8450084F83D00002010BD7047704746
:1035B00010B50446022249B104290ED0082913D0BF
:1035C00094F84100012816D0012010BD94F83E0067
:1035D0000128F9D184F83E200FE094F83F0001283B
:1035E000F2D184F83F2008E094F840000128EBD1A4
:1035F00084F8402001E084F841200122206801F095
:1036000079F916492068164A884201D0904203D1C0
:10361000436C43F4004343642068884213D0B0F104
:10362000804F10D00F4988420DD00F4988420AD0F0
:103630000E49884207D0904205D00D49884202D0F9
:103640000C49884204D1816801F00701062903D0A2
:10365000016841F001010160002010BD000001403F
:10366000000401400004004000080040000C00403D
:10367000004001400018004000680349884201D121
:10368000FEF7B2BF7047000000100040704770B5F1
:10369000040004D094F83D00002510B106E001209C
:1036A00070BD84F83C50204600F022F8242084F8B5
:1036B0003D002068C16821F40051C160204601F03E
:1036C0001FFA2068016921F4904101612068416975
:1036D00021F02A0141612068C16841F40051C160B4
:1036E0002564202084F83D0084F83E00002070BD51
:1036F00070B586B0064614216846FCF735FF2449AC
:103700003068884241D123480025016841F010010A
:103710000160006800F0100005901E481438016830
:1037200041F0020101600068694600F00200059066
:10373000C0200090022001900120029003200390FD
:10374000072004901448FEF729FE154C134820600A
:103750004FF00060C4E901054014C4E90350801033
:103760006561C4E90650256220466562FEF776FD74
:1037700008B1FEF70AF9B463002205212520A663EB
:10378000FEF7CAFF2520FEF7B9FF06B070BD0000A6
:1037900000100140443802400004024040640240EE
:1037A00008070020FEE710B530216A20FDF72AFC4B
:1037B0000A20FEF7E1FD0D212420FDF723FC0A205D
:1037C000FEF7DAFD0E212820FDF71CFC0A20FEF78B
:1037D000D3FD8E213120FDF715FC0A20FEF7CCFD2C
:1037E00001210B2000F09CF80A20FEF7C5FD002007
:1037F00000F05AF8102801D0012010BD01210B2043
:1038000000F08EF80A20FEF7B7FD00210A2000F034
:1038100087F80A2000F048F808B1022010BD0A20FD
:10382000FEF7AAFD00210B2000F07AF80B2000F033
:103830003BF808B1032010BD0A20FEF79DFD2421AE
:10384000412000F06DF8412000F02EF8242801D02E
:10385000042010BD0A20FEF78FFDC021422000F099
:103860005FF8422000F020F8C02801D0052010BDEC
:103870000A20FEF781FD00212A20FDF7C3FB0A2064
:10388000FEF77AFD00213420FDF7BCFB0A20FEF78D
:1038900073FD062203210E20FDF704FB6420FEF7D2
:1038A0006BFD002010BD0000F8B501463220FDF789
:1038B000A9FB0A20FEF760FD80213420FDF7A2FB62
:1038C0000A20FEF759FD134E002240213046FEF734
:1038D0007FFE114CB52037252070621C0123511E3C
:1038E0000E480095FFF7A0FA621C0123511E0B48F9
:1038F0000095FFF799FA012240213046FEF768FE55
:10390000647800213420FDF77DFB0A20FEF734FDAA
:103910002046F8BD0014024060020020DC050020B3
:1039200070B50D46044600212A20FDF76BFB0220EE
:10393000FEF722FD21462920FDF764FB0220FEF759
:103940001BFD29466420FDF75DFB0220FEF714FDF8
:1039500081212A20FDF756FBBDE870400A20FEF7C2
:103960000BBD10B5044680EC020A70EE600AD0ED83
:10397000031AC0ED041A90ED021A80ED031AC0ED8F
:10398000020A30EEC10A90ED052A20EE020AB0EEDE
:10399000002A80ED080A90ED060A20EE200A41EE8A
:1039A000420A80ED090A94ED071A70EEA10A60EE52
:1039B000810AC4ED0A0AD4ED0D0AB1EE601A01F0D5
:1039C0003CF984ED090AD4ED080A30EE800AD4ED02
:1039D0000A0A30EE200A84ED0B0AD4ED0D0AB1EE8E
:1039E000601AD4ED0C0A01F028F984ED0B0A10BD21
:1039F0002DE9F047DFED3F1AF3EE030A2DED048BBE
:103A00000446F7EE008A90ED012A90ED020A90ED4F
:103A1000031A9FED378A72EE402A9FED379ADFF83E
:103A2000DC80374E41EE212ADFF8D890002562EE87
:103A3000A02AC0ED072A72EE002A41EE212A62EE8A
:103A4000A02AC0ED082A70EE422AB1EE422A32EED8
:103A5000400A41EE212A01EE210A62EEA02A20EE60
:103A6000200AC4ED092A84ED0A0A00BF04EB850090
:103A700090ED070A20EE090A80ED070AF0EEC00A71
:103A8000F4EEC80AF1EE10FA01DDB0EE608A18EE2D
:103A9000101A414503DDDFED1C0AC0EE888AC5EB34
:103AA000C50106EB810720EE280A80ED070ABDEE6E
:103AB000C00A10EE100A00B2B881B7F9041000EE87
:103AC000101AD9F80010F8EEC00A00EE100A0F48DC
:103AD000B8EEC00A8847BDEEC00A6D1C042D10EE7A
:103AE000100AF882C2DBBDEC048BBDE8F087000051
:103AF00000000000C3F5A83E0000C84200A00C462C
:103B0000FC4500201C02002000A00C4604010020FF
:103B10000021017041708170704781780122491C39
:103B2000C9B24B1E8170132B01D802707047142943
:103B3000FCD90021017042707047000010B55D4C47
:103B400094F82800C10704F12A0002D0FFF7E5FF2E
:103B500001E0FFF7DDFF94F828008107554800F1E8
:103B60002D0002D5FFF7D9FF01E0FFF7D1FF94F850
:103B7000280041074F4800F1300002D5FFF7CDFF84
:103B800001E0FFF7C5FF94F828000107494800F15C
:103B9000330002D5FFF7C1FF01E0FFF7B9FF94F84A
:103BA0002800C106434800F1360002D5FFF7B5FFF3
:103BB00001E0FFF7ADFF94F8280081063D4800F1D1
:103BC000390002D5FFF7A9FF01E0FFF7A1FF94F844
:103BD00028004106374800F13C0002D5FFF79DFF61
:103BE00001E0FFF795FF94F828000106314800F145
:103BF0003F0002D5FFF791FF01E0FFF789FF208D1D
:103C0000C1052C4800F1420002D5FFF786FF01E014
:103C1000FFF77EFF208D8105264800F1450002D583
:103C2000FFF77BFF01E0FFF773FF208D410521487F
:103C300000F1480002D5FFF770FF01E0FFF768FFD1
:103C4000208D01051B4800F14B0002D5FFF765FFF1
:103C500001E0FFF75DFF208DC104164800F14E0022
:103C600002D5FFF75AFF01E0FFF752FF208D8104D4
:103C7000104800F1510002D5FFF74FFF01E0FFF7B8
:103C800047FF208D41040B4800F1540002D5FFF797
:103C900044FF01E0FFF73CFF208D0104054800F1DF
:103CA000570003D5BDE81040FFF737BFBDE810400F
:103CB000FFF72EBFE844002010B51248059B41F6DF
:103CC00064149AB2B0F9001052BA418012B21B0CBF
:103CD00002805BBA8380531A0146E342B1F91410A3
:103CE00001DA491C04E041F66414A34201DD491ED7
:103CF0008182B0F9141002EB41310161018B491C42
:103D0000018310BDDC46002038B500210091044934
:103D1000002302468C6819460248A04738BD0000BF
:103D2000080300208C05002010B5401EDDE90521A8
:103D300093B25CBAC0B2094BC0EBC000120C23F8BE
:103D4000204003EB800052BA82808AB252BAC2800D
:103D500009140172018B491C018310BDFC45002030
:103D600038B50093034BDC6813460A460146024807
:103D7000A04738BD080300208C05002030B512494B
:103D8000DDE906321C0C9DB293B2A0F5007042F33F
:103D9000074201380DD001280AD168BA888360BA79
:103DA000088458BA488481F82420888E401C88866C
:103DB00030BD68BA088060BA888058BAC8800A7274
:103DC000088B401C088330BD6C46002038B50022AB
:103DD0000092044A0023D4680A4601460248A047DC
:103DE00038BD000008030020B4050020104810B5BD
:103DF0000E4901600321416000214FF410228160CF
:103E0000C0E903124FF400124261017601224276AA
:103E10008276C27601774177FEF7E8F8002803D072
:103E2000BDE81040FDF7B1BD10BD000000640040CA
:103E30008C050020104810B50E4901600321416037
:103E400000214FF410228160C0E903124FF40012E8
:103E500042610176012242768276C276027741770C
:103E6000FEF7C4F8002803D0BDE81040FDF78DBD73
:103E700010BD000000680040B4050020094808B5E6
:103E8000016841F4800101600068002200F48000B4
:103E9000009011463A20FEF73FFCBDE808403A206A
:103EA000FEF72CBC3038024030B5344DB7B02AACE8
:103EB00095E80F0084E80F0000212AA802F092F88C
:103EC0002F4C10350DF1B80CA06195E80F008CE86F
:103ED0000F0000212EA8103D02F084F82035E0618B
:103EE00095E80F0032AD85E80F00002132A802F0FE
:103EF00079F8224920621C2230316846FCF702FB27
:103F00000021684602F081F81C4920601C224C31D7
:103F100007A8FCF7F7FA002107A802F076F817497E
:103F200060601C2268310EA8FCF7ECFA00210EA894
:103F300002F06BF81149A0601C22843115A8FCF72F
:103F4000E1FA002115A802F060F80C49E0601C229B
:103F5000A0311CA8FCF7D6FA00211CA802F055F8E5
:103F6000064920611C22BC3123A8FCF7CBFA0021B2
:103F700023A802F04AF8606137B030BD1481000810
:103F80000000002030B587B014216846FCF7ECFA39
:103F90001D480024016841F002010160016801F040
:103FA00002010591016841F001010160016801F021
:103FB00001010591016841F008010160016801F00B
:103FC00008010591016841F080010160016801F07C
:103FD00080010591016841F02001016000680B4DEE
:103FE00000F020000590012240212846FEF7F0FA5B
:103FF00001214020CDE90214CDE90001694628469F
:10400000FEF7CCF907B030BD303802400014024052
:10401000104810B50E4901604FF4827141600021D3
:104020008160C1604FF400720161C0E90512302265
:10403000C0E90721416281620A21C162FEF760FE88
:10404000002803D0BDE81040FDF79FBC10BD000064
:1040500000500140DC05002010B58CB0002407940E
:10406000089409941C2168460A94FCF77DFA1A48C2
:10407000184901608221C0E901144FF4B971C0E907
:1040800003148461FFF70CF808B1FDF77EFC4FF4D0
:104090008050079007A91048FFF790F808B1FDF786
:1040A00074FC0D48FFF755FA08B1FDF76EFC60206F
:1040B000CDE9000402940022694607480494FFF702
:1040C000E2F908B1FDF761FC0348FFF799F90CB07C
:1040D00010BD0000001800407C06002010B58EB016
:1040E00000240794089409940A940B941C216846B0
:1040F0000C94FCF739FA1E481C49C0E9001441F23F
:104100008731C0E9024104618461FEF7C9FF08B14B
:10411000FDF73BFC4FF48050079007A91448FFF7C8
:104120004DF808B1FDF731FC1148FFF712FA08B15C
:10413000FDF72BFC0B940BA90D480C94FEF768FFC0
:1041400008B1FDF722FC6020CDE9000402940422AE
:10415000694607480494FFF796F908B1FDF715FC86
:104160000348FFF74DF90EB010BD000000040040F9
:10417000340600200C4810B50A4901600B49416023
:10418000002181600C22C160C0E904128161C1611B
:10419000FFF77DFA002803D0BDE81040FDF7F5BB1E
:1041A00010BD000000100140C4060020A0860100E0
:1041B000FEE7FEE710B5044680EC020A70EE600AE6
:1041C00090ED021A80ED031AC0ED020A90ED050A87
:1041D00020EE200A80ED080A90ED090AD0ED061ABB
:1041E00001EEA00A70EEC10A80ED090A90ED071AEF
:1041F00060EE810AC4ED0A0AD4ED0D0AB1EE601A30
:1042000000F01BFD84ED090AD4ED080A30EE800AA7
:10421000D4ED0A0A30EE200A84ED0B0AD4ED0C0A24
:10422000B1EE601A00F009FD84ED0B0A10BD00002C
:1042300010B562482DED068BB0F90610B0F90800F4
:104240009FED5F8B9FED60AA604C00295ADADFED8D
:10425000609A9FED609A002822DA91FBF0F003F05B
:1042600080FB41EC100B01F0A3F953EC182B51EC3F
:10427000100B03F0DBFC06D884ED01AAC4ED029A12
:104280009FED550A26E09FED550A84ED010AC4ED25
:10429000029A9FED530A84ED030A9FED520A2EE025
:1042A0001CDD91FBF0F003F05CFB41EC100B01F026
:1042B0007FF953EC182B51EC100B03F0B7FC10D81E
:1042C0009FED490A84ED010A9FED480A84ED020A38
:1042D0009FED470A84ED030A84ED049ABDEC068B3A
:1042E00010BD9FED440A84ED010A9FED430A84ED61
:1042F000020A9FED420A84ED030A9FED410A84ED14
:10430000040AEBE7EADD00289FED3E9A2ADD91FBE7
:10431000F0F003F026FB41EC100B01F049F953ECEF
:10432000182B51EC100B03F081FC0ED89FED360AD0
:1043300084ED010A9FED350A84ED020A9FED340AEF
:1043400084ED030A84ED04AAC8E79FED320A84EDE8
:10435000010A9FED310A84ED020A84ED039A9FED74
:104360002F0ACCE7BADA91FBF0F003F0FAFA41EC4D
:10437000100B01F01DF953EC182B51EC100B03F04E
:1043800055FC0CD89FED260A84ED010A9FED250A05
:1043900084ED020A84ED039A9FED230AAFE79FEDB7
:1043A000230A84ED010A9FED220A84ED020A9FEDA3
:1043B000210A84ED030A9FED200AA0E77C45002036
:1043C000000000000000F03F14AE473E60020020F5
:1043D0008FC275BCBE9F7A3F04E78C3B7B140E3FB7
:1043E000A69BC43B5839543FCBA145BEBC7413BCFB
:1043F000A69BC4BBDF4F0DBF52499DBB7F6A3CBC2F
:1044000014D0543F70CE88BCFA7E7ABF6F12033C42
:104410000AD7A3BCC8987BBF6F12033B5B420E3F19
:10442000BE9F7ABFED0D3E3C14AE47BEE17A54BF4D
:104430004260653CA69B44BC04560EBF144830B491
:1044400090F8244090F82500022C01D1022808D0D1
:1044500000231049032808D0012800D10B7030BC7C
:1044600070470D48806830BC0047012008700B4938
:104470000B4A012C0AD0022C02D0032CEFD102E00F
:104480000B601360EBE708601060E8E70220FAE7D2
:10449000E8440020C8000020A0000020A044002024
:1044A000D044002008B502F053FE044C0090206870
:1044B00080470221684602F0BFF9F8E7A00000201B
:1044C000024903200860024908607047A0440020A8
:1044D000D044002070B51848184CB0F96A30B0F9D3
:1044E0004E20B0F932106568B0F91600A84714489C
:1044F000E268B0F93210B0F916009047124C11483A
:10450000A168B0F9160088471048E168B0F91600B4
:10451000884710490E484968B0F9160088470E4888
:104520000E4990ED040A4968BDE87040BDEEC00A2E
:1045300010EE100A00B20847FC450020C00200201F
:104540006C460020A4460020D8020020C04600206F
:10455000DC460020F0020020F8460020FC0200208B
:104560000B4810B5006880470A4C0B482168884703
:10457000A16809488847094C094861688847A168CB
:104580000748884707484068BDE8104000470000DA
:10459000C4000020AC000020A0440020B80000208F
:1045A000D0440020A000002038B504461248134B28
:1045B0000068B0FBF3F04FF47A73584300906068E2
:1045C000B0F5827F0DD10B4600920022802120465B
:1045D00000F016F870B1606D40F0200060650320B7
:1045E00038BD009830B1401E009020688068C043FC
:1045F0000006F6D5002038BD3400002000366E01DC
:104600002DE9F8431E46914688460446089DFDF76D
:10461000E5FF401B351AFDF7E1FF07462548006816
:10462000C0F3CB30684338E0701C37D0FDF7D6FFBD
:10463000C01BA84203D215B1009860B32CE02068DB
:10464000416821F0E00141606068B0F5827F0BD1E4
:10465000A068B0F5004F02D0B0F5806F04D120689B
:10466000016821F040010160A06AB0F5005F09D146
:104670002068016821F4005101602068016841F45C
:1046800000510160012084F85100002084F850009E
:104690000320BDE8F8830025401E00902068816853
:1046A00038EA010004D000214945BDD10020F0E7DF
:1046B0000121F9E73400002008B502F049FD074C5C
:1046C000009060688047A0688047E0688047A069E4
:1046D00080470121684602F0AFF8F2E7440200206B
:1046E000DDE9031288B240BA00B200EE100A1248A7
:1046F000090CB8EEC00A49BA09B280ED000A00EE12
:10470000101A91B249BAB8EEC00A09B280ED010A96
:1047100000EE101A110C49BAB8EEC00A09B280EDC9
:10472000020A00EE101AB8EEC00A80ED030A818A70
:10473000491C818270470000F846002002494A69FE
:104740000146024810470000080300208C050020A5
:1047500010B5502080F31188BFF34F8FBFF36F8FD8
:1047600002F0FCFC18B104494FF0805008600020B2
:1047700080F3118810BD000004ED00E030B593B067
:1047800030216846FBF7F0FE14210CA8FBF7ECFE85
:104790001D480025016841F080510160006800F06B
:1047A000805011901948016841F44041016000684F
:1047B000022400F440401190012000900004019078
:1047C0008001CDE9064006200890A820CDE9090423
:1047D00007200B906846FEF7DDF808B172B6FEE7D9
:1047E0000CA90F2081E831004FF4A0500F904FF436
:1047F0008050109005210CA8FDF7C0FF002801D0C3
:1048000072B6FEE713B030BD403802400070004081
:104810000248016841F470010160704788ED00E0D2
:104820000148FEF73ABD000068070020F0B50268B5
:10483000254C264D264E274F274B4FF0804CA0424B
:1048400009D0604507D0A84205D0B04203D0B84295
:1048500001D0984204D122F0700E4A6842EA0E025A
:10486000A0421BD0604519D0A84217D0B04215D045
:10487000B84213D0984211D0184DA8420ED0184D0E
:10488000A8420BD0174DA84208D0174DA84205D01A
:10489000164DA84202D0164DA84203D122F440750D
:1048A000CA682A434D6922F080022A4302608A685E
:1048B000C2620A688262A04201D0984201D10969AD
:1048C000016301214161F0BD00000140000400408E
:1048D00000080040000C004000040140004001407E
:1048E000004401400048014000180040001C004006
:1048F0000020004010B501F01F030121046A994017
:104900008C430462016A9A401143016210BD10B5E4
:10491000846842EA032224F47F440A4322438260EB
:1049200010BD826822F070020A4342F007018160E4
:1049300070470000F0B5026A22F001020262036AC9
:1049400042688469124E24F073050C682C4323F0EE
:1049500002058B682B430D4DA84201D0B04205D112
:1049600023F00807CB683B4323F00403A84201D09F
:10497000B04205D14D6922F4407215438A692A4339
:1049800042608461496841630362F0BD00000140F8
:1049900000040140F0B5026A22F010020262026ACD
:1049A000436884690D6824F4E64444EA05248D686C
:1049B00022F0200242EA05120F4D104EA84201D00B
:1049C000B04206D1CF6822F0800242EA071222F0FC
:1049D0004002A84201D0B04207D14D6923F44063A0
:1049E00043EA85038D6943EA85034360846149682E
:1049F00081630262F0BD000000000140000401403C
:104A0000F0B5026A22F480720262026A4368C469E5
:104A100022F4007224F073050C68124E2C438D684A
:104A200042EA05220E4DA84201D0B04206D1CF681D
:104A300022F4006242EA072222F48062A84201D0F6
:104A4000B04207D14D6923F4405343EA05138D6901
:104A500043EA05134360C4614968C1630262F0BD63
:104A6000000001400004014030B5026A22F4805287
:104A70000262046A4268C3690D6823F4E64343EAAC
:104A800005238D6824F4005444EA0534084DA842F7
:104A900002D0084DA84204D14D6922F4804242EA76
:104AA00085124260C36149680164046230BD000040
:104AB000000001400004014010B5036A046A24F0BC
:104AC00001040462846924F0F00444EA021423F02F
:104AD0000A020A438461026210BD10B5036A23F022
:104AE000100303628369046A23F4704343EA0232C9
:104AF00024F0A00343EA01118261016210BD0000AD
:104B000070B5044600680169E26821F44051114320
:104B100001612169A068E2690843616911430843A2
:104B20002168CA6849F20C639A430243CA6020684C
:104B30004169A26921F44071114341613149206802
:104B4000884202D03049884202D1FDF7E1FE01E0FF
:104B5000FDF7CEFEE2690023192164253226B2F565
:104B6000004F626828D0A0FB0101930F9200FBF771
:104B70000DFC0146B0FBF5F06FF01802504301EB5D
:104B8000800006EB0010B0FBF5F000F0F002B1FB86
:104B9000F5F002EB0012B1FBF5F06FF0180358438B
:104BA00001EB800006EB0010B0FBF5F000F00F0009
:104BB00021681044886070BDA0FB010192185B4120
:104BC000FBF7E4FB0146B0FBF5F00201B1FBF5F0A9
:104BD0006FF01803584301EB800006EBC000B0FBF8
:104BE000F5F000F0F80002EB4002B1FBF5F058439D
:104BF00001EB800006EBC000B0FBF5F000F0070011
:104C0000D6E70000001001400014014038B5084C00
:104C100020680168C9060AD5C068C00607D50548DE
:104C2000016820468847206801684068009038BDC8
:104C3000C406002028020020FEE7B4EEE00AF1EEF0
:104C400010FA02DDB0EE600A7047B4EEC10AF1EE70
:104C500010FAF9D2B0EE410A704703B4019841004E
:104C6000009850EAC12018BF04204A0D18BF40F038
:104C7000010040F2FF72B2EB515F08BF40F002004A
:104C8000012808BF052002B070470907090E002857
:104C900004DB00F1E02080F80014704700F00F0002
:104CA00000F1E02080F8141D7047000000000000B3
:104CB00070B5C1482DED020B2DED0E8B82B0119D0C
:104CC00025F000449FEDBEDB9FEDBFEB84423EDB51
:104CD000A4F140511098A1F17F6108430FD0BC4866
:104CE000844202DC28D1109830B39DED100B02B045
:104CF000BDEC0E8B02B0BDE8704001F0F1B89DED47
:104D0000100B53EC1D2B51EC100B02F091FE9DED9E
:104D1000100B41EC180B53EC1E2B51EC100B02F056
:104D200087FE53EC182B02F0A5FB41EC100B02B0F0
:104D3000BDEC0E8B02B070BD0120FBF744FC02B04D
:104D4000BDEC0E8B02B0BDE8704001F0DDB8A148AB
:104D50009FEDA18B844256DA9DED100BB4F1795F83
:104D60000ADA51EC100BFFF778FF042808BF01F0B6
:104D7000DBF89DED100BDAE753EC102B51EC100B28
:104D800002F056FE41EC190B95480621B0EE490A97
:104D9000F0EE690A784400F08FFF53EC192B51ECC8
:104DA000100B02F045FE41EC1A0B8E48B0EE490A9A
:104DB000F0EE690A0421784400F07EFF53EC192BD1
:104DC00051EC100B02F034FE53EC182B02F052FBA6
:104DD00041EC100B51EC1A0B53EC102B02F0FEFBC4
:104DE000CDE900019DED000B53EC102B9DED100B58
:104DF00051EC100B02F01CFE9DED101B53EC112B1F
:104E000002F038FBD2E09DED100B51EC100B01F0DD
:104E1000A3F853EC182B02F03FFF9FED730BCDE985
:104E2000000153EC102B9DED000B51EC100B02F028
:104E3000FFFD41EC190B6E480621B0EE490AF0EE79
:104E4000690A784400F038FF53EC192B51EC100B31
:104E500002F0EEFD41EC1B0B6648B0EE490AF0EEA5
:104E6000690A0421784400F027FF53EC192B51EC18
:104E7000100B02F0DDFD53EC182B02F0FBFA41ECB5
:104E80001C0B51EC190B01F0AFFB41EC180B5A480D
:104E90009FED5BABA04222DC53EC1C2B51EC1B0BB7
:104EA00002F09CFBCDE900019DED000B51EC180BCD
:104EB00053EC102B02F0BCFD53EC182B02F0DAFA85
:104EC00053EC1A2B02F0B4FD53EC1D2B02F0BCFF87
:104ED00053EC1E2B02F0E0FE41EC100B5FE08DED79
:104EE000008B002000909DED000B51EC180B53EC53
:104EF000102B02F0BFFA9DED000B41EC1E0B53ECA2
:104F0000102B51EC100B02F093FD53EC192B02F017
:104F1000C3FE53EC1E2B02F061FB41EC190B53EC6A
:104F20001C2B51EC1B0B02F059FB41EC1B0B53ECFF
:104F30001A2B51EC190B02F07BFD53EC1D2B02F0E8
:104F4000ABFE41EC190B53EC1A2B51EC180B02F091
:104F50006FFD53EC1B2B02F06BFD53EC192B02F091
:104F600073FF9DED000B41EC180B53EC1A2B51EC29
:104F7000100B02F05DFD9FED249B53EC192B02F00A
:104F80008BFE41EC100B51EC180B53EC102B02F084
:104F90005BFF53EC192B02F07FFE41EC100B002D50
:104FA0003FF7C5AE51EC100B02F026FA41EC100BA6
:104FB000BDE60000000000000000F03F000000001F
:104FC000075C143326A6913C182D4454FB21F93F6D
:104FD0000000F07F0000E03F000000000000F03F14
:104FE0008834000096340000000000000000E03F1C
:104FF000DA330000E83300003333EF3F00000000F5
:105000000000000000000040182D4454FB21E93F3F
:1050100070B59B482DED020B2DED068B079D25F0FD
:105020000044A04218DC9748844202DC0AD106986A
:1050300040B19DED060BBDEC068B02B0BDE87040A3
:1050400000F04EBF002DCCBF9FED8F0B9FED900B5E
:10505000BDEC068B02B070BD8F48A04215DD8F48B5
:10506000A042D8BF4FF0FF3458DD9DED060B51EC48
:10507000100BFFF7F2FD042808BF00F055FF9DED6F
:10508000060BBDEC068B02B070BD9DED060B51EC1E
:10509000100B00F061FFCDE9060181489FED828B86
:1050A000A0423CDD8248A0421FDD00249FED82AB80
:1050B0009DED060B53EC1A2B51EC100B02F0DAF9B4
:1050C0009DED060B41EC190B53EC1A2B51EC100B18
:1050D00002F0AEFC53EC182B02F0B6FE53EC192B89
:1050E00002F07CFACDE9060149E09DED060B0124B2
:1050F00053EC182B51EC100B02F0BCF99DED060B94
:1051000041EC190B53EC182B51EC100B02F09CFEE8
:1051100053EC192B02F062FACDE906012FE0684842
:10512000A0421FDD02249FED689B9DED060B53EC12
:10513000192B51EC100B02F07BFC53EC182B02F0F6
:1051400099F99DED060B41EC180B53EC192B51EC22
:10515000100B02F079FE53EC182B02F03FFACDE968
:1051600006010CE09DED060B032453EC102B9FED84
:10517000580B51EC100B02F031FACDE906019DED10
:10518000060B53EC102B51EC100B02F051FC41ECD0
:10519000180B53EC182B02F04BFC41EC190B4E484A
:1051A0000621B0EE490AF0EE690A784400F084FD69
:1051B00053EC182B51EC100B02F03AFC41EC180B9D
:1051C0004648B0EE490AF0EE690A0521784400F03D
:1051D00073FD53EC192B51EC100B02F029FC41EC40
:1051E000100B51EC180B53EC102B002C0EDA02F0C4
:1051F00041F99DED061B53EC112B02F019FC9DEDBE
:10520000061B53EC112B02F047FD35E002F032F99A
:105210009DED061B53EC112B02F00AFC41EC100B28
:105220002F48784400EBC40090ED001B51EC100BAC
:1052300053EC112B02F008FE9DED061B53EC112BD5
:1052400002F002FE41EC100B2648784400EBC4004B
:1052500090ED001B51EC100B53EC112B02F01CFDD8
:1052600041EC100B002DA2BFBDEC068B02B070BD4F
:1052700051EC100B02F0C0F841EC100B01E70000FC
:10528000000010440000F07F182D4454FB21F93F2A
:10529000182D4454FB21F9BF0000DC3F0000203EE4
:1052A0000000F33F00000000000000000000F03F9D
:1052B0000000E63F00000000000000000000004089
:1052C0000080034000000000000000000000F83FE4
:1052D000000000000000F0BF2A310000E0300000B4
:1052E0006A3000002230000070B56F4E2DED040BC7
:1052F0002DED048B82B0DDF824C0DDE907235C428C
:105300002CF000411C4341EAD474069D22F0004079
:10531000B44205D86C422C4340EAD474B4420BD951
:105320009DED081B9DED060B02B0BDEC048B04B097
:10533000BDE8704000F0DEBDACF14054A4F17F64E4
:105340001C430BD0022404EAAC7444EAD274054333
:105350009FED578B9FED582B07D015E09DED060B69
:1053600051EC100B00F0F0FD42E0002C11BF012CBD
:105370009DED060B02B0BDEC048B04BF04B070BD04
:10538000022C38D0032C3BD00B439FED4D1B9FEDDF
:105390004E0B0AD0B14218D1B04209D121F0804160
:1053A00020F08040099107900FE0002A15DA10E004
:1053B000474B7B44002C08BF93ED000B0DD0012C14
:1053C00010D0022C17D0032C1AD0B0421DD1002AC5
:1053D00003DAB0EE410AF0EE610A02B0BDEC048BD4
:1053E00004B070BD93ED000B51EC100B02F004F80B
:1053F00041EC100BF1E7B0EE480AF0EE680AECE77A
:10540000B0EE420AF0EE620AE7E7401A00159FED9F
:10541000329B3C28C8BF8DED000B17DCBCF1000FA0
:10542000BCBF10F13C0F8DED009B0FDB9DED080B19
:1054300053EC102B9DED060B51EC100B02F0CEF847
:1054400000F08AFD00F080FDCDE90001B4B1012C2F
:1054500010D0022C9FED220B53EC102B9DED000B76
:1054600051EC100B19D002F0EFFC53EC182B02F0AA
:10547000EBFCBDE7019880F0004001909DED000B32
:1054800053EC192B51EC100B02F000FA04BF022070
:10549000FBF799F89DED000B9FE702F0D5FC53EC6C
:1054A000182B02F0F9FBA3E70000F07F00000000DA
:1054B000182D4454FB210940182D4454FB2109C0E8
:1054C000182D4454FB21F9BF182D4454FB21F93FFA
:1054D000822F00000000000000000000000000001B
:1054E000075C143326A6A13C10B52F499FED2C1B59
:1054F0002DED020B84B0059820F000408842D8BF03
:105500009DED040B2DDD2949884209D1049840B94D
:105510004FF00100FBF757F800F0F6FC06B010BDA5
:1055200005DB9DED040B00F0DBFC06B010BD68460A
:105530009DED040B00F0ECF810F0030004BF9DEDAE
:10554000021B9DED000B0CD001280ED09DED021B1F
:105550009DED000B022817D0012000F029FC06B0B9
:1055600010BD00F0F1FA06B010BD9DED021B9DEDDF
:10557000000B012000F01CFC51EC100B01F03CFF73
:1055800006B041EC100B10BD00F0DEFA51EC100B30
:1055900001F032FF06B041EC100B10BD000000001E
:1055A0000000000000000000FB21E93F0000F07F48
:1055B0002DED020B019820F0004001909DED000BB5
:1055C00002B070470000000010B52F499FED2C1B62
:1055D0002DED020B84B0059820F000408842DCBF1E
:1055E00000209DED040B32DD2849884209D1049842
:1055F00040B94FF00100FAF7E6FF00F085FC06B075
:1056000010BD05DB9DED040B00F06AFC06B010BD7B
:1056100068469DED040B00F07BF810F0030011D0FC
:10562000012818D09DED021B9DED000B02281AD019
:1056300000F08AFA51EC100B01F0DEFE06B041ECEE
:10564000100B10BD9DED021B9DED000B012000F025
:10565000AFFB06B010BD9DED021B9DED000B00F0F1
:1056600073FA06B010BD012000F0A2FB51EC100B44
:1056700001F0C2FE06B041EC100B10BD00000000AE
:105680000000000000000000FB21E93F0000F07F67
:1056900000B52DED048BB0EE409AF0EE609A83B029
:1056A00051EC190B02F004FB41EC180B18EE100A38
:1056B00018EE901A8DED008B002818BF01200843CA
:1056C00020F00040C0F17F6000F1E040C00F14D036
:1056D00019EE101A19EE900A8DED009B002918BFE3
:1056E0000121084320F00040C0F17F6000F1E0405C
:1056F000C00F04BF0120FAF766FFB0EE480A03B0FE
:10570000F0EE680ABDEC048B00BD00000000000054
:105710002DE9F14F04462DED020B2DED088B8AB0DB
:105720009FEDE70B80ED020B139EE74826F0004546
:1057300085420ADC9DED120B002084ED000B0AB0BF
:10574000BDEC088B03B0BDE8F08FE0489FEDE0AB07
:105750009FEDE1BBA84247DDE14F9FEDE39B9FED4D
:10576000E48B9DED120B53EC1A2B51EC100B002E19
:105770001CDD02F069FB41EC100BBD4208D053EC7C
:105780001B2B51EC100B02F05FFBC4E900010BE096
:1057900053EC192B51EC100B02F056FB53EC182B69
:1057A00002F052FBC4E900010120C8E701F062FEEB
:1057B00041EC100BBD4208D053EC1B2B51EC100BED
:1057C00001F058FEC4E900010BE053EC192B51EC39
:1057D000100B01F04FFE53EC182B01F04BFEC4E907
:1057E00000014FF0FF30AAE7C348A84279DB9DEDE6
:1057F000120B51EC100B00F0AFFB41EC180B9FEDBE
:10580000C00B53EC102B02F013F99FEDBF1B53ECB0
:10581000112B01F02FFE02F075F8074602F0A1F8F7
:1058200041EC190B53EC1A2B02F002F953EC182B34
:1058300002F032FA41EC180B53EC1B2B51EC190B14
:1058400002F0F6F8DFF8C8A241EC100B4FEA155849
:105850000125FA4453EC102B51EC180B02F0F4FA2A
:10586000032DC4E900013DD0C1F30A5005EB4511F9
:10587000A8EB00001139814234DA0AEB051BB0EEC7
:1058800048AA9BED000BF0EE68AA53EC102B51ECEC
:10589000190B02F0CDF841EC1B0B51EC1A0B53EC39
:1058A0001B2B02F0D1FA41EC180B51EC1A0B53EC04
:1058B000182B02F0C9FA53EC1B2B02F0C5FA9BED32
:1058C000020B41EC1A0B53EC102B51EC190B02F0AC
:1058D000AFF853EC1A2B02F0B7FA41EC100B6D1C29
:1058E000B8E70EE0002EA8BF3846BFF628AF94ED0B
:1058F000000B51EC100B01F07FFDC4E90001784270
:105900001DE7C6F3130040F4801EC6F30A50A0F250
:10591000F530471100F01F05C5F12000DDF848B053
:1059200008900020069007900520EC467949002D4C
:1059300007EB0002794408BF51F8221009D051F852
:10594000223001EB8201AB404A68089922FA01F14A
:105950001943A1FB0E26A1FB0B131A449A4234BF34
:105960000123002303EB06080CEB8003D3E901A617
:105970000E448E4234BF0121002192448A4411B169
:10598000924502D903E0924501D2012100E00021B5
:10599000C3E901A641444CF82010011EA0F101000A
:1059A000C4DC029800F10050850F0298DDE903671E
:1059B0008000DDF8148001F0D4FF41EC1A0B304672
:1059C00001F0E6FF9FED541B53EC112B02F030F871
:1059D00041EC1B0B384601F0DBFF9FED511B53ECF4
:1059E000112B02F025F841EC180B404601F0D0FFD6
:1059F0009FED4D1B53EC112B02F01AF841EC190BE3
:105A000051EC180B53EC192B01F034FD53EC1B2B0C
:105A100001F030FD53EC1A2B01F02CFDCDE908010B
:105A2000002008909DED080B53EC1A2B51EC100B45
:105A300002F00AFA53EC1B2B02F006FA53EC182B77
:105A400002F002FA53EC192B02F026F99FED381BF5
:105A500053EC112B01F0ECFF9FED370B41EC180BD1
:105A600053EC102B9DED080B51EC100B01F0E0FFF7
:105A700053EC182B01F0FEFC9FED310B41EC180BA1
:105A800053EC102B9DED080B51EC100B01F0D0FFE7
:105A900053EC182B01F0EEFC41EC100B139810F0B6
:105AA000004F06D06D4251EC100B01F0A5FC41EC0B
:105AB000100B284684ED000B41E6000000000000BA
:105AC0000000000000000000FB21E93F7CD90240FB
:105AD00000004054FB21F93F3163621A61B4D03DAC
