:020000040800F2
:10000000184C00204D030008933A0008A532000860
:10001000913A000859100008DD4200080000000075
:100020000000000000000000000000008D02000839
:10003000B916000800000000E9020008F53D0008BC
:1000400067030008670300086703000867030008E8
:1000500067030008670300086703000867030008D8
:1000600067030008670300086703000867030008C8
:1000700067030008670300086703000867030008B8
:1000800067030008670300086703000867030008A8
:100090005D10000867030008670300086703000895
:1000A0006703000867030008670300086703000888
:1000B0006703000867030008670300086703000878
:1000C0006703000867030008670300086703000868
:1000D00067030008B14200086703000867030008CF
:1000E0006703000867030008670300086703000848
:1000F0006703000867030008670300086703000838
:100100006703000867030008670300086703000827
:100110006703000867030008C53E0008670300087E
:100120006703000867030008BD14000867030008A0
:1001300067030008670300086703000867030008F7
:100140000911000867030008670300086703000837
:1001500067030008670300086703000867030008D7
:1001600067030008670300086703000867030008C7
:100170006703000867030008670300080000000029
:1001800067030008670300086703000867030008A7
:100190006703000867030008670300086703000897
:1001A00000000000000000006703000800F002F8F3
:1001B00000F05CF80AA090E8000C82448344AAF1A5
:1001C0000107DA4501D100F051F8AFF2090EBAE8A3
:1001D0000F0013F0010F18BFFB1A43F0010318477B
:1001E000E86E0000086F00000A444FF0000C10F8A1
:1001F000013B13F0070408BF10F8014B1D1108BFA5
:1002000010F8015B641E05D010F8016B641E01F844
:10021000016BF9D113F0080F1EBF10F8014BAD1C94
:100220000C1B09D16D1E58BF01F801CBFAD505E0B2
:1002300014F8016B01F8016B6D1EF9D59142D6D30C
:10024000704700000023002400250026103A28BF34
:1002500078C1FBD8520728BF30C148BF0B60704738
:100260001FB506F012FE1FBD10B510BD00F0BAF9A3
:100270001146FFF7F5FF04F099FD00F0D8F903B43B
:10028000FFF7F2FF03BC00F0DBF900002C4B19680C
:100290000868B0E8F04F80F30988BFF36F8F4FF024
:1002A000000080F3118870470000000008480068D3
:1002B000006880F308884FF0000080F3148862B66D
:1002C00061B6BFF34F8FBFF36F8F00DF00BF00BF7A
:1002D00008ED00E0DFF80C00016841F470010160F6
:1002E000704700BF88ED00E0EFF30980BFF36F8F28
:1002F000134B1A681EF0100F08BF20ED108A20E97A
:10030000F04F106009B44FF0500080F31188BFF334
:100310004F8FBFF36F8F05F097FA4FF0000080F317
:10032000118809BC19680868B0E8F04F1EF0100F7A
:1003300008BFB0EC108A80F30988BFF36F8F704755
:1003400034000020EFF30580704700000948804723
:1003500009480047FEE7FEE7FEE7FEE7FEE7FEE7A7
:10036000FEE7FEE7FEE7FEE704480549054A064BBF
:1003700070470000B53E0008AD0100081846002097
:10038000184C0020184800201848002053EA020C9E
:1003900000F069802DE9F04B4FF00006002B1FBFE5
:1003A000B3FA83F503FA05F424FA05F65E4012BFAA
:1003B0001643B2FA82F502FA05F4C5F120051EBF14
:1003C00022FA05FC44EA0C04203556EA044C4FEAB4
:1003D000144418BF641C4FF000084FF0000990420D
:1003E00071EB030C39D3002919BFB1FA81F701FA77
:1003F00007F6B0FA80F700FA07F6C7F120071EBF2C
:1004000020FA07FC46EA0C062037B6FBF4FCA7EB03
:100410000507103F07F01F0BCBF120060CFA0BFB72
:100420002CFA06F644BFB3460026202FA4BF5E4632
:100430004FF0000B5BEA060C08BF4FF0010B19EB05
:100440000B09ABFB027C48EB0608C01B06FB02CC89
:100450000BFB03CC71EB0C01C1E70B460246414696
:100460004846BDE8F08B13B54FF000004FF0000197
:10047000AFF30080BDE81C407047032A40F2308093
:1004800010F0030C00F0158011F8013BBCF1020FD5
:10049000624498BF11F801CB00F8013B38BF11F856
:1004A000013BA2F1040298BF00F801CB38BF00F86D
:1004B000013B11F0030300F02580083AC0F00880EA
:1004C00051F8043B083A51F804CBA0E80810F5E7CE
:1004D000121D5CBF51F8043B40F8043BAFF30080B1
:1004E000D20724BF11F8013B11F801CB48BF11F826
:1004F000012B24BF00F8013B00F801CB48BF00F8F6
:10050000012B704710B5203AC0F00B80B1E81850AD
:10051000203AA0E81850B1E81850A0E81850BFF4ED
:10052000F5AF5FEA027C24BFB1E81850A0E818508C
:1005300044BF18C918C0BDE810405FEA827C24BFE0
:1005400051F8043B40F8043B08BF7047D20728BF6E
:1005500031F8023B48BF11F8012B28BF20F8023BBD
:1005600048BF00F8012B70474FF0000200B513465A
:1005700094469646203922BFA0E80C50A0E80C50C3
:10058000B1F12001BFF4F7AF090728BFA0E80C5074
:1005900048BF0CC05DF804EB890028BF40F8042B6D
:1005A00008BF704748BF20F8022B11F0804F18BFDA
:1005B00000F8012B704770477047704710B500F086
:1005C00009F8006810BD10B5044600F003F8046097
:1005D00010BD000000487047B84500200048704733
:1005E000B84500207546FFF7F9FFAE46050069469D
:1005F000534620F00700854618B020B5FFF7B4FE3B
:10060000BDE820404FF000064FF000074FF0000813
:100610004FF0000B21F00701AC46ACE8C009ACE894
:10062000C009ACE8C009ACE8C0098D46704710B5F8
:100630000446AFF300802046BDE81040FFF71FBE20
:1006400001491820ABBEFEE72600020070470000FB
:1006500010B5FF4CFF482DED108B94ED010AD4ED41
:10066000010A20EE20FA94ED010AD4ED020A20EEF0
:1006700020CA94ED010AD4ED030A60EE20BA94ED8D
:10068000010AD4ED040A60EE20CA94ED020AD4ED0A
:10069000020A20EE20DA94ED020AD4ED030A20EEDD
:1006A000209A94ED020AD4ED040A20EE20BA94EDCB
:1006B000030AD4ED030A60EE20AA94ED030AD4EDF8
:1006C000040A20EE20AA94ED040AD4ED040A60EE98
:1006D000209A90ED060A84ED080A90ED050A84ED53
:1006E000090A90ED040A84ED0A0AB0F9001000EE40
:1006F000101AB8EEC00A84ED0B0AB0F9021000EE31
:10070000101AB8EEC00A84ED0C0AB0F9041000EE1D
:10071000101AB8EEC00A84ED0D0AB0F9061000EE0A
:10072000101AB8EEC00A84ED0E0AB0F9081000EEF7
:10073000101AB8EEC00A84ED0F0AB0F90A0000EEF4
:10074000100AB8EEC00A84ED100A01F0C7FCA064DC
:10075000A06C616C401A00EE100AB8EE400ADFEDA2
:10076000BE0AA06CC0EE208A606494ED0B0AD4ED42
:100770000B0A94ED0C1A20EE200AD4ED0C0A00EEC0
:10078000810AD4ED0D0A94ED0D1A00EE810A04F0F1
:10079000F7FAD4ED0B0A60EE800AC4ED0B0AD4ED33
:1007A0000C0A60EE800AC4ED0C0AD4ED0D0A20EEAE
:1007B000800A84ED0D0A9FEDA90AB6EE001A84EDB9
:1007C0000E0A84ED0F0A84ED100A71EE6A0A94EDA8
:1007D0000E0AB0EE008A39EE6CEA20EE080A70EEDE
:1007E000E9EA7BEE2B1A31EE4D1A60EE2E0A94EDFB
:1007F0000F0A31EE692A71EE6ADA20EE080A40EE3D
:100800000E0A94ED100A20EE080A40EE210A94ED3B
:100810000E0A79EE2C1A7BEE6BCA20EE080A60EE07
:10082000A00A20EE210AD4ED0F1A61EE881A01EE1B
:10083000820AD4ED101A3AEE4C2A61EE881A01EEC3
:10084000820AD4ED0E1A3AEE0C2A61EE881A40EEB6
:10085000000A21EEAC9AD4ED0F1A10EE900A61EE68
:10086000881A01EE829AD4ED101A61EE881A01EE10
:10087000AD9A06F099FA41EC100B04F07FF951ECB7
:10088000100B05F0CDFC7FEE4D0A00EE100A7CEE59
:100890000A1A29EE083A70EEEA0A20EE080A61EE1A
:1008A000882A94ED104A70EEA93A60EE0E0A20EE06
:1008B0002E1A2CEE882A43EE210A7BEE8B1A03EEC9
:1008C0002C1A60EE211A94ED0C0A43EE2D1A20EE3C
:1008D000230A94ED0D3A03EE620A94ED0F3A23EEEB
:1008E000213A04EE603A94ED0B4A30EE030A94ED9F
:1008F0000D3A23EE023AB5EEC00A04EE633AD4EDA7
:10090000103A94ED0E4A63EE813A44EE613A73EE8A
:10091000231A94ED0B3A63EE222A94ED0C3A43EE3F
:10092000422A94ED0E2A62EE200A94ED0F2A42EE3E
:10093000410A72EEA00AF1EE10FA41D0F5EEC01AAB
:10094000F1EE10FA3CD0F5EEC00AF1EE10FA37D015
:100950009FED431A94ED052A60EE012A02EEA82AC3
:1009600061EE812A84ED052A94ED062A02EEA82A7A
:1009700084ED062A20EE812A94ED071A02EE281A49
:1009800084ED071A94ED081A00EE081A94ED050A92
:1009900031EE000A84ED080A94ED090A94ED061A76
:1009A00001EE880A30EE010A84ED090A94ED0A0A84
:1009B00000EE880AD4ED070A30EE200A84ED0A0A18
:1009C00094ED020AD4ED080A94ED091A94ED01AAF7
:1009D00020EEC00AD4ED030A94ED029A94ED038A46
:1009E00000EEC10AD4ED040A94ED0A1A00EEC10A21
:1009F000D4ED080A94ED0A1A00EE28AA94ED010A33
:100A000020EE200AD4ED030A00EE810AD4ED040A98
:100A100094ED091A00EEC10AD4ED090A94ED0A1A00
:100A200000EE289A94ED010A20EE200AD4ED020A85
:100A300000EEC10AD4ED040A94ED081A00EE810A12
:100A4000D4ED0A0A00EE288A94ED010A0AE00000BB
:100A5000D4000020904300200000FA440000000071
:100A60000AD7233C20EE200AD4ED020A94ED091A9D
:100A7000D4ED049A00EE810AD4ED030A94ED081A2D
:100A800000EEC10A40EE289A2AEE0A0A09EE090A87
:100A900008EE080A09EEA90A04F072F96AEE000AE3
:100AA000C4ED010A69EE000AC4ED020A68EE000A0C
:100AB00029EE800AC4ED030A84ED040ABDEC108B14
:100AC00010BD000070B55F4C2DED0A8BF8EE008A6A
:100AD000B0EE008AB7EE00CA94ED030AD4ED030A23
:100AE00094ED041A20EE280A20EE200AD4ED040A20
:100AF00060EE880A00EEC10A30EE0C0A10EE100A11
:100B000006F052F994ED020AD4ED030A94ED041AAA
:100B100020EE080A41EC190B20EE200AD4ED010A60
:100B200060EE880A00EE810A10EE100A06F03CF929
:100B300041EC100BB0EE491AF0EE691A03F014FF05
:100B40009FED41BB51EC100B53EC1B2B05F036FE17
:100B50009FED3FAB53EC1A2B05F064FF05F060FBF3
:100B60003D4D686394ED020AD4ED040A94ED031A36
:100B700020EE280A20EE200AD4ED010A60EE880A51
:100B800000EE810A10EE100A06F00EF941EC100B8F
:100B900003F0CEFB53EC1B2B51EC100B05F00EFEBB
:100BA00053EC1A2B05F03EFF05F03AFBA86394EDD9
:100BB000020AD4ED020A94ED031A20EE280A20EE70
:100BC000200AD4ED030A60EE880A00EEC10A30EE76
:100BD0000C0A10EE100A06F0E7F894ED030AD4EDC3
:100BE000040A94ED021A20EE080A41EC190B20EEDB
:100BF000200AD4ED010A60EE880A00EE810A10EEA8
:100C0000100A06F0D1F841EC100BB0EE491AF0EEE4
:100C1000691A03F0A9FE53EC1B2B51EC100B05F0E5
:100C2000CDFD53EC1A2B05F02DFB05F0F9FAE86326
:100C300005F15401BDEC0A8B2846BDE8704000F078
:100C400047B80000D40000206666666666A64C4081
:100C5000000000000080664090430020034890F8A8
:100C60002A1001B1012180F82B107047E4430020C5
:100C700030B585B0642001F0FFF800241422124939
:100C80006846FFF73FFC6D4605EB4400417815F8D8
:100C9000140000F0B7F9012001F0EEF8641CE4B292
:100CA0000A2CF1D318211B2000F0ACF910211C20D4
:100CB00000F0A8F902F0F7FA0449012081F82900B0
:100CC00005B0002030BD00007C6F0008E443002028
:100CD0002DE9F04190ED030A274F0E46054681EDC0
:100CE000090A002405EB840006EB840190ED0D0A4F
:100CF00081ED000A90ED0D0AD0ED100A30EE600A89
:100D000010EE102ABA4205D905EB440232F84C3FE6
:100D10005B1C138090ED100AD0ED0D0A30EE600AD6
:100D200010EE102ABA4205D905EB440232F84C3FC6
:100D30005B1E138005EB4402D0ED0D0AB2F84C2087
:100D40004FF4B47312FB03F200EE102AB8EEC00A9F
:100D500030EE800A81ED060A90ED0D0A0C3180ED2F
:100D6000100AB7EE000A1C3000F0A9FC641C032C2A
:100D7000B8DBBDE8F0810000000096C310B50E227C
:100D800043493B2000F0DCF84149883181F82A00D2
:100D90003F4800F11004018849BA2180418849BACE
:100DA0006180818849BAA180C18849BAA18101893D
:100DB000628B49BA891A61824189A28B49BA891A20
:100DC00021828089E18B40BA401AE08131490622B4
:100DD000492000F0B5F82F492D484C399FED2E1AC7
:100DE000CA6CC0F81620B1F8501041830169416304
:100DF000416981638169C163B4F90C0000EE100A96
:100E000004F12400F8EEC00A80EE810AF3EE050A30
:100E100030EE200A80ED030AB4F9121000EE101A29
:100E2000F8EEC00A9FED1D0A80EE801ADFED1C0A65
:100E3000C1EE201AC0ED061AB4F9102001EE102AF6
:100E4000F8EEC11A81EE801AC1EE201AC0ED051A23
:100E5000B4F90E3001EE103AF8EEC11A81EE801AA4
:100E600081EE200A80ED040A00EE101AB8EEC00AE6
:100E700080ED090A00EE102AB8EEC00A80ED080ADB
:100E800000EE103AB8EEC00A80ED070A10BD00006F
:100E90005C430020200100205CEFA6436F128341D9
:100EA0003333654270B50E46044601461546282088
:100EB00000F0A8F8022000F0DFFF0A21292000F04E
:100EC000A1F8022000F0D8FF0121642000F09AF878
:100ED000022000F0D1FF44F08001252000F092F8BC
:100EE000022000F0C9FF3146262000F08BF80220D6
:100EF00000F0C2FF0321342000F084F8022000F04B
:100F0000BBFF0321672000F07DF8022000F0B4FF52
:100F100081212A2000F076F8062000F0ADFF45F090
:100F20008001272000F06EF8BDE87040022000F03C
:100F3000A3BF10B5FFF79CFEBDE8104002F0AABDAC
:100F4000F8B5144F15460E46044600224021384697
:100F500001F0BEF8104944F0800037240870523187
:100F6000A1F151020870012352390C48009401F09C
:100F7000DBFC09492B46324652310848009401F007
:100F8000D3FC044601224021384601F0A1F8204656
:100F9000F8BD000000140240D400002038040020F6
:100FA00010B50021094A0C4602EB810393ED0D0AAE
:100FB00083ED100A00EB810383ED060A02EB410387
:100FC000491CA3F84C400329EEDB10BD90430020E0
:100FD00010B509490A48094C4B6A00220068A3422F
:100FE00005DA41F28733836381F8282010BD01239D
:100FF00081F82830826310BDE4430020000048429D
:1010000090040020F8B5114F0E46044600224021FE
:10101000384601F05DF804F07F000D4C3725621C66
:1010200020700123511E0B48009501F07DFC2670B5
:10103000621C0123511E0748009501F075FC012236
:101040004021384601F044F80020F8BD0014024069
:10105000D400002038040020FEE7000006480068A5
:101060004069800706D505480122436804480168A5
:101070000148184770470000E80300206401002081
:10108000140000208EB01B4E1B4D4FF0FF3940F274
:1010900006270DF124084A4605A9706904F024FECC
:1010A000059CBC4206D1142241466846FFF72AFA45
:1010B00012480DE0A4F50071113914D0A4F20120FA
:1010C00003280CD8142241466846FFF71BFA0C4847
:1010D000DDE90612D0F800C02046089BE04768888A
:1010E000401C6880D7E7142241466846FFF70AFA99
:1010F0000448EDE700000020880100205401002092
:10110000340100205C010020064800684069800727
:1011100006D505480222436804480168014818477B
:101120007047000010040020640100201800002017
:101130008EB01C4EDFF870801C4D4FF0FF3A40F22D
:1011400001270DF12409524605A9B06904F0CCFD30
:10115000059CBC420CD0A4F50071023908D0A4F55E
:1011600000710B390DD0A4F500710A3909D014E0D3
:10117000142249466846FFF7C5F90D48D0F804C067
:1011800006E0142249466846FFF7BCF9D8F800C0CB
:10119000DDE906122046089BE0476888401C68800D
:1011A000D1E7000000000020440100208E01002053
:1011B000340100203EB50D0A069C8DF804508DF8D0
:1011C0000510110A8DF80610190A8DF808108DF80F
:1011D0000930210A8DF80A1001A90091014606483C
:1011E0008DF807208DF80B4040F2FF1300220068B5
:1011F00000F0B4F83EBD00001C0000203EB50D0A12
:10120000069C8DF804508DF80510110A8DF8061013
:10121000190A8DF808108DF80930210A8DF80A1086
:1012200001A90091014606488DF807208DF80B4072
:101230004FF400730022006800F090F83EBD0000FB
:101240001C0000200EB50A0A8DF804208DF8051048
:1012500001A90091014604484FF40473002200687C
:1012600000F07CF80EBD00001C0000203EB50D0A09
:10127000069C8DF804508DF80510110A8DF80610A3
:10128000190A8DF808108DF80930210A8DF80A1016
:1012900001A90091014606488DF807208DF80B4002
:1012A00040F2FF230022006800F058F83EBD000025
:1012B0001C00002010B50446491EC8B200EB4001D6
:1012C00001EB00100D49002201EB800101230A61AE
:1012D0004A614A62C1E906230A604A608A600B6279
:1012E0002046CA6000F008FB204600F00BFD206895
:1012F000416941F00201416110BD0000204500201C
:10130000F0B5521E0E46D5B205EB450101EB0512B4
:10131000114993B001EB820404F128010F460A46FB
:1013200004F14403002100F06DFB05EBC5026846A3
:1013300000EB820539461C222846FFF7E3F8D4E982
:101340001101C5E90701002329461A46304604F079
:101350006BFC13B0F0BD00002045002010B58AB032
:101360000C9C009192B102930021CDE90321082247
:1013700005928DF818102168079161680023089183
:101380001A46694604F0A0FB0AB010BD0193EBE7D2
:101390008AB0084E6C464FF0FF3707AD3A466946B3
:1013A000F06904F0A1FC01232A46211D009800F0F9
:1013B00035FAF3E70000002030B50020094A012487
:1013C000034600BF52F820104D884DB181F804301B
:1013D00052F82010401CC0B24B800228F2D330BD1E
:1013E0000C71F5E7800100200548B0F85A1021B1D2
:1013F0005FF0000180F85C1070470121FAE70000FF
:10140000FC42002004480021028B12B18176018346
:10141000704701228276FAE7D44400200448002174
:10142000028B12B181760183704701228276FAE73E
:10143000B844002004480021028B12B18176018358
:10144000704701228276FAE7F044002030B5002090
:10145000084B0124024600BFC0EBC00103EB810131
:101460000D8B2DB18A76401C0A830428F4DB30BD35
:101470008C76F8E71044002030B50020084B01249A
:10148000024600BFC0EBC00103EB81010D8B2DB103
:101490008A76401C0A830228F4DB30BD8C76F8E79C
:1014A0008044002004480021028A12B18174018224
:1014B000704701228274FAE70C4500207047000053
:1014C00001681823CAB2103AB2FBF3F2054B6FF36E
:1014D0000901032A9B5CC36500D9091D8165084683
:1014E000704700005C6F000810B5014600208B6952
:1014F0008A6A4FF0C07453B1B3F5005F15D072B172
:10150000012A0CD0022A0AD0032A09D104E01AB118
:10151000012A06D0022A03D1C96AC90100D50120D7
:1015200010BDC96AA142FAD010BD002AF7D0012A25
:10153000F2D0022AF3D0032AF3D010BD30B50468EC
:10154000256825F480252560046863608368402B46
:10155000036803D099600068C26030BD9A6000687B
:10156000C16030BDF0B500285FD08178C2788909AC
:1015700041EA820102792D4C41EA8221C1F30A0637
:10158000A6F58066A68301794279490841EAC2112D
:10159000C1F30A05A5F58065E5830188C1F30A0357
:1015A000A3F58063238441788278C90841EA421117
:1015B000C1F30A02A2F580626284018AC1F30A01C2
:1015C000A1F58061E1844779BF0984F824704779E7
:1015D000C7F3011784F82570C788E7820789278336
:1015E000077B07B10127A776477B07B10127E7767D
:1015F000C089208500201436282E00D8A0831435F9
:10160000282D00D8E0831433282B00D820841432EE
:10161000282A00D860841431282900D8E08401F0F9
:1016200035FF34F85A0F401C2080F0BDFC420020EA
:1016300010B50446806B0068016821F0010101606B
:10164000A06B00684068042802D10748FFF78AFFB2
:10165000A16B162009684860A06B0068016841F022
:101660000101016010BD0000FC42002038B5016896
:1016700000250A684A680092CA6842F40052CA60AB
:101680000168CA6842F01002CA600446094A90F82C
:101690003E0020280DD11623A262A385256421686F
:1016A000A06B091D00F0C4FB2068416941F04001B6
:1016B000416138BDFC420020704772B6FEE790EDF4
:1016C000001AD1ED000A31EE601A40EE010AC1EDB8
:1016D000000A704710B51C48DDE90541A2B2B0F917
:1016E000003052BA438012B2240C028064BA848063
:1016F0008CB264BAC480091401720146D31A41F64F
:101700006414B1F91410E34201DA491C04E041F613
:101710006414A34201DD491E8182B0F9141000EE69
:10172000102A00EE901A9FED091AB8EEC00AF8EEE2
:10173000E00A00EE810ABDEEC00A80ED040A018BCA
:10174000491C018310BD0000D44400200000004665
:1017500010B51C48DDE90541A2B2B0F9003052BA1B
:10176000438012B2240C028064BA84808CB264BAC2
:10177000C480091401720146D31A41F66414B1F908
:101780001410E34201DA491C04E041F66414A34258
:1017900001DD491E8182B0F9141000EE102A00EE1E
:1017A000901A9FED091AB8EEC00AF8EEE00A00EEB2
:1017B000810ABDEEC00A80ED040A018B491C018339
:1017C00010BD0000B84400200000004610B5042100
:1017D0000B4801F06DFC0B48006880470A484168DF
:1017E0000A4888470A4C01210A4822689047226823
:1017F000022109489047BDE81040002003F06ABF6D
:1018000090040020B80000209C000020200500204B
:1018100064010020E803002010040020F0B590F8D7
:1018200020500468A468012D05D0022D03D0416A20
:1018300041F480215DE014F0406F01D1E50055D501
:10184000C4F30164022C03D9416A41F4000150E061
:101850000125A5401D608D684FF4C0739DB1CE6811
:1018600035434E6845EAC605066803EB0417F55193
:101870004FF4C275076805EB04150E697E51097DAA
:10188000012905D009E00E88CD6845EA4655EBE709
:1018900001684E5946F480764E511179D5795679C2
:1018A00041EA056195792D0445EA062529434FF45F
:1018B000C676056806EB0416A9511178D57841EA79
:1018C0000561957852782D0445EA022211434FF4C0
:1018D000C475026805EB04155151006803EB04114F
:1018E000425842F0010242500020F0BD416A41F4EA
:1018F000001141620120F0BD10B590F82020012AAE
:1019000007D0022A05D0416A41F4802141620120BA
:1019100010BD3B48D0F8002242F00102C0F800227E
:10192000D0F8002222F47C52C0F80022D0F8002225
:101930004B6A42EA0322C0F800220A7D02F01F032C
:1019400001229A40D0F81C329343C0F81C32CB6974
:10195000B3B9D0F80C329343C0F80C328C894B6881
:1019600064F31F434C6900EBC404C4F840320C8993
:101970000B6864F31F434C6900EBC404C4F84432A1
:10198000CB69012B16D1D0F80C321343C0F80C32BE
:101990000C884B6864F31F434C6900EBC404C4F823
:1019A00040320C89CB6864F31F434C6900EBC404DC
:1019B000C4F844328B69002BD0F804320ED01343A4
:1019C000C0F804320B69002BD0F8143208D013434E
:1019D000C0F81432096A012904D008E09343EFE704
:1019E0009343F5E7D0F81C121143C0F81C12D0F84D
:1019F000001221F00101C0F80012002010BD00000B
:101A00000064004030B590F82040012C05D0022C35
:101A100003D0416A41F480215DE00468002955D07B
:101A20002469A40754D04FF4D874056804EB01145A
:101A30002D5915F00405956005682D594ED0ED0817
:101A4000556005682C5904F00204D4604FF4DA7430
:101A5000056804EB01142D5905F00F0515610568A3
:101A60002D59C5F30725956105682C59240C54613F
:101A70004FF4DC72046802EB0112A4581C70046875
:101A8000A458240A5C700468A458240C9C70046850
:101A9000A258120EDA704FF4DE72046802EB0112E3
:101AA000A4581C710468A458240A5C710468A458E2
:101AB000240C9C710468A258120EDA71006881B17E
:101AC000016941F020010161002030BDE468A8E710
:101AD000416A41F400114162012030BD6D0D156075
:101AE000AFE7C16841F02001C160EDE770B50400C7
:101AF00003D094F8200010B104E0012070BD20460E
:101B000000F082F82068016841F00101016000F0F6
:101B1000E5FA0546052604E000F0E0FA401B0A2835
:101B200011D820684068C007F6D02068016821F00D
:101B30000201016000F0D2FA05460BE000F0CEFA97
:101B4000401B0A2806D9606A40F40030606284F8BD
:101B50002060D2E7206840688007EFD4207E01280B
:101B6000206801683DD021F080010160607E01287D
:101B70002068016838D021F040010160A07E012872
:101B80002068016833D021F020010160E07E012847
:101B9000206801682ED041F010010160207F0128EB
:101BA0002068016829D021F008010160607F0128C8
:101BB0002068016824D021F004010160D4E9020109
:101BC0000843D4E90412114308436168491E0843DD
:101BD0002168C86100206062012084F82000002094
:101BE00070BD41F08001C0E741F04001C5E741F020
:101BF0002001CAE721F01001CFE741F00801D4E746
:101C000041F00401D9E70000F0B587B00446142183
:101C10006846FEF7A9FC364B3648DFF8D0E0196875
:101C2000D4F800C0334A03250226092710300024C7
:101C3000491CF44522D11960012907D1016841F0FE
:101C400000710160006800F000700590106840F0BD
:101C5000080010601068CDE9005600F00800CDE9DA
:101C6000047069462448CDE9024500F017F90022C6
:101C70000621142000F0D0FA142033E0DFF87CE0D5
:101C8000F44531D1D0F800C04CF0806CC0F800C0F1
:101C9000D0F800C001290CF0806CCDF814C0196098
:101CA00007D1016841F000710160006800F0007028
:101CB0000590106840F002001060106802AB00F060
:101CC000020005904FF44050CDE9000683E8B000D3
:101CD00069460B4800F0E2F800220621402000F09F
:101CE0009BFA402000F08AFA07B0F0BD0064004083
:101CF0002000002030380240000C02400068004004
:101D00000004024070B5044690F82000012804D079
:101D1000606A40F40020606218E0022084F820002D
:101D20002068016821F00101016000F0D7F9054643
:101D30000EE000BF00F0D2F9401B0A2808D9606A03
:101D400040F400306062052084F82000012070BD5E
:101D500020684068C007EDD1606270BD2DE9F04198
:101D6000044600F0BBF906465CB1022084F8350059
:101D7000002584F834502068016821F001010160D9
:101D80000DE00120BDE8F08100F0A8F9801B0528D6
:101D900005D920206065032084F83500F2E720682B
:101DA0000068C007F0D12268116820480140D4E9DA
:101DB00001031843D4E903363343184363691843D6
:101DC000A3691843E3691843236A18430843616A07
:101DD000042903D1D4E90B13194308431060206888
:101DE0004069666A20F0070130460E430127042847
:101DF0000CD1A06A0643E06A40B12046FFF774FBAD
:101E000020B14020606584F83570BAE720684661EB
:101E10002046FFF755FB94F85C203F2191408160FC
:101E2000656584F835700020ACE700003F8010F055
:101E300070B5044690F83400002501280CD001202C
:101E400084F8340094F835600020012E06D084F820
:101E500034000225284670BD022070BD022684F899
:101E6000356060652046FFF769FB2068016841F036
:101E700001010160EEE7000070B5044600F02EF9A4
:101E80000546601C02D004480078044400F026F99E
:101E9000401BA042FAD370BD240000202DE9F84F6A
:101EA000DFF8F8A10022012403254FF00F090AF101
:101EB000040BAAF1040E00BF0B6804FA02F63340CB
:101EC000B34270D10F7907F00307012F01D0022F21
:101ED00016D187684FEA420805FA08FC27EA0C0782
:101EE000D1F80CC00CFA08FC4CEA070CC0F808C08A
:101EF0004768B7430E79C6F3001696403E434660E6
:101F00000E79F643B6070AD0C7684FEA420C05FAC5
:101F10000CF6B7438E6806FA0CF63E43C6600E799F
:101F200006F00306022E10D1D60800EB8608D8F87A
:101F3000206057074FEAD76C09FA0CF7BE430F69C8
:101F400007FA0CF73743C8F8207006684FEA420CCE
:101F500005FA0CF7BE430F7907F0030707FA0CF7F1
:101F6000374307604E6816F4403F1CD04C4E37682C
:101F700047F480473760366822F0030706F480464E
:101F80000096484E07EB060CDCF8086897073F0FF1
:101F900009FA07F826EA0806DFF80C81404503D164
:101FA0004FF0000841E072E0DFF80081404502D1C7
:101FB0004FF0010839E0DFF8F880404502D14FF0DA
:101FC000020832E0DFF8EC80404502D14FF0030810
:101FD0002BE0DFF8E480404502D14FF0040824E014
:101FE000DFF8D880404502D14FF005081DE0DFF84A
:101FF000D080404502D14FF0060816E0DFF8C480DB
:10200000404502D14FF007080FE0DFF8BC804045A3
:1020100002D14FF0080808E0DFF8B080404502D157
:102020004FF0090801E04FF00A0808FA07F848EAFB
:102030000608CCF80888DAF800605746D1F804C0E2
:102040009E435FEACC2C00D51E433E60DBF8006067
:102050005F46D1F804C09E435FEA8C2C00D51E4336
:102060003E60DEF800607746D1F804C09E435FEA28
:102070008C3C00D51E433E60084F083F3E68D1F8B7
:1020800004C09E435FEACC3C00D51E433E60521C18
:10209000102AFFF411AFBDE8F88F0000083C0140A2
:1020A0004438024000300140000002400004024079
:1020B00000080240000C02400010024000140240E0
:1020C00000180240001C0240002002400024024090
:1020D0000AB1816170470904FBE70000014880688C
:1020E00070470000240000200248816802781144F3
:1020F00081607047240000200B4810B5016841F44E
:1021000000710160016841F480610160016841F47F
:1021100080710160032000F09FF8002000F006F8B5
:1021200000F050F8002010BD003C024030B50546DC
:102130001F4887B00024016841F010010160006869
:1021400006A900F01000009001A800F031F90498F1
:10215000A8B100F04DF940001649174AB0FBF1F163
:102160001648491E026040F2E732C0E90324C0E984
:102170000114846100F014FD040003D015E000F0A8
:1021800037F9E9E70D4800F059FD04000DD136207C
:1021900000F034F8102D07D200222946362000F036
:1021A0003BF80748056000E0012407B0204630BD39
:1021B0004038024040420F0000100040C40500209B
:1021C000280000200C4882B0016841F48041016081
:1021D000006800F4804000900748001F016841F04B
:1021E000805101600068002200F0805000900F21B3
:1021F000901E02B000F010B844380240002809DBFD
:1022000000F01F02012191404009800000F1E02010
:10221000C0F8001170470000F0B40E4B1B680C466C
:10222000C3F30223C3F10705042D00D90425191DAA
:10223000072901D2002300E0DB1E012606FA05F182
:10224000491E214099409E40761E16403143F0BC05
:1022500002F05DB80CED00E0064900F007020868E6
:102260004FF6FF03184040EA0220034A104308607B
:10227000704700000CED00E00000FA052DE9F04782
:102280000E46050065D0DFF81481D8F80000F7B2DB
:1022900000F00F00B04207D288F80070D8F80000B4
:1022A00000F00F00B04254D128683D4C810712D590
:1022B000400703D5206840F4E050206028780007EC
:1022C00003D5206840F4604020602068A96820F0B1
:1022D000F000084320602878C0072DD03049686896
:1022E0000839012812D0022813D0032811D0096818
:1022F000890700292DDA216821F0030101432160BB
:10230000FFF7ECFE814641F2883A0EE00968890346
:10231000EFE709688901ECE7FFF7E0FEA0EB0901B0
:10232000514502D90320BDE8F0872068696800F0B4
:102330000C00B0EB810FEFD1D8F80010404601F04F
:102340000F01B14207D90770006800F00F00B042DA
:1023500001D00120E7E72878400705D52068E96823
:1023600020F4E050084320602878000706D5206854
:10237000296920F4604040EAC100206000F058F86C
:102380002168084AC1F30311515CC840064908603E
:1023900006480068FFF7CAFE0020C4E7003C024080
:1023A00008380240646F0008300000202800002038
:1023B0000F2202600C4A136803F0030343601368A2
:1023C00003F0F0038360136803F4E053C360126802
:1023D0004FF4E05303EAD20202610448006800F0BF
:1023E0000F0008607047000008380240003C0240BF
:1023F0000448054900680968044AC1F38221515C18
:10240000C84070473000002008380240746F000850
:102410000448054900680968044AC1F34231515C27
:10242000C84070473000002008380240746F000830
:10243000154810B5006810F00C02144813D0144968
:10244000042A0FD0082A0ED10F4C241F22682368BB
:1024500002F03F025B0207D52068C0F38810A0FBA2
:10246000010106E0084610BD2168C1F38811A1FBF7
:1024700000010023FDF78AFF2168C1F30141491CD7
:102480004900B0FBF1F010BD083802400024F40010
:10249000001BB7002DE9F84F04006ED02078DFF85C
:1024A0004C93C007A9F104054AD009F10400016862
:1024B000C1F38101012908D00068C0F3810002281E
:1024C0000AD1D9F80000400206D52868800337D524
:1024D00060680028E1D033E06068B0F5803F10D03C
:1024E000B0F5A02F286810D020F48030286028682C
:1024F00020F4802028606068A8B1FFF7EFFD064651
:102500000DE0286840F48030F4E740F48020286033
:10251000F7E700BFFFF7E2FD801B642873D8286847
:102520008003F7D50CE0FFF7D9FD064605E000BFB4
:10253000FFF7D4FD801B6428F0D828688003F7D407
:102540002078DFF8AC8280074FF0000A3ED5A7481C
:10255000001D016811F00C0F08D00068C0F3810065
:1025600002280BD1D9F80000400207D42868800760
:1025700016D5E068012800D112E033E1E068B8B177
:102580000120C8F80000FFF7A9FD064605E000BFDE
:10259000FFF7A4FD801B0228C0D828688007F7D564
:1025A0002868216920F0F80040EAC10028600DE0A9
:1025B000C8F800A0FFF792FD064604E0FFF78EFD85
:1025C000801B02281FD828688007F7D420780007CE
:1025D00022D5864F87486169703771B1012101604A
:1025E000FFF77CFD064604E0FFF778FD801B02281C
:1025F00009D838688007F7D50EE0C0F800A0FFF7CB
:102600006DFD064605E082E0FFF768FD801B0228AD
:102610007DD838688007F7D42078400768D5DFF880
:10262000CCB100270BF13C0BDBF80000C0000BD451
:10263000DBF8001041F08051CBF80010DBF800000F
:10264000012700F0805000906B4E3068C00510D418
:10265000306840F480703060FFF740FD009005E086
:10266000FFF73CFD0099401A022850D83068C00599
:10267000F6D55E4EA0686C3601280FD0052830686C
:1026800010D020F001003060306820F0040030608D
:10269000A068B8B1FFF722FD00900FE0306840F06D
:1026A0000100F4E740F004003060F7E7FFF716FDA3
:1026B0000099411A41F28830814266D8306880071B
:1026C000F4D50EE0FFF70AFD009007E0FFF706FDE6
:1026D0000099411A41F28830814256D8306880070B
:1026E000F4D42FB1DBF8001021F08051CBF80010AA
:1026F000A069C8B33D49091D0968C1F381010229D8
:102700004AD00228504607D0C8F8600000E03CE0FC
:10271000FFF7E4FC04463BE04746C8F86000FFF7DB
:10272000DDFC064605E000BFFFF7D8FC801B022851
:102730002BD828688001F7D4D4E907010843A16A9F
:102740002E4A490802EB0141626A41EA82110843BC
:1027500094F82C1040EA0161C9F800100120386695
:10276000FFF7BCFC044606E03EE000BFFFF7B6FC06
:10277000001B022809D828688001F7D534E000BF83
:10278000FFF7ACFC001B022802D90320BDE8F88F3C
:1027900028688001F4D427E00128F7D0D9F8000098
:1027A000E26900F4800191421CD1226A00F03F01ED
:1027B000914217D147F6C071626A0140B1EB821FA6
:1027C00010D1A26A4FF0FF3300F4403103EB520204
:1027D000B1EB024F06D194F82C1000F07060B0EB12
:1027E000016F01D00120D1E70020CFE7043802407B
:1027F00000004742800E4742007000400000FFFF8B
:1028000070B5040009D0606A002540B1256165619A
:10281000A56294F8510040B10CE0012070BD6068E1
:10282000B0F5827FF4D0E561F2E784F8505020469D
:1028300000F044F8022084F851002068016821F07B
:1028400040010160A088218900F4827001F40441F4
:102850000843A18901F400610843217C01F00201D1
:102860000843217D01F001010843218B01F400712F
:102870000843217F01F03801084394F8201001F04B
:1028800080010843218D01F400510843216808604C
:10289000A069042101EA104094F8241001F010010D
:1028A0000843216848602068C16921F40061C16162
:1028B0006565012084F85100002070BD10B586B018
:1028C000044614216846FDF74FFE144920688842EB
:1028D00021D113480021026842F48012026000688E
:1028E00000F4801005900E481438026842F020026F
:1028F0000260006800F0200005904FF460700090C6
:102900000220CDE9010103200390052004906946CF
:102910000448FFF7C3FA06B010BD000000500140A4
:1029200044380240001402402DE9F84F044690F864
:10293000500000270A9E1D4692468B464FF0010923
:1029400001280ED0012084F85000FFF7C7FB804615
:1029500094F85100616801280CD0B1F5827F07D14D
:1029600002E00220BDE8F88FA16809B9042801D06F
:102970000227C2E0BBF1000F27D0BAF1000F24D02C
:102980001DB394F85100042802D0052084F85100AA
:1029900000206065C4F838A0E587A587C4F830B08A
:1029A000E586A5862064606420680168490603D432
:1029B000016841F040010160E068B0F5006F6068B7
:1029C00005D0E8B3012D46D07FE0012795E008B19E
:1029D000012D39D1206B21680088C860206B801CD4
:1029E0002063E08E401EE0862EE020688168890723
:1029F0000FD5E18E69B1B9F1010F0AD1216B0988B8
:102A0000C160206B801C2063E08E401EE0864FF08A
:102A1000000920688168C9070CD0E18F51B1C068F6
:102A2000A16B0880A06B801CA063E08F401EE08734
:102A30004FF00109FFF752FBA0EB0800B04200E0A5
:102A400009E001D3701C50D1E08E0028CDD1E08F79
:102A50000028CAD13FE0206B216800780873206B02
:102A6000401C2063E08E401EE0862EE020688168D6
:102A700089070FD5E18E69B1B9F1010F0AD1216B38
:102A800009780173206B401C2063E08E401EE086B5
:102A90004FF0000920688168C9070CD0E18F51B15F
:102AA000C068A16B0870A06B401CA063E08F401E43
:102AB000E0874FF00109FFF711FBA0EB0800B042DF
:102AC00002D3701C01D010E07EB1E08E0028CDD181
:102AD000E08F0028CAD142463146204601F0C0F8B6
:102AE00028B101272020606507E0032705E0A068E2
:102AF00018B92068C16880680090012084F85100EE
:102B0000002084F8500038462CE7704770470000DA
:102B100070B590F83C20012A32D0012480F83C4066
:102B2000022280F83D2003685A689D6822F07006F2
:102B30000A6832435A60134B02689A4214D0B2F1C9
:102B4000804F11D0104B9A420ED0104B9A420BD0AE
:102B50000F4B9A4208D00F4B9A4205D00E4B9A4227
:102B600002D00E4B9A4204D1496825F080031943E4
:102B7000916080F83D40002180F83C10084670BD0F
:102B8000022070BD00000140000400400008004029
:102B9000000C0040000401400040014000180040CB
:102BA00010B5040003D094F83D0010B107E00120F7
:102BB00010BD002084F83C00204600F01FF80220E1
:102BC00084F83D00211D206801F082F9012084F87D
:102BD000460084F83E0084F83F0084F8400084F802
:102BE000410084F8420084F8430084F8440084F8EB
:102BF000450084F83D00002010BD000008B50C4AD7
:102C000001680C48914207D1016841F0020101605E
:102C1000006800F0020009E0074A914207D101680C
:102C200041F040010160006800F04000009008BDE4
:102C300000040040403802400018004090F83D1069
:102C4000012901D001207047022180F83D10016860
:102C5000CA6842F00102CA6000681149884214D073
:102C6000B0F1804F11D00F4988420ED00E498842F2
:102C70000BD00E49884208D00D49884205D00D4935
:102C8000884202D00C49884204D1816801F00701D2
:102C9000062903D0016841F001010160002070475E
:102CA000000001400004004000080040000C00400B
:102CB00000040140004001400018004070B5044687
:102CC00090F83C000025012817D0012684F83C60CC
:102CD000022084F83D002068826822F0770222F406
:102CE0007F4282600868502838D00DDC20284FD001
:102CF00005DC90B3102811D14AE0022070BD3028C5
:102D000046D040280AD13BE060282FD070280DD053
:102D1000B0F5805F03D0B0F5005F12D0012584F8D4
:102D20003D60002084F83C00284670BDCB68D1E9A6
:102D30000121206801F03DF92068816841F07701A8
:102D400009E0CB68D1E90121206801F032F920685F
:102D5000816841F480418160E1E719E0CA6849680F
:102D6000206801F0FBF95021206806E0CA68496834
:102D7000206801F004FA6021206801F024F9CEE710
:102D8000CA684968206801F0E9F940212068F4E741
:102D9000226801461046F0E7704770B504460068A7
:102DA00001694FF00005C943890715D4C168C943BB
:102DB000890711D4E91E016101202077206880690C
:102DC0008007204602D0FFF7E7FF04E000F0DAF8C2
:102DD000204600F06CF9257720680169C94349074E
:102DE00017D4C168C943490713D46FF004010161C6
:102DF000022020772068806910F4407F204602D0AE
:102E0000FFF7CAFF04E000F0BDF8204600F04FF9DC
:102E1000257720680169C943090716D4C168C943E9
:102E2000090712D46FF0080101610420207720689F
:102E3000C0698007204602D0FFF7AEFF04E000F033
:102E4000A1F8204600F033F9257720680169C943CD
:102E5000C90617D4C168C943C90613D46FF010015D
:102E60000161082020772068C06910F4407F204667
:102E700002D0FFF791FF04E000F084F8204600F054
:102E800016F9257720680169C943C90708D1C168C7
:102E9000C943C90704D1891E0161204600F06CF9BD
:102EA00020680169C943090609D4C168C9430906F4
:102EB00005D46FF0800101612046FFF726FE2068EF
:102EC0000169C943490609D4C168C943490605D403
:102ED0006FF040010161204600F058F92068016957
:102EE000C94389060BD4C168C943890607D46FF06A
:102EF000200101612046BDE87040FFF707BE70BDAC
:102F000010B586B0044614216846FDF72DFB2368F2
:102F1000174C002117480222A34210D1036843F046
:102F200002030360006800F002000590202000907A
:102F3000CDE90121CDE9031269460F4813E00F4C9A
:102F4000A34212D1036843F080030360006800F0DD
:102F50008000059040200090CDE901210920CDE9B5
:102F6000031069460648FEF799FF06B010BD000041
:102F700000040040303802400004024000180040C5
:102F8000001C0240704770B5044690F83C000026D3
:102F90000D4601280FD0012084F83C006AB1042AB4
:102FA0001DD0082A2FD00C2A3FD00126002084F8FB
:102FB0003C00304670BD022070BD206801F00CF866
:102FC0002068816941F0080181612068816921F0F0
:102FD00004018161206881692A69114311E0206838
:102FE00001F02AF82068816941F40061816120685C
:102FF000816921F480618161206881692A6941EADF
:1030000002218161D2E7206801F04CF82068C16993
:1030100041F00801C1612068C16921F00401C1616A
:103020002068C1692A69114311E0206801F06EF837
:103030002068C16941F40061C1612068C16921F45F
:103040008061C1612068C1692A6941EA0221C161C8
:10305000ACE710B5040003D094F83D0010B107E0D0
:10306000012010BD002084F83C00204600F01EF82E
:10307000022084F83D00211D206800F029FF012076
:1030800084F8460084F83E0084F83F0084F840004D
:1030900084F8410084F8420084F8430084F8440036
:1030A00084F8450084F83D00002010BD704770474B
:1030B00010B50446022249B104290ED0082913D0C4
:1030C00094F84100012816D0012010BD94F83E006C
:1030D0000128F9D184F83E200FE094F83F00012840
:1030E000F2D184F83F2008E094F840000128EBD1A9
:1030F00084F8402001E084F841200122206800F09B
:103100004BFF16492068164A884201D0904203D1ED
:10311000436C43F4004343642068884213D0B0F109
:10312000804F10D00F4988420DD00F4988420AD0F5
:103130000E49884207D0904205D00D49884202D0FE
:103140000C49884204D1816801F00701062903D0A7
:10315000016841F001010160002010BD0000014044
:10316000000401400004004000080040000C004042
:10317000004001400018004000680349884201D126
:10318000FEF7B2BF7047000000100040704770B5F6
:10319000040004D094F83D00002510B106E00120A1
:1031A00070BD84F83C50204600F022F8242084F8BA
:1031B0003D002068C16821F40051C160204600F044
:1031C000F1FF2068016921F49041016120684169A3
:1031D00021F02A0141612068C16841F40051C160B9
:1031E0002564202084F83D0084F83E00002070BD56
:1031F00070B586B0064614216846FDF7B5F9244936
:103200003068884241D123480025016841F010010F
:103210000160006800F0100005901E481438016835
:1032200041F0020101600068694600F0020005906B
:10323000C020009002200190012002900320039002
:10324000072004901448FEF729FE154C134820600F
:103250004FF00060C4E901054014C4E90350801038
:103260006561C4E90650256220466562FEF776FD79
:1032700008B1FEF722FAB463002205212520A663D7
:10328000FEF7CAFF2520FEF7B9FF06B070BD0000AB
:1032900000100140443802400004024040640240F3
:1032A00064050020FEE710B530216A20FDF7AAFE74
:1032B0000A20FEF7E1FD0D212420FDF7A3FE0A20E0
:1032C000FEF7DAFD0E212820FDF79CFE0A20FEF70E
:1032D000D3FD8E213120FDF795FE0A20FEF7CCFDAF
:1032E00001210B2000F09CF80A20FEF7C5FD00200C
:1032F00000F05AF8102801D0012010BD01210B2048
:1033000000F08EF80A20FEF7B7FD00210A2000F039
:1033100087F80A2000F048F808B1022010BD0A2002
:10332000FEF7AAFD00210B2000F07AF80B2000F038
:103330003BF808B1032010BD0A20FEF79DFD2421B3
:10334000412000F06DF8412000F02EF8242801D033
:10335000042010BD0A20FEF78FFDC021422000F09E
:103360005FF8422000F020F8C02801D0052010BDF1
:103370000A20FEF781FD00212A20FDF743FE0A20E6
:10338000FEF77AFD00213420FDF73CFE0A20FEF70F
:1033900073FD062203210E20FDF784FD6420FEF755
:1033A0006BFD002010BD0000F8B501463220FDF78E
:1033B00029FE0A20FEF760FD80213420FDF722FE61
:1033C0000A20FEF759FD134E002240213046FEF739
:1033D0007FFE114CB52037252070621C0123511E41
:1033E0000E480095FFF7A0FA621C0123511E0B48FE
:1033F0000095FFF799FA012240213046FEF768FE5A
:10340000647800213420FDF7FDFD0A20FEF734FD2D
:103410002046F8BD00140240D400002038040020EB
:1034200070B50D46044600212A20FDF7EBFD022071
:10343000FEF722FD21462920FDF7E4FD0220FEF7DC
:103440001BFD29466420FDF7DDFD0220FEF714FD7B
:1034500081212A20FDF7D6FDBDE870400A20FEF745
:103460000BBD00210170417081707047817801228D
:10347000491CC9B24B1E8170132B01D802707047D2
:103480001429FCD9002101704270704710B55D4CC1
:1034900094F82800C10704F12A0002D0FFF7E6FFE4
:1034A00001E0FFF7DEFF94F828008107554800F19E
:1034B0002D0002D5FFF7DAFF01E0FFF7D2FF94F805
:1034C000280041074F4800F1300002D5FFF7CEFF3A
:1034D00001E0FFF7C6FF94F828000107494800F112
:1034E000330002D5FFF7C2FF01E0FFF7BAFF94F8FF
:1034F0002800C106434800F1360002D5FFF7B6FFA9
:1035000001E0FFF7AEFF94F8280081063D4800F186
:10351000390002D5FFF7AAFF01E0FFF7A2FF94F8F8
:1035200028004106374800F13C0002D5FFF79EFF16
:1035300001E0FFF796FF94F828000106314800F1FA
:103540003F0002D5FFF792FF01E0FFF78AFF208DD1
:10355000C1052C4800F1420002D5FFF787FF01E0CA
:10356000FFF77FFF208D8105264800F1450002D539
:10357000FFF77CFF01E0FFF774FF208D4105214834
:1035800000F1480002D5FFF771FF01E0FFF769FF86
:10359000208D01051B4800F14B0002D5FFF766FFA7
:1035A00001E0FFF75EFF208DC104164800F14E00D8
:1035B00002D5FFF75BFF01E0FFF753FF208D810489
:1035C000104800F1510002D5FFF750FF01E0FFF76E
:1035D00048FF208D41040B4800F1540002D5FFF74D
:1035E00045FF01E0FFF73DFF208D0104054800F194
:1035F000570003D5BDE81040FFF738BFBDE81040C5
:10360000FFF72FBFFC42002010B51248059B41F682
:1036100064149AB2B0F9001052BA418012B21B0C75
:1036200002805BBA8380531A0146E342B1F9141059
:1036300001DA491C04E041F66414A34201DD491E8D
:103640008182B0F9141002EB41310161018B491CF8
:10365000018310BDF044002010B5401EDDE90521B6
:1036600093B25CBAC0B2094BC0EBC000120C23F895
:10367000204003EB800052BA82808AB252BAC280E4
:1036800009140172018B491C018310BD10440020F4
:1036900030B51249DDE906321C0C9DB293B2A0F59B
:1036A000007042F3074201380DD001280AD168BAF0
:1036B000888360BA088458BA488481F82420888EA8
:1036C000401C888630BD68BA088060BA888058BAC5
:1036D000C8800A72088B401C088330BD80440020DB
:1036E000104810B50E4901600321416000214FF4DC
:1036F00010228160C0E903124FF40012426101768A
:10370000012242768276C27601774177FEF7EEF9A2
:10371000002803D0BDE81040FDF7CFBF10BD00006A
:1037200000640040E8030020104810B50E49016015
:103730000321416000214FF410228160C0E903128F
:103740004FF4001242610176012242768276C276FF
:1037500002774177FEF7CAF9002803D0BDE8104090
:10376000FDF7ABBF10BD0000006800401004002052
:10377000094808B5016841F4800101600068002231
:1037800000F48000009011463A20FEF745FDBDE8A8
:1037900008403A20FEF732BD3038024030B52F4D98
:1037A000AFB023AC95E80F0084E80F00002123A8F8
:1037B00001F020FB2A4C10350DF19C0C606195E85E
:1037C0000F008CE80F00002127A8103D01F012FB2C
:1037D0002035A06195E80F002BAD85E80F00002192
:1037E0002BA801F007FB1D49E0611C22303168461F
:1037F000FCF788FE0021684601F00FFB17492060A6
:103800001C224C3107A8FCF77DFE002107A801F01F
:1038100004FB124960601C2268310EA8FCF772FE9E
:1038200000210EA801F0F9FA0C49A0601C22843195
:1038300015A8FCF767FE002115A801F0EEFA07496C
:10384000E0601C22A0311CA8FCF75CFE00211CA833
:1038500001F0E3FA20612FB030BD0000A06E000837
:103860000000002030B587B014216846FCF77CFECC
:103870001D480024016841F002010160016801F067
:1038800002010591016841F001010160016801F048
:1038900001010591016841F008010160016801F032
:1038A00008010591016841F080010160016801F0A3
:1038B00080010591016841F02001016000680B4D15
:1038C00000F020000590012240212846FEF700FC70
:1038D00001214020CDE90214CDE9000169462846C6
:1038E000FEF7DCFA07B030BD303802400014024069
:1038F000104810B50E4901604FF4827141600021FB
:103900008160C1604FF400720161C0E9051230228C
:10391000C0E90721416281620A21C162FEF770FF9E
:10392000002803D0BDE81040FDF7C7BE10BD000061
:10393000005001403804002010B58CB000240794DA
:10394000089409941C2168460A94FCF70DFE1A4855
:10395000184901608221C0E901144FF4B971C0E92E
:1039600003148461FFF71CF908B1FDF7A6FE4FF4BC
:103970008050079007A91048FFF7A0F908B1FDF79C
:103980009CFE0D48FFF765FB08B1FDF796FE602031
:10399000CDE9000402940022694607480494FFF729
:1039A000F2FA08B1FDF789FE0348FFF7A9FA0CB057
:1039B00010BD000000180040D804002010B58EB0E3
:1039C00000240794089409940A940B941C216846D7
:1039D0000C94FCF7C9FD1E481C49C0E9001441F2D3
:1039E0008731C0E9024104618461FFF7D9F808B169
:1039F000FDF763FE4FF48050079007A91448FFF7C6
:103A00005DF908B1FDF759FE1148FFF722FB08B137
:103A1000FDF753FE0B940BA90D480C94FFF778F8B3
:103A200008B1FDF74AFE6020CDE9000402940422AB
:103A3000694607480494FFF7A6FA08B1FDF73DFE72
:103A40000348FFF75DFA0EB010BD0000000400400F
:103A5000900400200C4810B50A4901600B494160F0
:103A6000002181600C22C160C0E904128161C16142
:103A7000FFF78DFB002803D0BDE81040FDF71DBE09
:103A800010BD00000010014020050020A0860100AC
:103A9000FEE7FEE710B559482DED0A8BB0F9061088
:103AA000B0F908009FED569BDFED57BA574C9FEDDC
:103AB000588A9FED58BADFED58AA9FED58AADFED5E
:103AC000588A00294EDA9FED57CA00282ADA91FB5E
:103AD000F0F002F01FFE41EC100B01F045F853EC42
:103AE000192B51EC100B02F067FF0AD8C4ED01BA94
:103AF00084ED028A9FED4C0A84ED030A9FED4B0A88
:103B00000BE09FED4B0A84ED010A9FED4A0A84ED1C
:103B1000020A84ED03BA9FED480A84ED040ABDEC65
:103B20000A8B10BDFBDD91FBF0F002F0F3FD41ECE0
:103B3000100B01F019F853EC192B51EC100B02F09B
:103B40003BFF84ED01CA06D884ED028AC4ED03AAC6
:103B50009FED3A0AE1E784ED02AAC4ED038A9FEDE6
:103B6000380ADAE7DBDD00289FED36CA22DD91FB5B
:103B7000F0F002F0CFFD41EC100B00F0F5FF53EC3C
:103B8000192B51EC100B02F017FF0AD89FED2E0AEB
:103B900084ED010AC4ED02AA84ED038AC4ED04BADF
:103BA000BDE79FED2A0A84ED010AC4ED028A84ED87
:103BB00003AAB2E7B3DA91FBF0F002F0ABFD41ECFF
:103BC000100B00F0D1FF53EC192B51EC100B02F04D
:103BD000F3FE84ED01CA08D89FED1D0A84ED020AA8
:103BE00084ED038A9FED1B0A97E79FED1B0A84ED86
:103BF00002BA84ED030A9FED190A8EE79043002074
:103C0000000000000000F03F0AD7A3BBD400002052
:103C1000A8C64BBEE17A543F355E7ABF68910DBFAE
:103C2000E17A54BF0AD7A33BBE9F7A3F4ED111BC65
:103C30006F1203BC7B140EBF6F1203BBA69B443CE8
:103C400099BB16BB0AD7233B52499D3A99BB163BF9
:103C5000355E7A3F6F12033C295C0FBFBC74933B07
:103C600038B504461248134B0068B0FBF3F04FF42C
:103C70007A73584300906068B0F5827F0DD10B468F
:103C8000009200228021204600F016F870B1606D8D
:103C900040F020006065032038BD009830B1401E20
:103CA000009020688068C0430006F6D5002038BD2B
:103CB0003000002000366E012DE9F8431E46914683
:103CC00088460446089DFEF709FA401B351AFEF7A0
:103CD00005FA074625480068C0F3CB30684338E052
:103CE000701C37D0FEF7FAF9C01BA84203D215B1F9
:103CF000009860B32CE02068416821F0E001416049
:103D00006068B0F5827F0BD1A068B0F5004F02D09B
:103D1000B0F5806F04D12068016821F04001016096
:103D2000A06AB0F5005F09D12068016821F4005154
:103D300001602068016841F400510160012084F8AD
:103D40005100002084F850000320BDE8F8830025CE
:103D5000401E00902068816838EA010004D00021EC
:103D60004945BDD10020F0E70121F9E730000020EE
:103D700008B502F0F5F8074C009060688047A0682D
:103D80008047E0688047A06980470121684601F0CC
:103D90005BFCF2E7B8000020DDE9031288B240BA0C
:103DA00000B200EE100A1248090CB8EEC00A49BA77
:103DB00009B280ED000A00EE101A91B249BAB8EECD
:103DC000C00A09B280ED010A00EE101A110C49BABE
:103DD000B8EEC00A09B280ED020A00EE101AB8EE81
:103DE000C00A80ED030A018A491C01827047000065
:103DF0000C45002010B5502080F31188BFF34F8F81
:103E0000BFF36F8F02F0B2F818B104494FF0805041
:103E10000860002080F3118810BD000004ED00E070
:103E200030B593B030216846FCF79EFB14210CA8F6
:103E3000FCF79AFB1D480025016841F080510160A4
:103E4000006800F0805011901948016841F4404129
:103E500001600068022400F44040119001200090AD
:103E6000000401908001CDE9064006200890A820BA
:103E7000CDE9090407200B906846FEF70BFB08B15B
:103E800072B6FEE70CA90F2081E831004FF4A05074
:103E90000F904FF48050109005210CA8FEF7EEF91A
:103EA000002801D072B6FEE713B030BD40380240A2
:103EB000007000400248016841F4700101607047E1
:103EC00088ED00E00148FEF768BF0000C40500204F
:103ED000F0B50268254C264D264E274F274B4FF054
:103EE000804CA04209D0604507D0A84205D0B0421E
:103EF00003D0B84201D0984204D122F0700E4A6833
:103F000042EA0E02A0421BD0604519D0A84217D049
:103F1000B04215D0B84213D0984211D0184DA842E3
:103F20000ED0184DA8420BD0174DA84208D0174DFF
:103F3000A84205D0164DA84202D0164DA84203D182
:103F400022F44075CA682A434D6922F080022A4350
:103F500002608A68C2620A688262A04201D0984206
:103F600001D10969016301214161F0BD00000140F7
:103F70000004004000080040000C00400004014024
:103F8000004001400044014000480140001800404A
:103F9000001C00400020004010B501F01F0301216B
:103FA000046A99408C430462016A9A401143016299
:103FB00010BD10B5846842EA032224F47F440A430A
:103FC0002243826010BD826822F070020A4342F0F0
:103FD0000701816070470000F0B5026A22F001021B
:103FE0000262036A42688469124E24F073050C6809
:103FF0002C4323F002058B682B430D4DA84201D0C2
:10400000B04205D123F00807CB683B4323F00403FB
:10401000A84201D0B04205D14D6922F44072154347
:104020008A692A4342608461496841630362F0BD42
:104030000000014000040140F0B5026A22F01002C5
:104040000262026A436884690D6824F4E64444EA23
:1040500005248D6822F0200242EA05120F4D104E11
:10406000A84201D0B04206D1CF6822F0800242EAD5
:10407000071222F04002A84201D0B04207D14D6998
:1040800023F4406343EA85038D6943EA8503436073
:104090008461496881630262F0BD00000000014054
:1040A00000040140F0B5026A22F480720262026AE2
:1040B0004368C46922F4007224F073050C68124E40
:1040C0002C438D6842EA05220E4DA84201D0B04231
:1040D00006D1CF6822F4006242EA072222F480620D
:1040E000A84201D0B04207D14D6923F4405343EABE
:1040F00005138D6943EA05134360C4614968C163D0
:104100000262F0BD000001400004014030B5026AC7
:1041100022F480520262046A4268C3690D6823F483
:10412000E64343EA05238D6824F4005444EA053449
:10413000084DA84202D0084DA84204D14D6922F48E
:10414000804242EA85124260C361496801640462A8
:1041500030BD0000000001400004014010B5036ABA
:10416000046A24F001040462846924F0F00444EA3F
:10417000021423F00A020A438461026210BD10B5E2
:10418000036A23F0100303628369046A23F4704313
:1041900043EA023224F0A00343EA01118261016282
:1041A00010BD000070B5044600680169E26821F4A2
:1041B0004051114301612169A068E26908436169C6
:1041C000114308432168CA6849F20C639A430243C9
:1041D000CA6020684169A26921F4407111434161BC
:1041E00031492068884202D03049884202D1FEF726
:1041F0000FF901E0FEF7FCF8E269002319216425BC
:104200003226B2F5004F626828D0A0FB0101930F5F
:104210009200FCF7BBF80146B0FBF5F06FF0180216
:10422000504301EB800006EB0010B0FBF5F000F00E
:10423000F002B1FBF5F002EB0012B1FBF5F06FF00C
:104240001803584301EB800006EB0010B0FBF5F0BB
:1042500000F00F0021681044886070BDA0FB0101D0
:1042600092185B41FCF792F80146B0FBF5F00201B1
:10427000B1FBF5F06FF01803584301EB800006EB3B
:10428000C000B0FBF5F000F0F80002EB4002B1FB1B
:10429000F5F0584301EB800006EBC000B0FBF5F0F1
:1042A00000F00700D6E700000010014000140140B4
:1042B00038B5084C20680168C9060AD5C068C00630
:1042C00007D505480168204688472068016840688E
:1042D000009038BD200500209C000020FEE703B4BC
:1042E00001984100009850EAC12018BF04204A0DEF
:1042F00018BF40F0010040F2FF72B2EB515F08BFFF
:1043000040F00200012808BF052002B070470907ED
:10431000090E002804DB00F1E02080F8001470474B
:1043200000F00F0000F1E02080F8141D704700003D
:1043300070B5C1482DED020B2DED0E8B82B0119D95
:1043400025F000449FEDBEDB9FEDBFEB84423EDBDA
:10435000A4F140511098A1F17F6108430FD0BC48EF
:10436000844202DC28D1109830B39DED100B02B0CE
:10437000BDEC0E8B02B0BDE8704000F0B8BC9DED06
:10438000100B53EC1D2B51EC100B02F017FA9DEDA6
:10439000100B41EC180B53EC1E2B51EC100B02F0E0
:1043A0000DFA53EC182B01F06DFF41EC100B02B02D
:1043B000BDEC0E8B02B070BD0120FCF704F902B019
:1043C000BDEC0E8B02B0BDE8704000F0A5BCA1486A
:1043D0009FEDA18B844256DA9DED100BB4F1795F0D
:1043E0000ADA51EC100BFFF77AFF042808BF00F03F
:1043F000A3FC9DED100BDAE753EC102B51EC100BE6
:1044000002F0DCF941EC190B95480621B0EE490A9F
:10441000F0EE690A784400F0EEFB53EC192B51ECF6
:10442000100B02F0CBF941EC1A0B8E48B0EE490AA2
:10443000F0EE690A0421784400F0DDFB53EC192BFF
:1044400051EC100B02F0BAF953EC182B01F01AFFE3
:1044500041EC100B51EC1A0B53EC102B01F0C6FF82
:10446000CDE900019DED000B53EC102B9DED100BE1
:1044700051EC100B02F0A2F99DED101B53EC112B27
:1044800001F000FFD2E09DED100B51EC100B00F09D
:104490006BFC53EC182B02F0C5FA9FED730BCDE9C2
:1044A000000153EC102B9DED000B51EC100B02F0B2
:1044B00085F941EC190B6E480621B0EE490AF0EE81
:1044C000690A784400F097FB53EC192B51EC100B60
:1044D00002F074F941EC1B0B6648B0EE490AF0EEAD
:1044E000690A0421784400F086FB53EC192B51EC47
:1044F000100B02F063F953EC182B01F0C3FE41ECF2
:104500001C0B51EC190B00F077FF41EC180B5A48CB
:104510009FED5BABA04222DC53EC1C2B51EC1B0B40
:1045200001F064FFCDE900019DED000B51EC180B8B
:1045300053EC102B02F042F953EC182B01F0A2FEC1
:1045400053EC1A2B02F03AF953EC1D2B02F042FB0C
:1045500053EC1E2B02F066FA41EC100B5FE08DED80
:10456000008B002000909DED000B51EC180B53ECDC
:10457000102B01F087FE9DED000B41EC1E0B53EC60
:10458000102B51EC100B02F019F953EC192B02F01F
:1045900049FA53EC1E2B01F029FF41EC190B53ECA7
:1045A0001C2B51EC1B0B01F021FF41EC1B0B53ECBE
:1045B0001A2B51EC190B02F001F953EC1D2B02F0F0
:1045C00031FA41EC190B53EC1A2B51EC180B02F099
:1045D000F5F853EC1B2B02F0F1F853EC192B02F019
:1045E000F9FA9DED000B41EC180B53EC1A2B51EC32
:1045F000100B02F0E3F89FED249B53EC192B02F013
:1046000011FA41EC100B51EC180B53EC102B02F08B
:10461000E1FA53EC192B02F005FA41EC100B002DD6
:104620003FF7C5AE51EC100B01F0EEFD41EC100B65
:10463000BDE60000000000000000F03F00000000A8
:10464000075C143326A6913C182D4454FB21F93FF6
:104650000000F07F0000E03F000000000000F03F9D
:10466000782B0000862B0000000000000000E03FD7
:10467000CA2A0000D82A00003333EF3F00000000B0
:104680000000000000000040182D4454FB21E93FC9
:1046900070B59B482DED020B2DED068B079D25F087
:1046A0000044A04218DC9748844202DC0AD10698F4
:1046B00040B19DED060BBDEC068B02B0BDE870402D
:1046C00000F015BB002DCCBF9FED8F0B9FED900B25
:1046D000BDEC068B02B070BD8F48A04215DD8F483F
:1046E000A042D8BF4FF0FF3458DD9DED060B51ECD2
:1046F000100BFFF7F4FD042808BF00F01DFB9DED33
:10470000060BBDEC068B02B070BD9DED060B51ECA7
:10471000100B00F029FBCDE9060181489FED828B4B
:10472000A0423CDD8248A0421FDD00249FED82AB09
:104730009DED060B53EC1A2B51EC100B01F0A2FD72
:104740009DED060B41EC190B53EC1A2B51EC100BA1
:1047500002F034F853EC182B02F03CFA53EC192B0E
:1047600001F044FECDE9060149E09DED060B012470
:1047700053EC182B51EC100B01F084FD9DED060B52
:1047800041EC190B53EC182B51EC100B02F022FAF0
:1047900053EC192B01F02AFECDE906012FE0684801
:1047A000A0421FDD02249FED689B9DED060B53EC9C
:1047B000192B51EC100B02F001F853EC182B01F0FF
:1047C00061FD9DED060B41EC180B53EC192B51ECE0
:1047D000100B02F0FFF953EC182B01F007FECDE9A6
:1047E00006010CE09DED060B032453EC102B9FED0E
:1047F000580B51EC100B01F0F9FDCDE906019DEDD0
:10480000060B53EC102B51EC100B01F0D7FF41ECD1
:10481000180B53EC182B01F0D1FF41EC190B4E484B
:104820000621B0EE490AF0EE690A784400F0E3F997
:1048300053EC182B51EC100B01F0C0FF41EC180B9E
:104840004648B0EE490AF0EE690A0521784400F0C6
:10485000D2F953EC192B51EC100B01F0AFFF41ECE6
:10486000100B51EC180B53EC102B002C0EDA01F04E
:1048700009FD9DED061B53EC112B01F09FFF9DEDF3
:10488000061B53EC112B02F0CDF835E001F0FAFCD9
:104890009DED061B53EC112B01F090FF41EC100B2A
:1048A0002F48784400EBC40090ED001B51EC100B36
:1048B00053EC112B02F08EF99DED061B53EC112BDE
:1048C00002F088F941EC100B2648784400EBC40054
:1048D00090ED001B51EC100B53EC112B02F0A2F8E1
:1048E00041EC100B002DA2BFBDEC068B02B070BDD9
:1048F00051EC100B01F088FC41EC100B01E70000BB
:10490000000010440000F07F182D4454FB21F93FB3
:10491000182D4454FB21F9BF0000DC3F0000203E6D
:104920000000F33F00000000000000000000F03F26
:104930000000E63F00000000000000000000004012
:104940000080034000000000000000000000F83F6D
:10495000000000000000F0BF1A280000D02700006F
:104960005A2700001227000070B56F4E2DED040B82
:104970002DED048B82B0DDF824C0DDE907235C4215
:104980002CF000411C4341EAD474069D22F0004003
:10499000B44205D86C422C4340EAD474B4420BD9DB
:1049A0009DED081B9DED060B02B0BDEC048B04B021
:1049B000BDE8704000F0A5B9ACF14054A4F17F64AB
:1049C0001C430BD0022404EAAC7444EAD2740543BD
:1049D0009FED578B9FED582B07D015E09DED060BF3
:1049E00051EC100B00F0B8F942E0002C11BF012C83
:1049F0009DED060B02B0BDEC048B04BF04B070BD8E
:104A0000022C38D0032C3BD00B439FED4D1B9FED68
:104A10004E0B0AD0B14218D1B04209D121F08041E9
:104A200020F08040099107900FE0002A15DA10E08D
:104A3000474B7B44002C08BF93ED000B0DD0012C9D
:104A400010D0022C17D0032C1AD0B0421DD1002A4E
:104A500003DAB0EE410AF0EE610A02B0BDEC048B5D
:104A600004B070BD93ED000B51EC100B01F0CCFBCA
:104A700041EC100BF1E7B0EE480AF0EE680AECE703
:104A8000B0EE420AF0EE620AE7E7401A00159FED29
:104A9000329B3C28C8BF8DED000B17DCBCF1000F2A
:104AA000BCBF10F13C0F8DED009B0FDB9DED080BA3
:104AB00053EC102B9DED060B51EC100B01F096FC06
:104AC00000F052F900F048F9CDE90001B4B1012C31
:104AD00010D0022C9FED220B53EC102B9DED000B00
:104AE00051EC100B19D002F075F853EC182B02F0B2
:104AF00071F8BDE7019880F0004001909DED000B3A
:104B000053EC192B51EC100B01F0C8FD04BF02202F
:104B1000FBF759FD9DED000B9FE702F05BF853ECAE
:104B2000182B01F07FFFA3E70000F07F00000000DA
:104B3000182D4454FB210940182D4454FB2109C071
:104B4000182D4454FB21F9BF182D4454FB21F93F83
:104B500042260000000000000000000000000000ED
:104B6000075C143326A6A13C2DED020B019820F022
:104B7000004001909DED000B02B0704700B52DED97
:104B8000048BB0EE409AF0EE609A83B051EC190BB2
:104B900001F054FF41EC180B18EE100A18EE901AB1
:104BA0008DED008B002818BF0120084320F0004045
:104BB000C0F17F6000F1E040C00F14D019EE101A70
:104BC00019EE900A8DED009B002918BF01210843C2
:104BD00020F00040C0F17F6000F1E040C00F04BF52
:104BE0000120FBF7F0FCB0EE480A03B0F0EE680AD3
:104BF000BDEC048B00BD70B504462DED028B4D1E3F
:104C000000EBC500B0EE408AF0EE608A90ED000B3C
:104C100035F0060017D053EC182B51EC100B01F0B7
:104C2000CDFD41EC100B6D1E04EBC50090ED001B9B
:104C300051EC100B53EC112B01F024FB41EC100B49
:104C400035F00600E7D1022D36D0042D1CD0062DFC
:104C50001CBFBDEC028B70BD53EC182B51EC100B3C
:104C600001F0ACFD94ED0A1B53EC112B01F00AFB93
:104C700053EC182B01F0A2FD94ED081B53EC112B03
:104C800001F000FB41EC100B53EC182B51EC100B16
:104C900001F094FD94ED061B53EC112B01F0F2FA98
:104CA00053EC182B01F08AFD94ED040B53EC102B00
:104CB00001F0E8FA41EC100B53EC182B51EC100BFF
:104CC00001F07CFD94ED021B53EC112B01F0DAFA9C
:104CD00053EC182B01F072FD94ED001B53EC112BDB
:104CE00001F0D0FABDEC028B41EC100B70BD10B599
:104CF00053EC102B51EC100B01F0C4FA41EC100BEB
:104D000010BD10B553EC112B51EC100B01F0BAFA99
:104D100041EC100B10BD00009FED050B10B553ECDE
:104D2000102B51EC100B01F061FB41EC100B10BD8E
:104D300000000000000000009FED050B10B553ECD3
:104D4000102B51EC100B01F039FD41EC100B10BD94
:104D5000000000000000001010B541EC100BFFF740
:104D600097FC51EC100B10BD82B0CDE9000121F091
:104D7000004001909DED000B02B051EC100B70470C
:104D800010EE100AF6EE000A074960EE200AA1EBC9
:104D9000600000EE100A20EE801AF7EE080A41EEDD
:104DA000400A20EE800A7047DF59375FFDF7A4F90B
:104DB000FFF736F8FEF756FDFEF7DAFCFEF7BCFD0E
:104DC000FEF748FEFEF794FDFEF7F8FDFEF788FCBF
:104DD000FEF7AAFCFEF7E2FC00F007F8FEE701464A
:104DE0000020842900D0C81C704710B500F0EEFCEC
:104DF000002010BD38B5D0E9011204683AB1C3688B
:104E00002BB100200090204600F0E7FD38BD204681
:104E1000BDE83840002200F0BFBD7FB50D46044616
:104E20004169B0F9080081B1A16971B1FFF7D7FFFD
:104E3000D4E905128DE80700D4E900102B46226959
:104E400001F055F8039004B070BDFFF7C8FF03A947
:104E5000CDE90001208A2B4682B2D4E9001001F08E
:104E600019F8012801D00020EDE70398EBE70000D6
:104E70002DE9F041184C0F460546E6682068001DF4
:104E800000F0F1FA38B9206890F82C100120884021
:104E9000216981432161681C07D137B12168BDE8D0
:104EA000F0410E48091D00F021BB20683544B54291
:104EB0004560216805D2A06BBDE8F041091D00F0F6
:104EC000FDBA606B091D00F0F9FAA06A854200D2B4
:104ED000A562BDE8F081000034000020E806002053
:104EE0002DE9F041054600F00DFB2E4CA068401C5A
:104EF000A06020682C4F10B1606940B32DE02560A0
:104F0000A068012829D1002606EB860007EB800067
:104F100000F0C6FA761C072EF6D323488C3000F03A
:104F2000BFFA2148A03000F0BBFA1F48B43000F0AF
:104F3000B7FA1D48C83000F0B3FA1B48DC3000F067
:104F4000AFFA19488C3060631430A06305E0206824
:104F5000E96AC06A884200D82560606A401C6062C5
:104F6000E96A0120226988401043206101EB810039
:104F700007EB8000291D00F0B9FA00F0E3FA606940
:104F800000280CD02068E96AC06A884207D2074925
:104F90004FF080500860BFF34F8FBFF36F8FBDE8B5
:104FA000F0810000340000200C06002004ED00E039
:104FB00030B4026C0B46002A0BD0C1681144C160AA
:104FC0008468A14201D30168C16030BC1846FBF778
:104FD00054BA30BC70472DE9F041856B1746044642
:104FE0000026026C82B1C7B1E068FBF746FAE168BF
:104FF000206C091AE1602268914202D2A168081A65
:10500000E060022F16D017E02068A8B9A06801F070
:1050100013F806460020A0600EE06068FBF72DFA4A
:10502000216C606808446060A168884204D32068ED
:10503000606001E005B16D1E6D1CA5633046BDE8E2
:10504000F08110B5044690F8510058B101280CD0F9
:1050500002280FD0502080F31188BFF34F8FBFF389
:105060006F8FFEE7206B00F081FA2046BDE810400C
:1050700000F07CBA10BD000010484FF47051420798
:1050800006D0C01D0D4920F00700411AC1F570512E
:105090000B4A00230144C2E900030839183A21F001
:1050A000070111604B600B600B1AC0E9001393609D
:1050B0004FF000405360506170470000FC06002034
:1050C00088000020144E154CA6F1C8074FF08058F8
:1050D000DFF84C9012E000BF00F014FAF068C568E9
:1050E000281D00F0C0F9A068401EA0606068401E46
:1050F000606000F027FA2846FFF7A3FF60680028E9
:10510000EAD138680128F9D9C9F80080BFF34F8F78
:10511000BFF36F8FF2E70000D406002034000020B8
:1051200004ED00E00346009829B10260C0E90F31A8
:10513000012100F085BC0060F8E72DE9F0479A46B0
:10514000DDE9098481466FF00303206B03EB8202E3
:105150001044089E20F00707780707D0502080F3FE
:105160001188BFF34F8FBFF36F8FFEE7002561B14A
:10517000002023180A5C83F834200A5C12B1401C1A
:105180001028F6D384F8435001E084F83450072EF9
:1051900000D30626E662C4E91165201D00F08BF9F4
:1051A00004F1180000F087F92461C6F10700646279
:1051B000A061E56484F8505052464946384600F0F4
:1051C00005F92060B8F1000F01D0C8F80040BDE833
:1051D000F087000030B5114900E011460A688242AC
:1051E000FBD34B685C18844203D140681844486084
:1051F000084643681C18944209D1084C183C24689E
:10520000A24209D052681A4442600A6812680260D9
:10521000814200D0086030BD0460F9E788000020BA
:1052200010B5044600F06EF9A06B28B15FF00004E1
:1052300000F088F9204610BD0124F9E70648416BCB
:10524000096829B1416BC968C968496881627047BA
:105250004FF0FF31FAE700003400002008484068B2
:10526000401C4FF0500080F3118804D0BFF34F8FE3
:10527000BFF36F8FFEE7BFF34F8FBFF36F8FFEE774
:10528000900000202DE9F041044600F03BF994F92C
:10529000455004F1240609E0606A48B1304600F048
:1052A00017FF08B100F074FA6D1E6DB2002DF3DC2B
:1052B0004FF0FF3684F8456000F044F900F022F921
:1052C00094F9445004F1100709E0206948B13846C8
:1052D00000F0FEFE08B100F05BFA6D1E6DB2002D0D
:1052E000F3DC84F84460BDE8F04100F02BB9000025
:1052F0002DE9F0410546002700F09EFA324E306855
:1053000008B9FFF7B9FE706905424ED1C5B308353B
:1053100068070ED005F00700C0F1080005446807D3
:1053200007D0502080F31188BFF34F8FBFF36F8FEA
:10533000FEE72DB37068854237D823481830014600
:105340000C6801E020460C466168A94202D221683F
:105350000029F7D131688C4227D0076821680160A5
:1053600060680837411B10290FD96019420708D01F
:10537000502080F31188BFF34F8FBFF36F8FFEE78C
:1053800013E041606560FFF725FF61687068401AAF
:105390007060B268904200D2B06070690143002032
:1053A000C4E90001F068401CF06000F0CBFE780713
:1053B00007D0502080F31188BFF34F8FBFF36F8F5A
:1053C000FEE73846BDE8F0817000002010B5031FED
:1053D0004FF080741C601B1F21F001011960191F20
:1053E000044B0B6014390A60091F6FF00202443845
:1053F0000A6010BD5D52000800B52DED048B83B02E
:1054000041EC190B01F01AFB41EC180B18EE100AD5
:1054100018EE901A8DED008B002818BF012008436C
:1054200020F00040C0F17F6000F1E040C00F14D0D8
:1054300019EE101A19EE900A8DED009B002918BF85
:105440000121084320F00040C0F17F6000F1E040FE
:10545000C00F04BF0120FBF7B6F851EC180B03B0E6
:10546000BDEC048B00BDD0E9013201699A60D0E93E
:1054700001235A604A68824201D182684A60002250
:1054800002610868401E086008687047034B0360AB
:1054900003F15400086080201060704794010020E0
:1054A00000F108014FF0FF32C0E90112C160016153
:1054B00000210160704700210161704730B50B6821
:1054C0005A1C02D000F1080202E0026904E0224600
:1054D000546825689D42FAD953684B6099608A6088
:1054E000516008610168491C016030BD42684A6032
:1054F00093688B6093685960916008610168491CEA
:1055000001607047502080F31188BFF34F8FBFF3C5
:105510006F8F0A494868401C486001280CD1084830
:10552000006810F0FF0F07D0502080F31188BFF300
:105530004F8FBFF36F8FFEE7704700009000002091
:1055400004ED00E00849486828B1401E486001D1D8
:1055500080F311887047502080F31188BFF34F8F7C
:10556000BFF36F8FFEE700009000002070B50028A9
:105570002AD0164DA0F1080460686969084207D175
:10558000502080F31188BFF34F8FBFF36F8FFEE77A
:1055900022683AB1502080F31188BFF34F8FBFF3D8
:1055A0006F8FFEE78843606000F046F960686968C5
:1055B000084468602046FFF70DFE2869401C2861FA
:1055C000BDE8704000F0BEBD70BD0000700000205E
:1055D0004FF0E02000210161816105494FF47A72AA
:1055E0000968B1FBF2F1491E416107210161704771
:1055F0003000002010B5FAF7A5FE114910280ED38F
:1056000000F1E02090F8F0030A78904207D2502091
:1056100080F31188BFF34F8FBFF36F8FFEE7094808
:105620000068896800F4E060884207D9502080F360
:105630001188BFF34F8FBFF36F8FFEE710BD0000DF
:10564000900000200CED00E070B50D4604000BD07A
:1056500095B11E4A106BB8B1502080F31188BFF38A
:105660004F8FBFF36F8FFEE7502080F31188BFF399
:105670004F8FBFF36F8FFEE7502080F31188BFF389
:105680004F8FBFF36F8FFEE700F0D6F8D268236824
:105690005919934204D98B420AD9914202D807E0A2
:1056A0008B42FAD9881A21600021FFF7E1FB00E064
:1056B000216000F047FD002807D105494FF08050D8
:1056C0000860BFF34F8FBFF36F8F70BD34000020B1
:1056D00004ED00E070B50546FFF714FF254C05B951
:1056E0002568281DFFF7BFFE58B9E86A224A00EB7B
:1056F000800152F8211021B901218140206988439D
:105700002061A86A18B105F11800FFF7ACFE606AC5
:10571000401C60622068854208D11748291DC830A6
:10572000FFF7E4FE6068401C606007E0A068401E70
:10573000A0602846FFF785FCFFF780FDFFF702FF1A
:105740006069002814D02068854211D1206B38B1DF
:10575000502080F31188BFF34F8FBFF36F8FFEE7A8
:1057600006494FF080500860BFF34F8FBFF36F8F33
:1057700070BD0000340000200C06002004ED00E0A5
:1057800002490A6A0260C96841607047340000201B
:1057900001490120C86170473400002010B50C4653
:1057A00050B1094909681831FFF788FE2046BDE865
:1057B00010400121FFF75CBB502080F31188BFF33C
:1057C0004F8FBFF36F8FFEE73400002010B586B017
:1057D0000024039405AA04A903A80494FFF756FE25
:1057E000DDE903010094CDE9011000230EA110486A
:1057F000059A00F07CFB0F490028C86211D05020A8
:1058000080F31188BFF34F8FBFF36F8F4FF0FF30DE
:10581000886201204861CC6006B0BDE8104000F00D
:1058200041B806B010BD000049444C4500000000DE
:10583000C5500008340000200248016B491C016378
:1058400070470000340000201448016B11B10121A1
:10585000C16170470021C1610169B1FA81F1C1F1F3
:105860001F0101EB81020E4951F822306BB101EBAF
:10587000820101F108034A6852684A609A4201D1E4
:1058800052684A60D16801607047502080F31188E7
:10589000BFF34F8FBFF36F8FFEE70000340000208F
:1058A0000C0600201CB537480168374A914207D1E1
:1058B000502080F31188BFF34F8FBFF36F8FFEE747
:1058C00000683149491E884207D1502080F3118871
:1058D000BFF34F8FBFF36F8FFEE72C49087801901D
:1058E000FF20087008788DF800009DF800009DF8F2
:1058F000002000F0F000904207D0502080F3118883
:10590000BFF34F8FBFF36F8FFEE79DF80000204C71
:1059100000F0500020700720A06005E09DF80020F6
:1059200052008DF80020401E9DF800201206F5D48C
:10593000A060032807D0502080F31188BFF34F8F59
:10594000BFF36F8FFEE74FF44070A06001980870BE
:105950000C482030016841F470010160016841F099
:1059600070410160FFF734FE00206060FAF7B2FC7E
:105970000848016841F040410160FAF797FC0020B7
:105980001CBD000000ED00E071C20F4100E400E02A
:105990009000002034EF00E0F8B517460E460500F1
:1059A00013D005FB06F04830FFF7A2FC04000AD034
:1059B000002084F8460004F148023B463146284660
:1059C0000094FFF7AFFB2046F8BD502080F311880C
:1059D000BFF34F8FBFF36F8FFEE738B5049D18B14B
:1059E00053B1CAB181B120E0502080F31188BFF3D8
:1059F0004F8FBFF36F8FFEE7502080F31188BFF306
:105A00004F8FBFF36F8FFEE7502080F31188BFF3F5
:105A10004F8FBFF36F8FFEE739B1502080F31188AD
:105A2000BFF34F8FBFF36F8FFEE748241C4601235F
:105A300084F846302B460094FFF774FB204638BDAF
:105A400070B50D46040025D0FFF75CFDD4E90F20AA
:105A5000216802FB0011A1600021A163216861603F
:105A60000A46D4E90F01401E00FB0121E1602146F6
:105A70004FF0FF3001F8440F487004F110008DB171
:105A8000FFF70EFD04F12400FFF70AFDFFF75AFDB2
:105A9000012070BD502080F31188BFF34F8FBFF3FA
:105AA0006F8FFEE721690029F0D000F011FB00287C
:105AB000ECD004494FF080500860BFF34F8FBFF324
:105AC0006F8FE3E704ED00E02DE9FF4782B01D464C
:105AD0008A464FF00008040003D0BAF1000F08D046
