:020000040800F2
:10000000A84900200D030008032D00081927000847
:10001000012D0008890F0008F134000800000000DD
:100020000000000000000000000000004D02000879
:100030008111000800000000A90200080930000832
:1000400027030008270300082703000827030008E8
:1000500027030008270300082703000827030008D8
:1000600027030008270300082703000827030008C8
:1000700027030008270300082703000827030008B8
:1000800027030008270300082703000827030008A8
:100090002703000827030008270300082703000898
:1000A0002703000827030008270300082703000888
:1000B0002703000827030008270300082703000878
:1000C0002703000827030008270300082703000868
:1000D00027030008C5340008270300082703000889
:1000E0002703000827030008270300082703000848
:1000F0002703000827030008270300082703000838
:100100002703000827030008270300082703000827
:100110002703000827030008D93000082703000838
:1001200027030008270300088B0F00082703000897
:1001300027030008270300082703000827030008F7
:1001400027030008270300082703000827030008E7
:1001500027030008270300082703000827030008D7
:1001600027030008270300082703000827030008C7
:1001700027030008270300082703000800000000E9
:1001800027030008270300082703000827030008A7
:100190002703000827030008270300082703000897
:1001A00000000000000000002703000800F002F833
:1001B00000F03CF80AA090E8000C82448344AAF1C5
:1001C0000107DA4501D100F031F8AFF2090EBAE8C3
:1001D0000F0013F0010F18BFFB1A43F0010318477B
:1001E0002858000048580000103A24BF78C878C149
:1001F000FAD8520724BF30C830C144BF04680C602D
:10020000704700000023002400250026103A28BF74
:1002100078C1FBD8520728BF30C148BF0B60704778
:100220001FB505F02AFB1FBD10B510BD00F074F915
:100230001146FFF7F5FF03F0C5FE00F092F903B495
:10024000FFF7F2FF03BC00F095F900002C4B196892
:100250000868B0E8F04F80F30988BFF36F8F4FF064
:10026000000080F311887047000000000848006813
:10027000006880F308884FF0000080F3148862B6AD
:1002800061B6BFF34F8FBFF36F8F00DF00BF00BFBA
:1002900008ED00E0DFF80C00016841F47001016036
:1002A000704700BF88ED00E0EFF30980BFF36F8F68
:1002B000134B1A681EF0100F08BF20ED108A20E9BA
:1002C000F04F106009B44FF0500080F31188BFF375
:1002D0004F8FBFF36F8F04F0C1FA4FF0000080F32F
:1002E000118809BC19680868B0E8F04F1EF0100FBB
:1002F00008BFB0EC108A80F30988BFF36F8F704796
:1003000018000020EFF3058070470000094880477F
:1003100009480047FEE7FEE7FEE7FEE7FEE7FEE7E7
:10032000FEE7FEE7FEE7FEE704480549054A064BFF
:1003300070470000C9300008AD010008A843002044
:10034000A8490020A8450020A845002053EA020C37
:1003500000F069802DE9F04B4FF00006002B1FBF25
:10036000B3FA83F503FA05F424FA05F65E4012BFEA
:100370001643B2FA82F502FA05F4C5F120051EBF54
:1003800022FA05FC44EA0C04203556EA044C4FEAF4
:10039000144418BF641C4FF000084FF0000990424D
:1003A00071EB030C39D3002919BFB1FA81F701FAB7
:1003B00007F6B0FA80F700FA07F6C7F120071EBF6C
:1003C00020FA07FC46EA0C062037B6FBF4FCA7EB44
:1003D0000507103F07F01F0BCBF120060CFA0BFBB3
:1003E0002CFA06F644BFB3460026202FA4BF5E4673
:1003F0004FF0000B5BEA060C08BF4FF0010B19EB46
:100400000B09ABFB027C48EB0608C01B06FB02CCC9
:100410000BFB03CC71EB0C01C1E70B4602464146D6
:100420004846BDE8F08B13B54FF000004FF00001D7
:10043000AFF30080BDE81C40704710B5203AC0F013
:100440000B80B1E81850203AA0E81850B1E81850D5
:10045000A0E81850BFF4F5AF5FEA027C24BFB1E812
:100460001850A0E8185044BF18C918C0BDE8104083
:100470005FEA827C24BF51F8043B40F8043B08BF8C
:100480007047D20728BF31F8023B48BF11F8012B53
:1004900028BF20F8023B48BF00F8012B70474FF0FF
:1004A000000200B5134694469646203922BFA0E8C4
:1004B0000C50A0E80C50B1F12001BFF4F7AF0907D0
:1004C00028BFA0E80C5048BF0CC05DF804EB8900C1
:1004D00028BF40F8042B08BF704748BF20F8022B04
:1004E00011F0804F18BF00F8012B7047704770471C
:1004F000704710B500F008F8006810BD10B504464C
:1005000000F002F8046010BD00487047444300202A
:1005100000487047444300207546FFF7F9FFAE4698
:1005200005006946534620F00700854618B020B5FF
:10053000FFF7FAFEBDE820404FF000064FF000073D
:100540004FF000084FF0000B21F00701AC46ACE87B
:10055000C009ACE8C009ACE8C009ACE8C0098D46E8
:10056000704710B50446AFF300802046BDE8104048
:10057000FFF765BE01491820ABBEFEE7260002006A
:100580007047000010B5FF4CFF482DED108B94ED27
:10059000010AD4ED010A20EE20FA94ED010AD4ED0F
:1005A000020A20EE20CA94ED010AD4ED030A60EE9F
:1005B00020BA94ED010AD4ED040A60EE20CA94ED4D
:1005C000020AD4ED020A20EE20DA94ED020AD4EDFC
:1005D000030A20EE209A94ED020AD4ED040A20EEDC
:1005E00020BA94ED030AD4ED030A60EE20AA94ED3C
:1005F000030AD4ED040A20EE20AA94ED040AD4EDF7
:10060000040A60EE209A90ED060A84ED080A90ED47
:10061000050A84ED090A90ED040A84ED0A0AB0F98E
:10062000001000EE101AB8EEC00A84ED0B0AB0F903
:10063000021000EE101AB8EEC00A84ED0C0AB0F9F0
:10064000041000EE101AB8EEC00A84ED0D0AB0F9DD
:10065000061000EE101AB8EEC00A84ED0E0AB0F9CA
:10066000081000EE101AB8EEC00A84ED0F0AB0F9B7
:100670000A0000EE100AB8EEC00A84ED100A00F07D
:1006800067FFA064A06C616C401A00EE100AB8EE1F
:10069000400ADFEDBE0AA06CC0EE208A606494EDD3
:1006A0000B0AD4ED0B0A94ED0C1A20EE200AD4EDBF
:1006B0000C0A00EE810AD4ED0D0A94ED0D1A00EE3D
:1006C000810A03F069FCD4ED0B0A60EE800AC4EDE8
:1006D0000B0AD4ED0C0A60EE800AC4ED0C0AD4EDCE
:1006E0000D0A20EE800A84ED0D0A9FEDA90AB6EEF0
:1006F000001A84ED0E0A84ED0F0A84ED100A71EEE3
:100700006A0A94ED0E0AB0EE008A39EE6CEA20EE29
:10071000080A70EEE9EA7BEE2B1A31EE4D1A60EE14
:100720002E0A94ED0F0A31EE692A71EE6ADA20EE94
:10073000080A40EE0E0A94ED100A20EE080A40EE78
:10074000210A94ED0E0A79EE2C1A7BEE6BCA20EE8C
:10075000080A60EEA00A20EE210AD4ED0F1A61EE1D
:10076000881A01EE820AD4ED101A3AEE4C2A61EE94
:10077000881A01EE820AD4ED0E1A3AEE0C2A61EEC6
:10078000881A40EE000A21EEAC9AD4ED0F1A10EE52
:10079000900A61EE881A01EE829AD4ED101A61EE89
:1007A000881A01EEAD9A04F0F7FF41EC100B03F04C
:1007B000F1FA51EC100B04F02BFA7FEE4D0A00EE2B
:1007C000100A7CEE0A1A29EE083A70EEEA0A20EEC8
:1007D000080A61EE882A94ED104A70EEA93A60EE9C
:1007E0000E0A20EE2E1A2CEE882A43EE210A7BEE0A
:1007F0008B1A03EE2C1A60EE211A94ED0C0A43EECC
:100800002D1A20EE230A94ED0D3A03EE620A94EDC0
:100810000F3A23EE213A04EE603A94ED0B4A30EEA3
:10082000030A94ED0D3A23EE023AB5EEC00A04EE47
:10083000633AD4ED103A94ED0E4A63EE813A44EEF9
:10084000613A73EE231A94ED0B3A63EE222A94ED8B
:100850000C3A43EE422A94ED0E2A62EE200A94ED01
:100860000F2A42EE410A72EEA00AF1EE10FA41D0D0
:10087000F5EEC01AF1EE10FA3CD0F5EEC00AF1EE3A
:1008800010FA37D09FED431A94ED052A60EE012A45
:1008900002EEA82A61EE812A84ED052A94ED062A4B
:1008A00002EEA82A84ED062A20EE812A94ED071A8A
:1008B00002EE281A84ED071A94ED081A00EE081AC1
:1008C00094ED050A31EE000A84ED080A94ED090A58
:1008D00094ED061A01EE880A30EE010A84ED090A49
:1008E00094ED0A0A00EE880AD4ED070A30EE200AD9
:1008F00084ED0A0A94ED020AD4ED080A94ED091A6F
:1009000094ED01AA20EEC00AD4ED030A94ED029AF8
:1009100094ED038A00EEC10AD4ED040A94ED0A1A9C
:1009200000EEC10AD4ED080A94ED0A1A00EE28AAD6
:1009300094ED010A20EE200AD4ED030A00EE810AAC
:10094000D4ED040A94ED091A00EEC10AD4ED090AA7
:1009500094ED0A1A00EE289A94ED010A20EE200A7E
:10096000D4ED020A00EEC10AD4ED040A94ED081A8F
:1009700000EE810AD4ED0A0A00EE288A94ED010AFD
:100980000AE00000B4000020BC4200200000FA444D
:10099000000000000AD7233C20EE200AD4ED020A12
:1009A00094ED091AD4ED049A00EE810AD4ED030AFD
:1009B00094ED081A00EEC10A40EE289A2AEE0A0ABF
:1009C00009EE090A08EE080A09EEA90A03F0E4FA9A
:1009D0006AEE000AC4ED010A69EE000AC4ED020ADB
:1009E00068EE000A29EE800AC4ED030A84ED040AC9
:1009F000BDEC108B10BD000070B55F4C2DED0A8B67
:100A0000F8EE008AB0EE008AB7EE00CA94ED030A51
:100A1000D4ED030A94ED041A20EE280A20EE200AF1
:100A2000D4ED040A60EE880A00EEC10A30EE0C0A2A
:100A300010EE100A04F0B0FE94ED020AD4ED030AA1
:100A400094ED041A20EE080A41EC190B20EE200A5E
:100A5000D4ED010A60EE880A00EE810A10EE100A59
:100A600004F09AFE41EC100BB0EE491AF0EE691A50
:100A700003F086F89FED41BB51EC100B53EC1B2BA0
:100A800004F094FB9FED3FAB53EC1A2B04F0C2FC37
:100A900004F0BEF83D4D686394ED020AD4ED040AFB
:100AA00094ED031A20EE280A20EE200AD4ED010A64
:100AB00060EE880A00EE810A10EE100A04F06CFE67
:100AC00041EC100B02F040FD53EC1B2B51EC100BD2
:100AD00004F06CFB53EC1A2B04F09CFC04F098F827
:100AE000A86394ED020AD4ED020A94ED031A20EEF5
:100AF000280A20EE200AD4ED030A60EE880A00EEF0
:100B0000C10A30EE0C0A10EE100A04F045FE94ED16
:100B1000030AD4ED040A94ED021A20EE080A41EC0F
:100B2000190B20EE200AD4ED010A60EE880A00EECF
:100B3000810A10EE100A04F02FFE41EC100BB0EE0B
:100B4000491AF0EE691A03F01BF853EC1B2B51EC19
:100B5000100B04F02BFB53EC1A2B04F08BF804F071
:100B600057F8E86305F15401BDEC0A8B2846BDE84F
:100B7000704000F047B80000B4000020666666666A
:100B800066A64C400000000000806640BC42002089
:100B90000348C16A01B1012180F83010704700009C
:100BA0001043002030B585B0642000F09FFB002486
:100BB000142212496846FFF740FC6D4605EB4400DD
:100BC000417815F8140000F0B5F9012000F08EFB13
:100BD000641CE4B20A2CF1D318211B2000F0AAF9FE
:100BE00010211C2000F0A6F901F097FD0449012016
:100BF00081F8290005B0002030BD0000E858000849
:100C0000104300202DE9F04190ED030A274F0E46D6
:100C1000054681ED090A002405EB840006EB8401FA
:100C200090ED0D0A81ED000A90ED0D0AD0ED100A4D
:100C300030EE600A10EE102ABA4205D905EB4402E4
:100C400032F84C3F5B1C138090ED100AD0ED0D0A7A
:100C500030EE600A10EE102ABA4205D905EB4402C4
:100C600032F84C3F5B1E138005EB4402D0ED0D0AB9
:100C7000B2F84C204FF4B47312FB03F200EE102ACA
:100C8000B8EEC00A30EE800A81ED060A90ED0D0A3A
:100C90000C3180ED100AB7EE000A1C3000F073FA38
:100CA000641C032CB8DBBDE8F0810000000096C393
:100CB00010B50E2242493B2000F0DAF84049883155
:100CC000C8623F4800F11004018849BA2180418878
:100CD00049BA6180818849BAA180C18849BAA18195
:100CE0000189628B49BA891A61824189A28B49BA0A
:100CF000891A21828089E18B40BA401AE08131490A
:100D00000622492000F0B4F82E492D484C399FEDB9
:100D10002E1ACA6CC0F81620B1F850104183016930
:100D20004163416981638169C163B4F90C0000EEDC
:100D3000100A04F12400F8EEC00A80EE810AF3EEF6
:100D4000050A30EE200A80ED030AB4F9121000EE15
:100D5000101AF8EEC00A9FED1D0A80EE801ADFED32
:100D60001C0AC1EE201AC0ED061AB4F9102001EEDB
:100D7000102AF8EEC11A81EE801AC1EE201AC0EDD9
:100D8000051AB4F90E3001EE103AF8EEC11A81EEF0
:100D9000801A81EE200A80ED040A00EE101AB8EEE7
:100DA000C00A80ED090A00EE102AB8EEC00A80EDF4
:100DB000080A00EE103AB8EEC00A80ED070A10BD2E
:100DC00088420020000100205CEFA6436F1283419F
:100DD0003333654270B50E46044601461546282059
:100DE00000F0A8F8022000F081FA0A21292000F082
:100DF000A1F8022000F07AFA0121642000F09AF8AC
:100E0000022000F073FA44F08001252000F092F8EF
:100E1000022000F06BFA3146262000F08BF8022009
:100E200000F064FA0321342000F084F8022000F07E
:100E30005DFA0321672000F07DF8022000F056FAE9
:100E400081212A2000F076F8062000F04FFA45F0C4
:100E50008001272000F06EF8BDE87040022000F00D
:100E600045BA10B5FFF79EFEBDE8104001F04ABF3D
:100E7000F8B5144F15460E46044600224021384668
:100E800000F060FB104944F08000372408705231B4
:100E9000A1F151020870012352390C48009400F06E
:100EA0007DFF09492B46324652310848009400F034
:100EB00075FF044601224021384600F043FB2046DE
:100EC000F8BD000000140240B400002068030020B8
:100ED00010B50021094A0C4602EB810393ED0D0A7F
:100EE00083ED100A00EB810383ED060A02EB410358
:100EF000491CA3F84C400329EEDB10BDBC42002086
:100F000010B509490A48094C4B6A00220068A342FF
:100F100005DA41F28733836381F8282010BD01236D
:100F200081F82830826310BD104300200000484241
:100F3000C0030020F8B5114F0E46044600224021A0
:100F4000384600F0FFFA04F07F000D4C3725621C94
:100F500020700123511E0B48009500F01FFF2670E2
:100F6000621C0123511E0748009500F017FF012263
:100F70004021384600F0E6FA0020F8BD0014024097
:100F8000B400002068030020FEE7704701681823C2
:100F9000CAB2103AB2FBF3F2054B6FF30901032A10
:100FA0009B5CC36500D9091D816508467047000038
:100FB000C858000810B5014600208B698A6A4FF0B6
:100FC000C07453B1B3F5005F15D072B1012A0CD0D3
:100FD000022A0AD0032A09D104E01AB1012A06D054
:100FE000022A03D1C96AC90100D5012010BDC96A0E
:100FF000A142FAD010BD002AF7D0012AF2D0022A6D
:10100000F3D0032AF3D010BD30B50468256825F469
:1010100080252560046863608368402B036803D0E3
:1010200099600068C26030BD9A600068C16030BDE0
:10103000F0B400285CD08178C278890941EA820145
:10104000027941EA8221C1F30A062A49A6F580669F
:101050008E8302794379520842EAC312C2F30A0529
:10106000A5F58065CD830288C2F30A04A4F58064E7
:101070000C8442788378D20842EA4312C2F30A030E
:10108000A3F580634B84028AC2F30A02A2F5806250
:10109000CA844779BF0981F824704779C7F30117DB
:1010A00081F82570C788CF8207890F83077B07B136
:1010B00001278F76477B07B10127CF76C089088546
:1010C00000201436282E00D888831435282D00D807
:1010D000C8831434282C00D808841433282B00D853
:1010E00048841432282A00D8C884F0BC01F008BC17
:1010F000F0BC70472C42002010B50446806B00689D
:10110000016821F001010160A06B006840680428BB
:1011100002D10748FFF78CFFA16B162009684860D1
:10112000A06B0068016841F00101016010BD000082
:101130002C42002038B5016800250A684A680092F0
:10114000CA6842F40052CA600168CA6842F01002DC
:10115000CA600446094A90F83E0020280DD11623A3
:10116000A262A38525642168A06B091D00F09AF88E
:101170002068416941F04001416138BD2C420020A6
:10118000704772B6FEE790ED001AD1ED000A31EE1D
:10119000601A40EE010AC1ED000A704710B5042143
:1011A000074801F0BFF907480068804706484168D2
:1011B00006488847BDE81040002003F0BBBA000095
:1011C000C003002098000020800000205004002070
:1011D0002DE9F041044600F0BBF906465CB102205F
:1011E00084F83500002584F834502068016821F027
:1011F000010101600DE00120BDE8F08100F0A8F9D7
:10120000801B052805D920206065032084F835005F
:10121000F2E720680068C007F0D122681168204812
:101220000140D4E901031843D4E90336334318439A
:1012300063691843A3691843E3691843236A184391
:101240000843616A042903D1D4E90B131943084305
:10125000106020684069666A20F0070130460E433E
:10126000012704280CD1A06A0643E06A40B1204659
:10127000FFF7A0FE20B14020606584F83570BAE722
:10128000206846612046FFF781FE94F85C203F21EC
:1012900091408160656584F835700020ACE70000FE
:1012A0003F8010F070B5044690F834000025012806
:1012B0000CD0012084F8340094F835600020012E11
:1012C00006D084F834000225284670BD022070BD87
:1012D000022684F8356060652046FFF795FE206899
:1012E000016841F001010160EEE7000070B50446BD
:1012F00000F02EF90546601C02D004480078044432
:1013000000F026F9401BA042FAD370BD080000206F
:101310002DE9F84FDFF8F8A10022012403254FF052
:101320000F090AF1040BAAF1040E00BF0B6804FABE
:1013300002F63340B34270D10F7907F00307012F53
:1013400001D0022F16D187684FEA420805FA08FC3F
:1013500027EA0C07D1F80CC00CFA08FC4CEA070C81
:10136000C0F808C04768B7430E79C6F30016964028
:101370003E4346600E79F643B6070AD0C7684FEA87
:10138000420C05FA0CF6B7438E6806FA0CF63E439B
:10139000C6600E7906F00306022E10D1D60800EBC7
:1013A0008608D8F8206057074FEAD76C09FA0CF77F
:1013B000BE430F6907FA0CF73743C8F82070066878
:1013C0004FEA420C05FA0CF7BE430F7907F003070A
:1013D00007FA0CF7374307604E6816F4403F1CD0FD
:1013E0004C4E376847F480473760366822F0030771
:1013F00006F480460096484E07EB060CDCF80868B9
:1014000097073F0F09FA07F826EA0806DFF80C816C
:10141000404503D14FF0000841E072E0DFF8008161
:10142000404502D14FF0010839E0DFF8F88040452F
:1014300002D14FF0020832E0DFF8EC80404502D1E3
:101440004FF003082BE0DFF8E480404502D14FF075
:10145000040824E0DFF8D880404502D14FF00508A9
:101460001DE0DFF8D080404502D14FF0060816E0BD
:10147000DFF8C480404502D14FF007080FE0DFF8E5
:10148000BC80404502D14FF0080808E0DFF8B0808A
:10149000404502D14FF0090801E04FF00A0808FA70
:1014A00007F848EA0608CCF80888DAF800605746DA
:1014B000D1F804C09E435FEACC2C00D51E433E60A9
:1014C000DBF800605F46D1F804C09E435FEA8C2CD5
:1014D00000D51E433E60DEF800607746D1F804C0B8
:1014E0009E435FEA8C3C00D51E433E60084F083F98
:1014F0003E68D1F804C09E435FEACC3C00D51E4351
:101500003E60521C102AFFF411AFBDE8F88F0000B6
:10151000083C0140443802400030014000000240D5
:101520000004024000080240000C0240001002408B
:101530000014024000180240001C0240002002403B
:10154000002402400AB1816170470904FBE70000F2
:101550000148806870470000080000200248816848
:101560000278114481607047080000200B4810B5D4
:10157000016841F400710160016841F4806101601B
:10158000016841F480710160032000F09FF80020A1
:1015900000F006F800F050F8002010BD003C0240BA
:1015A00030B505461F4887B00024016841F010019E
:1015B0000160006806A900F01000009001A800F08A
:1015C00031F90498A8B100F04DF940001649174AC6
:1015D000B0FBF1F11648491E026040F2E732C0E963
:1015E0000324C0E90114846100F014FD040003D059
:1015F00015E000F037F9E9E70D4800F059FD040067
:101600000DD1362000F034F8102D07D200222946E3
:10161000362000F03BF80748056000E0012407B0E1
:10162000204630BD4038024040420F0000100040CC
:10163000F40400200C0000200C4882B0016841F442
:1016400080410160006800F4804000900748001F5E
:10165000016841F0805101600068002200F0805074
:1016600000900F21901E02B000F010B844380240E4
:10167000002809DB00F01F02012191404009800091
:1016800000F1E020C0F8001170470000F0B40E4BEC
:101690001B680C46C3F30223C3F10705042D00D9D0
:1016A0000425191D072901D2002300E0DB1E0126B5
:1016B00006FA05F1491E214099409E40761E1640CB
:1016C0003143F0BC01F02DBF0CED00E0064900F005
:1016D000070208684FF6FF03184040EA0220034A59
:1016E00010430860704700000CED00E00000FA05B0
:1016F0002DE9F0470E46050065D0DFF81481D8F8D3
:101700000000F7B200F00F00B04207D288F8007076
:10171000D8F8000000F00F00B04254D128683D4CCA
:10172000810712D5400703D5206840F4E0502060BF
:101730002878000703D5206840F4604020602068C6
:10174000A96820F0F000084320602878C0072DD059
:10175000304968680839012812D0022813D00328BC
:1017600011D00968890700292DDA216821F00301C9
:1017700001432160FFF7ECFE814641F2883A0EE01A
:1017800009688903EFE709688901ECE7FFF7E0FEE4
:10179000A0EB0901514502D90320BDE8F08720687C
:1017A000696800F00C00B0EB810FEFD1D8F80010A1
:1017B000404601F00F01B14207D90770006800F000
:1017C0000F00B04201D00120E7E72878400705D597
:1017D0002068E96820F4E05008432060287800077A
:1017E00006D52068296920F4604040EAC1002060E5
:1017F00000F058F82168084AC1F30311515CC84051
:101800000649086006480068FFF7CAFE0020C4E7E2
:10181000003C024008380240D05800081400002064
:101820000C0000200F2202600C4A136803F003032F
:101830004360136803F0F0038360136803F4E0531C
:10184000C36012684FF4E05303EAD2020261044815
:10185000006800F00F000860704700000838024080
:10186000003C02400448054900680968044AC1F385
:101870008221515CC84070471400002008380240A3
:10188000E05800080448054900680968044AC1F3A3
:101890004231515CC84070471400002008380240B3
:1018A000E0580008154810B5006810F00C02144804
:1018B00013D01449042A0FD0082A0ED10F4C241F2C
:1018C0002268236802F03F025B0207D52068C0F35C
:1018D0008810A0FB010106E0084610BD2168C1F395
:1018E0008811A1FB00010023FEF730FD2168C1F340
:1018F0000141491C4900B0FBF1F010BD083802401D
:101900000024F400001BB7002DE9F84F04006ED04E
:101910002078DFF84C93C007A9F104054AD009F1FB
:1019200004000168C1F38101012908D00068C0F3F7
:10193000810002280AD1D9F80000400206D52868A3
:10194000800337D560680028E1D033E06068B0F5E7
:10195000803F10D0B0F5A02F286810D020F4803040
:101960002860286820F4802028606068A8B1FFF70C
:10197000EFFD06460DE0286840F48030F4E740F4BF
:1019800080202860F7E700BFFFF7E2FD801B642896
:1019900073D828688003F7D50CE0FFF7D9FD064619
:1019A00005E000BFFFF7D4FD801B6428F0D828684D
:1019B0008003F7D42078DFF8AC8280074FF0000A6C
:1019C0003ED5A748001D016811F00C0F08D0006833
:1019D000C0F3810002280BD1D9F80000400207D4DF
:1019E0002868800716D5E068012800D112E033E1AD
:1019F000E068B8B10120C8F80000FFF7A9FD06466D
:101A000005E000BFFFF7A4FD801B0228C0D82868AE
:101A10008007F7D52868216920F0F80040EAC10066
:101A200028600DE0C8F800A0FFF792FD064604E02C
:101A3000FFF78EFD801B02281FD828688007F7D487
:101A40002078000722D5864F87486169703771B1C9
:101A500001210160FFF77CFD064604E0FFF778FDF9
:101A6000801B022809D838688007F7D50EE0C0F837
:101A700000A0FFF76DFD064605E082E0FFF768FD78
:101A8000801B02287DD838688007F7D4207840076B
:101A900068D5DFF8CCB100270BF13C0BDBF8000078
:101AA000C0000BD4DBF8001041F08051CBF80010DF
:101AB000DBF80000012700F0805000906B4E30688A
:101AC000C00510D4306840F480703060FFF740FDEE
:101AD000009005E0FFF73CFD0099401A022850D81D
:101AE0003068C005F6D55E4EA0686C3601280FD070
:101AF0000528306810D020F001003060306820F0F8
:101B000004003060A068B8B1FFF722FD00900FE03C
:101B1000306840F00100F4E740F004003060F7E77F
:101B2000FFF716FD0099411A41F28830814266D8CC
:101B300030688007F4D50EE0FFF70AFD009007E05B
:101B4000FFF706FD0099411A41F28830814256D8CC
:101B500030688007F4D42FB1DBF8001021F08051F9
:101B6000CBF80010A069C8B33D49091D0968C1F34D
:101B7000810102294AD00228504607D0C8F86000E7
:101B800000E03CE0FFF7E4FC04463BE04746C8F8D1
:101B90006000FFF7DDFC064605E000BFFFF7D8FC5C
:101BA000801B02282BD828688001F7D4D4E90701CC
:101BB0000843A16A2E4A490802EB0141626A41EAE0
:101BC0008211084394F82C1040EA0161C9F8001012
:101BD00001203866FFF7BCFC044606E03EE000BF8B
:101BE000FFF7B6FC001B022809D828688001F7D54A
:101BF00034E000BFFFF7ACFC001B022802D9032031
:101C0000BDE8F88F28688001F4D427E00128F7D0D8
:101C1000D9F80000E26900F4800191421CD1226AE7
:101C200000F03F01914217D147F6C071626A01404E
:101C3000B1EB821F10D1A26A4FF0FF3300F44031A4
:101C400003EB5202B1EB024F06D194F82C1000F0D6
:101C50007060B0EB016F01D00120D1E70020CFE729
:101C60000438024000004742800E474200700040A6
:101C70000000FFFF70B5040009D0606A002540B184
:101C800025616561A56294F8510040B10CE0012026
:101C900070BD6068B0F5827FF4D0E561F2E784F84A
:101CA0005050204600F044F8022084F8510020688B
:101CB000016821F040010160A088218900F4827050
:101CC00001F404410843A18901F400610843217C27
:101CD00001F002010843217D01F001010843218B3D
:101CE00001F400710843217F01F03801084394F8A2
:101CF000201001F080010843218D01F400510843B8
:101D000021680860A069042101EA104094F82410B9
:101D100001F010010843216848602068C16921F47E
:101D20000061C1616565012084F85100002070BD2B
:101D300010B586B0044614216846FEF7B0FB14497E
:101D40002068884221D113480021026842F48012A1
:101D50000260006800F4801005900E481438026894
:101D600042F020020260006800F0200005904FF46D
:101D7000607000900220CDE901010320039005204E
:101D8000049069460448FFF7C3FA06B010BD00008E
:101D90000050014044380240001402402DE9F84F41
:101DA000044690F8500000270A9E1D4692468B4636
:101DB0004FF0010901280ED0012084F85000FFF7F0
:101DC000C7FB804694F85100616801280CD0B1F53A
:101DD000827F07D102E00220BDE8F88FA16809B92F
:101DE000042801D00227C2E0BBF1000F27D0BAF1CE
:101DF000000F24D01DB394F85100042802D0052010
:101E000084F8510000206065C4F838A0E587A587F4
:101E1000C4F830B0E586A586206460642068016857
:101E2000490603D4016841F040010160E068B0F563
:101E3000006F606805D0E8B3012D46D07FE0012730
:101E400095E008B1012D39D1206B21680088C86068
:101E5000206B801C2063E08E401EE0862EE0206810
:101E6000816889070FD5E18E69B1B9F1010F0AD1F7
:101E7000216B0988C160206B801C2063E08E401EAE
:101E8000E0864FF0000920688168C9070CD0E18F17
:101E900051B1C068A16B0880A06B801CA063E08F6B
:101EA000401EE0874FF00109FFF752FBA0EB08004E
:101EB000B04200E009E001D3701C50D1E08E002850
:101EC000CDD1E08F0028CAD13FE0206B2168007897
:101ED0000873206B401C2063E08E401EE0862EE0DD
:101EE0002068816889070FD5E18E69B1B9F1010FCA
:101EF0000AD1216B09780173206B401C2063E08EAE
:101F0000401EE0864FF0000920688168C9070CD0A8
:101F1000E18F51B1C068A16B0870A06B401CA06339
:101F2000E08F401EE0874FF00109FFF711FBA0EBA7
:101F30000800B04202D3701C01D010E07EB1E08EE8
:101F40000028CDD1E08F0028CAD142463146204634
:101F500000F0BEFF28B101272020606507E00327BD
:101F600005E0A06818B92068C16880680090012069
:101F700084F85100002084F8500038462CE7704760
:101F80007047000070B590F83C20012A32D001243F
:101F900080F83C40022280F83D2003685A689D6822
:101FA00022F070060A6832435A60134B02689A4264
:101FB00014D0B2F1804F11D0104B9A420ED0104B7A
:101FC0009A420BD00F4B9A4208D00F4B9A4205D041
:101FD0000E4B9A4202D00E4B9A4204D1496825F02A
:101FE00080031943916080F83D40002180F83C1047
:101FF000084670BD022070BD000001400004004092
:1020000000080040000C0040000401400040014076
:102010000018004010B5040003D094F83D0010B142
:1020200007E0012010BD002084F83C00204600F0AD
:102030001FF8022084F83D00211D206801F052F8AD
:10204000012084F8460084F83E0084F83F0084F8BC
:10205000400084F8410084F8420084F8430084F88A
:10206000440084F8450084F83D00002010BD0000C5
:1020700008B50C4A01680C48914207D1016841F04B
:1020800002010160006800F0020009E0074A914285
:1020900007D1016841F040010160006800F0400094
:1020A000009008BD00040040403802400018004085
:1020B00090F83D10012901D001207047022180F8DD
:1020C0003D100168CA6842F00102CA600068114907
:1020D000884214D0B0F1804F11D00F4988420ED001
:1020E0000E4988420BD00E49884208D00D498842DB
:1020F00005D00D49884202D00C49884204D181683C
:1021000001F00701062903D0016841F001010160D7
:10211000002070470000014000040040000800401B
:10212000000C004000040140004001400018004045
:1021300070B5044690F83C000025012817D0012610
:1021400084F83C60022084F83D002068826822F018
:10215000770222F47F4282600868502838D00DDC74
:1021600020284FD005DC90B3102811D14AE002207E
:1021700070BD302846D040280AD13BE060282FD0DF
:1021800070280DD0B0F5805F03D0B0F5005F12D09D
:10219000012584F83D60002084F83C00284670BD8D
:1021A000CB68D1E90121206801F00DF82068816831
:1021B00041F0770109E0CB68D1E90121206801F005
:1021C00002F82068816841F480418160E1E719E00C
:1021D000CA684968206801F0CBF85021206806E001
:1021E000CA684968206801F0D4F86021206800F0CE
:1021F000F4FFCEE7CA684968206801F0B9F84021C9
:102200002068F4E7226801461046F0E7704770B591
:102210000446006801694FF00005C943890715D4D9
:10222000C168C943890711D4E91E016101202077E3
:10223000206880698007204602D0FFF7E7FF04E0AE
:1022400000F0DAF8204600F06CF925772068016983
:10225000C943490717D4C168C943490713D46FF06C
:1022600004010161022020772068806910F4407F1A
:10227000204602D0FFF7CAFF04E000F0BDF8204678
:1022800000F04FF9257720680169C943090716D482
:10229000C168C943090712D46FF008010161042025
:1022A00020772068C0698007204602D0FFF7AEFF84
:1022B00004E000F0A1F8204600F033F9257720680B
:1022C0000169C943C90617D4C168C943C90613D4F3
:1022D0006FF010010161082020772068C06910F4B8
:1022E000407F204602D0FFF791FF04E000F084F821
:1022F000204600F016F9257720680169C943C9070F
:1023000008D1C168C943C90704D1891E01612046AB
:1023100000F06CF920680169C943090609D4C16855
:10232000C943090605D46FF0800101612046FFF71B
:1023300026FE20680169C943490609D4C168C9431A
:10234000490605D46FF040010161204600F058F9BC
:1023500020680169C94389060BD4C168C94389064D
:1023600007D46FF0200101612046BDE87040FFF7FF
:1023700007BE70BD10B586B0044614216846FEF74E
:102380008EF82368174C002117480222A34210D16F
:10239000036843F002030360006800F00200059048
:1023A00020200090CDE90121CDE9031269460F48B4
:1023B00013E00F4CA34212D1036843F08003036083
:1023C000006800F08000059040200090CDE90121D8
:1023D0000920CDE9031069460648FEF799FF06B0CB
:1023E00010BD0000000400403038024000040240EC
:1023F00000180040001C0240704770B5044690F879
:102400003C0000260D4601280FD0012084F83C0036
:102410006AB1042A1DD0082A2FD00C2A3FD00126E9
:10242000002084F83C00304670BD022070BD20685A
:1024300000F0DCFE2068816941F0080181612068BC
:10244000816921F004018161206881692A69114351
:1024500011E0206800F0FAFE2068816941F4006113
:1024600081612068816921F48061816120688169CE
:102470002A6941EA02218161D2E7206800F01CFF4D
:102480002068C16941F00801C1612068C16921F07B
:102490000401C1612068C1692A69114311E0206803
:1024A00000F03EFF2068C16941F40061C16120680D
:1024B000C16921F48061C1612068C1692A6941EA6A
:1024C0000221C161ACE710B5040003D094F83D00CF
:1024D00010B107E0012010BD002084F83C00204628
:1024E00000F01EF8022084F83D00211D206800F055
:1024F000F9FD012084F8460084F83E0084F83F008E
:1025000084F8400084F8410084F8420084F84300D5
:1025100084F8440084F8450084F83D00002010BD94
:102520007047704710B50446022249B104290ED005
:10253000082913D094F84100012816D0012010BDBD
:1025400094F83E000128F9D184F83E200FE094F879
:102550003F000128F2D184F83F2008E094F84000C1
:102560000128EBD184F8402001E084F841200122C9
:10257000206800F01BFE16492068164A884201D0E8
:10258000904203D1436C43F4004343642068884283
:1025900013D0B0F1804F10D00F4988420DD00F49B1
:1025A00088420AD00E49884207D0904205D00D4992
:1025B000884202D00C49884204D1816801F00701A9
:1025C000062903D0016841F001010160002010BD1F
:1025D00000000140000401400004004000080040E9
:1025E000000C004000400140001800400068034912
:1025F000884201D1FEF7B2BF7047000000100040D2
:10260000704770B5040004D094F83D00002510B167
:1026100006E0012070BD84F83C50204600F022F80E
:10262000242084F83D002068C16821F40051C16075
:10263000204600F0C1FE2068016921F4904101614B
:102640002068416921F02A0141612068C16841F494
:102650000051C1602564202084F83D0084F83E00CC
:10266000002070BD70B586B0064614216846FDF79F
:1026700016FF24493068884241D12348002501686B
:1026800041F010010160006800F0100005901E4844
:102690001438016841F0020101600068694600F0E9
:1026A00002000590C02000900220019001200290BD
:1026B00003200390072004901448FEF729FE154CD0
:1026C000134820604FF00060C4E901054014C4E9DC
:1026D000035080106561C4E906502562204665629A
:1026E000FEF776FD08B1FEF74CFDB4630022012130
:1026F0002520A663FEF7CAFF2520FEF7B9FF06B026
:1027000070BD000000100140443802400004024047
:102710004064024094040020FEE710B530216A2096
:10272000FEF708FC0A20FEF7E1FD0D212420FEF74C
:1027300001FC0A20FEF7DAFD0E212820FEF7FAFB45
:102740000A20FEF7D3FD8E213120FEF7F3FB0A208D
:10275000FEF7CCFD01210B2000F09CF80A20FEF7CB
:10276000C5FD002000F05AF8102801D0012010BD4E
:1027700001210B2000F08EF80A20FEF7B7FD0021A2
:102780000A2000F087F80A2000F048F808B102207B
:1027900010BD0A20FEF7AAFD00210B2000F07AF8F8
:1027A0000B2000F03BF808B1032010BD0A20FEF713
:1027B0009DFD2421412000F06DF8412000F02EF80D
:1027C000242801D0042010BD0A20FEF78FFDC0216F
:1027D000422000F05FF8422000F020F8C02801D02D
:1027E000052010BD0A20FEF781FD00212A20FEF7FA
:1027F000A1FB0A20FEF77AFD00213420FEF79AFBA8
:102800000A20FEF773FD062203210E20FEF7E2FAEE
:102810006420FEF76BFD002010BD0000F8B50146F6
:102820003220FEF787FB0A20FEF760FD802134206E
:10283000FEF780FB0A20FEF759FD134E00224021CF
:102840003046FEF77FFE114CB52037252070621C04
:102850000123511E0E480095FFF7A0FA621C0123C8
:10286000511E0B480095FFF799FA0122402130468E
:10287000FEF768FE647800213420FEF75BFB0A2037
:10288000FEF734FD2046F8BD00140240B4000020DD
:102890006803002070B50D46044600212A20FEF78B
:1028A00049FB0220FEF722FD21462920FEF742FBCC
:1028B0000220FEF71BFD29466420FEF73BFB0220A9
:1028C000FEF714FD81212A20FEF734FBBDE870409D
:1028D0000A20FEF70BBD0021017041708170704726
:1028E00081780122491CC9B24B1E8170132B01D87B
:1028F000027070471429FCD90021017042707047A2
:1029000010B55D4C94F82800C10704F12A0002D0EC
:10291000FFF7E6FF01E0FFF7DEFF94F828008107EC
:10292000554800F12D0002D5FFF7DAFF01E0FFF76F
:10293000D2FF94F8280041074F4800F1300002D53B
:10294000FFF7CEFF01E0FFF7C6FF94F8280001076C
:10295000494800F1330002D5FFF7C2FF01E0FFF75D
:10296000BAFF94F82800C106434800F1360002D5AA
:10297000FFF7B6FF01E0FFF7AEFF94F828008106ED
:102980003D4800F1390002D5FFF7AAFF01E0FFF74B
:10299000A2FF94F828004106374800F13C0002D518
:1029A000FFF79EFF01E0FFF796FF94F8280001066D
:1029B000314800F13F0002D5FFF792FF01E0FFF739
:1029C0008AFF208DC1052C4800F1420002D5FFF797
:1029D00087FF01E0FFF77FFF208D8105264800F18A
:1029E000450002D5FFF77CFF01E0FFF774FF208D63
:1029F0004105214800F1480002D5FFF771FF01E0D1
:102A0000FFF769FF208D01051B4800F14B0002D53F
:102A1000FFF766FF01E0FFF75EFF208DC104164857
:102A200000F14E0002D5FFF75BFF01E0FFF753FF17
:102A3000208D8104104800F1510002D5FFF750FFAE
:102A400001E0FFF748FF208D41040B4800F15400DE
:102A500002D5FFF745FF01E0FFF73DFF208D0104A0
:102A6000054800F1570003D5BDE81040FFF738BF17
:102A7000BDE81040FFF72FBF2C420020094808B5E1
:102A8000016841F4800101600068002200F48000C8
:102A9000009001213A20FEF7F9FDBDE808403A20F8
:102AA000FEF7E6BD3038024010B58EB01C220B494F
:102AB0006846FDF7C2FC0021684601F0A3FA084C05
:102AC00006491C2220601C3107A8FDF7B6FC002136
:102AD00007A801F097FA60600EB010BD905800088A
:102AE0000000002030B587B014216846FDF7D7FC00
:102AF00019480024016841F002010160016801F0F9
:102B000002010591016841F001010160016801F0D5
:102B100001010591016841F080010160016801F047
:102B200080010591016841F02001016000680B4DB2
:102B300000F020000590012240212846FEF702FD0A
:102B400001214020CDE90214CDE900016946284663
:102B5000FEF7DEFB07B030BD303802400014024003
:102B6000104810B50E4901604FF482714160002198
:102B70008160C1604FF400720161C0E9051230222A
:102B8000C0E90721416281620A21C162FFF772F840
:102B9000002803D0BDE81040FEF7F3BA10BD0000D6
:102BA000005001406803002010B58CB00024079449
:102BB000089409941C2168460A94FDF770FC1A4891
:102BC000184901608221C0E901144FF4B971C0E9CC
:102BD00003148461FFF71EFA08B1FEF7D2FA4FF42E
:102BE0008050079007A91048FFF7A2FA08B1FEF736
:102BF000C8FA0D48FFF767FC08B1FEF7C2FA60207B
:102C0000CDE9000402940022694607480494FFF7C6
:102C1000F4FB08B1FEF7B5FA0348FFF7ABFB0CB0C5
:102C200010BD0000001800400804002010B58EB050
:102C300000240794089409940A940B941C21684674
:102C40000C94FDF72CFC1E481C49C0E9001441F20D
:102C50008731C0E9024104618461FFF7DBF908B103
:102C6000FEF78FFA4FF48050079007A91448FFF73A
:102C70005FFA08B1FEF785FA1148FFF724FC08B1A6
:102C8000FEF77FFA0B940BA90D480C94FFF77AF925
:102C900008B1FEF776FA6020CDE900040294042220
:102CA000694607480494FFF7A8FB08B1FEF769FAE4
:102CB0000348FFF75FFB0EB010BD000000040040AA
:102CC000C00300200C4810B50A4901600B4941605F
:102CD000002181600C22C160C0E904128161C161E0
:102CE000FFF78FFC002803D0BDE81040FEF749BA7B
:102CF00010BD00000010014050040020A08601001B
:102D0000FEE7FEE710B559482DED0A8BB0F9061025
:102D1000B0F908009FED569BDFED57BA574C9FED79
:102D2000588A9FED58BADFED58AA9FED58AADFEDFB
:102D3000588A00294EDA9FED57CA00282ADA91FBFB
:102D4000F0F002F0DFF941EC100B01F019F853EC50
:102D5000192B51EC100B02F027FB0AD8C4ED01BA75
:102D600084ED028A9FED4C0A84ED030A9FED4B0A25
:102D70000BE09FED4B0A84ED010A9FED4A0A84EDBA
:102D8000020A84ED03BA9FED480A84ED040ABDEC03
:102D90000A8B10BDFBDD91FBF0F002F0B3F941ECC2
:102DA000100B00F0EDFF53EC192B51EC100B02F05F
:102DB000FBFA84ED01CA06D884ED028AC4ED03AAA9
:102DC0009FED3A0AE1E784ED02AAC4ED038A9FED84
:102DD000380ADAE7DBDD00289FED36CA22DD91FBF9
:102DE000F0F002F08FF941EC100B00F0C9FF53EC4A
:102DF000192B51EC100B02F0D7FA0AD89FED2E0ACE
:102E000084ED010AC4ED02AA84ED038AC4ED04BA7C
:102E1000BDE79FED2A0A84ED010AC4ED028A84ED24
:102E200003AAB2E7B3DA91FBF0F002F06BF941ECE0
:102E3000100B00F0A5FF53EC192B51EC100B02F016
:102E4000B3FA84ED01CA08D89FED1D0A84ED020A89
:102E500084ED038A9FED1B0A97E79FED1B0A84ED23
:102E600002BA84ED030A9FED190A8EE7BC420020E6
:102E7000000000000000F03F0AD7A3BBB400002010
:102E8000A8C64BBEE17A543F355E7ABF68910DBF4C
:102E9000E17A54BF0AD7A33BBE9F7A3F4ED111BC03
:102EA0006F1203BC7B140EBF6F1203BBA69B443C86
:102EB00099BB16BB0AD7233B52499D3A99BB163B97
:102EC000355E7A3F6F12033C295C0FBFBC74933BA5
:102ED00038B504461248134B0068B0FBF3F04FF4CA
:102EE0007A73584300906068B0F5827F0DD10B462D
:102EF000009200228021204600F016F870B1606D2B
:102F000040F020006065032038BD009830B1401EBD
:102F1000009020688068C0430006F6D5002038BDC8
:102F20001400002000366E012DE9F8431E4691463C
:102F300088460446089DFEF70BFB401B351AFEF73A
:102F400007FB074625480068C0F3CB30684338E0EC
:102F5000701C37D0FEF7FCFAC01BA84203D215B193
:102F6000009860B32CE02068416821F0E0014160E6
:102F70006068B0F5827F0BD1A068B0F5004F02D039
:102F8000B0F5806F04D12068016821F04001016034
:102F9000A06AB0F5005F09D12068016821F40051F2
:102FA00001602068016841F400510160012084F84B
:102FB0005100002084F850000320BDE8F88300256C
:102FC000401E00902068816838EA010004D000218A
:102FD0004945BDD10020F0E70121F9E714000020A8
:102FE00008B501F03BFD074C009060688047A06881
:102FF0008047E0688047A06980470121684601F06A
:1030000053FBF2E79800002010B5502080F31188A0
:10301000BFF34F8FBFF36F8F01F026FD18B1044946
:103020004FF080500860002080F3118810BD000030
:1030300004ED00E030B593B030216846FDF72FFA7B
:1030400014210CA8FDF72BFA1D480025016841F05A
:1030500080510160006800F08050119019480168AB
:1030600041F4404101600068022400F440401190A6
:1030700001200090000401908001CDE90640062067
:103080000890A820CDE9090407200B906846FEF7B8
:103090003BFC08B172B6FEE70CA90F2081E83100B5
:1030A0004FF4A0500F904FF48050109005210CA8C1
:1030B000FEF71EFB002801D072B6FEE713B030BD4C
:1030C00040380240007000400248016841F470013D
:1030D0000160704788ED00E00148FFF798B80000F4
:1030E000F4040020F0B50268254C264D264E274FEB
:1030F000274B4FF0804CA04209D0604507D0A84232
:1031000005D0B04203D0B84201D0984204D122F099
:10311000700E4A6842EA0E02A0421BD0604519D0E8
:10312000A84217D0B04215D0B84213D0984211D05F
:10313000184DA8420ED0184DA8420BD0174DA842EA
:1031400008D0174DA84205D0164DA84202D0164D02
:10315000A84203D122F44075CA682A434D6922F07F
:1031600080022A4302608A68C2620A688262A042C0
:1031700001D0984201D10969016301214161F0BD8B
:10318000000001400004004000080040000C004026
:10319000000401400040014000440140004801405B
:1031A00000180040001C00400020004010B501F055
:1031B0001F030121046A99408C430462016A9A400A
:1031C0001143016210BD10B5846842EA032224F461
:1031D0007F440A432243826010BD826822F070025D
:1031E0000A4342F00701816070470000F0B5026AAF
:1031F00022F001020262036A42688469124E24F0DE
:1032000073050C682C4323F002058B682B430D4D8E
:10321000A84201D0B04205D123F00807CB683B4358
:1032200023F00403A84201D0B04205D14D6922F435
:10323000407215438A692A43426084614968416348
:103240000362F0BD0000014000040140F0B5026AD5
:1032500022F010020262026A436884690D6824F455
:10326000E64444EA05248D6822F0200242EA051271
:103270000F4D104EA84201D0B04206D1CF6822F0C7
:10328000800242EA071222F04002A84201D0B04276
:1032900007D14D6923F4406343EA85038D6943EA0E
:1032A000850343608461496881630262F0BD000068
:1032B0000000014000040140F0B5026A22F480726F
:1032C0000262026A4368C46922F4007224F0730542
:1032D0000C68124E2C438D6842EA05220E4DA8421E
:1032E00001D0B04206D1CF6822F4006242EA072240
:1032F00022F48062A84201D0B04207D14D6923F484
:10330000405343EA05138D6943EA05134360C461E2
:103310004968C1630262F0BD000001400004014041
:1033200030B5026A22F480520262046A4268C369BC
:103330000D6823F4E64343EA05238D6824F4005422
:1033400044EA0534084DA84202D0084DA84204D1F1
:103350004D6922F4804242EA85124260C3614968A5
:103360000164046230BD000000000140000401401F
:1033700010B5036A046A24F001040462846924F02D
:10338000F00444EA021423F00A020A438461026250
:1033900010BD10B5036A23F0100303628369046A49
:1033A00023F4704343EA023224F0A00343EA0111FC
:1033B0008261016210BD000070B5044600680169B9
:1033C000E26821F44051114301612169A068E2697A
:1033D00008436169114308432168CA6849F20C63D4
:1033E0009A430243CA6020684169A26921F440718E
:1033F0001143416131492068884202D030498842F6
:1034000002D1FEF73FFA01E0FEF72CFAE269002351
:10341000192164253226B2F5004F626828D0A0FB3E
:103420000101930F9200FCF791FF0146B0FBF5F00C
:103430006FF01802504301EB800006EB0010B0FB68
:10344000F5F000F0F002B1FBF5F002EB0012B1FB79
:10345000F5F06FF01803584301EB800006EB001005
:10346000B0FBF5F000F00F0021681044886070BDDB
:10347000A0FB010192185B41FCF768FF0146B0FB1D
:10348000F5F00201B1FBF5F06FF01803584301EBC2
:10349000800006EBC000B0FBF5F000F0F80002EB96
:1034A0004002B1FBF5F0584301EB800006EBC00091
:1034B000B0FBF5F000F00700D6E700000010014077
:1034C0000014014038B5084C20680168C9060AD5C7
:1034D000C068C00607D505480168204688472068AF
:1034E00001684068009038BD500400208000002032
:1034F000FEE703B401984100009850EAC12018BFCC
:1035000004204A0D18BF40F0010040F2FF72B2EBF8
:10351000515F08BF40F00200012808BF052002B03B
:1035200070470907090E002804DB00F1E02080F84D
:103530000014704700F00F0000F1E02080F8141D27
:10354000704700000000000070B5C1482DED020B6F
:103550002DED0E8B82B0119D25F000449FEDBEDB5A
:103560009FEDBFEB84423EDBA4F140511098A1F1E6
:103570007F6108430FD0BC48844202DC28D11098F8
:1035800030B39DED100B02B0BDEC0E8B02B0BDE868
:10359000704000F0B8BC9DED100B53EC1D2B51ECAE
:1035A000100B01F003FE9DED100B41EC180B53ECDA
:1035B0001E2B51EC100B01F0F9FD53EC182B01F010
:1035C00059FB41EC100B02B0BDEC0E8B02B070BD8C
:1035D0000120FCF793FF02B0BDEC0E8B02B0BDE8FA
:1035E000704000F0A5BCA1489FEDA18B844256DA43
:1035F0009DED100BB4F1795F0ADA51EC100BFFF777
:1036000078FF042808BF00F0A3FC9DED100BDAE75B
:1036100053EC102B51EC100B01F0C8FD41EC190BD1
:1036200095480621B0EE490AF0EE690A784400F0A8
:10363000EEFB53EC192B51EC100B01F0B7FD41ECF4
:103640001A0B8E48B0EE490AF0EE690A042178445C
:1036500000F0DDFB53EC192B51EC100B01F0A6FD33
:1036600053EC182B01F006FB41EC100B51EC1A0B3C
:1036700053EC102B01F0B2FBCDE900019DED000BE6
:1036800053EC102B9DED100B51EC100B01F08EFD47
:103690009DED101B53EC112B01F0ECFAD2E09DEDE7
:1036A000100B51EC100B00F06BFC53EC182B01F0DD
:1036B000B1FE9FED730BCDE9000153EC102B9DED96
:1036C000000B51EC100B01F071FD41EC190B6E4831
:1036D0000621B0EE490AF0EE690A784400F097FB43
:1036E00053EC192B51EC100B01F060FD41EC1B0B5E
:1036F0006648B0EE490AF0EE690A0421784400F009
:1037000086FB53EC192B51EC100B01F04FFD53ECE1
:10371000182B01F0AFFA41EC1C0B51EC190B00F027
:10372000C5FE41EC180B5A489FED5BABA04222DC72
:1037300053EC1C2B51EC1B0B01F050FBCDE90001AD
:103740009DED000B51EC180B53EC102B01F02EFDEE
:1037500053EC182B01F08EFA53EC1A2B01F026FDD6
:1037600053EC1D2B01F02EFF53EC1E2B01F052FEEB
:1037700041EC100B5FE08DED008B002000909DED83
:10378000000B51EC180B53EC102B01F073FA9DED6C
:10379000000B41EC1E0B53EC102B51EC100B01F005
:1037A00005FD53EC192B01F035FE53EC1E2B01F0F7
:1037B00015FB41EC190B53EC1C2B51EC1B0B01F0CE
:1037C0000DFB41EC1B0B53EC1A2B51EC190B01F0C8
:1037D000EDFC53EC1D2B01F01DFE41EC190B53ECDD
:1037E0001A2B51EC180B01F0E1FC53EC1B2B01F0F0
:1037F000DDFC53EC192B01F0E5FE9DED000B41ECD7
:10380000180B53EC1A2B51EC100B01F0CFFC9FED71
:10381000249B53EC192B01F0FDFD41EC100B51ECF6
:10382000180B53EC102B01F0CDFE53EC192B01F0CB
:10383000F1FD41EC100B002D3FF7C5AE51EC100B24
:1038400001F0DAF941EC100BBDE6000000000000C9
:103850000000F03F00000000075C143326A6913CF6
:10386000182D4454FB21F93F0000F07F0000E03F99
:10387000000000000000F03FD0220000DE22000027
:10388000000000000000E03F222200003022000083
:103890003333EF3F00000000000000000000004054
:1038A000182D4454FB21E93F70B59B482DED020BC8
:1038B0002DED068B079D25F00044A04218DC9748AB
:1038C000844202DC0AD1069840B19DED060BBDECA6
:1038D000068B02B0BDE8704000F015BB002DCCBFD8
:1038E0009FED8F0B9FED900BBDEC068B02B070BD72
:1038F0008F48A04215DD8F48A042D8BF4FF0FF345B
:1039000058DD9DED060B51EC100BFFF7F2FD04287E
:1039100008BF00F01DFB9DED060BBDEC068B02B051
:1039200070BD9DED060B51EC100B00F029FBCDE9AD
:10393000060181489FED828BA0423CDD8248A04277
:103940001FDD00249FED82AB9DED060B53EC1A2B7F
:1039500051EC100B01F08EF99DED060B41EC190BAB
:1039600053EC1A2B51EC100B01F020FC53EC182BEC
:1039700001F028FE53EC192B01F030FACDE90601D5
:1039800049E09DED060B012453EC182B51EC100B74
:1039900001F070F99DED060B41EC190B53EC182B5F
:1039A00051EC100B01F00EFE53EC192B01F016FA3E
:1039B000CDE906012FE06848A0421FDD02249FEDFB
:1039C000689B9DED060B53EC192B51EC100B01F08D
:1039D000EDFB53EC182B01F04DF99DED060B41EC7E
:1039E000180B53EC192B51EC100B01F0EBFD53ECC1
:1039F000182B01F0F3F9CDE906010CE09DED060B63
:103A0000032453EC102B9FED580B51EC100B01F0DD
:103A1000E5F9CDE906019DED060B53EC102B51ECB9
:103A2000100B01F0C3FB41EC180B53EC182B01F009
:103A3000BDFB41EC190B4E480621B0EE490AF0EEF1
:103A4000690A784400F0E3F953EC182B51EC100BA1
:103A500001F0ACFB41EC180B4648B0EE490AF0EE21
:103A6000690A0521784400F0D2F953EC192B51EC86
:103A7000100B01F09BFB41EC100B51EC180B53ECBD
:103A8000102B002C0EDA01F0F5F89DED061B53EC1F
:103A9000112B01F08BFB9DED061B53EC112B01F05C
:103AA000B9FC35E001F0E6F89DED061B53EC112B57
:103AB00001F07CFB41EC100B2F48784400EBC40074
:103AC00090ED001B51EC100B53EC112B01F07AFD23
:103AD0009DED061B53EC112B01F074FD41EC100B16
:103AE0002648784400EBC40090ED001B51EC100B0D
:103AF00053EC112B01F08EFC41EC100B002DA2BFFA
:103B0000BDEC068B02B070BD51EC100B01F074F8E7
:103B100041EC100B01E70000000010440000F07FB2
:103B2000182D4454FB21F93F182D4454FB21F9BFB3
:103B30000000DC3F0000203E0000F33F00000000DA
:103B4000000000000000F03F0000E63F0000000021
:103B50000000000000000040008003400000000062
:103B6000000000000000F83F000000000000F0BF6F
:103B7000721F0000281F0000B21E00006A1E000015
:103B800070B56F4E2DED040B2DED048B82B0DDF87A
:103B900024C0DDE907235C422CF000411C4341EACC
:103BA000D474069D22F00040B44205D86C422C43E8
:103BB00040EAD474B4420BD99DED081B9DED060B71
:103BC00002B0BDEC048B04B0BDE8704000F0A5B9B4
:103BD000ACF14054A4F17F641C430BD0022404EAEE
:103BE000AC7444EAD27405439FED578B9FED582B7C
:103BF00007D015E09DED060B51EC100B00F0B8F965
:103C000042E0002C11BF012C9DED060B02B0BDEC73
:103C1000048B04BF04B070BD022C38D0032C3BD001
:103C20000B439FED4D1B9FED4E0B0AD0B14218D1B7
:103C3000B04209D121F0804120F0804009910790E5
:103C40000FE0002A15DA10E0474B7B44002C08BF38
:103C500093ED000B0DD0012C10D0022C17D0032CAB
:103C60001AD0B0421DD1002A03DAB0EE410AF0EEBC
:103C7000610A02B0BDEC048B04B070BD93ED000B83
:103C800051EC100B00F0B8FF41EC100BF1E7B0EE77
:103C9000480AF0EE680AECE7B0EE420AF0EE620A7B
:103CA000E7E7401A00159FED329B3C28C8BF8DED19
:103CB000000B17DCBCF1000FBCBF10F13C0F8DED09
:103CC000009B0FDB9DED080B53EC102B9DED060BBD
:103CD00051EC100B01F082F800F052F900F048F9B5
:103CE000CDE90001B4B1012C10D0022C9FED220BC4
:103CF00053EC102B9DED000B51EC100B19D001F083
:103D000061FC53EC182B01F05DFCBDE7019880F0DD
:103D1000004001909DED000B53EC192B51EC100B62
:103D200001F0B4F904BF0220FCF7E8FB9DED000BA5
:103D30009FE701F047FC53EC182B01F06BFBA3E766
:103D40000000F07F00000000182D4454FB210940C2
:103D5000182D4454FB2109C0182D4454FB21F9BFF0
:103D6000182D4454FB21F93F9A1D0000000000006B
:103D70000000000000000000075C143326A6A13CF0
:103D80002DED020B019820F0004001909DED000BFD
:103D900002B0704700B52DED048BB0EE409AF0EE06
:103DA000609A83B051EC190B01F040FB41EC180B09
:103DB00018EE100A18EE901A8DED008B002818BF2F
:103DC0000120084320F00040C0F17F6000F1E04096
:103DD000C00F14D019EE101A19EE900A8DED009B49
:103DE000002918BF0121084320F00040C0F17F6086
:103DF00000F1E040C00F04BF0120FCF77FFBB0EEF4
:103E0000480A03B0F0EE680ABDEC048B00BD70B543
:103E100004462DED028B4D1E00EBC500B0EE408A2E
:103E2000F0EE608A90ED000B35F0060017D053ECF1
:103E3000182B51EC100B01F0B9F941EC100B6D1E71
:103E400004EBC50090ED001B51EC100B53EC112B53
:103E500000F010FF41EC100B35F00600E7D1022D09
:103E600036D0042D1CD0062D1CBFBDEC028B70BDBE
:103E700053EC182B51EC100B01F098F994ED0A1B40
:103E800053EC112B00F0F6FE53EC182B01F08EF9D9
:103E900094ED081B53EC112B00F0ECFE41EC100BE1
:103EA00053EC182B51EC100B01F080F994ED061B2C
:103EB00053EC112B00F0DEFE53EC182B01F076F9D9
:103EC00094ED040B53EC102B00F0D4FE41EC100BDE
:103ED00053EC182B51EC100B01F068F994ED021B18
:103EE00053EC112B00F0C6FE53EC182B01F05EF9D9
:103EF00094ED001B53EC112B00F0BCFEBDEC028BCB
:103F000041EC100B70BD10B553EC102B51EC100BA5
:103F100000F0B0FE41EC100B10BD10B553EC112BAE
:103F200051EC100B00F0A6FE41EC100B10BD000090
:103F30009FED050B10B553EC102B51EC100B00F05E
:103F40004DFF41EC100B10BD000000000000000010
:103F50009FED050B10B553EC102B51EC100B01F03D
:103F600025F941EC100B10BD00000000000000100E
:103F700010B541EC100BFFF797FC51EC100B10BD86
:103F800082B0CDE9000121F0004001909DED000BD1
:103F900002B051EC100B704710EE100AF6EE000A5A
:103FA000074960EE200AA1EB600000EE100A20EE47
:103FB000801AF7EE080A41EE400A20EE800A7047A8
:103FC000DF59375FFDF7D2FAFFF734F8FEF78AFDC5
:103FD000FEF754FDFEF7E8FDFEF774FEFEF7C0FDA8
:103FE000FEF724FEFEF760FD00F007F8FEE701464D
:103FF0000020842900D0C81C704710B500F0F0FBE9
:10400000002010BD7FB50D4604464169B0F9080097
:1040100081B1A16971B1FFF7EAFFD4E905128DE81A
:104020000700D4E900102B46226900F0ECFC039055
:1040300004B070BDFFF7DBFF03A9CDE90001208AC2
:104040002B4682B2D4E9001000F0B0FC012801D068
:104050000020EDE70398EBE72DE9F041184C0F46FF
:104060000546E6682068001D00F057FA38B9206858
:1040700090F82C1001208840216981432161681C3F
:1040800007D137B12168BDE8F0410E48091D00F0A5
:1040900087BA20683544B5424560216805D2A06BD7
:1040A000BDE8F041091D00F063BA606B091D00F026
:1040B0005FFAA06A854200D2A562BDE8F0810000E7
:1040C00018000020180600202DE9F041054600F0F8
:1040D00073FA2E4CA068401CA06020682C4F10B1D1
:1040E000606940B32DE02560A068012829D1002631
:1040F00006EB860007EB800000F02CFA761C072EFA
:10410000F6D323488C3000F025FA2148A03000F087
:1041100021FA1F48B43000F01DFA1D48C83000F0E5
:1041200019FA1B48DC3000F015FA19488C3060632E
:104130001430A06305E02068E96AC06A884200D8AC
:104140002560606A401C6062E96A0120226988403B
:104150001043206101EB810007EB8000291D00F076
:104160001FFA00F049FA606900280CD02068E96A5B
:10417000C06A884207D207494FF080500860BFF3F9
:104180004F8FBFF36F8FBDE8F08100001800002053
:104190003C05002004ED00E010B5044690F8510005
:1041A00058B101280CD002280FD0502080F311887C
:1041B000BFF34F8FBFF36F8FFEE7206B00F030FA35
:1041C0002046BDE8104000F02BBA10BD10484FF457
:1041D0007051420706D0C01D0D4920F00700411A5A
:1041E000C1F570510B4A00230144C2E900030839AC
:1041F000183A21F0070111604B600B600B1AC0E9FF
:10420000001393604FF0004053605061704700000E
:104210002C0600206C000020144E154CA6F1C80797
:104220004FF08058DFF84C9012E000BF00F0C4F966
:10423000F068C568281D00F070F9A068401EA060F5
:104240006068401E606000F0D7F92846FFF7A4FFC1
:1042500060680028EAD138680128F9D9C9F80080D7
:10426000BFF34F8FBFF36F8FF2E70000040600200B
:104270001800002004ED00E02DE9F0479A46DDE942
:10428000098481466FF00303206B03EB8202104424
:10429000089E20F00707780707D0502080F3118888
:1042A000BFF34F8FBFF36F8FFEE7002561B1002092
:1042B00023180A5C83F834200A5C12B1401C1028D1
:1042C000F6D384F8435001E084F83450072E00D32D
:1042D0000626E662C4E91165201D00F046F904F1E6
:1042E000180000F042F92461C6F107006462A06181
:1042F000E56484F8505052464946384600F0C0F80C
:104300002060B8F1000F01D0C8F80040BDE8F08788
:1043100030B5114900E011460A688242FBD34B6870
:104320005C18844203D140681844486008464368DA
:104330001C18944209D1084C183C2468A24209D0A8
:1043400052681A4442600A6812680260814200D0D2
:10435000086030BD0460F9E76C0000200648416B3E
:10436000096829B1416BC968C968496881627047A9
:104370004FF0FF31FAE700001800002008484068BD
:10438000401C4FF0500080F3118804D0BFF34F8FD2
:10439000BFF36F8FFEE7BFF34F8FBFF36F8FFEE763
:1043A000740000202DE9F0410546002700F04EFA88
:1043B000324E306808B9FFF709FF706905424ED1E7
:1043C000C5B3083568070ED005F00700C0F1080036
:1043D0000544680707D0502080F31188BFF34F8F42
:1043E000BFF36F8FFEE72DB37068854237D823483F
:1043F000183001460C6801E020460C466168A9426D
:1044000002D221680029F7D131688C4227D0076891
:104410002168016060680837411B10290FD96019B5
:10442000420708D0502080F31188BFF34F8FBFF3AD
:104430006F8FFEE713E041606560FFF769FF616819
:104440007068401A7060B268904200D2B0607069C3
:1044500001430020C4E90001F068401CF06000F056
:1044600069FB780707D0502080F31188BFF34F8F86
:10447000BFF36F8FFEE73846BDE8F081540000209F
:1044800010B5031F4FF080741C601B1F21F0010149
:104490001960191F044B0B6014390A60091F6FF073
:1044A000020244380A6010BD7D43000800B52DEDBE
:1044B000048B83B041EC190B00F0B8FF41EC180BF2
:1044C00018EE100A18EE901A8DED008B002818BF18
:1044D0000120084320F00040C0F17F6000F1E0407F
:1044E000C00F14D019EE101A19EE900A8DED009B32
:1044F000002918BF0121084320F00040C0F17F606F
:1045000000F1E040C00F04BF0120FBF7F7FF51ECC2
:10451000180B03B0BDEC048B00BDD0E9013201697A
:104520009A60D0E901235A604A68824201D18268C8
:104530004A60002202610868401E086008687047EF
:10454000034B036003F15400086080201060704743
:104550001401002000F108014FF0FF32C0E9011200
:10456000C160016100210160704700210161704755
:1045700030B50B685A1C02D000F1080202E0026953
:1045800004E02246546825689D42FAD953684B607E
:1045900099608A60516008610168491C016030BD02
:1045A00042684A6093688B609368596091600861C3
:1045B0000168491C01607047502080F31188BFF3E7
:1045C0004F8FBFF36F8F0A494868401C486001282D
:1045D0000CD10848006810F0FF0F07D0502080F37E
:1045E0001188BFF34F8FBFF36F8FFEE77047000056
:1045F0007400002004ED00E00849486828B1401E1E
:10460000486001D180F311887047502080F31188F1
:10461000BFF34F8FBFF36F8FFEE7000074000020E1
:1046200070B500282AD0164DA0F1080460686969A9
:10463000084207D1502080F31188BFF34F8FBFF39A
:104640006F8FFEE722683AB1502080F31188BFF3E4
:104650004F8FBFF36F8FFEE78843606000F0F6F87E
:1046600060686968084468602046FFF751FE286961
:10467000401C2861BDE8704000F05CBA70BD0000CD
:10468000540000204FF0E0200021016181610549C4
:104690004FF47A720968B1FBF2F1491E41610721BA
:1046A000016170471400002070B50D4604000BD066
:1046B00095B11E4A106BB8B1502080F31188BFF33A
:1046C0004F8FBFF36F8FFEE7502080F31188BFF349
:1046D0004F8FBFF36F8FFEE7502080F31188BFF339
:1046E0004F8FBFF36F8FFEE700F0B0F8D2682368FA
:1046F0005919934204D98B420AD9914202D807E052
:104700008B42FAD9881A21600021FFF7A5FC00E04E
:10471000216000F00FFA002807D105494FF08050C2
:104720000860BFF34F8FBFF36F8F70BD180000207C
:1047300004ED00E070B50546FFF73EFF254C05B9D6
:104740002568281DFFF7E9FE58B9E86A224A00EB00
:10475000800152F8211021B901218140206988434C
:104760002061A86A18B105F11800FFF7D6FE606A4B
:10477000401C60622068854208D11748291DC83056
:10478000FFF70EFF6068401C606007E0A068401EF5
:10479000A0602846FFF700FDFFF7E0FDFFF72CFFC4
:1047A0006069002814D02068854211D1206B38B18F
:1047B000502080F31188BFF34F8FBFF36F8FFEE758
:1047C00006494FF080500860BFF34F8FBFF36F8FE3
:1047D00070BD0000180000203C05002004ED00E042
:1047E00010B586B00024039405AA04A903A8049474
:1047F000FFF7A6FEDDE903010094CDE901100023D7
:104800000EA11048059A00F0FEF80F490028C86272
:1048100011D0502080F31188BFF34F8FBFF36F8FFB
:104820004FF0FF30886201204861CC6006B0BDE8DF
:10483000104000F041B806B010BD000049444C459E
:104840000000000019420008180000200248016B17
:10485000491C016370470000180000201448016BD8
:1048600011B10121C16170470021C1610169B1FA33
:1048700081F1C1F11F0101EB81020E4951F8223093
:104880006BB101EB820101F108034A6852684A608A
:104890009A4201D152684A60D16801607047502045
:1048A00080F31188BFF34F8FBFF36F8FFEE70000D7
:1048B000180000203C0500201CB537480168374A25
:1048C000914207D1502080F31188BFF34F8FBFF37F
:1048D0006F8FFEE700683149491E884207D150209A
:1048E00080F31188BFF34F8FBFF36F8FFEE72C4922
:1048F00008780190FF20087008788DF800009DF876
:1049000000009DF8002000F0F000904207D05020F9
:1049100080F31188BFF34F8FBFF36F8FFEE79DF8D1
:104920000000204C00F0500020700720A06005E03F
:104930009DF8002052008DF80020401E9DF80020B8
:104940001206F5D4A060032807D0502080F3118808
:10495000BFF34F8FBFF36F8FFEE74FF44070A0603F
:10496000019808700C482030016841F47001016022
:10497000016841F070410160FFF784FE0020606033
:10498000FBF788FC0848016841F040410160FBF7F3
:104990006DFC00201CBD000000ED00E071C20F4165
:1049A00000E400E07400002034EF00E02DE9FF5F38
:1049B0008346DDE90E87994616468A469000FFF742
:1049C000F1FC05001CD05420FFF7ECFC040014D0CF
:1049D0000020256384F85100CDE90240CDE900872D
:1049E0004B46324651465846FFF746FC2046FFF7F5
:1049F0006BFB012004B0BDE8F09F2846FFF710FED6
:104A00004FF0FF30F6E7F0B585B0DDE90B640A9DA5
:104A1000A6B1DCB1542700972663022684F85160C2
:104A2000002604AFCDE90246CDE90057FFF724FC8C
:104A30002046FFF749FB049805B0F0BD502080F3F5
:104A40001188BFF34F8FBFF36F8FFEE7502080F3C5
:104A50001188BFF34F8FBFF36F8FFEE70148C06827
:104A600070470000180000202DE9F0412F4C00266F
:104A7000206B28B1A069401CA0613046BDE8F081E0
:104A8000E5686D1CE56013D1606B006838B150209B
:104A900080F31188BFF34F8FBFF36F8FFEE7606B1A
:104AA000A16B6163A063206A401C2062FFF756FC83
:104AB000A06ADFF87C80854209D3606B0068A0B1F2
:104AC000606BC068C7687868854211D2A0622068B0
:104AD000C06A00EB800158F82100012800D90126A6
:104AE000E0690028C9D00126C7E74FF0FF30EDE7A5
:104AF000381DFFF712FDB86A18B107F11800FFF76B
:104B00000CFDF96A0120226988401043206101EB05
:104B1000810108EB8100391DFFF742FDF86A216829
:104B2000C96A8842C9D30126C7E7000018000020DF
:104B30003C0500202DE9F0472C4D00242746286B2A
:104B400038B1FFF739FD286B401E2863286B40B150
:104B500046E0502080F31188BFF34F8FBFF36F8F73
:104B6000FEE7A968224E0120D1B3A6F1B409804620
:104B70003068E8B1F068C46804F11800FFF7CDFCB4
:104B8000201DFFF7CAFCE06A2A6908FA00F1114308
:104B9000296100EB800109EB8100211DFFF700FD79
:104BA000E06A2968C96A8842E2D3C5F81C80DFE759
:104BB0000CB1FFF7D3FBAC6944B14646FFF754FF95
:104BC00000B1EE61641EF9D10020A861E86938B136
:104BD0000849012738070860BFF34F8FBFF36F8F75
:104BE000FFF70AFD3846BDE8F087000018000020F6
:104BF000F005002004ED00E081F00041704780F0F6
:104C00000040704721F00041704720F0004070479D
:104C100021F00042A2F16052B2F5801F01F0004382
:104C200028BFD2F17F6C0BD95FEA001C43EAC202B5
:104C300042EB507018BF704728BF20F0010070474A
:104C4000B2F5801FBCBF184670474FEA410C1CF5F7
:104C5000001F02D2084600F015BE70B500F050FBF0
:104C600000000089FFF7F6BF4FF00040A0F580007C
:104C70007047000010B591EA030F48BF83F000436E
:104C800000F1A884841A71EB030C05D2121943EBCE
:104C90000C03001B61EB0C01DFF824E14FEA115417
:104CA000A4EB135C1EEA430F18BF9EEA445F73D067
:104CB00023EA0E03DCF1200E21EA045143F48013B1
:104CC00032D322FA0CFE10EB0E0023FA0CFE41EB5D
:104CD0000E01CCF1200E03FA0EFE10EB0E0051F186
:104CE0000001B1F5801FCCF1200E32D201EB04514E
:104CF00012FA0EF2BDE8104058BF7047401C38BF92
:104D00005FEA420218BF7047002814BF20F001007C
:104D100041F100014FEA410313F5001F38BF70470E
:104D2000A1F1C04100F03ABB012A43EB0302ACF110
:104D3000200CDCF11F0E32BF4FF0000E23FA0CF3F3
:104D400010EB030041EB0451B4EB115FD0D0A1EBA9
:104D5000045101F5801149085FEA300001EB04516C
:104D60000ED350F1000038BF12FA0EFE08D1BDE894
:104D70001040C9E7401C38BF5FEA4202CAD1C3E70E
:104D8000BDE810404FEA410313F5001F38BF7047DC
:104D9000A1F1C04100F002BB9EEA445F08D011EAD5
:104DA0005E0FBDE8104004BF01F0004100207047D5
:104DB000BDE8104070B500F0A3FA00BF64FBBE3E32
:104DC0000000E0FF491058BFC1F140415B1058BFDF
:104DD000C3F140438B42EFF3008070472DE9C0419F
:104DE00030B4DFF8A0C23CEA111418BF3CEA131437
:104DF00000F0EC8081EA03051CEA111444EAD57442
:104E000018BF1CEA131500F0C780A4EB05044FF08F
:104E1000004545EAC12145EAC32341EA505143EA2E
:104E2000525304F17F74994204F500344FEAC020D4
:104E30004FEAC22208BF904200F09C804FEA1365FF
:104E40000FF24016765D4FEA134506FB05F7C7F1F2
:104E5000807706FB07F74FEAD737A7FB0368764250
:104E6000C8F58038A7FB06CE38BFA8F1010807FBBC
:104E700008E64FF0000EA6FB028CE6FB03CEDCF149
:104E8000000CCEF1004E38BFAEF1010EA6FB0C585F
:104E90004FF000074FF00005E6FB0E87A1FB08C6A8
:104EA000A0FB07CE16EB0E0645F10005E1FB0765FA
:104EB00015F1E04E7EBFA4F580345FEA46066D41F1
:104EC00016F1800745F100054FEA17274FEA0666FD
:104ED00047EA0567A6F1DE46B6F1805F4FEA152581
:104EE0001FD9384624F0010C05EBC471BCF1FE6FEC
:104EF00001EB0C1102D8F0BCBDE8008124425CBF7C
:104F000001F5801E9EEAC47F02D4F0BCBDE800819A
:104F1000244238D4F0BCA1F1C041BDE8004100F00A
:104F20003DBA4FEAD22242EA43524FEAD323A7FBCB
:104F300002864FEAD02040EA415007FB03661EEA92
:104F40000E0F4FEAD12105FB026658BFA6EB0056B3
:104F5000B6EB00564FEA520E4EEAC37E18EB0E0E29
:104F600056EB530EBDD518EB02085E417F1C55F180
:104F70000005B6E74FF480154FF000074FF000062C
:104F80004FF00008ADE7F0BC4FF0000001F1C04168
:104F900001F00041BDE8008111EA0C1F0CEA131575
:104FA00000D00CE013EA0C1F00F025804FF0000049
:104FB000F0BC81EA030101F00041BDE80081F0BCD2
:104FC000BDE8004181EA030100F0E8B9F0BCBDE8AA
:104FD000004170B500F094F9097EFC3E00F007B87E
:104FE00081EA03014FF0000001F00041704781EABF
:104FF000030100F0D3B9F0BCBDE800414FF0000060
:1050000021497047FFFDFBF9F7F5F4F2F0EEEDEB07
:10501000E9E8E6E4E3E1E0DEDDDBDAD8D7D5D4D3B6
:10502000D1D0CFCDCCCBCAC8C7C6C5C4C2C1C0BF02
:10503000BEBDBCBBBAB9B8B7B6B5B4B3B2B1B0AF08
:10504000AEADACABAAA9A8A8A7A6A5A4A3A3A2A1EC
:10505000A09F9F9E9D9C9C9B9A99999897979695A7
:1050600095949393929191908F8F8E8E8D8C8C8B43
:105070008B8A8989888887878685858484838382CB
:10508000828181800000FF070000F87F51EA030C55
:1050900017D41CF5801F58BFBCF5801F00F1068097
:1050A000994218BF704708BF9042704707D711F563
:1050B000801F58BF13F5801F19D499427047894249
:1050C00070471CF5801F08D5BCF5801FF7D58B42B3
:1050D00018BF704708BF824270474FF4001C1CEB9A
:1050E000410F38BF1CEB430F01D28B42704770B5A4
:1050F00000F006F9922449004FF000514FF0805320
:10510000FFF760BE10F0004248BF4042B0FA80F3A3
:1051100010FA03F10AD0C3F11D0303F580634FEACF
:10512000415002EB035202EBD12170474FF00000D7
:105130007047000051EA030C17D41CF5801F58BFBC
:10514000BCF5801F00F10680994218BF704708BF68
:105150009042704707D711F5801F58BF13F5801F85
:1051600019D499427047894270471CF5801F08D5B1
:10517000BCF5801FF7D58B4218BF704708BF82422D
:1051800070474FF4001C1CEB410F38BF1CEB430F62
:1051900001D28B42704770B500F0B2F892244900FA
:1051A0004FF000514FF08053FFF70CBEDFF848C1BD
:1051B00070B51CEA111E1EBF1CEA13159EEA0C0FE7
:1051C00095EA0C0F00F06F8081EA030423EA4C1388
:1051D0004EEAD47E21EA4C1141F4801143F480134D
:1051E000AE44A1FB024CA0FB0365AEF17F7E3619F5
:1051F00055EB0C05A1FB034C4CF10003A0FB021C7A
:1052000016EB0C06654153F10003094218BF46F046
:10521000010613F4007F0BD14FEA03314FEA05304A
:10522000340341EA155140EA16506FF003020AE0D8
:105230004FEAC3214FEAC520F40241EA555140EA42
:1052400056506FF0020202EB2E4201EB025585EA46
:10525000CE710AD05FEA440C18BF24F0004450F12C
:10526000000041F1000120EAD47040F2FE7C62456A
:1052700000D270BDA84214BF4FF080444FF04044AC
:10528000002E08BF0024BEF1806FA8BFA1F1C0416D
:10529000BDE8704080F282804FF0000001F1C04113
:1052A00001F0004170479EEA0C0F0CEA131518BF7D
:1052B00095EA0C0F06D04FF0000081EA030E0EF0C5
:1052C000004170BD00F01CF88900013E00F007B8F5
:1052D00000F009B84FEA430C5FEA5C5C08D081EA51
:1052E000030100F05BB84FEA410C5FEA5C5CF6D169
:1052F0004FF00000014970470000FF070000F87FF1
:105300000EF1020E2EF0030E5EF8046B364205D449
:10531000012A43EB030515F5001F12D8012841EBC4
:10532000010C1CF5001F0CD80ED14FEAD17C15F5ED
:10533000001F0CEB4C0C0CF1020C08BF4CEBD37CA7
:1053400004E04FF0080C01E04FEAD37C0CEB4C0575
:1053500026FA05F606F00706B6F1040C06D20EEBA7
:10536000860CBDE870404CF0010C6047DFE80CF0A3
:10537000090B02024FF000414FF00000A1F500219F
:1053800070BD19461046012851EB010418BFD4F531
:10539000001484BF002001F0004170BD0808A0F592
:1053A00000114FEA3101704753EA010C17D41CF584
:1053B000801F58BFBCF5801F00F106808B4218BFCC
:1053C000704708BF8242704707D713F5801F58BF48
:1053D00011F5801F19D48B4270479B4270471CF512
:1053E000801F08D5BCF5801FF7D5994218BF7047BC
:1053F00008BF904270474FF4001C1CEB430F38BFAE
:105400001CEB410F01D2994270470FB40CBC03BC96
:10541000FFF7C1BE91EA030F10B581F000413FF5DF
:1054200031AC83F0004300F0D5B800002DE9F04125
:1054300001F5801CBCF5001FC0F2A9804FEA115C89
:1054400021EA0C510CF1FD0C41F480115FEA5C0C77
:105450000CF5C07C01D34000494130A4890241EAE7
:10546000905187028E0E0A0CA45D04FB04F602FB29
:1054700006F6C6F14046A4FB0662F60D46EA422651
:1054800006FB06F4A4FB01235242C3F1404338BF9C
:105490005B1EA6FB02420024E6FB0324D20B42EA79
:1054A0004446A6FB0623A1FB02E2A3FB07E4E3FBC1
:1054B00061426442C2F1404E38BFAEF1010EA6FB1C
:1054C00004234FF00002E6FB0E32A2FB0346340039
:1054D000E2FB6264A1FB06E6A4FB07E8E4FB61686B
:1054E0007642C8F1405838BFA8F10108A2FB06E493
:1054F000A3FB08E5E2FB6854A1FB05E6A7FB04E873
:10550000E1FB648618F1200556F10006A809A8F110
:105510001B08B10908F03F08B8F10A0F40EA86609D
:105520001CD901EB0C51BDE8F08100BFFCF5EEE8A1
:10553000E2DDD8D3CFCBC7C3C0BDB9B6B4B1AEAC32
:10554000A9A7A5A3A19F9D9B9A9896959392908FAA
:105550008D8C8B898887868584838281A0FB0068F7
:1055600000FB01F208EB4208B8EB872807D5341896
:1055700058EB0104D5D5401C51F10001D1E7341A94
:1055800078EB0104CDD4401E71F10001C9E75FEA58
:105590004C0C5FEA9C5C0DD105D34FF0000001F08C
:1055A0000041BDE8F081BDE8F04170B5FFF7A8FE0D
:1055B0006DDBFFBEBDE8F0414FF0000000497047D1
:1055C0000000F87F10B591EA030F48BF83F0004355
:1055D0003FF558AB841A71EB030C07D212198CF00B
:1055E000004C43EB0C03001B61EB0C01DFF8A4E162
:1055F0004FEA1154A4EB135C1EEA430F18BF9EEA56
:10560000445F00F0B08023EA6E03524221EA045165
:10561000C3EB6E0338BF5B1EDCF1200E25D322FAEC
:105620000CFE10EB0E0043FA0CFE41EB0E01CCF128
:10563000200E03FA0EFE10EB0E0051F10001CCF12A
:10564000200E29D412FA0EF201EB0451BDE81040ED
:1056500058BF7047401C1CBFB2F1004F7047002874
:105660000CBF491C20F00100704712EB020E43EB07
:10567000030218BF4FF0010E4EEA4202ACF1200CBB
:10568000DCF11E0E54D943FA0CFE10EB0E0051F162
:10569000FF31CCF11E0ED5D50EF1010E12FA0EFE21
:1056A000404141EB010101EB445C5FEA5C5C10D9D5
:1056B00010EBDE7001EB045138BFBEF1004FBDE8C6
:1056C000104018BF704700280CBF491C20F0010093
:1056D000704730D24FEAD42C11F5001124F4006445
:1056E0001BD0B1FA81F20B3AA41AA41ED2F1200306
:1056F000914030FA03F31943904001EBCC71002C38
:1057000001EB0451BDE81040A8BF704701F1C04152
:105710004FF0000001F000417047B0FA80F310FA3A
:1057200003F100D110BDE41A173C4805C90AE4E7AB
:1057300001EB045110BD491001EB0451BDE81040CC
:105740004FEA300002E04FF0000170474A0008BF06
:105750000042F8D0B2F5001F28BF704701F00041A9
:105760004FF0000070479EEA445F07D011EA5E0FD9
:10577000BDE8104004BF002100207047BDE8104084
:1057800070B5FFF7BDFD00BF40DFF63E83F000417E
:10579000104670470000E0FF43004FEAD30C4FEA89
:1057A0003C0C43401FBF40070CF1605113F0FE4F0B
:1057B00070471CF0006F03D100200CF000417047CF
:1057C0000CF0004343EA507010B540EACC0000F002
:1057D0000EF800BF000000924FEA0001FFF7DEBDA7
:1057E0004FF000414FF00000A1F5002170470EF18D
:1057F000020E2EF0030E5EF8044B244204D44FEA4E
:105800004102B2F17F4F11D84FEA4003B3F17F4F0D
:105810000CD80ED14FEAD07CB2F17F4F0CEB4C0C80
:105820000CF1020C08BF4CEBD17C04E04FF0080CEB
:1058300001E04FEAD17C0CEB4C0324FA03F404F0B2
:105840000704B4F1040C06D20EEB840CBDE8104042
:105850004CF0010C6047DFE80CF0070802024FF043
:105860000040A0F5800010BD0846420018BFD2F1EC
:10587000807288BF00F0004010BD4FF04070E1EE34
:10588000100A7047FF2141EAD050C0057047000060
:10589000F0590008E12F000800000000000000009F
:1058A000800100000000000000000000FC5900081A
:1058B0009D110008020000000000000080000000B0
:1058C0000000000000000000000610160006101680
:1058D00000000000000000000102030406070809A0
:1058E00000000000010203046B806B036C001A04CB
:1058F0001B181C101D026A200000000000000000A0
:10590000555555555555C53F7D6FEB0312D6D4BF40
:105910005544880E55C1C93F3B8F68B52882A4BF46
:1059200088B20175E0EF493F09F7FD0DE13D023F07
:105930004B2D8A1C273A03C0C88A599CE52A00408F
:1059400059018D1B6C06E6BF82922EB1C5B8B33FDC
:105950004FBB610567ACDD3F182D4454FB21E93F87
:105960009BF681D20B73EF3F182D4454FB21F93F76
:10597000E2652F227F2B7A3C075C143326A6813CFC
:10598000BDCBF07A8807703C075C143326A6913CA7
:10599000C4EB98999999C9BF711623FEC671BCBF13
:1059A0006D9A74AFF2B0B3BF9AFDDE522DDEADBF7B
:1059B0002F6C6A2C44B4A2BF0D5555555555D53F93
:1059C000FF8300922449C23F6E204CC5CD45B73FAE
:1059D000513DD0A0660DB13FEB0D76244B7BA93F26
:1059E00011DA22E33AAD903F000000000000000011
:1059F0005461736B5F494D55000000005461736B37
:105A00005F496E6974000000285A000800000020F9
:105A100014010000E80100083C5B000814010020AC
:105A2000944800000402000800000000000000008C
:105A30000100000010000000000000000024F4003D
:105A40000000000000000000000000000000000056
:105A50000000000000000000000000000000000046
:105A60000000000000000000000000000000000036
:105A70000000000000000000000000000000000026
:105A80000000000000000000000000000000000016
:105A90000000000000000000000000000000000006
:105AA000AAAAAAAA00000000F910000835110008EF
:105AB0003110000801290008E1280008D728000853
:105AC000630E0008B10C000885050008F9090008FC
:105AD000D10E0008910B0008010F00080000000023
