:020000040800F2
:10000000600800204D020008CB1F0008D11B00082B
:10001000C91F000843040008AD25000800000000C7
:10002000000000000000000000000000CF1F0008DA
:10003000E905000800000000CD1F0008D11F0008DE
:1000400067020008670200086702000867020008EC
:1000500067020008670200086702000867020008DC
:1000600067020008670200086702000867020008CC
:1000700067020008670200086702000867020008BC
:1000800067020008670200086702000867020008AC
:10009000670200086702000867020008670200089C
:1000A0006702000885200008670200086702000850
:1000B000670200086702000867020008670200087C
:1000C000670200086702000867020008670200086C
:1000D000670200087125000867020008670200082F
:1000E000670200086702000867020008670200084C
:1000F000670200086702000867020008670200083C
:10010000670200086702000867020008670200082B
:10011000670200086702000867020008670200081B
:10012000670200086702000845040008670200082B
:1001300067020008670200086702000867020008FB
:1001400067020008670200086702000867020008EB
:10015000670200086702000867020008A12500087E
:1001600067020008670200086702000867020008CB
:10017000670200086702000867020008000000002C
:1001800067020008670200086702000867020008AB
:10019000670200086702000867020008670200089B
:1001A00000000000000000006702000800F002F8F4
:1001B00000F03CF80AA090E8000C82448344AAF1C5
:1001C0000107DA4501D100F031F8AFF2090EBAE8C3
:1001D0000F0013F0010F18BFFB1A43F0010318477B
:1001E0004824000068240000103A24BF78C878C171
:1001F000FAD8520724BF30C830C144BF04680C602D
:10020000704700000023002400250026103A28BF74
:1002100078C1FBD8520728BF30C148BF0B60704778
:100220001FB502F0EBF91FBD10B510BD00F0CFF8FF
:100230001146FFF7F5FF02F0CBF900F0EDF803B43B
:10024000FFF7F2FF03BC00F0F5F800000948804713
:1002500009480047FEE7FEE7FEE7FEE7FEE7FEE7A8
:10026000FEE7FEE7FEE7FEE704480549054A064BC0
:100270007047000075200008AD01000860020020F2
:1002800060080020600400206004002053EA020C93
:1002900000F069802DE9F04B4FF00006002B1FBFE6
:1002A000B3FA83F503FA05F424FA05F65E4012BFAB
:1002B0001643B2FA82F502FA05F4C5F120051EBF15
:1002C00022FA05FC44EA0C04203556EA044C4FEAB5
:1002D000144418BF641C4FF000084FF0000990420E
:1002E00071EB030C39D3002919BFB1FA81F701FA78
:1002F00007F6B0FA80F700FA07F6C7F120071EBF2D
:1003000020FA07FC46EA0C062037B6FBF4FCA7EB04
:100310000507103F07F01F0BCBF120060CFA0BFB73
:100320002CFA06F644BFB3460026202FA4BF5E4633
:100330004FF0000B5BEA060C08BF4FF0010B19EB06
:100340000B09ABFB027C48EB0608C01B06FB02CC8A
:100350000BFB03CC71EB0C01C1E70B460246414697
:100360004846BDE8F08B13B54FF000004FF0000198
:10037000AFF30080BDE81C4070474FF0000200B5AD
:10038000134694469646203922BFA0E80C50A0E8B8
:100390000C50B1F12001BFF4F7AF090728BFA0E866
:1003A0000C5048BF0CC05DF804EB890028BF40F832
:1003B000042B08BF704748BF20F8022B11F0804F74
:1003C00018BF00F8012B704770477047704775469B
:1003D00000F02CF8AE4605006946534620F00700B1
:1003E000854618B020B5FFF73FFFBDE820404FF02D
:1003F00000064FF000074FF000084FF0000B21F00F
:100400000701AC46ACE8C009ACE8C009ACE8C009DB
:10041000ACE8C0098D46704710B50446AFF30080C4
:100420002046BDE81040FFF70ABF000000487047B3
:10043000FC01002001491820ABBEFEE726000200A7
:100440007047FEE7014800F02DB9000028010020A8
:1004500001681823CAB2103AB2FBF3F2054B6FF3EE
:100460000901032A9B5CC36500D9091D8165084603
:10047000704700000626000810B5014600208B6971
:100480008A6A4FF0C07453B1B3F5005F15D072B1F2
:10049000012A0CD0022A0AD0032A09D104E01AB199
:1004A000012A06D0022A03D1C96AC90100D5012058
:1004B00010BDC96AA142FAD010BD002AF7D0012AA6
:1004C000F2D0022AF3D0032AF3D010BDF0B40028F2
:1004D00068D08178C278890941EA8201027941EACB
:1004E0008221C1F30A063049A6F580668E8402791E
:1004F0004379520842EAC312C2F30A05A5F58065A2
:10050000CD840288C2F30A04A4F580640C85427885
:100510008378D20842EA4312C2F30A03A3F5806348
:100520004B85028AC2F30A02A2F58062CA85477926
:10053000BF0981F82C704779C7F3011781F82D7036
:10054000C78800EE107AB8EE400A81ED060A0789E6
:1005500000EE107AB8EE400A81ED070A077B07B17A
:10056000012781F82070477B07B1012781F82170AE
:10057000C089088600201436282E00D888841435B7
:10058000282D00D8C8841434282C00D808851433AA
:10059000282B00D848851432282A00D8C885F0BCFA
:1005A00001F028BBF0BC70478801002010B504465C
:1005B000806B0068016821F001010160A06B006898
:1005C0004068042802D10748FFF780FFA16B16207E
:1005D00009684860A06B0068016841F00101016092
:1005E00010BD000088010020704772B6FEE72DE9BB
:1005F000F0410446876D00F0A9FA064694F83500EC
:100600000025022806D08020606584F8345001203F
:10061000BDE8F0812068016821F0160101602068C2
:10062000416921F080014161206C08B9A06C20B1C2
:100630002068016821F0080101602068016821F04C
:10064000010101600CE000F081FA801B052807D948
:1006500020206065032084F8350084F83450D7E703
:1006600020680068C007EED194F85C103F208840F5
:10067000B860012084F8350084F834500020C7E7C2
:1006800090F83510022903D0802141650120704780
:10069000052180F835100068016821F00101016032
:1006A000002070472DE9F84304464FF00009CDF8CB
:1006B000009063484FF41651A56D0068B0FBF1F748
:1006C0002E6894F85C10082000FA01F131420FD036
:1006D00021680A6852070BD50A6822F004020A60F2
:1006E00094F85C108840A860606D40F0010060657F
:1006F00094F85C104FF0010808FA01F0304208D07D
:1007000021684969090604D5A860606D40F00200BF
:10071000606594F85C1004208840304208D021685D
:100720000968890704D5A860606D40F00400606521
:1007300094F85C1010208840304218D02168096875
:10074000090714D5A86020680168490304D500682A
:10075000000308D5A16C07E00168C90503D401684E
:1007600021F008010160216C09B12046884794F806
:100770005C1020208840304231D021680968C906C9
:100780002DD5A86094F8350005282068016806D0AA
:10079000490347D5006800031DD4616C1CE021F0BB
:1007A000160101602068416921F080014161206CDF
:1007B00008B9A06C20B12068016821F0080101602F
:1007C00094F85C103F208840A86084F8358084F855
:1007D0003490216D1FE0E16B09B120468847606DC0
:1007E00000282BD0606DC00714D0052084F8350098
:1007F0002068016821F0010101600098401C009010
:10080000B84203D820680068C007F6D184F8358064
:1008100084F83490E16C002910D001B02046BDE886
:10082000F04308470168C905D5D4016821F01001DB
:10083000016084F8358084F83490CCE7BDE8F88313
:100840000C0000202DE9F041044600F07FF9064637
:100850005CB1022084F83500002584F8345020680B
:10086000016821F0010101600DE00120BDE8F08187
:1008700000F06CF9801B052805D920206065032055
:1008800084F83500F2E720680068C007F0D12268DC
:10089000116820480140D4E901031843D4E9033624
:1008A0003343184363691843A3691843E369184342
:1008B000236A18430843616A042903D1D4E90B135E
:1008C00019430843106020684069666A20F00701F8
:1008D00030460E43012704280CD1A06A0643E06A83
:1008E00040B12046FFF7C8FD20B14020606584F884
:1008F0003570BAE7206846612046FFF7A9FD94F8F5
:100900005C203F2191408160656584F8357000204E
:10091000ACE700003F8010F02DE9F84FDFF8F8A1B8
:10092000002201240AF1040B03254FF00F090BF1FB
:10093000040E00BF0B6804FA02F63340B34270D1D4
:100940000F7907F00307012F01D0022F16D1876816
:100950004FEA420805FA08FC27EA0C07D1F80CC058
:100960000CFA08FC4CEA070CC0F808C04768B7430B
:100970000E79C6F3001696403E4346600E79F64364
:10098000B6070AD0C7684FEA420C05FA0CF6B7431F
:100990008E6806FA0CF63E43C6600E7906F0030632
:1009A000022E10D1D60800EB8608D8F82060570731
:1009B0004FEAD76C09FA0CF7BE430F6907FA0CF738
:1009C0003743C8F8207006684FEA420C05FA0CF766
:1009D000BE430F7907F0030707FA0CF737430760A8
:1009E0004E6816F4403F1CD04C4E376847F48047A1
:1009F0003760366822F0030706F480460096484EBA
:100A000007EB060CDCF8086897073F0F09FA07F8B0
:100A100026EA0806DFF80C81404503D14FF00008B4
:100A200041E072E0DFF80081404502D14FF001085B
:100A300039E0DFF8F880404502D14FF0020832E09B
:100A4000DFF8EC80404502D14FF003082BE0DFF8DF
:100A5000E480404502D14FF0040824E0DFF8D8805C
:100A6000404502D14FF005081DE0DFF8D080404539
:100A700002D14FF0060816E0DFF8C480404502D1ED
:100A80004FF007080FE0DFF8BC80404502D14FF07F
:100A9000080808E0DFF8B080404502D14FF00908AF
:100AA00001E04FF00A0808FA07F848EA0608CCF80F
:100AB0000888DAF800605746D1F804C09E435FEA20
:100AC000CC3C00D51E433E60DBF800605F46D1F8A9
:100AD00004C09E435FEA8C3C00D51E433E60DEF8B6
:100AE00000607746D1F804C09E435FEACC2C00D565
:100AF0001E433E60084F0C373E68D1F804C09E4349
:100B00005FEA8C2C00D51E433E60521C102AFFF475
:100B100011AFBDE8F88F0000003C014044380240AE
:100B20000030014000000240000402400008024082
:100B3000000C024000100240001402400018024065
:100B4000001C02400020024000240240014880684E
:100B500070470000000000200248816802781144BC
:100B600081607047000000200B4810B5016841F417
:100B700000710160016841F480610160016841F425
:100B800080710160032000F06FF80F2000F006F87C
:100B900000F024F8002010BD003C024070B50D4D5F
:100BA00004464FF47A712878B1FBF0F00A490968DD
:100BB000B1FBF0F000F044FB48B9102C07D2002242
:100BC0002146501E00F030F800206C6070BD0120FE
:100BD00070BD0000000000200C0000200A4808B58D
:100BE000016841F480410160006800F48040009099
:100BF0000548001F016841F080510160006800F065
:100C00008050009008BD000044380240002809DBF5
:100C100000F01F02012191404009800000F1E02016
:100C2000C0F8001170470000F0B40E4B1B680C4672
:100C3000C3F30223C3F10705042D00D90425191DB0
:100C4000072901D2002300E0DB1E012606FA05F188
:100C5000491E214099409E40761E16403143F0BC0B
:100C600001F0A5BC0CED00E0064900F007020868A1
:100C70004FF6FF03184040EA0220034A1043086081
:100C8000704700000CED00E00000FA052DE9F84384
:100C90001748016841F0805101600068154F00F06D
:100CA0008050012600903E64FFF750FF05464FF448
:100CB0007A78114C05E000BFFFF748FF401B404524
:100CC0000DD86068C003F7D57E64FFF73FFF054687
:100CD000464607E0FFF73AFF401BB04202D9032027
:100CE000BDE8F88360688003F4D50020F8E70000D1
:100CF0004038024000000E42007000402DE9F047ED
:100D00000E46050065D0DFF81481D8F80000F7B270
:100D100000F00F00B04207D288F80070D8F8000049
:100D200000F00F00B04254D128683D4C810712D525
:100D3000400703D5206840F4E05020602878000781
:100D400003D5206840F4604020602068A96820F046
:100D5000F000084320602878C0072DD0304968682B
:100D60000839012812D0022813D0032811D00968AD
:100D7000890700292DDA216821F003010143216050
:100D8000FFF7E4FE814641F2883A0EE009688903E4
:100D9000EFE709688901ECE7FFF7D8FEA0EB09014E
:100DA000514502D90320BDE8F0872068696800F04A
:100DB0000C00B0EB810FEFD1D8F80010404601F0E5
:100DC0000F01B14207D90770006800F00F00B04270
:100DD00001D00120E7E72878400705D52068E968B9
:100DE00020F4E050084320602878000706D52068EA
:100DF000296920F4604040EAC100206000F038F822
:100E00002168084AC1F30311515CC84006490860D3
:100E100006480068FFF7C2FE0020C4E7003C02401D
:100E2000083802400E2600080C00002004000020B4
:100E30000448054900680968044AC1F38221515CED
:100E4000C84070470C000020083802401E260008E9
:100E50000448054900680968044AC1F34231515CFD
:100E6000C84070470C000020083802401E260008C9
:100E7000154810B5006810F00C02144813D014493E
:100E8000042A0FD0082A0ED10F4C241F2268236891
:100E900002F03F025B0207D52068C0F38810A0FB78
:100EA000010106E0084610BD2168C1F38811A1FBCD
:100EB00000010023FFF7EAF92168C1F30141491C51
:100EC0004900B0FBF1F010BD083802400024F400E6
:100ED000001BB7002DE9F84F04006ED02078DFF832
:100EE0004C93C007A9F104054AD009F10400016838
:100EF000C1F38101012908D00068C0F381000228F4
:100F00000AD1D9F80000400206D52868800337D5F9
:100F100060680028E1D033E06068B0F5803F10D011
:100F2000B0F5A02F286810D020F480302860286801
:100F300020F4802028606068A8B1FFF707FE06460D
:100F40000DE0286840F48030F4E740F48020286009
:100F5000F7E700BFFFF7FAFD801B642873D8286805
:100F60008003F7D50CE0FFF7F1FD064605E000BF72
:100F7000FFF7ECFD801B6428F0D828688003F7D4C5
:100F80002078DFF8AC8280074FF0000A3ED5A748F2
:100F9000001D016811F00C0F08D00068C0F381003B
:100FA00002280BD1D9F80000400207D42868800736
:100FB00016D5E068012800D112E033E1E068B8B14D
:100FC0000120C8F80000FFF7C1FD064605E000BF9C
:100FD000FFF7BCFD801B0228C0D828688007F7D522
:100FE0002868216920F0F80040EAC10028600DE07F
:100FF000C8F800A0FFF7AAFD064604E0FFF7A6FD2B
:10100000801B02281FD828688007F7D420780007A3
:1010100022D5864F87486169703771B1012101601F
:10102000FFF794FD064604E0FFF790FD801B0228C1
:1010300009D838688007F7D50EE0C0F800A0FFF7A0
:1010400085FD064605E082E0FFF780FD801B022853
:101050007DD838688007F7D42078400768D5DFF856
:10106000CCB100270BF13C0BDBF80000C0000BD427
:10107000DBF8001041F08051CBF80010DBF80000E5
:10108000012700F0805000906B4E3068C00510D4EE
:10109000306840F480703060FFF758FD009005E044
:1010A000FFF754FD0099401A022850D83068C00557
:1010B000F6D55E4EA0686C3601280FD00528306842
:1010C00010D020F001003060306820F00400306063
:1010D000A068B8B1FFF73AFD00900FE0306840F02B
:1010E0000100F4E740F004003060F7E7FFF72EFD61
:1010F0000099411A41F28830814266D830688007F1
:10110000F4D50EE0FFF722FD009007E0FFF71EFD8B
:101110000099411A41F28830814256D830688007E0
:10112000F4D42FB1DBF8001021F08051CBF800107F
:10113000A069C8B33D49091D0968C1F381010229AD
:101140004AD00228504607D0C8F8600000E03CE0D2
:10115000FFF7FCFC04463BE04746C8F86000FFF799
:10116000F5FC064605E000BFFFF7F0FC801B0228F7
:101170002BD828688001F7D4D4E907010843A16A75
:101180002E4A490802EB0141626A41EA8211084392
:1011900094F82C1040EA0161C9F80010012038666B
:1011A000FFF7D4FC044606E03EE000BFFFF7CEFCAC
:1011B000001B022809D828688001F7D534E000BF59
:1011C000FFF7C4FC001B022802D90320BDE8F88FFA
:1011D00028688001F4D427E00128F7D0D9F800006E
:1011E000E26900F4800191421CD1226A00F03F01C3
:1011F000914217D147F6C071626A0140B1EB821F7C
:1012000010D1A26A4FF0FF3300F4403103EB5202D9
:10121000B1EB024F06D194F82C1000F07060B0EBE7
:10122000016F01D00120D1E70020CFE70438024050
:1012300000004742800E4742007000400000FFFF60
:1012400010B5401EB0F1807F01D3012010BD4FF0DA
:10125000E02460610F21601701F0A9F90020A0616E
:1012600007202061002010BD7047704770B590F8CE
:101270003C20012A32D0012480F83C40022280F830
:101280003D2003685A689D6822F070060A68324360
:101290005A60134B02689A4214D0B2F1804F11D0B9
:1012A000104B9A420ED0104B9A420BD00F4B9A42E1
:1012B00008D00F4B9A4205D00E4B9A4202D00E4BEB
:1012C0009A4204D1496825F080031943916080F85F
:1012D0003D40002180F83C10084670BD022070BDE2
:1012E000000001400004004000080040000C0040E5
:1012F00000040140004001400018004010B5040007
:1013000003D094F83D0010B107E0012010BD00208B
:1013100084F83C00204600F01FF8022084F83D00CD
:10132000211D206800F0B4FE012084F8460084F8F6
:101330003E0084F83F0084F8400084F8410084F8BF
:10134000420084F8430084F8440084F8450084F89F
:101350003D00002010BD000008B50068114988421A
:1013600012D11148016841F00101016000680022BA
:1013700000F00100009011461920FFF755FCBDE870
:1013800008401920FFF742BC0849884209D10648A5
:10139000001F016841F040010160006800F040005A
:1013A000009008BD00000140443802400018004091
:1013B00090F83D10012901D001207047022180F8EA
:1013C0003D100168CA6842F00102CA600068114914
:1013D000884214D0B0F1804F11D00F4988420ED00E
:1013E0000E4988420BD00E49884208D00D498842E8
:1013F00005D00D49884202D00C49884204D1816849
:1014000001F00701062903D0016841F001010160E4
:101410000020704700000140000400400008004028
:10142000000C004000040140004001400018004052
:1014300070B5044690F83C000025012817D001261D
:1014400084F83C60022084F83D002068826822F025
:10145000770222F47F4282600868502838D00DDC81
:1014600020284FD005DC90B3102811D14AE002208B
:1014700070BD302846D040280AD13BE060282FD0EC
:1014800070280DD0B0F5805F03D0B0F5005F12D0AA
:10149000012584F83D60002084F83C00284670BD9A
:1014A000CB68D1E90121206800F056FE20688168F0
:1014B00041F0770109E0CB68D1E90121206800F013
:1014C0004BFE2068816841F480418160E1E719E0CA
:1014D000CA684968206800F013FF5021206806E0C0
:1014E000CA684968206800F01CFF6021206800F08D
:1014F0003DFECEE7CA684968206800F001FF402140
:101500002068F4E7226801461046F0E7704770B59E
:101510000446006801694FF00005C943890715D4E6
:10152000C168C943890711D4E91E016101202077F0
:10153000206880698007204602D0FFF7E7FF04E0BB
:1015400000F0C2F8204600F054F9257720680169C0
:10155000C943490717D4C168C943490713D46FF079
:1015600004010161022020772068806910F4407F27
:10157000204602D0FFF7CAFF04E000F0A5F820469D
:1015800000F037F9257720680169C943090716D4A7
:10159000C168C943090712D46FF008010161042032
:1015A00020772068C0698007204602D0FFF7AEFF91
:1015B00004E000F089F8204600F01BF92577206848
:1015C0000169C943C90617D4C168C943C90613D400
:1015D0006FF010010161082020772068C06910F4C5
:1015E000407F204602D0FFF791FF04E000F06CF846
:1015F000204600F0FEF8257720680169C943C90735
:1016000008D1C168C943C90704D1891E01612046B8
:1016100000F0F0F820680169C943090609D4C168DF
:10162000C943090605D46FF0800101612046FFF728
:101630001BFE20680169C943490609D4C168C94332
:10164000490605D46FF040010161204600F0D3F84F
:1016500020680169C94389060BD4C168C94389065A
:1016600007D46FF0200101612046BDE87040FFF70C
:10167000FCBD70BD10B586B0044614216846FEF767
:101680007CFE0E492068884215D10D480021026871
:1016900042F080020260006800F080000590402067
:1016A00000900220CDE901010920CDE9031069462F
:1016B0000448FFF731F906B010BD000000180040E3
:1016C00030380240001C0240704770B5044690F864
:1016D0003C0000260D4601280FD0012084F83C0074
:1016E0006AB1042A1DD0082A2FD00C2A3FD0012627
:1016F000002084F83C00304670BD022070BD206898
:1017000000F03CFD2068816941F00801816120689A
:10171000816921F004018161206881692A6911438E
:1017200011E0206800F05AFD2068816941F40061F1
:1017300081612068816921F480618161206881690B
:101740002A6941EA02218161D2E7206800F07CFD2C
:101750002068C16941F00801C1612068C16921F0B8
:101760000401C1612068C1692A69114311E0206840
:1017700000F09EFD2068C16941F40061C1612068EC
:10178000C16921F48061C1612068C1692A6941EAA7
:101790000221C161ACE710B5040003D094F83D000C
:1017A00010B107E0012010BD002084F83C00204665
:1017B00000F01EF8022084F83D00211D206800F092
:1017C00067FC012084F8460084F83E0084F83F005E
:1017D00084F8400084F8410084F8420084F8430013
:1017E00084F8440084F8450084F83D00002010BDD2
:1017F000704770477047704770477047F8B5016889
:1018000004460868CA684B6910F00F0F4FF00005D6
:1018100059D003F0010602F49077374365D0C10731
:1018200005D0D10503D5216C41F0010121644107A8
:1018300005D5D90703D0216C41F00201216481074D
:1018400005D5D90703D0216C41F0040121640107BB
:1018500007D502F02001314303D0216C41F008018B
:101860002164216C00293AD0800604D5900602D567
:10187000204600F097FD20684069216CC0F380107D
:10188000090700D460B3204600F065FD2068406978
:10189000400621D52068143050E8001F21F0400197
:1018A00040E80012002AF5D1A06BA8B16C4901658F
:1018B000A06BFEF7E5FE002811D0A06B016D01B012
:1018C000BDE8F040084783060FD593060DD52046A6
:1018D000BDE8F84000F066BD2046FFF78EFFF8BD7A
:1018E0002046FFF78AFF2564F8BD266B2023012ED2
:1018F00079D1C60677D5D60675D5086848680090B0
:101900004869400640D5A16B086840680004000C97
:10191000EAD0A28D8242E7D9E085C869B0F5807F20
:101920002DD020680C3050E8001F21F4807140E871
:101930000012002AF5D12068143050E8001F21F071
:10194000010140E80012002AF5D12068143050E867
:10195000001F21F0400140E80012002AF5D184F870
:101960003E30256320680C3050E8001F21F0100144
:1019700040E80012002AF5D1A06BFEF738FEA08DDA
:10198000E18D401A81B229E0A08DE18D401A81B22B
:10199000E08D0028A8D00029A6D020680C3050E89F
:1019A000002F22F4907240E80026002EF5D1206826
:1019B000143050E8002F22F0010240E80026002EEB
:1019C000F5D184F83E30256320680C3050E8002FB4
:1019D00022F0100240E80023002BF5D12046FFF74B
:1019E0000BFFF8BDFFE705062BD5150629D594F8A2
:1019F0003D002128F5D1A068B0F5805F01D12069B4
:101A0000B0B1206A411C2162216800784860E08CF6
:101A1000401E0004000CE084E3D12068C16821F07E
:101A20008001C1602068C16841F04001C160D8E711
:101A3000206A0088C0F308004860206A801C206289
:101A4000E5E74006CDD55006CBD5CA68204622F042
:101A50004002CA6084F83D3000F0B9F8C1E70000E8
:101A60004723000870B5040004D094F83D00002519
:101A700010B106E0012070BD84F83C50204600F013
:101A800023F8242084F83D002068C16821F4005127
:101A9000C160204600F0E6FC2068016921F4904115
:101AA00001612068416921F02A0141612068C16813
:101AB00041F40051C1602564202084F83D0084F881
:101AC0003E00002070BD0000F0B587B0064614212E
:101AD0006846FEF752FC3749354F346800253548D3
:101AE000143902220323BC423AD1046844F01004A2
:101AF0000460006800F010000590086840F00200E3
:101B000008600868694600F002000590C0208DE872
:101B100025000720CDE903302748FEF7FDFE284CBD
:101B2000264820604FF00060C4E901054014C4E974
:101B3000035080106561C4E906504FF44030C4E999
:101B400008052046FEF77EFE08B1FEF74EFDB463A1
:101B5000002211462520A663FFF766F8252023E022
:101B6000184EB44222D1046844F020040460006896
:101B700000F020000590086840F040000860086808
:101B8000694600F0400005904FF484408DE8250040
:101B90000820CDE903300C48FEF7BEFE00221146B6
:101BA0004720FFF741F84720FFF730F807B0F0BDB6
:101BB00000100140443802400004024040640240EA
:101BC00028010020001401400018024070477047AF
:101BD000FEE7010C491CC9B24A1E61F31740132AE3
:101BE00001D8C0B27047142902D9C0F3072070474A
:101BF000002070477D4B10B5188E0024012878D046
:101C000083F8354083F83440188E022878D083F862
:101C1000394083F83840188E04287AD083F83D4044
:101C200083F83C40188E08287AD083F8414083F826
:101C30004040188E10287DD083F8454083F84440FA
:101C4000188E20287DD083F8494083F84840188EAC
:101C500040287DD083F84D4083F84C40188E802872
:101C600067D083F8514083F85040188EB0F5807FDC
:101C70007FD083F8554083F85440188EB0F5007F2C
:101C80007ED083F8594083F85840188EB0F5806FA5
:101C900067D083F85D4083F85C40188EB0F5006F24
:101CA0007FD083F8614083F86040188EB0F5805F84
:101CB0007ED083F8654083F86440188EB0F5005FED
:101CC0007FD083F8694083F86840188EB0F5804F64
:101CD0007ED083F86D4083F86C40188EB0F5004FCD
:101CE0007DD083F8714083F8704010BD01E007E0BB
:101CF0000FE0D3F83200FFF76CFF83F8350083E77D
:101D0000D3F83600FFF765FF83F8390083E707E073
:101D100010E0D3F83A00FFF75CFF83F83D0081E75D
:101D2000D3F83E00FFF755FF83F8410081E708E054
:101D30000EE017E0D3F84200FFF74BFF83F84500B1
:101D40007EE7D3F84600FFF744FF83F849007EE7BB
:101D5000D3F84A00FFF73DFF83F84D007EE708E027
:101D60000EE017E0D3F84E00FFF733FF83F8510081
:101D70007BE7D3F85200FFF72CFF83F855007CE790
:101D8000D3F85600FFF725FF83F859007DE708E0F8
:101D90000EE016E0D3F85A00FFF71BFF83F85D0052
:101DA0007BE7D3F85E00FFF714FF83F861007CE760
:101DB000D3F86200FFF70DFF83F865007DE707E0C9
:101DC0000DE0D3F86600FFF704FF83F869007CE7B5
:101DD000D3F86A00FFF7FDFE83F86D007DE753F846
:101DE0006E0FFFF7F6FED8707FE700008801002035
:101DF000094808B5016841F48001016000680022CB
:101E000000F48000009011463A20FEF70DFFBDE877
:101E100008403A20FEF7FABE30380240114808B5B3
:101E2000016841F040010160016801F0400100914A
:101E3000016841F001010160016801F001010091B8
:101E4000016841F002010160016801F002010091A6
:101E5000016841F080010160006800F0800000909E
:101E600008BD00003038024010B58CB00024079443
:101E7000089409941C2168460A94FEF77EFA1948D2
:101E80001749C0E9001448F23421C0E90241046155
:101E90008461FFF733FA08B1FEF7A7FB4FF48050D7
:101EA000079007A90F48FFF7C3FA08B1FEF79DFB9B
:101EB0000C48FFF770FC08B1FEF797FB6020CDE9F6
:101EC000000402940022694606480494FFF7FDFBD3
:101ED00008B1FEF78AFB0348FFF7CCFB0CB010BD3E
:101EE000001800405800002010B586B000241848A3
:101EF000009401940294039404941449059401609D
:101F000044F24F61C0E9011441F28731C0E9031482
:101F100044618461FFF7F2F908B1FEF766FB4FF404
:101F20008050009069460A48FFF782FA08B1FEF730
:101F30005CFB049404A906480594FFF797F9002870
:101F400001D0FEF752FB06B010BD000000000140BA
:101F5000100000200C4810B50A4901600B4941608F
:101F6000002181600C22C160C0E904128161C1615D
:101F7000FFF778FD002803D0BDE81040FEF735BB21
:101F800010BD000000100140A0000020A08601004C
:101F90000C4810B50A4901604FF4E131416000215D
:101FA00081600C22C160C0E904128161C161FFF748
:101FB00059FD002803D0BDE81040FEF716BB10BD48
:101FC00000140140E4000020FEE7FEE77047704780
:101FD000FEF7C2BD30B593B030216846FEF7CDF9AB
:101FE00014210CA8FEF7C9F920480025016841F02A
:101FF00080510160006800F0805011901C48016819
:1020000041F4404101600068022400F44040119016
:1020100001200090000401908001CDE906400620D7
:102020000890B420CDE9090404200B906846FEF71F
:1020300051FF08B172B6FEE7FEF728FE08B172B68E
:10204000FEE70CA90F2081E831004FF4A0500F905B
:102050004FF48050109005210CA8FEF74FFE002889
:1020600001D072B6FEE713B030BD00004038024028
:10207000007000400248016841F47001016070473F
:1020800088ED00E00148FFF742BA00001000002090
:10209000F0B50268254C264D264E274F274B4FF0B2
:1020A000804CA04209D0604507D0A84205D0B0427C
:1020B00003D0B84201D0984204D122F0700E4A6891
:1020C00042EA0E02A0421BD0604519D0A84217D0A8
:1020D000B04215D0B84213D0984211D0184DA84242
:1020E0000ED0184DA8420BD0174DA84208D0174D5E
:1020F000A84205D0164DA84202D0164DA84203D1E1
:1021000022F44075CA682A434D6922F080022A43AE
:1021100002608A68C2620A688262A04201D0984264
:1021200001D10969016301214161F0BD0000014055
:102130000004004000080040000C00400004014082
:1021400000400140004401400048014000180040A8
:10215000001C00400020004010B5846842EA0322C1
:1021600024F47F440A432243826010BD826822F037
:1021700070020A4342F0070181607047F0B5026ABD
:1021800022F001020262036A42688469124E24F05E
:1021900073050C682C4323F002058B682B430D4D0F
:1021A000A84201D0B04205D123F00807CB683B43D9
:1021B00023F00403A84201D0B04205D14D6922F4B6
:1021C000407215438A692A434260846149684163C9
:1021D0000362F0BD0000014000040140F0B5026A56
:1021E00022F010020262026A436884690D6824F4D6
:1021F000E64444EA05248D6822F0200242EA0512F2
:102200000F4D104EA84201D0B04206D1CF6822F047
:10221000800242EA071222F04002A84201D0B042F6
:1022200007D14D6923F4406343EA85038D6943EA8E
:10223000850343608461496881630262F0BD0000E8
:102240000000014000040140F0B5026A22F48072EF
:102250000262026A4368C46922F4007224F07305C2
:102260000C68124E2C438D6842EA05220E4DA8429E
:1022700001D0B04206D1CF6822F4006242EA0722C0
:1022800022F48062A84201D0B04207D14D6923F404
:10229000405343EA05138D6943EA05134360C46163
:1022A0004968C1630262F0BD0000014000040140C2
:1022B00030B5026A22F480520262046A4268C3693D
:1022C0000D6823F4E64343EA05238D6824F40054A3
:1022D00044EA0534084DA84202D0084DA84204D172
:1022E0004D6922F4804242EA85124260C361496826
:1022F0000164046230BD00000000014000040140A0
:1023000010B5036A046A24F001040462846924F0AD
:10231000F00444EA021423F00A020A4384610262D0
:1023200010BD10B5036A23F0100303628369046AC9
:1023300023F4704343EA023224F0A00343EA01117C
:102340008261016210BD10B5806B0021C185C1841E
:10235000FFF753FA10BD01680C3151E8002F22F449
:10236000907241E80023002BF5D10168143151E847
:10237000002F22F0010241E80023002BF5D1016B70
:10238000012909D101680C3151E8002F22F0100217
:1023900041E80023002BF5D1202180F83E100021D8
:1023A0000163704708B590F83E10222901D0022041
:1023B00008BD82684FF480539A4201D1016921B16E
:1023C000816A9A421BD04AB10AE00268816A526867
:1023D000C2F308020A80816A891C08E0026972B1AE
:1023E0000268526802F07F020A70816A491C8162A9
:1023F000C18D491E0904090CC18503D019E002688A
:102400005268F1E70168CA6822F02002CA600168D8
:10241000CA6822F48072CA6001684A6922F0010227
:102420004A61202180F83E10016B012903D0FFF79B
:10243000CDFB002008BD0021016301680C3151E88B
:10244000002F22F0100241E80023002BF5D1016893
:102450000A68D20602D50A6849680091818DFFF7A3
:10246000CBF9E6E770B5044600680169E26821F43B
:102470004051114301612169A068E2690843616923
:10248000114308432168CA6849F20C639A43024326
:10249000CA6020684169A26921F440711143416119
:1024A00031492068884202D03049884202D1FEF783
:1024B000CFFC01E0FEF7BCFCE26900231921642592
:1024C0003226B2F5004F626828D0A0FB0101930FBD
:1024D0009200FDF7DBFE0146B0FBF5F06FF018024D
:1024E000504301EB800006EB0010B0FBF5F000F06C
:1024F000F002B1FBF5F002EB0012B1FBF5F06FF06A
:102500001803584301EB800006EB0010B0FBF5F018
:1025100000F00F0021681044886070BDA0FB01012D
:1025200092185B41FDF7B2FE0146B0FBF5F00201E7
:10253000B1FBF5F06FF01803584301EB800006EB98
:10254000C000B0FBF5F000F0F80002EB4002B1FB78
:10255000F5F0584301EB800006EBC000B0FBF5F04E
:1025600000F00700D6E70000001001400014014011
:1025700038B50A4C20680168C90609D5C068C0068C
:1025800006D52046FEF712F82068016840680090E2
:10259000BDE838400148FFF731B90000A000002035
:1025A0000148FFF72BB90000E4000020FEE709070F
:1025B000090E002804DB00F1E02080F800147047C9
:1025C00000F00F0000F1E02080F8141D70470000BB
:1025D000FEF7CAFAFFF7FEFCFFF720FCFFF784FCCA
:1025E000FFF706FCFFF7D4FCFFF73EFCFFF7B2FC59
:1025F0000148FEF7DDFEFEE7100000204FF04070BE
:10260000E1EE100A704700061016000610160000D2
:102610000000000000000102030406070809000092
:10262000000001020304000048260008000000200A
:1026300010000000E80100085826000810000020E3
:102640005008000004020008010000001000000013
:08265000000000000024F4006A
:04000005080001AD41
:00000001FF
