:020000040800F2
:10000000008E0020850200087B580008374B00084E
:1000100079580008650E0008E96900080000000032
:10002000000000000000000000000000C501000802
:10003000211C00080000000021020008DD6000080B
:100040009F0200089F0200089F0200089F0200080C
:100050009F0200089F0200089F0200089F020008FC
:100060009F0200089F0200089F0200089F020008EC
:100070000D1A00089F020008191A00089F020008C4
:100080009F0200089F0200089F0200089F020008CC
:10009000E91100089F0200089F0200089F02000863
:1000A0009F0200089F0200089F0200089F020008AC
:1000B0009F0200089F0200089F0200089F0200089C
:1000C0009F0200089F0200089F0200089F0200088C
:1000D0009F020008916900089F0200089F02000823
:1000E0009F0200089F0200089F0200089F0200086C
:1000F0009F0200089F0200089F0200089F0200085C
:100100009F0200089F0200089F0200089F0200084B
:100110009F0200089F020008AD6100089F020008CE
:100120009F020008251A0008271A00089F020008ED
:100130009F0200089F0200089F0200089F0200081B
:10014000B51200089F0200089F0200089F020008E5
:100150009F0200089F0200089F020008BD69000876
:100160009F0200089F0200089F0200089F020008EB
:100170009F0200089F0200089F0200080000000084
:100180009F0200089F0200089F0200089F020008CB
:100190009F0200089F0200089F0200089F020008BB
:1001A00000000000000000009F020008DFF810D0EF
:1001B00000F04EFB00480047A9830008AFF3008021
:1001C000008E00202C4B19680868B0E8F04F80F3CF
:1001D0000988BFF36F8F4FF0000080F311887047DC
:1001E0000000000008480068006880F308884FF0AD
:1001F000000080F3148862B661B6BFF34F8FBFF37F
:100200006F8F00DF00BF00BF08ED00E0DFF80C00DB
:10021000016841F470010160704700BF88ED00E0A3
:10022000EFF30980BFF36F8F134B1A681EF0100FA6
:1002300008BF20ED108A20E9F04F106009B44FF09C
:10024000010080F31188BFF34F8FBFF36F8F08F069
:10025000FFFD4FF0000080F3118809BC19680868A1
:10026000B0E8F04F1EF0100F08BFB0EC108A80F31A
:100270000988BFF36F8F704740000020EFF30580BF
:10028000704700000648804706480047FEE7FEE743
:10029000FEE7FEE7FEE7FEE7FEE7FEE7FEE7FEE736
:1002A0009D610008AD0100082DE9F05F05460020C2
:1002B00092469B4688460646814640241BE02846D7
:1002C00041464746224600F09BF953465A46C01A1B
:1002D000914110D311461846224600F082F92D1A9A
:1002E00067EB01084F4622460120002100F079F912
:1002F00017EB00094E41201EA4F10104DFDC484643
:1003000031462A464346BDE8F09F40EA01039B0779
:1003100003D009E008C9121F08C0042AFAD203E07A
:1003200011F8013B00F8013B521EF9D27047D2B2DE
:1003300001E000F8012B491EFBD270470022F6E7CE
:1003400010B513460A4604461946FFF7F0FF20464B
:1003500010BD2DE9FE4F804681EA0300C00F0C4618
:10036000009021F0004123F00045B8EB0200A941C4
:1003700005D24046214690461C460B46024623F0D5
:100380000040104347D0270DC7F30A00C3F30A51BA
:100390000290401A019040286BDAC3F3130040F436
:1003A000801B0098924620B10023D2EB030A63EB36
:1003B0000B0B01985946C0F14002504600F011F96C
:1003C00006460D4650465946019A00F029F910EBB1
:1003D00008006141002487EA115284EAE7731A4356
:1003E00040D0009A62B3019A012A4FEA075215DC05
:1003F000001B61EB02014FF0004202EA0752CDE917
:100400000042001C41F5801132462B4600F060F995
:1004100003B0BDE8F08F40462146F9E7001B61EBD1
:100420000201001C41F5801300185B412018A2F561
:10043000001747EB030140EAD570B6196D4111E092
:100440006D084FEA360645EAC0754FEA0752001BB1
:1004500061EB0201001C41F5801149084FEA3000B0
:100460000019514132462B4603B0BDE8F04F00F071
:1004700020B90098012240000023D0EB020263EB78
:10048000E073009821464FEAE074B8EB000061EB9E
:100490000401E9E783F000435BE781F0004158E79E
:1004A0002DE9FE4F81EA030404F0004421F00041ED
:1004B00000944FF0000B23F0004350EA01045ED09B
:1004C00052EA03045BD0C3F30A54C1F30A552C4427
:1004D000A4F2F3340194A0FB0254C1F3130141F4DC
:1004E0008011C3F3130343F4801301FB024400FBA8
:1004F000034E840A970A44EA815447EA8357A4FBCF
:10050000076802958D0A05FB07854FEA932C04FBCB
:100510000C542705029D4FEA065847EA1637B5EBFB
:1005200008056EEB070C870E920E47EA811742EA28
:100530008312A7FB0201B6EB0B0164EB00042B0D49
:1005400043EA0C335E1844EB1C50DA465146E7FB95
:100550000201C5F313044FEA0B3343EA14534FEA85
:100560000432019C43EA0603A4F10C040294009CAB
:10057000CDE900B400F0ACF803B0BDE8F08F002086
:100580000146F9E700F0004230F000400AD0C10D0A
:1005900001F56071C0F3160042EA0151C20840073C
:1005A0001143704700200146704701F0004330B40A
:1005B00021F0004150EA010206D00A0DA2F5607256
:1005C000C1F31301002A02DC30BC00207047440F45
:1005D00044EAC104C100E01830BC00EBC25000F096
:1005E00031B8202A04DB203A00FA02F100207047DB
:1005F0009140C2F1200320FA03F319439040704761
:10060000202A04DB203A21FA02F00021704721FA67
:1006100002F3D040C2F120029140084319467047CE
:10062000202A06DBCB17203A41FA02F043EAE073B6
:1006300006E041FA02F3D040C2F1200291400843A3
:10064000194670470029A8BF7047401C490008BFE1
:1006500020F00100704710B4B0FA80FC00FA0CF0F2
:1006600050EA010404BF10BC704749B1CCF120042A
:1006700021FA04F411FA0CF118BF012121430843B7
:10068000A3EB0C01CB1D4FEA00614FEA102042BFE3
:10069000002010BC704700EBC35010440029A4BFD9
:1006A00010BC7047401C490008BF20F0010010BC7E
:1006B000704710B5141E73F1000408DA401C41F1B4
:1006C000000192185B411A4301D120F0010010BDD6
:1006D0002DE9F04D92469B4611B1B1FA81F202E04C
:1006E000B0FA80F220329046FFF77BFF04460F46B7
:1006F00040EA0A0041EA0B0153465A46084313D028
:10070000114653EA010019D0C8F140025046FFF7E4
:1007100077FF05460E46504659464246FFF761FFB1
:10072000084305D0012004E020463946BDE8F08D9D
:100730000020054346EAE0762C4337430A986305D8
:10074000E40AA0EB08000022FD0A44EA47540A30FC
:1007500002D500200146E9E7010510196941DDE9EC
:10076000084500196941BDE8F04DA2E72DE9F04DBB
:1007700081EA030404F0004B21F0004514464FF0D9
:10078000000A23F0004150EA050220D054EA010299
:100790001DD0C5F30A570246C5F31303C1F3130076
:1007A000C1F30A5640F4801543F48013A7EB060802
:1007B000101BD64608F2FD3873EB050002D308F192
:1007C000010801E092185B41B8F1000F03DA002044
:1007D0000146BDE8F08D00204FF4801106468446A6
:1007E0000EE0171B73EB050705D3121B63EB050324
:1007F00006434CEA010C49084FEA300092185B416D
:1008000050EA0107EDD152EA030012D082EA040057
:1008100083EA0501084305D0101BAB4106D2012233
:10082000002306E000224FF0004302E06FF00102D7
:1008300053101AEB06004CEB085110EB0A0041EB89
:100840000B01BDE8F04DFFF734BF002070470000FA
:10085000064C074D06E0E06840F0010394E807000D
:1008600098471034AC42F6D3FFF7A4FC389F000839
:10087000589F00080EB5C10F80EAE0700844CA070F
:10088000002140F233438DE80E000A460B46FFF785
:100890001FFF03B000BD0EB540F2334102910021AD
:1008A000CDE900110A460B46FFF712FF03B000BD69
:1008B00070B5C1F30A5201F000450024C1F31301E1
:1008C00040F2FF3341F480119A4201DA002070BDFA
:1008D00040F233439A42A2F2334203DC5242FFF722
:1008E0008FFE00E090402C43F1D0404270BD70B5C7
:1008F0008C1810F8015B15F0070301D110F8013BCB
:100900002A1106D110F8012B03E010F8016B01F851
:10091000016B5B1EF9D12B0705D40023521E0DD4A9
:1009200001F8013BFAE710F8013BCB1A921C03E0F7
:1009300013F8015B01F8015B521EF9D5A142D8D32F
:10094000002070BD30B50C4605000CD0022C0AD931
:100950000548A11E0288284601F038FE291901F831
:10096000020D000A487030BDE42C002030B50C4662
:10097000050008D0022C06D9FF22611E01F03CFEC2
:10098000291901F8010C30BD10B5044604F14401E9
:10099000D0ED244A284891EC030A0C39D1EC031A13
:1009A000183191EC033A01F04BFA234801F050F969
:1009B00001F044FCD4ED181A2049C4ED1B1A84ED53
:1009C000181AC4ED190A84ED1A0AD4ED110AB1EE11
:1009D000080A80EE802A84ED1E2AD4ED120A80EEE9
:1009E000802A84ED1F2AD4ED130A80EE802AF7EEC8
:1009F000000A84ED202A94ED170A84ED210A31EED5
:100A0000610A10EE100A884204D994ED1D0A30EEF6
:100A1000600A08E010EE100A094994ED1D0A8842A8
:100A200003DD30EE200A84ED1D0ADFED060A00EE3C
:100A3000601A84ED1C1A10BD90840020000096C33B
:100A4000000096430000B44370B504462DED068BBC
:100A500090F89500002844D100254FF47A7620467E
:100A600000F0D8F894ED0E0A01207AEE80AA94EDF9
:100A70000F0A38EE008A94ED100A78EE808A94ED21
:100A8000110A39EE009A94ED120A79EE809A94EDEB
:100A9000130A3AEE00AA02F07BFB6D1CB542DEDBC6
:100AA000B7EE001A9FED100A0120CAEE800AC4EDCD
:100AB000050AC8EE000AC4ED060AC8EE800A70EE08
:100AC000C10AC4ED070AC9EE000AC4ED080AC9EE5E
:100AD000800AC4ED090ACAEE000AC4ED0A0A84F8C5
:100AE0009500BDEC068B70BD00007A4470B50E46D3
:100AF000044601461546282000F08AF9022002F03B
:100B000047FB0A21292000F083F9022002F040FB74
:100B10000121642000F07CF9022002F039FB44F04E
:100B20008001252000F074F9022002F031FB3146EB
:100B3000262000F06DF9022002F02AFB0321342068
:100B400000F066F9022002F023FB0321672000F089
:100B50005FF9022002F01CFB81212A2000F058F9E5
:100B6000062002F015FB45F08001272000F050F927
:100B7000BDE87040022002F00BBB000030B585B02C
:100B8000002414220B496846FFF7BFFB4FEA0D050E
:100B900005EB4400417815F8140000F039F9012004
:100BA00002F0F6FA641CE4B20A2CF1D303F0C4FF9D
:100BB00005B030BD28990008F8B5134F15460E460C
:100BC000044600224021384602F013FC0F4944F04D
:100BD000800037240870891C4A1E08700123891E72
:100BE0000B48009403F068F908492B463246891CEB
:100BF0000748009403F060F904460122402138467A
:100C000002F0F7FB2046F8BD0014024074030020F8
:100C1000F02F0020F0B587B0044602F0EFFB00EEA5
:100C2000100AF8EE400A9FED601A0E2202A980EE2B
:100C3000810A3B2084ED220AD4ED230A70EE600A7B
:100C4000C4ED240A84ED230AFFF7B6FF84F896006A
:100C5000062269464920FFF7AFFFBDF8080040BAF9
:100C600006B22680BDF80A0000EE106A40BA05B24E
:100C70006580BDF80C00F8EEC00A40BA03B2A3804C
:100C8000BDF80E0040BA02B26282BDF8100040BA50
:100C900001B2E180BDF8120040BA00B22081BDF877
:100CA00014707FBA3FB26781DDF800C0C4F80CC091
:100CB000BDF804C0A4F810C09FED3C0A20EE801AD5
:100CC00000EE905AF8EEE00A60EE801A00EE903ADC
:100CD000F8EEE00A20EE802A00EE101ADFED340A6A
:100CE000B8EEC00AC0EE202A00EE100A04F1380067
:100CF000B8EEC00A80EE203A00EE107AB8EEC00AD4
:100D0000C0EE203A80EC061AB4F90C0000EE100A8E
:100D1000B8EEC00A84ED140AB4F90E0000EE100A11
:100D2000B8EEC00A84ED150AB4F9100000EE100AFE
:100D3000B8EEC00A84ED160A00EE102AF8EEC00ADA
:100D40009FED1C4A80EE840AF3EE050A30EE200A7D
:100D500084ED170A94F89500012823D194ED050A33
:100D600031EE400A84ED0E0A94ED060A31EEC00A17
:100D700084ED0F0A94ED070A32EE400A84ED100A62
:100D800094ED080A32EEC00A84ED110A94ED090AC6
:100D900033EE400A84ED120A94ED0A0A33EEC00ADB
:100DA00084ED130A07B0F0BD00007A4400008039DA
:100DB0006F1283415CEFA64390ED180A80ED1B0A89
:100DC0009FED030A80ED1C0A80ED1D0A70470000AC
:100DD0000000000008490A48084BD1F88420006848
:100DE0009A4202DA41F2873103E0012281F894202D
:100DF0000021816370470000F88300200000484212
:100E0000483000200421014803F028BC483000206D
:100E1000F8B5114F0E46044600224021384602F034
:100E2000E8FA04F07F000D4C3725621C2070012386
:100E3000511E0B48009503F03FF82670621C0123F9
:100E4000511E0748009503F037F80122402138462B
:100E500002F0CFFA0020F8BD001402407403002015
:100E6000F02F0020FEE70000444925280A6870D2D0
:100E7000DFE800F01315181B1E2124272A2D30331C
:100E800036393C3F4245484B4E5154575A5D60639A
:100E900066696C707376797C7F0000206BE040F6A9
:100EA000ED6068E040F6186065E040F64C5062E0A6
:100EB00040F68E405FE040F6D9305CE040F62F30DF
:100EC00059E040F68F2056E040F6F61053E040F629
:100ED000681050E04FF40E604DE040F661004AE0CB
:100EE0004FF4FD6047E040F2767044E040F20C7051
:100EF00041E040F2A6603EE040F247603BE040F255
:100F0000EC5038E040F2975035E040F2475032E084
:100F100040F2FB402FE040F2B4402CE040F26F4042
:100F200029E040F2314026E040F2F33023E040F285
:100F3000BB3020E040F286301DE040F252301AE033
:100F40004FF4497017E040F2F52014E040F2CB2056
:100F500011E012E04FF429700DE040F27D200AE02C
:100F600040F25A2007E040F2372004E04FF40670C8
:100F700001E040F2F910D062C8607047D83000201C
:100F80000021014803F06ABBD83000207047000000
:100F900010B5054C22685063084602F0F9F8216844
:100FA0000020486310BD0000D830002070B53648DE
:100FB0004FF4FA74C078072815D2DFE800F0140463
:100FC000152535445500304E0025361D36F82500D0
:100FD000FFF74AFF06EB850041883220FFF7D8FF74
:100FE0006D1CA542F2DB70BD284E002536F82500A9
:100FF000FFF73AFF06EB850041883220FFF7C8FF74
:101000006D1CA542F2DB70BD214E002536F825008F
:10101000FFF72AFF06EB850041883220FFF7B8FF73
:101020006D1CA542F2DB70BD1A4E002536F8250076
:10103000FFF71AFF06EB850041883220FFF7A8FF73
:101040006D1CA542F2DB144E002500BF36F82500CA
:10105000FFF70AFF06EB850041883220FFF798FF73
:101060006D1CA542F2DB70BD0C4E002536F8250044
:10107000FFF7FAFE06EB850041883220FFF788FF74
:101080006D1CA542F2DB70BDEC030020C00B0020FC
:1010900090130020601B002030230020002B002034
:1010A00010B50C20FFF7E0FE4FF48774C8212046EE
:1010B000FFF76EFF0820FFF7D7FEC8212046FFF795
:1010C00067FF0F20FFF7D0FEC8212046FFF760FF23
:1010D0000820FFF7C9FEC8212046FFF759FF0F205F
:1010E000FFF7C2FEC8212046FFF752FF1120FFF78D
:1010F000BBFEC8212046FFF74BFF0F20FFF7B4FED1
:10110000C8212046FFF744FF0820FFF7ADFEC821A5
:101110002046FFF73DFF1120FFF7A6FEC82120461D
:10112000FFF736FF0F20FFF79FFEC8212046FFF78D
:101130002FFF0820FFF798FEC8212046FFF728FF61
:101140000F20FFF791FE4FF4FA712046FFF720FFC2
:10115000BDE810404FF47A7002F01AB810B50D20B7
:10116000FFF782FE4FF4877464212046FFF710FFDB
:10117000322002F00DF80D20FFF776FE64212046A4
:10118000FFF706FF322002F003F80D20FFF76CFE98
:1011900064212046FFF7FCFE322001F0F9FF142005
:1011A000FFF762FE2046BDE810404FF47A71FFF76A
:1011B000EFBE000010B50421094802F015F90949F5
:1011C0000128487004D18A7812B9CA78521CCA70B2
:1011D000CA78062A01D90022CA70887010BD0000A2
:1011E00000040240EC0300200648006840698007C4
:1011F00006D505480122436804480168014818479C
:10120000704700004C2F00209C2C0020180000206C
:101210008EB0234EDFF88C80234D4FF0FF3A40F222
:1012200011270DF12409524605A9B06908F070F89C
:10123000059CBC4206D1142249466846FFF765F872
:101240001A4809E0A4F20120032808D814224946CC
:101250006846FFF75AF81648D0F800C017E0A4F522
:1012600000710B3904D0A4F500710A3908D013E0DD
:10127000142249466846FFF748F8D8F800C006E04F
:10128000142249466846FFF740F8D8F804C0DDE963
:1012900006122046089BE0476888401C6880C2E729
:1012A000000000209C030020C02C0020BC03002074
:1012B00084030020064800684069800706D5054879
:1012C000022243680448016801481847704700003B
:1012D000742F00209C2C00201C0000208EB0194E82
:1012E000194D4FF0FF3940F201270DF124084A460D
:1012F00005A9F06908F00CF8059CBC4208D0A4F5DB
:101300000071023904D0A4F50071063909D015E046
:10131000142241466846FEF7F8FF0C48D0F808C092
:1013200007E0142241466846FEF7EFFF0848D0F870
:1013300000C0DDE906122046089BE0476888401C93
:101340006880D4E700000020C62C00208403002021
:10135000B00300203EB50D0A069C8DF804508DF8B0
:101360000510110A8DF80610190A8DF808108DF86D
:101370000930210A8DF80A1001A90091014606489A
:101380008DF807208DF80B4040F2FF130022006813
:1013900000F0B4F83EBD0000200000203EB50D0A6C
:1013A000069C8DF804508DF80510110A8DF8061072
:1013B000190A8DF808108DF80930210A8DF80A10E5
:1013C00001A90091014606488DF807208DF80B40D1
:1013D0004FF400730022006800F090F83EBD00005A
:1013E000200000200EB50A0A8DF804208DF80510A3
:1013F00001A90091014604484FF4047300220068DB
:1014000000F07CF80EBD0000200000203EB50D0A63
:10141000069C8DF804508DF80510110A8DF8061001
:10142000190A8DF808108DF80930210A8DF80A1074
:1014300001A90091014606488DF807208DF80B4060
:1014400040F2FF230022006800F058F83EBD000083
:101450002000002010B50446491EC8B200EB400130
:1014600001EB00100D49002201EB800101230A610C
:101470004A614A62C1E906230A604A608A600B62D7
:101480002046CA6001F0BEFA204601F0C1FC206887
:10149000416941F00201416110BD000068890020EE
:1014A000F0B5521E0E46D5B205EB450101EB051213
:1014B000114993B001EB820404F128010F460A465A
:1014C00004F14403002101F023FB05EBC50268464B
:1014D00000EB820539461C222846FEF716FFD4E9A8
:1014E0001101C5E90701002329461A46304607F0D5
:1014F000AFFE13B0F0BD00006889002010B58AB0BF
:101500000C9C009192B102930021CDE903210822A5
:1015100005928DF8181021680791616800230891E1
:101520001A46694607F0E4FD0AB010BD0193EBE7E7
:101530008AB0084E6C464FF0FF3707AD3A46694611
:10154000306A07F0E5FE01232A46211D009801F0CC
:10155000EBF9F3E70000002070B504462DED068B93
:101560008B48B0F90000A0F6183000EE100AB8EE73
:10157000C00A00F059FBDFED870A20EE200ADFEDFC
:10158000860A864D864E20EE200A85ED070A9FEDDD
:10159000858A206830B1012814D0022875D003282C
:1015A00071D1D6E094ED040A7F4884ED010A94EDF0
:1015B000050A84ED020A3168D5ED070AB0EE480A43
:1015C0008847C3E010EE100AFEF7DCFF41EC100B79
:1015D00006F0B6F8B0EE401AF0EE601AB0EE419A9E
:1015E000F0EE619A6069FEF7CDFF53EC192BFEF720
:1015F00057FF41EC190BE869FEF7C4FF41EC100BF3
:1016000005F05EFCB0EE40AAF0EE60AA2069FEF79D
:10161000B9FF53EC1A2BFEF743FF53EC192BFEF7DF
:1016200039FFFEF7C2FF6060E869FEF7ABFF41ECEF
:10163000100B05F045FCB0EE409AF0EE609A606940
:10164000FEF7A0FF53EC192BFEF72AFF41EC190B14
:10165000E869FEF797FF41EC100B06F071F8B0EE69
:1016600040AAF0EE60AA2069FEF78CFF53EC1A2B1B
:10167000FEF716FF53EC192BFEF76BFEFEF795FFF6
:10168000A06084ED038A70E0FFE710EE100AFEF719
:1016900079FF41EC100B06F053F8B0EE409AF0EEF3
:1016A000609A6069FEF76EFF53EC192BFEF7F8FEA7
:1016B00041EC190BE869FEF765FF41EC100B05F0F2
:1016C000FFFBB0EE40AAF0EE60AA2069FEF75AFFD9
:1016D00053EC1A2BFEF7E4FE53EC192BFEF7DAFE5F
:1016E000FEF763FF6060E869FEF74CFF41EC100B0A
:1016F00005F0E6FBB0EE401AF0EE601AB0EE419A4B
:10170000F0EE619A6069FEF73DFF53EC192BFEF78E
:10171000C7FE41EC190BE869FEF734FF41EC100BF2
:1017200006F00EF8B0EE40AAF0EE60AA2069FEF7CF
:1017300029FF53EC1A2BFEF7B3FE53EC192BFEF7DF
:1017400008FEFEF732FFB0EE080AA06084ED030A3F
:101750000BE084ED018A84ED028A84ED038AB1688E
:1017600011488847B1681148884794ED030AB0EEE4
:10177000C00A10EE100AB0F17F5F01DA84ED038A2F
:101780000B4841682046BDEC068BBDE87040084719
:10179000B48500200000343D35FA8E3C38830020AB
:1017A0002C03002000000000FC0000203401002079
:1017B000C400002019490A781949012A17D0002AC3
:1017C00014D191F83B2091F83630D21A00EE102A4D
:1017D000B8EEC00A80ED040A11F82C2F4979511A8D
:1017E00000EE101AB8EEC00A80ED050A7047B1F994
:1017F0001E2000EE102AF8EEC00A9FED0A0A80EEC5
:10180000801A80ED041AB1F9201000EE901AF8EE5B
:10181000E00A80EE801A80ED051A7047C0000020B3
:10182000788300200000254430B50020094A0124B7
:10183000034600BF52F820104D884DB181F80430A6
:1018400052F82010401CC0B24B800228F2D330BDA9
:101850000C71F5E7B82C00200548B0F87C1021B1D8
:101860005FF0000180F87E1070470121FAE7000068
:101870007883002004480021828B12B18177818314
:10188000704701228277FAE7D485002004480021BE
:10189000828B12B181778183704701228277FAE7C8
:1018A000B485002004480021828B12B181778183A6
:1018B000704701228277FAE7F485002030B50020D6
:1018C000074B0124024600BF03EB40118D8B2DB165
:1018D0008A77401C8A830428F6DB30BD8C77F8E7D2
:1018E000F484002030B50020074B0124024600BFDD
:1018F00003EB40118D8B2DB18A77401C8A8302281F
:10190000F6DB30BD8C77F8E77485002004480021B1
:10191000828B12B181778183704701228277FAE747
:10192000148600209FED0A0A80ED000A80ED010A6E
:1019300080ED040A80ED030A80ED020A80ED080ABA
:1019400080ED090A80ED0A0A80ED0B0A704700005D
:10195000000000009FED030A002180ED000A0171E4
:101960007047000000000000F0B51E480078002815
:1019700034D11D4A1D4B1E4992F855500124C5B95A
:101980001D4692F85A702E680D462D6837B1012E0B
:1019900001D1012D0DD01C600C6016E092F85F7033
:1019A00057B1022E01D1022D03D002251D600D601A
:1019B0000BE01860086008E092F8781029B10D4932
:1019C0000B7B0BB1087300E00C7392F840200A49BE
:1019D0002AB10C75B0EE000A81ED060AF0BD08755B
:1019E000F0BD0000C00000207883002008830020A4
:1019F000388300206883002014860020024A0021DA
:101A00001160516003F0A4BE28000020014801F0DD
:101A10002BBA000090320020014801F025BA0000E6
:101A2000303200207047704701681823CAB2103A5C
:101A3000B2FBF3F2054B6FF30901032A9B5CC3650C
:101A400000D9091D81650846704700000899000803
:101A500010B5014600208B698A6A4FF0C07453B1FB
:101A6000B3F5005F15D072B1012A0CD0022A0AD05A
:101A7000032A09D104E01AB1012A06D0022A03D1AF
:101A8000C96AC90100D5012010BDC96AA142FAD0B6
:101A900010BD002AF7D0012AF2D0022AF3D0032A7F
:101AA000F3D010BD30B50468256825F48025256085
:101AB000046863608368402B036803D09960006802
:101AC000C26030BD9A600068C16030BDF0B50028CA
:101AD0005FD08178C278890941EA820102792D4C70
:101AE00041EA8221C1F30A06A6F58066E683017900
:101AF0004279490841EAC211C1F30A05A5F580659A
:101B000025840188C1F30A03A3F5806363844178C7
:101B10008278C90841EA4211C1F30A02A2F5806243
:101B2000A284018AC1F30A01A1F580612185477968
:101B3000BF0984F826704779C7F3011784F8277026
:101B4000C788E78207892783077B07B10127A77624
:101B5000477B07B10127E776C089608500201436EE
:101B6000282E00D8E0831435282D00D82084143383
:101B7000282B00D860841432282A00D8A08414317D
:101B8000282900D8208503F033FA34F87C0F401C54
:101B90002080F0BD7883002010B50446806B00687B
:101BA000016821F001010160A06B00684068042811
:101BB00002D10748FFF78AFFA16B16200968486029
:101BC000A06B0068016841F00101016010BD0000D8
:101BD0007883002038B5016800250A684A680092B9
:101BE000CA6842F40052CA600168CA6842F0100232
:101BF000CA600446094A90F83E0020280DD11623F9
:101C0000A262A38525642168A06B091D01F066FA14
:101C10002068416941F04001416138BD788300206E
:101C2000704772B6FEE7000010EE100ADFED070AFB
:101C3000B0F18B4F02DD30EE600A704710EE100AF3
:101C400010F16A5FF9D930EE200A704700000046B3
:101C5000103090EC040A70471FB5064B04460FCBBA
:101C60008DE80F006946204600F092F8204600F00B
:101C700003F81FBD3C990008114A10B51ECA00F1B7
:101C8000100CB2EE040A8CE81E00002101624162D1
:101C90000122816280F82C2080ED0C0A8163C163EF
:101CA000016441648164C16480F85010416580F82A
:101CB000581080F85910C16580F8601010BD000000
:101CC0004C99000870B505462DED048BB6EE008AE0
:101CD000B0EE409A90ED061AF0EE480A90ED070A31
:101CE00041EE410AD0ED041A40EE400A21EE800A8E
:101CF000D0ED051A01EE810A04F08AFFF0EE408A69
:101D0000B0EE490A00F078FA38EEC00A002460EE1E
:101D1000088AB0EE680A05F037F9B0EE408AB0EEF6
:101D2000680A05F071FD05F11000B1EE401AD0EC23
:101D3000041AB0EE480A00EE904A60EE213A20EE16
:101D4000024A60EE224A20EE030A40EEC23A00EE5A
:101D5000904A00EEA20A40EEC34A00EEA14A40EECD
:101D6000E23A00EEC20A40EEA14A00EE834A41EE9A
:101D7000433A01EE210A41EE024A01EE624A85ED44
:101D8000070A1035C5EC033ABDEC048B70BD0000AA
:101D900070B50D462DED028BF6EE008A91ED000A2E
:101DA0009FED268A80ED000A91ED010A0446B5EE0A
:101DB000C00AF1EE10FA28D0E86830B300F01CFA3F
:101DC00005F022FD20EE280AF0EE000A05F084F965
:101DD00084ED010A95ED020AB5EEC00AF1EE10FAA3
:101DE00016D0E868A0B100F007FA05F00DFD20EE6E
:101DF000280AF0EE000A05F06FF984ED020AE8689F
:101E0000E06094F82C0030B109E084ED018AE1E74C
:101E100084ED028AF3E794ED000A84ED0C0A94ED58
:101E2000000AF2EE040A30EEC00AF0EE080A80EE74
:101E3000201A84ED0D1ABDEC028B70BDFFFF7F7F71
:101E40002DE9F04F04462DED0E8B203083B0002598
:101E5000B0EE64AAF0EE43AAB0EE63BAF0EE44BA74
:101E6000B0EE40CAC0EC031AF0EE60CA94F82C0041
:101E7000B0EE41DA012814D194ED0C0AD4ED0D0A2C
:101E800000EECA0A84ED0C0AD4ED000AB4EEE00AB2
:101E9000F1EE10FA05D2C4ED0C0A84F82C5084F847
:101EA000585094ED070AB6EE008AD4ED040A94ED7A
:101EB000053A94ED061AF0EE488A23EE009A50EEA9
:101EC000A08A61EE009AA94600EEC19AB0EE621AAD
:101ED00040EE839A40EE008AF0EE420AB0EE610ACC
:101EE000CA460126D34684F85060F0EE41EAB0EECF
:101EF00060EAF0EE40DA00F020FAE8BBE168606DDD
:101F0000884211D9D4E90580E1692769CDE900014A
:101F10002046FFF7B1FEDDE900016565C4E9060171
:101F2000C4E9047884F85860B0EE6E1AF0EE4E0AF8
:101F3000B0EE6D0A00F026FAF0EE682AB0EE692ADB
:101F4000F0EE491A00F0D7F904F1380080EC030AEA
:101F500094F82C00012808D000F002FAD4ED010A10
:101F6000B4EEE00AF1EE10FA20D804F1380007C808
:101F700081468A46934600E009E084F85050606D3F
:101F80000A2801D30A2100E00021401A60652F468B
:101F90000120B84684F85900B0EE6B1AF0EE4B0AF7
:101FA000B0EE6A0A00F0C9F918B169E0606D401C32
:101FB000ECE784F86050E168E06D2E46884214D961
:101FC000F0EE6B2AB0EE4B2AF0EE6A1AB0EE681A09
:101FD000F0EE690AB0EE490A00F0E6F82046FFF795
:101FE00071FE0120E66584F86000D4ED060A94EDE8
:101FF000040AD4ED051A94ED071A10EE008A61EE7A
:10200000A0DA20EE81EAF0EE6B2AB0EE4B2A40EE29
:1020100001DA00EE61EA00EEA08AF0EE6A1AB0EE94
:10202000681AF0EE690AB0EE490A00F064F900F0AF
:10203000A9F9F0EE4E2AB0EE482AF0EE6D1A00F043
:102040005AF904F1440080EC030A94F82C000128AA
:1020500008D000F085F9D4ED020AB4EEE00AF1EE02
:1020600010FA7CD8D4E91270656C804684F8596007
:10207000E06D0A2801D30A2100E00021401AE06542
:10208000B6EE000A00F0B8F8F0EE401AB0EE4D1AC5
:10209000F0EE6C0AB0EE4C0A00F06DF9B0EE409A2A
:1020A000F0EE608AB0EE418A02EE908A02EE107A7B
:1020B00001EE905A01EE10BA00EE90AA00EE109ACE
:1020C00000F012F9D4ED0C1A00F055F9F0EE412AA7
:1020D000B0EE602AF0EE401AB0EE481AF0EE680A50
:1020E000B0EE490A00F000F9D4ED048A94ED058AB7
:1020F00094ED069AD4ED079AF0EE4A1A00F03BF9F7
:1021000028EE402A68EE802A68EEA01A09EE602ABE
:1021100049EE012A48EE411A09EEC12A28EE811A39
:1021200049EEE02A49EE801A08EE201A78EE220ADB
:1021300079EE211A09EE401A38EE820AF0EE608A32
:10214000B0EE618A84ED040AC4ED050A39EE811A05
:10215000C4ED061AF0EE409A84ED071A00E020E084
:1021600029EEA90AB0EE419A08EEA80A08EE080A7C
:1021700009EE090A00F048F829EE801A68EE800A94
:1021800068EE001A29EE000A84ED041AC4ED050A6F
:10219000C4ED061A84ED070A03B0BDEC0E8BBDE852
:1021A000F08FE06D401C6AE710B52DED048BF0EE6A
:1021B000419AB0EE609AF0EE408A00F0ADF800F07F
:1021C000FDF8B0EE408AF0EE692AB0EE492AF0EE52
:1021D000681A00F0A1F800F0F1F8F0EE400AB0EE55
:1021E000480A04F015FDDFED030ABDEC048B20EE78
:1021F000200A10BDE02E6542DFED020A20EE200A23
:102200007047000035FA8E3C10EE100A9FED091A57
:102210000749A1EB600020EE010A00EE900A20EED3
:10222000201A9FED050A01EE600A20EE200A704791
:1022300012141F5F12D3363FFF51D83F10B52DED5A
:10224000088BB6EE008AB0EE40AA01EE418A2AEE73
:10225000200AF0EE609AB0EE419AF0EE618A01EE4B
:10226000210AF0EE480A49EEE90A04F0D1FCDFED5C
:102270001BAAB0EE491AF0EE681A20EE2ABA2AEE2E
:10228000010AF0EE000A01EEE90A20EE200A10EE43
:10229000100A10F1814F02D39FED110A09E010EEF0
:1022A000100AB0F17E5F02DB9FED0E0A01E004F040
:1022B00019FC60EE2ABA08EEE88A2AEE280A09EE2E
:1022C000890AF0EE480A04F0A3FC20EE2A1AB0EEC8
:1022D0004B0AF0EE6B0ABDEC088B10BDE02E654298
:1022E000DB0FC9BFDB0FC93F30EE210A70EE820A57
:1022F00031EE221A7047B0EE603A61EE210A63EEC9
:10230000223A40EE620A41EE423A20EE021A03EE11
:10231000611AB0EE630A7047B0EE603A61EE210ACE
:1023200063EE223A40EE620A41EE423A20EE021A91
:1023300003EE611AB0EE630A7047B5EEC00AF1EE23
:1023400010FA0BD1F5EEC00AF1EE10FA06D1B5EE97
:10235000C01AF1EE10FA01D1012070470020704739
:1023600020EE000A60EEA00A21EE011A30EE200AEB
:1023700030EE010A704720EE210A60EEA10A21EE3C
:10238000211A704710B52DED048BF0EE418AB0EEA6
:10239000608AB0EE409AFFF7E3FFFFF735FFF0EEFB
:1023A000401AB0EE681AF0EE480AB0EE490ABDECE9
:1023B000048BBDE81040FFF7DEBF000060EE001A9E
:1023C00020EEA02A61EE012A0E4971EE821A71EE0A
:1023D000A21ADFED0D2A11EE900A61EEA21AA1EB0E
:1023E000600002EE100A61EE822ADFED081A42EE6A
:1023F000C21A61EE821A20EE210A60EEA10A21EED5
:10240000211A704712141F5F12D3363FFF51D83F75
:1024100038B500220092044A0B4600211469024696
:102420000248A04738BD00009C2C00204C2F002003
:1024300010B51C48DDE90541A2B2B0F9003052BA2E
:10244000438012B2240C028064BA84808CB264BAD5
:10245000C480091401720146D31A41F66414B1F91B
:102460001810E34201DA491C04E041F66414A34267
:1024700001DD491E0183B0F9181000EE102A00EEAC
:10248000901A9FED091AB8EEC00AF8EEE00A00EEC5
:10249000810ABDEEC00A80ED050A818B491C81834B
:1024A00010BD0000D48500200000004610B51C4877
:1024B000DDE90541A2B2B0F9003052BA438012B250
:1024C000240C028064BA84808CB264BAC48009147B
:1024D00001720146D31A41F66414B1F91810E342AF
:1024E00001DA491C04E041F66414A34201DD491EEF
:1024F0000183B0F9181000EE102A00EE901A9FED3B
:10250000091AB8EEC00AF8EEE00A00EE810ABDEE44
:10251000C00A80ED050A818B491C818310BD000033
:10252000B485002000000046184810B500688047B8
:102530001748006880471748006880471648FFF72B
:102540008BFB1648FFF788FB1548416815488847FC
:10255000154800688047154840F285121449036801
:1025600014489847144C0121144822689047226867
:1025700002211348904713480068804712480068BA
:102580008047BDE81040002006F0A6BBD403002021
:10259000F400002060030020B0860020908400201A
:1025A00044030020A8310020902C0020C803002004
:1025B00024870020EC3100209C2C00204C2F002090
:1025C000742F0020D0000020DC00002010B558B18E
:1025D000084C491E0BD310F8013B5340DBB234F8D2
:1025E000133083EA1222F4E74FF6FF7010BD104655
:1025F00010BD00005C9A000810B5054C04E000BF57
:1026000010F8013B5340E25C491EF9D2104610BD60
:102610005C99000810B5044627489FED291ADFEDA4
:10262000290A01782548012927D0002924D1B0F9A9
:1026300016109FED252A00EE101AF8EEC01A81EE52
:10264000820AD4ED021AB1EE042A31EEC00A84EDFA
:10265000020AB0F9180000EE100AF8EEC01A81EE76
:10266000820AD4ED051A31EEC00A00BF84ED050AD6
:1026700004F0BBF984ED050A10BDB0F922109FEDFE
:10268000132A00EE101AB8EEC00AC0EE021A94ED3A
:10269000020A30EE610ADFED0E1A84ED020AB0F98B
:1026A000240000EE100AB8EEC00A80EE212A94ED54
:1026B000050A32EE000AD9E7C00000207883002026
:1026C00000A0914500A0B4450000704200007A448B
:1026D00000005C43054890ED1C0A054880ED020AA5
:1026E0009FED040A80ED050A70470000F883002082
:1026F0003883002000F0A0452DE9F0477F4F0446C5
:102700002DED028B4FF0000900687B4E97ED1C0AFF
:10271000DFF8EC817B4DA8B1012843D002287DD0A1
:1027200003283BD184ED020AA6F81A90A5F81A9066
:10273000D8F8081074488847D8F8081073488847B4
:102740000320D6E0606808B184ED020AD7ED1C0AC8
:102750006D48C4ED030A94ED020A30EE601A84ED70
:10276000041AD8F800108847BDEEC00A10EE100A0F
:102770007083B5F9000000EE100A6448F8EEC00A54
:10278000C4ED060AD8F8001094ED050A8847BDEE9E
:10279000C00A10EE100A6883C4F80490BDEC028BE6
:1027A000BDE8F0876068012801D084ED020A58482E
:1027B000C078A0B3574890F9240000EE100AB8EE94
:1027C000C00A84ED020A9FED548AD8F800105348DD
:1027D000F0EE480A8847B1EE400ABDEEC00A10EE9E
:1027E000100AB0EE480A7083D7ED190A4C48C4EDC0
:1027F000050AD8F80010884784ED080AB5F90000EA
:1028000040F25F42A0F590513539914218D341F220
:102810003421884209DAD4ED050A01E041E023E0E1
:10282000F5EEC00AF1EE10FA0ADC41F2946188423A
:1028300016DDD4ED050AF5EEC00AF1EE10FA0FD25E
:10284000B5F90400D8F8001000EE900A3548F8EE0B
:10285000E00A8847BDEEC00A10EE100A688301E066
:10286000A5F81A90012044E0D7ED1C0A2648C4EDD3
:10287000030AD8F8001094ED020A8847BDEEC00A9A
:1028800010EE100A7083B5F9000000EE100A1F4820
:10289000F8EEC00AC4ED060A94ED050AD8F8001057
:1028A000D7E76068022801D084ED020AD7ED1C0A40
:1028B0001548C4ED030AD8F8001094ED020A8847C1
:1028C000BDEEC00A10EE100A7083B5F9000000EEEC
:1028D000100A0E48F8EEC00AC4ED060AD8F8001037
:1028E00094ED050A8847BDEEC00A10EE100A688311
:1028F0000220606052E70000B4850020F8830020C9
:102900002C030020D4850020A4010020DC0100203D
:10291000688300203489002000000000F4020020B9
:1029200084020020BC020020F0B590F8205004681A
:10293000A468012D05D0022D03D0416A41F4802105
:102940005DE014F0406F01D1E50055D5C4F301649A
:10295000022C03D9416A41F4000150E00125A54051
:102960001D608D684FF4C0739DB1CE6835434E68CD
:1029700045EAC605066803EB0417F5514FF4C27526
:10298000076805EB04150E697E51097D012905D004
:1029900009E00E88CD6845EA4655EBE701684E59D7
:1029A00046F480764E511179D579567941EA056120
:1029B00095792D0445EA062529434FF4C676056826
:1029C00006EB0416A9511178D57841EA056195788E
:1029D00052782D0445EA022211434FF4C47502686F
:1029E00005EB04155151006803EB0411425842F005
:1029F000010242500020F0BD416A41F400114162E1
:102A00000120F0BD10B590F82020012A07D0022A3D
:102A100005D0416A41F480214162012010BD3B484C
:102A2000D0F8002242F00102C0F80022D0F80022C3
:102A300022F47C52C0F80022D0F800224B6A42EA0D
:102A40000322C0F800220A7D02F01F0301229A40EF
:102A5000D0F81C329343C0F81C32CB69B3B9D0F81C
:102A60000C329343C0F80C328C894B6864F31F43DB
:102A70004C6900EBC404C4F840320C890B6864F361
:102A80001F434C6900EBC404C4F84432CB69012BEA
:102A900016D1D0F80C321343C0F80C320C884B68B6
:102AA00064F31F434C6900EBC404C4F840320C8942
:102AB000CB6864F31F434C6900EBC404C4F8443290
:102AC0008B69002BD0F804320ED01343C0F80432C7
:102AD0000B69002BD0F8143208D01343C0F814321D
:102AE000096A012904D008E09343EFE79343F5E72F
:102AF000D0F81C121143C0F81C12D0F8001221F0BB
:102B00000101C0F80012002010BD00000064004068
:102B100030B590F82040012C05D0022C03D0416A3A
:102B200041F480215DE00468002955D02469A407A0
:102B300054D04FF4D874056804EB01142D5915F0E6
:102B40000405956005682D594ED0ED08556005685F
:102B50002C5904F00204D4604FF4DA74056804EBD5
:102B600001142D5905F00F05156105682D59C5F3A0
:102B70000725956105682C59240C54614FF4DC72CB
:102B8000046802EB0112A4581C700468A458240ABB
:102B90005C700468A458240C9C700468A258120E3F
:102BA000DA704FF4DE72046802EB0112A4581C7153
:102BB0000468A458240A5C710468A458240C9C710D
:102BC0000468A258120EDA71006881B1016941F0FF
:102BD00020010161002030BDE468A8E7416A41F4AA
:102BE00000114162012030BD6D0D1560AFE7C16875
:102BF00041F02001C160EDE770B5040003D094F806
:102C0000200010B104E0012070BD204600F082F8E1
:102C10002068016841F00101016000F0EFFB05460A
:102C2000052604E000F0EAFB401B0A2811D82068C2
:102C30004068C007F6D02068016821F002010160F9
:102C400000F0DCFB05460BE000F0D8FB401B0A2837
:102C500006D9606A40F40030606284F82060D2E7F0
:102C6000206840688007EFD4207E01282068016832
:102C70003DD021F080010160607E0128206801685C
:102C800038D021F040010160A07E01282068016851
:102C900033D021F020010160E07E01282068016826
:102CA0002ED041F010010160207F012820680168CA
:102CB00029D021F008010160607F012820680168A7
:102CC00024D021F004010160D4E902010843D4E9D1
:102CD0000412114308436168491E08432168C86112
:102CE00000206062012084F82000002070BD41F0C7
:102CF0008001C0E741F04001C5E741F02001CAE78B
:102D000021F01001CFE741F00801D4E741F00401C0
:102D1000D9E70000F0B587B0044614216846FDF7F6
:102D20000DFB364B3648DFF8D0E01968D4F800C008
:102D3000334A03250226092710300024491CF44594
:102D400022D11960012907D1016841F000710160A9
:102D5000006800F000700590106840F008001060F6
:102D60001068CDE9005600F00800CDE9047069460E
:102D70002448CDE9024500F01DFA00220621142066
:102D800000F012FD142033E0DFF87CE0F44531D18F
:102D9000D0F800C04CF0806CC0F800C0D0F800C083
:102DA00001290CF0806CCDF814C0196007D10168BE
:102DB00041F000710160006800F00070059010683B
:102DC00040F002001060106802AB00F002000590B5
:102DD0004FF44050CDE9000683E8B00069460B4847
:102DE00000F0E8F900220621402000F0DDFC402040
:102DF00000F0CCFC07B0F0BD0064004024000020CF
:102E000030380240000C02400068004000040240DC
:102E100070B5044690F82000012804D0606A40F4A0
:102E20000020606218E0022084F820002068016819
:102E300021F00101016000F0E1FA05460EE000BF5B
:102E400000F0DCFA401B0A2808D9606A40F4003020
:102E50006062052084F82000012070BD2068406871
:102E6000C007EDD1606270BD2DE9F84304464FF014
:102E70000009CDF8009063484FF41651A56D006825
:102E8000B0FBF1F72E6894F85C10082000FA01F10D
:102E900031420FD021680A6852070BD50A6822F028
:102EA00004020A6094F85C108840A860606D40F0ED
:102EB0000100606594F85C104FF0010808FA01F019
:102EC000304208D021684969090604D5A860606DC0
:102ED00040F00200606594F85C10042088403042A5
:102EE00008D021680968890704D5A860606D40F0A2
:102EF0000400606594F85C1010208840304218D0BF
:102F000021680968090714D5A86020680168490389
:102F100004D50068000308D5A16C07E00168C90565
:102F200003D4016821F008010160216C09B1204639
:102F3000884794F85C1020208840304231D02168C6
:102F40000968C9062DD5A86094F8350005282068C1
:102F5000016806D0490347D5006800031DD4616CA1
:102F60001CE021F0160101602068416921F0800118
:102F70004161206C08B9A06C20B12068016821F083
:102F80000801016094F85C103F208840A86084F834
:102F9000358084F83490216D1FE0E16B09B1204643
:102FA0008847606D00282BD0606DC00714D00520C5
:102FB00084F835002068016821F001010160009863
:102FC000401C0090B84203D820680068C007F6D1C2
:102FD00084F8358084F83490E16C002910D001B079
:102FE0002046BDE8F04308470168C905D5D401680B
:102FF00021F01001016084F8358084F83490CCE72A
:10300000BDE8F8833C0000202DE9F041044600F0C3
:10301000F5F906465CB1022084F83500002584F8F5
:1030200034502068016821F0010101600DE00120A9
:10303000BDE8F08100F0E2F9801B052805D92020C9
:103040006065032084F83500F2E720680068C00757
:10305000F0D12268116820480140D4E901031843E7
:10306000D4E903363343184363691843A36918430B
:10307000E3691843236A18430843616A042903D1AA
:10308000D4E90B1319430843106020684069666A4D
:1030900020F0070130460E43012704280CD1A06A16
:1030A0000643E06A40B12046FEF7D2FC20B1402042
:1030B000606584F83570BAE7206846612046FEF7FF
:1030C000B3FC94F85C203F2191408160656584F8F1
:1030D00035700020ACE700003F8010F070B504466A
:1030E00090F83400002501280CD0012084F8340029
:1030F00094F835600020012E06D084F834000225B3
:10310000284670BD022070BD022684F835606065D7
:103110002046FEF7C7FC2068016841F0010101600C
:10312000EEE72DE9F0410446866D90F83400002565
:1031300001280DD0012084F8340094F83570002067
:10314000012F07D084F8340002252846BDE8F0811D
:103150000220FBE7022784F8357060652046FEF701
:10316000A1FC94F85C103F208840B06020680168A2
:1031700041F016010160206C20B12068016841F027
:10318000080101602068016841F001010160DCE78D
:1031900070B5044600F032F90546601C02D00448C0
:1031A0000078044400F02AF9401BA042FAD370BD15
:1031B000300000202DE9F84FDFF8F8A100220124AB
:1031C00003254FF00F090AF1040BAAF1040E00BF0A
:1031D0000B6804FA02F63340B34270D10F7907F05E
:1031E0000307012F01D0022F16D187684FEA42084A
:1031F00005FA08FC27EA0C07D1F80CC00CFA08FC09
:103200004CEA070CC0F808C04768B7430E79C6F30C
:10321000001696403E4346600E79F643B6070AD044
:10322000C7684FEA420C05FA0CF6B7438E6806FAF7
:103230000CF63E43C6600E7906F00306022E10D14E
:10324000D60800EB8608D8F8206057074FEAD76CFD
:1032500009FA0CF7BE430F6907FA0CF73743C8F8B1
:10326000207006684FEA420C05FA0CF7BE430F794E
:1032700007F0030707FA0CF7374307604E6816F4A8
:10328000403F1CD04C4E376847F480473760366863
:1032900022F0030706F480460096484E07EB060C22
:1032A000DCF8086897073F0F09FA07F826EA0806CE
:1032B000DFF80C81404503D14FF0000841E072E097
:1032C000DFF80081404502D14FF0010839E0DFF816
:1032D000F880404502D14FF0020832E0DFF8EC8080
:1032E000404502D14FF003082BE0DFF8E480404571
:1032F00002D14FF0040824E0DFF8D880404502D125
:103300004FF005081DE0DFF8D080404502D14FF0B6
:10331000060816E0DFF8C480404502D14FF00708E8
:103320000FE0DFF8BC80404502D14FF0080808E00C
:10333000DFF8B080404502D14FF0090801E04FF0BE
:103340000A0808FA07F848EA0608CCF80888DAF804
:1033500000605746D1F804C09E435FEACC2C00D5EC
:103360001E433E60DBF800605F46D1F804C09E4318
:103370005FEA8C2C00D51E433E60DEF80060774685
:10338000D1F804C09E435FEA8C3C00D51E433E60EA
:10339000084F083F3E68D1F804C09E435FEACC3C2A
:1033A00000D51E433E60521C102AFFF411AFBDE849
:1033B000F88F0000083C01404438024000300140D2
:1033C000000002400004024000080240000C0240DD
:1033D000001002400014024000180240001C02408D
:1033E00000200240002402400069084000D0012073
:1033F00070470AB1816170470904FBE701488068A2
:10340000704700003000002090F83D20202A01D0B5
:1034100002207047242280F83D200268136823F0C0
:10342000010313600268536A23F0100353620268B9
:10343000536A0B43536201680A6842F001020A6052
:10344000202180F83D100020704790F83D20202A70
:1034500001D002207047242280F83D2002681368C2
:1034600023F00103136003685A6A22F00F020A4333
:1034700091B2596201680A6842F001020A60202193
:1034800080F83D100020704770B5040025D094F8F6
:103490003D00002520B984F83C50204600F0B8F8E3
:1034A000242084F83D002068016821F001010160BA
:1034B0002068016841F4004101602068016821F43E
:1034C0000041016000F05CFA4D4A6168914201D808
:1034D0004C4900E04C49884201D2012070BD4B4963
:1034E0002368B0FBF1F15E6826F03F060E435E6094
:1034F0006368934206D94FF4967359434FF47A7335
:10350000B1FBF3F12368491C1E6A26F03F063143E4
:1035100019626168914210D84900401EB0FBF1F277
:10352000521CC2F30B02042A01D2042022E0B0FB99
:10353000F1F0401CC0F30B001CE0A268F2B301EBF9
:10354000C10303EB0116431EB3FBF6F35B1C43F40C
:1035500080431B0549D092B301EBC10202EB01117C
:10356000401EB0FBF1F0401CC0F30B0040F4804063
:1035700040F400402168CA694CF6FF739A43104337
:10358000C861D4E9071001432068026822F0C00234
:1035900011430160D4E9030101432068826848F2C5
:1035A000FF339A4311438160D4E905010843216840
:1035B000CA6822F0FF021043C86001E00EE016E086
:1035C0002068016841F0010101602564202084F831
:1035D0003D00256384F83E50002070BD01EB41069C
:1035E000431EB3FBF6F35B1CB3E70120C2E701EB1C
:1035F0004101401EB0FBF1F0401CC0F30B00B7E7E7
:10360000A086010080841E0000093D0040420F009A
:1036100010B586B0044614216846FCF78FFE1349A6
:10362000206888421FD11248016841F020010160E2
:103630000068122100F0200005900320CDE9000170
:103640000121CDE902100420049069460948FFF7E2
:10365000B1FD07481030016841F480010160006845
:1036600000F48000059006B010BD00000058004036
:103670003038024000140240024881680278114448
:1036800081607047300000200B4810B5016841F49C
:1036900000710160016841F480610160016841F4DA
:1036A00080710160032000F09FF8002000F006F810
:1036B00000F050F8002010BD003C024030B5054637
:1036C0001F4887B00024016841F0100101600068C4
:1036D00006A900F01000009001A800F031F904984C
:1036E000A8B100F04DF940001649174AB0FBF1F1BE
:1036F0001648491E026040F2E732C0E90324C0E9DF
:103700000114846100F014FD040003D015E000F002
:1037100037F9E9E70D4800F067FD04000DD13620C8
:1037200000F034F8102D07D200222946362000F090
:103730003BF80748056000E0012407B0204630BD93
:103740004038024040420F0000100040B0330020DB
:10375000340000200C4882B0016841F480410160CF
:10376000006800F4804000900748001F016841F0A5
:10377000805101600068002200F0805000900F210D
:10378000901E02B000F010B844380240002809DB57
:1037900000F01F02012191404009800000F1E0206B
:1037A000C0F8001170470000F0B40E4B1B680C46C7
:1037B000C3F30223C3F10705042D00D90425191D05
:1037C000072901D2002300E0DB1E012606FA05F1DD
:1037D000491E214099409E40761E16403143F0BC60
:1037E00003F070B90CED00E0064900F0070208682C
:1037F0004FF6FF03184040EA0220034A10430860D6
:10380000704700000CED00E00000FA052DE9F047DC
:103810000E46050065D0DFF81481D8F80000F7B235
:1038200000F00F00B04207D288F80070D8F800000E
:1038300000F00F00B04254D128683D4C810712D5EA
:10384000400703D5206840F4E05020602878000746
:1038500003D5206840F4604020602068A96820F00B
:10386000F000084320602878C0072DD030496868F0
:103870000839012812D0022813D0032811D0096872
:10388000890700292DDA216821F003010143216015
:10389000FFF7B4FD814641F2883A0EE009688903DA
:1038A000EFE709688901ECE7FFF7A8FDA0EB090144
:1038B000514502D90320BDE8F0872068696800F00F
:1038C0000C00B0EB810FEFD1D8F80010404601F0AA
:1038D0000F01B14207D90770006800F00F00B04235
:1038E00001D00120E7E72878400705D52068E9687E
:1038F00020F4E050084320602878000706D52068AF
:10390000296920F4604040EAC100206000F058F8C6
:103910002168084AC1F30311515CC8400649086098
:1039200006480068FFF7CAFE0020C4E7003C0240DA
:1039300008380240109900083C00002034000020A4
:103940000F2202600C4A136803F0030343601368FC
:1039500003F0F0038360136803F4E053C36012685C
:103960004FF4E05303EAD20202610448006800F019
:103970000F0008607047000008380240003C024019
:103980000448054900680968044AC1F38221515C72
:10399000C84070473C0000200838024020990008C9
:1039A0000448054900680968044AC1F34231515C82
:1039B000C84070473C0000200838024020990008A9
:1039C000154810B5006810F00C02144813D01449C3
:1039D000042A0FD0082A0ED10F4C241F2268236816
:1039E00002F03F025B0207D52068C0F38810A0FBFD
:1039F000010106E0084610BD2168C1F38811A1FB52
:103A000000010023FCF750FC2168C1F30141491C6F
:103A10004900B0FBF1F010BD083802400024F4006A
:103A2000001BB7002DE9F84F04006ED02078DFF8B6
:103A30004C93C007A9F104054AD009F104000168BC
:103A4000C1F38101012908D00068C0F38100022878
:103A50000AD1D9F80000400206D52868800337D57E
:103A600060680028E1D033E06068B0F5803F10D096
:103A7000B0F5A02F286810D020F480302860286886
:103A800020F4802028606068A8B1FFF7B7FC0646E4
:103A90000DE0286840F48030F4E740F4802028608E
:103AA000F7E700BFFFF7AAFC801B642873D82868DB
:103AB0008003F7D50CE0FFF7A1FC064605E000BF48
:103AC000FFF79CFC801B6428F0D828688003F7D49B
:103AD0002078DFF8AC8280074FF0000A3ED5A74877
:103AE000001D016811F00C0F08D00068C0F38100C0
:103AF00002280BD1D9F80000400207D428688007BB
:103B000016D5E068012800D112E033E1E068B8B1D1
:103B10000120C8F80000FFF771FC064605E000BF71
:103B2000FFF76CFC801B0228C0D828688007F7D5F7
:103B30002868216920F0F80040EAC10028600DE003
:103B4000C8F800A0FFF75AFC064604E0FFF756FC51
:103B5000801B02281FD828688007F7D42078000728
:103B600022D5864F87486169703771B101210160A4
:103B7000FFF744FC064604E0FFF740FC801B0228E8
:103B800009D838688007F7D50EE0C0F800A0FFF725
:103B900035FC064605E082E0FFF730FC801B02287A
:103BA0007DD838688007F7D42078400768D5DFF8DB
:103BB000CCB100270BF13C0BDBF80000C0000BD4AC
:103BC000DBF8001041F08051CBF80010DBF800006A
:103BD000012700F0805000906B4E3068C00510D473
:103BE000306840F480703060FFF708FC009005E01A
:103BF000FFF704FC0099401A022850D83068C0052D
:103C0000F6D55E4EA0686C3601280FD005283068C6
:103C100010D020F001003060306820F004003060E7
:103C2000A068B8B1FFF7EAFB00900FE0306840F001
:103C30000100F4E740F004003060F7E7FFF7DEFB37
:103C40000099411A41F28830814266D83068800775
:103C5000F4D50EE0FFF7D2FB009007E0FFF7CEFBB4
:103C60000099411A41F28830814256D83068800765
:103C7000F4D42FB1DBF8001021F08051CBF8001004
:103C8000A069C8B33D49091D0968C1F38101022932
:103C90004AD00228504607D0C8F8600000E03CE057
:103CA000FFF7ACFB04463BE04746C8F86000FFF76F
:103CB000A5FB064605E000BFFFF7A0FB801B02281E
:103CC0002BD828688001F7D4D4E907010843A16AFA
:103CD0002E4A490802EB0141626A41EA8211084317
:103CE00094F82C1040EA0161C9F8001001203866F0
:103CF000FFF784FB044606E03EE000BFFFF77EFBD3
:103D0000001B022809D828688001F7D534E000BFDD
:103D1000FFF774FB001B022802D90320BDE8F88FCF
:103D200028688001F4D427E00128F7D0D9F80000F2
:103D3000E26900F4800191421CD1226A00F03F0147
:103D4000914217D147F6C071626A0140B1EB821F00
:103D500010D1A26A4FF0FF3300F4403103EB52025E
:103D6000B1EB024F06D194F82C1000F07060B0EB6C
:103D7000016F01D00120D1E70020CFE704380240D5
:103D800000004742800E4742007000400000FFFFE5
:103D900070B5040009D0606A002540B125616561F5
:103DA000A56294F8510040B10CE0012070BD60683C
:103DB000B0F5827FF4D0E561F2E784F850502046F8
:103DC00000F044F8022084F851002068016821F0D6
:103DD00040010160A088218900F4827001F404414F
:103DE0000843A18901F400610843217C01F002012C
:103DF0000843217D01F001010843218B01F400718A
:103E00000843217F01F03801084394F8201001F0A5
:103E100080010843218D01F40051084321680860A6
:103E2000A069042101EA104094F8241001F0100167
:103E30000843216848602068C16921F40061C161BC
:103E40006565012084F85100002070BD10B586B072
:103E5000044614216846FCF771FA14492068884228
:103E600021D113480021026842F4801202600068E8
:103E700000F4801005900E481438026842F02002C9
:103E80000260006800F0200005904FF46070009020
:103E90000220CDE90101032003900520049069462A
:103EA0000448FFF787F906B010BD0000005001403C
:103EB00044380240001402402DE9F84F044690F8BF
:103EC000500000270A9E1D4692468B464FF001097E
:103ED00001280ED0012084F85000FFF78FFA8046A9
:103EE00094F85100616801280CD0B1F5827F07D1A8
:103EF00002E00220BDE8F88FA16809B9042801D0CA
:103F00000227C2E0BBF1000F27D0BAF1000F24D086
:103F10001DB394F85100042802D0052084F8510004
:103F200000206065C4F838A0E587A587C4F830B0E4
:103F3000E586A5862064606420680168490603D48C
:103F4000016841F040010160E068B0F5006F606811
:103F500005D0E8B3012D46D07FE0012795E008B1F8
:103F6000012D39D1206B21680088C860206B801C2E
:103F70002063E08E401EE0862EE02068816889077D
:103F80000FD5E18E69B1B9F1010F0AD1216B098812
:103F9000C160206B801C2063E08E401EE0864FF0E5
:103FA000000920688168C9070CD0E18F51B1C06851
:103FB000A16B0880A06B801CA063E08F401EE0878F
:103FC0004FF00109FFF71AFAA0EB0800B04200E039
:103FD00009E001D3701C50D1E08E0028CDD1E08FD4
:103FE0000028CAD13FE0206B216800780873206B5D
:103FF000401C2063E08E401EE0862EE02068816831
:1040000089070FD5E18E69B1B9F1010F0AD1216B92
:1040100009780173206B401C2063E08E401EE0860F
:104020004FF0000920688168C9070CD0E18F51B1B9
:10403000C068A16B0870A06B401CA063E08F401E9D
:10404000E0874FF00109FFF7D9F9A0EB0800B04273
:1040500002D3701C01D010E07EB1E08E0028CDD1DB
:10406000E08F0028CAD142463146204601F0C0FE0A
:1040700028B101272020606507E0032705E0A0683C
:1040800018B92068C16880680090012084F8510048
:10409000002084F8500038462CE770477047000035
:1040A00070B590F83C20012A32D0012480F83C40C1
:1040B000022280F83D2003685A689D6822F070064D
:1040C0000A6832435A60134B02689A4214D0B2F124
:1040D000804F11D0104B9A420ED0104B9A420BD009
:1040E0000F4B9A4208D00F4B9A4205D00E4B9A4282
:1040F00002D00E4B9A4204D1496825F0800319433F
:10410000916080F83D40002180F83C10084670BD69
:10411000022070BD00000140000400400008004083
:10412000000C004000040140004001400018004025
:1041300010B5040003D094F83D0010B107E0012051
:1041400010BD002084F83C00204600F01FF802203B
:1041500084F83D00211D206802F02EF8012084F82B
:10416000460084F83E0084F83F0084F8400084F85C
:10417000410084F8420084F8430084F8440084F845
:10418000450084F83D00002010BD000008B5124A2B
:1041900001681248914207D1016841F002010160B3
:1041A000006800F0020009E00D4A914208D1016860
:1041B00041F020010160006800F02000009008BD7F
:1041C000084A9142FBD1016841F04001016000685A
:1041D00000F04000F2E700000004004040380240D8
:1041E000001400400018004090F83D10012901D053
:1041F00001207047022180F83D100168CA6842F032
:104200000102CA6000681149884214D0B0F1804FA1
:1042100011D00F4988420ED00E4988420BD00E496A
:10422000884208D00D49884205D00D49884202D005
:104230000C49884204D1816801F00701062903D0A6
:10424000016841F001010160002070470000014059
:104250000004004000080040000C00400004014041
:10426000004001400018004070B5044690F83C0042
:104270000025012817D0012684F83C60022084F82C
:104280003D002068826822F0770222F47F4282603B
:104290000868502838D00DDC20284FD005DC90B3BA
:1042A000102811D14AE0022070BD302846D04028A5
:1042B0000AD13BE060282FD070280DD0B0F5805F88
:1042C00003D0B0F5005F12D0012584F83D600020D6
:1042D00084F83C00284670BDCB68D1E901212068F4
:1042E00001F0DBFF2068816841F0770109E0CB68CD
:1042F000D1E90121206801F0D0FF2068816841F4F4
:1043000080418160E1E719E0CA684968206802F0ED
:1043100099F85021206806E0CA684968206802F0D0
:10432000A2F86021206801F0C2FFCEE7CA684968A0
:10433000206802F087F840212068F4E722680146EF
:104340001046F0E7704770B50446006801694FF009
:104350000005C943890715D4C168C943890711D429
:10436000E91E0161012020772068806980072046CE
:1043700002D0FFF7E7FF04E000F0DAF8204600F093
:104380006CF9257720680169C943490717D4C168CA
:10439000C943490713D46FF004010161022020775B
:1043A0002068806910F4407F204602D0FFF7CAFFE2
:1043B00004E000F0BDF8204600F04FF925772068B2
:1043C0000169C943090716D4C168C943090712D452
:1043D0006FF008010161042020772068C069800720
:1043E000204602D0FFF7AEFF04E000F0A1F820461F
:1043F00000F033F9257720680169C943C90617D44D
:10440000C168C943C90613D46FF0100101610820C7
:1044100020772068C06910F4407F204602D0FFF763
:1044200091FF04E000F084F8204600F016F92577AB
:1044300020680169C943C90708D1C168C943C907D0
:1044400004D1891E0161204600F06CF920680169E1
:10445000C943090609D4C168C943090605D46FF0E8
:10446000800101612046FFF718FE20680169C943F9
:10447000490609D4C168C943490605D46FF0400113
:104480000161204600F06CF920680169C943890682
:104490000BD4C168C943890607D46FF020010161BC
:1044A0002046BDE87040FFF7F9BD70BD10B586B07D
:1044B000044614216846FBF741FF2368174C00218E
:1044C00017480222A34210D1036843F0020303609D
:1044D000006800F00200059020200090CDE9012145
:1044E000CDE9031269460F4813E00F4CA34212D1E5
:1044F000036843F080030360006800F080000590CB
:1045000040200090CDE901210920CDE90310694642
:104510000648FEF74FFE06B010BD00000004004044
:10452000303802400004024000180040001C0240E5
:10453000704770B5044690F83C0000260D460128EF
:104540000FD0012084F83C006AB1042A1DD0082A4B
:104550002FD00C2A3FD00126002084F83C003046A2
:1045600070BD022070BD206801F0AAFE206881693C
:1045700041F0080181612068816921F004018161B5
:10458000206881692A69114311E0206801F0C8FEA2
:104590002068816941F4006181612068816921F4AA
:1045A00080618161206881692A6941EA0221816113
:1045B000D2E7206801F0EAFE2068C16941F00801F5
:1045C000C1612068C16921F00401C1612068C1692D
:1045D0002A69114311E0206801F00CFF2068C169CD
:1045E00041F40061C1612068C16921F48061C16149
:1045F0002068C1692A6941EA0221C161ACE710B5AE
:10460000040003D094F83D0010B107E0012010BD74
:10461000002084F83C00204600F01EF8022084F8B8
:104620003D00211D206801F0C7FD012084F84600EF
:1046300084F83E0084F83F0084F8400084F841008C
:1046400084F8420084F8430084F8440084F845006C
:1046500084F83D00002010BD7047704710B5044637
:10466000022249B104290ED0082913D094F8410040
:10467000012816D0012010BD94F83E000128F9D180
:1046800084F83E200FE094F83F000128F2D184F82E
:104690003F2008E094F840000128EBD184F8402046
:1046A00001E084F841200122206801F0E9FD16496B
:1046B0002068164A884201D0904203D1436C43F4EB
:1046C000004343642068884213D0B0F1804F10D07B
:1046D0000F4988420DD00F4988420AD00E498842BE
:1046E00007D0904205D00D49884202D00C4988423B
:1046F00004D1816801F00701062903D0016841F067
:1047000001010160002010BD0000014000040140D3
:104710000004004000080040000C00400040014040
:104720000018004010B5044600680A49884201D1CB
:10473000FEF7A2FF08492068884209D1FEF79CFFD6
:10474000064801684268491C42F10002016042606B
:1047500010BD0000001000400014004028000020A0
:1047600070477047704770B5040004D094F83D005E
:10477000002510B106E0012070BD84F83C502046B1
:1047800000F022F8242084F83D002068C16821F45C
:104790000051C160204602F02BF82068016921F425
:1047A000904101612068416921F02A01416120683E
:1047B000C16841F40051C1602564202084F83D00A7
:1047C00084F83E00002070BD2DE9F04F87B005460B
:1047D00014216846FBF7B2FD9248DFF84482103896
:1047E000D5F800C0DFF83CA2022203210823DFF83D
:1047F00038E20024061587154FF0206BC44559D1C7
:10480000DAF80080A14648F08048CAF80080DAF85B
:1048100000C00CF0804CCDF814C0D0F800C04CF0B3
:10482000100CC0F800C0006800F010000590CDE941
:104830000313C8018DE8150069467046FEF7BAFCFF
:10484000DFF8ECA179495046D84602C0E0E802B44E
:104850004FF4003BE0E8034640F8044C80E8900841
:104860005046CAF82440FEF7CFFB08B1FDF7D9F94E
:104870006F4C6E486034C5F838A03038CAF83850EC
:10488000C4E900084020A060C4E9039604F11801BF
:104890004846C4F8149081E881082046C4F8249062
:1048A000FEF7B2FB08B1FDF7BCF96C63A56307B076
:1048B000BDE8F08FDFF87C81C4451BD1DAF80060D9
:1048C00046F00046CAF80060DAF8005005F00045EE
:1048D0000595056845F010050560006800F01000BA
:1048E00005908DE81600CDE9031369467046FEF782
:1048F00061FCDCE7DFF84081DFF82891C44509F16D
:10490000040944D1D9F800C04CF0100CC9F800C01B
:10491000D9F8003003F010030593036843F0020355
:104920000360006800F002000590C020CDE900029D
:104930000120CDE902010720049069463F48FEF7B7
:1049400039FCDFF8EC803E4908F1C0084046C8F861
:1049500000104FF00061C0E90114C0E90346C8F837
:104960001440C0E90647C8F82040C8F82440FEF7C4
:104970004BFB08B1FDF755F9C5F838800022052139
:104980002520C8F83850FEF70FFF252045E0DFF856
:10499000B480C4458BD1D9F8008048F02008C9F80C
:1049A0000080D9F800C00CF0200CCDF814C0D0F86D
:1049B00000C04CF0400CC0F800C0006800F040009F
:1049C0000590CDE903134FF484408DE81500694646
:1049D0001D48FEF7EFFB1A49DFF870801839404692
:1049E000C8F80010C0E901B4C0E90346C8F8144093
:1049F000C0E90647C8F82040C8F82440FEF704FB89
:104A000008B1FDF70EF9C5F83880002205214720CE
:104A1000C8F83850FEF7C8FE4720FEF7B7FE46E755
:104A200000780040403802400010024058600240C8
:104A300030320020007C00400010014000040240A1
:104A4000406402400014014000180240503300202E
:104A500090F83E30202B0ED159B152B190F83C3035
:104A6000012B08D0012380F83C300023036301F0C0
:104A700045BF01207047022070470000072202490D
:104A80000248FFF7E5BF00003489002020310020F4
:104A90007047000070B5044690F83D00202836D1DC
:104AA00091B38AB394F83C00012830D0012084F8F7
:104AB0003C002162A284E28400252564212084F840
:104AC0003D00636B1348D863636B13481864636BD2
:104AD0001248D864606B134605652668606B321D0A
:104AE000FEF71FFB21686FF04000086084F83C501F
:104AF0002068143050E8001F41F0800140E80012A7
:104B0000002AF5D1002070BDFFE70120FBE702205D
:104B1000F9E700003B6700087D670008556600085C
:104B2000022202490248FFF7B5BF00003B8900207E
:104B3000203100207047FEE710B530216A20FCF7D5
:104B400067F90A20FEF724FB0D212420FCF760F909
:104B50000A20FEF71DFB0E212820FCF759F90A2038
:104B6000FEF716FB8E213120FCF752F90A20FEF7E2
:104B70000FFB01210B2000F09BF80A20FEF708FB39
:104B8000002000F059F8102801D0012010BD0121AB
:104B90000B2000F08DF80A20FEF7FAFA00210A2017
:104BA00000F086F80A2000F047F808B1022010BD96
:104BB0000A20FEF7EDFA00210B2000F079F80B2017
:104BC00000F03AF808B1032010BD0A20FEF7E0FA21
:104BD0002421412000F06CF8412000F02DF8242819
:104BE00001D0042010BD0A20FEF7D2FAC0214220D5
:104BF00000F05EF8422000F01FF8C02801D0052028
:104C000010BD0A20FEF7C4FA00212A20FCF700F9A3
:104C10000A20FEF7BDFA00213420FCF7F9F80A203B
:104C2000FEF7B6FA062203210E20FBF75FFF642091
:104C3000FEF7AEFA002010BDF8B501463220FCF7B1
:104C4000E7F80A20FEF7A4FA80213420FCF7E0F808
:104C50000A20FEF79DFA134E002240213046FEF74F
:104C6000C8FB114CB52037252070621C0123511E52
:104C70000E480095FFF720F9621C0123511E0B48D6
:104C80000095FFF719F9012240213046FEF7B1FBEC
:104C9000647800213420FCF7BBF80A20FEF778FA8C
:104CA0002046F8BD0014024074030020F02F0020BD
:104CB00070B50D46044600212A20FCF7A9F8022011
:104CC000FEF766FA21462920FCF7A2F80220FEF73B
:104CD0005FFA29466420FCF79BF80220FEF758FA99
:104CE00081212A20FCF794F8BDE870400A20FEF7E5
:104CF0004FBA10B5044680EC020A70EE600AD0ED9F
:104D0000031AC0ED041A90ED021A80ED031AC0EDEB
:104D1000020A30EEC10A90ED052A20EE020AB0EE3A
:104D2000002A80ED080A90ED060A20EE200A41EEE6
:104D3000420A80ED090A94ED071A70EEA10A60EEAE
:104D4000810AC4ED0A0AD4ED0D0AB1EE601A01F031
:104D50004CFE84ED090AD4ED080A30EE800AD4ED49
:104D60000A0A30EE200A84ED0B0AD4ED0D0AB1EEEA
:104D7000601AD4ED0C0A01F038FE84ED0B0A10BD68
:104D80002DE9F041B7EE003A2DED048B0446B0EE6C
:104D9000438A9FED4D0AD0ED012AD0ED021AD0EDE5
:104DA000030A72EEE13A9FED491AB3EE032A494A2B
:104DB00040EE813A484B63EE823AC0ED073A72EE1C
:104DC000A13A40EE813A63EE823AC0ED083A71EEC4
:104DD000E23AF1EE622A002072EEE11A40EE813AE8
:104DE00040EE811A9FED3A1A63EE823A61EE820A32
:104DF000C4ED093AC4ED0A0A04EB8001D1ED070ABB
:104E000060EE810AC1ED070A157D3DB1D2ED061AAB
:104E100071EE831A60EEA10AC1ED070AF0EEE00A16
:104E2000F4EEC00AF1EE10FA01DDB0EE600A10EE09
:104E3000101A994203DDDFED290A80EE808A401CBA
:104E40000428D9DB264FDFF89C80DFED278A9FED11
:104E5000279A002504EB850007EB451690ED070A1D
:104E600020EE080A80ED070ABDEEC00A10EE100A17
:104E700000B23082B6F9041000EE101AD8F8001013
:104E8000F8EEC00A00EE100A1948B8EEC00A8847CA
:104E9000BDEEC00AB0EE681AF0EE490A10EE100A34
:104EA00000B200EE100A7083B8EEC00A01F09DFD5A
:104EB000BDEEC00A6D1C042D10EE100A7083C9DB14
:104EC000BDEC048BBDE8F08100000000C3F5A83EF6
:104ED000000048431486002000A00C4600A00C46A9
:104EE000F48400202C030020000080C600008046CF
:104EF0003401002030B5204801780175457801461D
:104F0000457591F9023091F903200C79497925B161
:104F1000012D0BD0022D2BD120E080F8243080F819
:104F2000252080F8264080F8271021E000EE103A76
:104F3000DFED120AB8EEC00A20EE200A80ED060A64
:104F400000EE102AB8EEC00A20EE200A80ED070A13
:104F5000027980F8202080F8211009E0827880F81A
:104F60002820C27880F8292080F82A4080F82B1069
:104F7000817980F82C1030BD34890020CDCCCC3D17
:104F800010B5072205490648FFF762FD03490222D2
:104F9000BDE81040C91D0248FFF77CBD34890020E0
:104FA0002031002005480122017B491C0173427316
:104FB0008273C1710321017270470000348900209F
:104FC0000021017081704170C1700171704781785A
:104FD000491CCAB201218270C170012A02D9017133
:104FE000017001E0027902B10021417070470000B8
:104FF0005D4B00B593F82A00C10703F12C0002D0E5
:10500000FFF7E5FF01E0FFF7DBFF93F82A008107D8
:10501000554800F1310002D5FFF7D9FF01E0FFF755
:10502000CFFF93F82A0041074F4800F1360002D520
:10503000FFF7CDFF01E0FFF7C3FF93F82A00010758
:10504000494800F13B0002D5FFF7C1FF01E0FFF73F
:10505000B7FF93F82A00C106434800F1400002D58B
:10506000FFF7B5FF01E0FFF7ABFF93F82A008106D9
:105070003D4800F1450002D5FFF7A9FF01E0FFF729
:105080009FFF93F82A004106374800F14A0002D5F5
:10509000FFF79DFF01E0FFF793FF93F82A00010659
:1050A000314800F14F0002D5FFF791FF01E0FFF713
:1050B00087FF588DC1052C4800F1540002D5FFF739
:1050C00086FF01E0FFF77CFF588D8105264800F13F
:1050D000590002D5FFF77BFF01E0FFF771FF588D04
:1050E0004105214800F15E0002D5FFF770FF01E0A5
:1050F000FFF766FF588D01051B4800F1630002D5DC
:10510000FFF765FF01E0FFF75BFF588DC10416480C
:1051100000F1680002D5FFF75AFF01E0FFF750FFEA
:10512000588D8104104800F16D0002D5FFF74FFF44
:1051300001E0FFF745FF588D41040B4800F1720074
:1051400002D5FFF744FF01E0FFF73AFF588D010455
:10515000054800F1770003D55DF804EBFFF737BF92
:105160005DF804EBFFF72CBF7883002010B51248E0
:10517000059B41F664149AB2B0F9001052BA41800E
:1051800012B21B0C02805BBA8380531A0146E342C1
:10519000B1F9181001DA491C04E041F66414A34285
:1051A00001DD491E0183B0F9181002EB4131416164
:1051B000818B491C818310BDF485002038B5002106
:1051C00000910449002302468C6819460248A04712
:1051D00038BD00009C2C0020742F0020401EC3B25C
:1051E0001D48DDE9032100EB43100388438093B29F
:1051F0005BBA120C038052BA82808AB252BAC28061
:1052000009140172B0F9022019B2891A41F6641228
:10521000D14202DA018B491C05E041F66412914249
:1052200002DD018B491E0183B0F900109FED0B1ABE
:1052300000EE101AB0F9181000EE901AB8EEC00A7D
:10524000F8EEE00A00EE810ABDEEC00A80ED050A24
:10525000818B491C81837047F48400200000004644
:1052600038B50093034BDC6813460A4601460248F2
:10527000A04738BD9C2C00204C2F002030B512498F
:10528000DDE906321C0C9DB293B2A0F5007042F32A
:10529000074201380DD001280AD168BA088460BAE3
:1052A000888458BAC88481F82820888F401C888751
:1052B00030BD68BA088060BA888058BAC8800A725F
:1052C000888B401C888330BD7485002038B500224F
:1052D0000092044A0023D4680A4601460248A047C7
:1052E00038BD00009C2C0020742F0020104810B501
:1052F0000E4901600321416000214FF410228160BA
:10530000C0E903124FF40012426101760122427695
:105310008276C27601774177FDF76EFC002803D0D4
:10532000BDE81040FCF77DBC10BD000000640040EB
:105330004C2F0020104810B50E4901600321416038
:1053400000214FF410228160C0E903124FF40012D3
:1053500042610176012242768276C27602774177F7
:10536000FDF74AFC002803D0BDE81040FCF759BC0B
:1053700010BD000000680040742F0020194808B5D7
:10538000016841F480010160016801F4800100912D
:10539000016841F4001101600068002200F400106F
:1053A000009005210C20FEF7FFF90C20FEF7EEF926
:1053B000002205210E20FEF7F7F90E20FEF7E6F990
:1053C000002205213920FEF7EFF93920FEF7DEF93A
:1053D000002211463A20FEF7E7F9BDE808403A20DE
:1053E000FEF7D4B93038024030B5344DB7B02AACEE
:1053F00095E80F0084E80F0000212AA803F002F8C6
:105400002F4C10350DF1B80CA06195E80F008CE819
:105410000F0000212EA8103D02F0F4FF2035E061BE
:1054200095E80F0032AD85E80F00002132A802F0A8
:10543000E9FF224920621C2230316846FAF765FFF5
:105440000021684602F0F1FF1C4920601C224C310B
:1054500007A8FAF75AFF002107A802F0E6FF17494C
:1054600060601C2268310EA8FAF74FFF00210EA8D9
:1054700002F0DBFF1149A0601C22843115A8FAF765
:1054800044FF002115A802F0D0FF0C49E0601C2267
:10549000A0311CA8FAF739FF00211CA802F0C5FFB3
:1054A000064920611C22BC3123A8FAF72EFF0021F7
:1054B00023A802F0BAFF606137B030BD3098000811
:1054C00000000020F0B587B014216846FAF736FFD7
:1054D0002D480025016841F010010160016801F0CC
:1054E00010010591016841F002010160016801F0BD
:1054F00002010591016841F040010160016801F07D
:1055000040010591016841F001010160016801F06D
:1055100001010591016841F008010160016801F095
:1055200008010591016841F020010160016801F066
:1055300020010591016841F0800101600068134E6F
:1055400000F080000590012240213046FDF751FF18
:105550000F4F002204213846FDF74BFF0124402065
:10556000CDE9000469463046CDE90245FDF722FE4B
:105570000420CDE9000469463846CDE90245FDF72F
:1055800019FE07B0F0BD00003038024000140240A0
:1055900000040240144810B51249016013494160EB
:1055A00000214FF480428160C0E9031241618161B2
:1055B000C1610162FDF768FF08B1FCF732FB102101
:1055C0000948FDF721FF08B1FCF72BFB0021064835
:1055D000FDF73BFF002803D0BDE81040FCF721BBDE
:1055E00010BD0000005800409C2F0020A086010044
:1055F000104810B50E4901604FF4827141600021DE
:105600008160C1604FF400720161C0E9051230226F
:10561000C0E90721416281620A21C162FEF7B8FB3D
:10562000002803D0BDE81040FCF7FBBA10BD000015
:1056300000500140F02F002010B58CB000240794DA
:10564000089409941C2168460A94FAF777FE1948D1
:10565000174901602A21C0E90114C4600461846112
:10566000FEF766FD08B1FCF7DCFA4FF480500790B6
:1056700007A91048FEF7F8FD08B1FCF7D2FA0D486B
:10568000FEF7BDFF08B1FCF7CCFA6020CDE90004BD
:1056900002940022694607480494FEF74AFF08B1C5
:1056A000FCF7BFFA0348FEF701FF0CB010BD000085
:1056B00000180040D830002010B58EB000240794A8
:1056C000089409940A940B941C2168460C94FAF7E8
:1056D00035FE1E481C49C0E9001441F28731C0E97B
:1056E000024104618461FEF723FD08B1FCF799FAD9
:1056F0004FF48050079007A91448FEF7B5FD08B194
:10570000FCF78FFA1148FEF77AFF08B1FCF789FA27
:105710000B940BA90D480C94FEF7C2FC08B1FCF7E2
:1057200080FA6020CDE9000402940422694607480B
:105730000494FEF7FEFE08B1FCF773FA0348FEF787
:10574000B5FE0EB010BD000000040040483000203F
:105750001CB500240E4800940C49019401605421AA
:10576000C0E9011432218461C160FEF7E1FC08B197
:10577000FCF757FA0094694605480194FEF790FC3F
:10578000002801D0FCF74DFA1CBD000000140040B9
:10579000903000200C4810B50A4901604FF4E13107
:1057A0004160002181600C22C160C0E90412816166
:1057B000C161FEF7D8FF002803D0BDE81040FCF718
:1057C00030BA10BD00780040203100200C4810B5E0
:1057D0000A4901604FF4E1314160002181600C22EF
:1057E000C160C0E904128161C161FEF7BCFF0028FD
:1057F00003D0BDE81040FCF714BA10BD007C004097
:10580000643100200C4810B50A4901600B49416021
:10581000002181600C22C160C0E904128161C16174
:10582000FEF7A1FF002803D0BDE81040FCF7F9B94E
:1058300010BD000000100140A8310020A08601002A
:105840000C4810B50A4901604FF4E1314160002174
:1058500081600C22C160C0E904128161C161FEF760
:1058600082FF002803D0BDE81040FCF7DAB910BD74
:1058700000140140EC310020FEE7FEE710B50446BD
:1058800080EC020A70EE600A90ED021A80ED031AB5
:10589000C0ED020A90ED050A20EE200A80ED080A0C
:1058A00090ED090AD0ED061A01EEA00A70EEC10AC9
:1058B00080ED090A90ED071A60EE810AC4ED0A0A2C
:1058C000D4ED0D0AB1EE601A01F08FF884ED090AEB
:1058D000D4ED080A30EE800AD4ED0A0A30EE200A30
:1058E00084ED0B0AD4ED0C0AB1EE601A01F07DF8DC
:1058F00084ED0B0A10BDD0ED000AB6EE001A70EE72
:10590000C10AC0ED000AF4EEC00AF1EE10FA01D3AC
:10591000B0EE600A80ED000A002101717047F0EEE0
:10592000400A90ED000AB6EE001A30EE010A80ED52
:10593000000AB4EEE00AF1EE10FA01DDB0EE600A02
:1059400080ED000AB4EE600AF1EE10FA01D10121F7
:10595000017170472DE9F047DFF8DC910646A9F5A3
:10596000C0770025DFF8D48107F5007ADEE07C19E6
:10597000A078A5287AD1B4F8071040F20222A1F24B
:105980000220914274D013DC40F20110A1F2011206
:10599000814244D006DC012912D0022924D00329F7
:1059A00064D12CE0032A46D0B2F5807F5ED14EE070
:1059B00008285BD2DFE800F0B96877B9818C9EAD2A
:1059C000A01CD8F810201421904700284ED048463B
:1059D00054F8091F40F8071F61684160218901815F
:1059E000A17A81721435A1E0A01CD8F810200A21F8
:1059F000904700283AD0617A89F8131066E0A01C1D
:105A0000D8F810202921904700282FD04A4804F1C7
:105A1000090120221430FAF778FC293586E0A01C11
:105A2000D8F810200D21904700287ED0D4F8091016
:105A3000C9F8381077E0A01CD8F810200B21904747
:105A4000A0B1B4F80910A9F83C100B356EE0A01C09
:105A5000D8F810202421904740B1374804F10901BB
:105A60001B223E30FAF751FC24355FE041E0FFE7AE
:105A7000A01CD8F8102019219047D0B32E4810222E
:105A800004F1090158300AE0A01CD8F810201921AF
:105A9000904770B3284804F1090110226830FAF7E2
:105AA00034FC193542E0A01CD8F810200A21904798
:105AB000F8B1617A89F8781008E0A01CD8F81020B5
:105AC0000A219047A8B1617A89F879100A352DE04A
:105AD000A01CD8F810201021904750B1484654F827
